:020000041008E2
:1000000000000828E99B081095A80810E9A5081029
:1000100099A808109DA80810A1A8081000000000C9
:100020000000000000000000000000009DA6081075
:10003000A5A8081000000000A9A80810ADA8081085
:10004000D3910810F99108101F92081045920810DA
:100050006B92081091920810B7920810DD92081068
:10006000B1A80810B5A80810B9A80810BDA80810B4
:10007000C1A80810C5A80810C9A80810CDA8081064
:1000800040F0200070472DE9F14FB0B09246049146
:100090000DF142013A9A2B9199464A7000200AE0EC
:1000A0001AF8011B0498309A90470028049000F039
:1000B00034860D98401C0D909AF8000050B1252808
:1000C000EED1002100220791089209910A920B912A
:1000D0000C9204E00D9800F022BE41F001011AF8E4
:1000E000010F2028F9D023280CD02B2804D02D284C
:1000F00005D0302809D00BE041F00201EFE741F0D4
:100100000401ECE741F00801E9E741F01001E6E7FE
:100110002A280FD1D9F8002052F8040BC9F8002082
:1001200000280F9003D540420F9041F004010AF1DE
:10013000010A14E00F92DFF8EC3B0AE00F989842B6
:1001400005DA00EB800402EB4402303A0F920AF128
:10015000010A9AF80020A2F130000A28EED39AF89A
:1001600000002E2803D04FF0FF320E9229E01AF83B
:10017000010F2A2809D1D9F8000050F8042BC9F83A
:1001800000000E920AF1010A1BE02D280CBF0AF1B3
:10019000010A002000220E92DFF8884B0BE040B9E4
:1001A0000E9AA24205DA02EB820503EB4503303BCF
:1001B0000E930AF1010A9AF80030A3F130020A2ADC
:1001C000EDD3ADF840100FF660309AF8001000F053
:1001D000EDFE08B11AF8010B8DF842009DF84200BF
:1001E000682805D19AF8000068280CD1622106E041
:1001F0006C2804BF9AF800006C2804D171218DF896
:1002000042100AF1010A12A806901AF801BBBBF1CC
:1002100025012CD01C3900F09481091F022940F2DD
:100220009081133900F0AB84093900F08A81891E6E
:1002300000F04085491E00F0ED84491E022940F27D
:100240008081091F00F0E684491F00F0EF80491EFD
:1002500000F09584491E00F0D780C91E0CD0891E7D
:1002600000F08D84C91E00F08A8400F02EBD0123A9
:100270000793252100F026BDD9F8000050F8044B63
:10028000C9F80000002C059440F0AB802B99487809
:10029000002800F0A1804FF0FF340FF6942000F00A
:1002A00095FE241A40F0398500F01BBD01236A46F3
:1002B00002A9304600F000FE002840F02E85641EA2
:1002C000F4D13096079C12AF74B1309E17F8011B21
:1002D0000498B0470028049000F01F850D98401C3A
:1002E000641E0D90F2D130960A9C3021002C8DF8BE
:1002F00000100CDD309E01236A4602A9304600F052
:10030000DBFD002840F00985641EF4D13096059F7E
:10031000089C74B1309E17F8011B0498B047002860
:10032000049000F0FA840D98401C641E0D90F2D1E8
:1003300030960B9C3021002C8DF800100CDD309E87
:1003400001236A4602A9304600F0B6FD002840F0BD
:10035000E484641EF4D1309605980899099C4718E6
:1003600074B1309E17F8011B0498B0470028049020
:1003700000F0D3840D98401C641E0D90F2D130968D
:100380000C9C3021002C8DF800100CDD309E0123D8
:100390006A4602A9304600F08FFD002840F0BD8477
:1003A000641EF4D130969DF8400041077FF584AE7D
:1003B0002020002D8DF800007FF77EAE309C0123B9
:1003C0006A4602A9204600F077FD002840F0A58487
:1003D0006D1EF4D130946FE60FF63C30059000F0BE
:1003E00080BC0E9D002D04D5204600F00FFE044673
:1003F00007E02A46204600F025FE002814BF041B13
:100400002C46089400F06DBCD9F8001051F8040B8C
:10041000C9F8001020F00004002121F0FF35CDE9DB
:10042000024512AB0593782100F040BC2B99487827
:1004300020B14FF0FF340FF6B02030E79DF84200B6
:10044000622860D0682817D06A283FD06C2806D070
:10045000712847D074282CD07A281DD062E0D9F8B2
:10046000001051F8040BC9F80010002866D14FF0B5
:10047000FF340FF68C2012E7D9F8001051F8040B66
:10048000C9F8001020B94FF0FF340FF6742006E7CA
:100490000D99018000F025BCD9F8001051F8040B2B
:1004A000C9F80010002849D14FF0FF340FF6502052
:1004B000F5E6D9F8001051F8040BC9F8001000282F
:1004C0003CD14FF0FF340FF63820E8E6D9F80010A1
:1004D00051F8040BC9F8001080B94FF0FF340FF643
:1004E0002020DCE6D9F8001051F8040BC9F8001000
:1004F00020B94FF0FF340FF60820D0E60D9AD3173D
:10050000C0E90023EDE3D9F8001051F8040BC9F855
:10051000001020B94FF0FF340FF6E410BFE60D993C
:100520000170DEE3D9F8001051F8040BC9F800108F
:1005300020B94FF0FF340FF6C810B0E60D990160F6
:10054000CFE39DF842004C2807BFD9F80010CA1D20
:10055000D9F80000C21D22F00702C9F80020D2E934
:1005600000010832C9F80020CDE90201C80F02D00D
:1005700007982D210AE0BDF84000810702D50798B1
:100580002B2103E0C00705D50798202112AA11549A
:10059000401C079012A807994BF0200300EB010CB8
:1005A000DDE90201CDE92C01612BCDF814C021ACAD
:1005B0000BD00E98002848BF062105D404BF4BF08D
:1005C0002000672801D101210E91DDE902014F00D1
:1005D00047EAD0777E15FF174FF0FF32974208BFEA
:1005E000964210D1090341EA10510003002908BFC7
:1005F000002808D0ABF1610503211A2D089118D30A
:100600000FF61C1110E0DDE902014A00521512F14B
:10061000010F11D108030FD1ABF1610503211A2D90
:1006200008911FD30FF600110322604600F036FD3B
:1006300057E30FF6E801F7E7DDE902016A4600F04B
:1006400081FDCDE902014BF02000612811D1059810
:1006500030210170821C0592BBF1610F0CBF782123
:10066000582102E00FF6BC01DEE741700798801CBC
:100670000790DDE9020120F0000231F0004308BFDD
:10068000002A02D10026002542E14BF02008B8F1F3
:10069000610F40F092800E98002847BF2121019100
:1006A000401C0190019FDDE92C017F1C00220023EA
:1006B000DDE9024500F07EFD38BF85F00045009978
:1006C0008DF88420091F002F00910DF1850632DD81
:1006D000204629460022002300F086FD2BD21C2252
:1006E00000F09CFD04460D4600F01AFEFF1F002F8F
:1006F000804609DD00F01BFE02460B4620462946D7
:1007000000F01CFE04460D46F01D0721B8F1000F55
:100710000CDD491E5EBF08F00F0200F8012D4FEA04
:100720002818F3D502E0002200F8012D491EFAD561
:10073000C61D002FCCDC0DF18500361A01980DF195
:1007400085048642D8BF304600282FD4B04206DA4E
:100750000DF185010A5C082AA8BF0F2100DA0021EB
:10076000024621AB134400E0401E13F80159521E0B
:100770008D42F9D00F2904D10DF185018B5C5B1CF2
:100780008B54002A04D50099091D21AC401C00910E
:10079000411E0BD4621813783033DDB23A2DA4BF5A
:1007A0005B443A3B491E02F80139F4D50E99002901
:1007B00040F1AC80421E0E92A8E00099DFF8E826D6
:1007C00047F29750414391FBF2F20092DDE92C454C
:1007D000C2F10702002A25F0004504DD2046294623
:1007E00000F03EFB0BE052420020DFF8C01600F0A4
:1007F00037FB02460B462046294600F0A8FD04467A
:100800000D46B8F1660F06BF009F0A3706270E98FF
:100810003F18142FC8BF142730208DF884000DF125
:100820008506002F34DD2046294600F099FD01465B
:100830000A4606F1080304200A26B2FBF6F606EB88
:10084000860EA2EB4E02303203F8012C0A22B6FBD0
:10085000F2F202EB820EA6EB4E063036401E03F893
:10086000026DE9D1083F002F03F10806D9DD0846E3
:1008700000F07DFD02460B462046294600F05EFD55
:100880000022DFF82C3600F079FD04460D46CAE759
:100890000DF18500361A0DF1850404E00098401E24
:1008A000761E0090641C20783028F7D0B8F1660FCF
:1008B00002D10098401C04E0B8F1650F0CBF012084
:1008C00000200E9940188642B8BF701E00281DD423
:1008D000B04204DA215C3429C8BF392100DC302160
:1008E0000246631E9D1800E0401E15F80169521E65
:1008F0008E42F9D0392902D1A15C491CA154002AA9
:1009000004D50099491C1C46401C00910646009DD8
:100910000E9F30B2002802DC01260FF210644BF06B
:100920002000662808BF6D1C15D067280FFA85F8CF
:1009300041D118F1040F44DBB84542DA9DF840007C
:100940006D1C010703D430B2B842D8BF074628B2A5
:100950003F1A48BF00270FFA85F8B8F1000F00F3DF
:10096000AF800898411C0891302205990A54002F45
:1009700003DC9DF84000010705D50898411C08914B
:100980002E2205990A5417EB080FB8BF7D422DB2ED
:100990006842ED1932B20B909542B8BF2E46059BC6
:1009A000089836B2099632462146184400F076FB84
:1009B000AD1B0C95CCE0BBF1610F15D14FF0700B66
:1009C00017E030B2B84204DA9DF840100A0758BF69
:1009D00007467F1E48BF0027BBF1670F14BF4FF0CB
:1009E000450B4FF0650B04E0BBF1410F08BF4FF022
:1009F000500B0898411C0891002F059914F8012B01
:100A00000A5403DC9DF84000010719D50898411CE1
:100A100008912E2205990A54002F11DD761E30B25E
:100A20008742B8BF3E460598089B32B2214618441B
:100A300000F034FB089836B23018BF1B08900B97B3
:100A4000059808990844B8F1000F80F800B003D465
:100A50002B224270821C04E02D2145464170821CED
:100A60006D4200212CAB28460AE004460A2094FB84
:100A7000F0F000EB8005A4EB450403F8014B491CA2
:100A800000B20028F1DC012906DC4BF020006528CB
:100A900004BF302002F8010B00292CAB08D1302014
:100AA00002F8010B06E0491E585C303002F8010BD9
:100AB0000029F8DC059908980844121A099247E0C1
:100AC00030B229B288421BDA0598089B32B221461F
:100AD000184400F0E3FA089936B271180891A8EBAF
:100AE0000600002F0B9003DC9DF84000020705D59F
:100AF000059A2E2050540999491C09910C9727E01A
:100B00000598089B2AB22146184400F0C7FA0898B5
:100B1000761B4044002F089003DC9DF840100A0724
:100B200004D5411C08912E2205990A5430B28742FF
:100B3000B8BF3E460598089B32B204EB0801184442
:100B400000F0ACFA089836B23018BE1B08900B962D
:100B50009DF8400000F01400102840F0C280079A71
:100B600008980B99821809988A1882180C980F997E
:100B70008018884280F2B580081A0A90B1E09DF88A
:100B80004200622808D068280ED06A2814D06C2849
:100B90001FD0712810D01CE0D9F8001051F8040BB8
:100BA000C9F80010C0B21AE0D9F8001051F8040BCF
:100BB000C9F8001080B212E0D9F80000C21D22F07E
:100BC0000702C9F80020D2E900010832C9F8002064
:100BD00006E0D9F8001051F8040BC9F80010002104
:100BE000CDE902019DF8400001075AD5DDE9022355
:100BF000002B08BF002A54D04BF02000782850D199
:100C0000079812A930220A54401C431C079301F88C
:100C100000B046E09DF84200622808D068280ED057
:100C20006A2814D06C281FD0712810D01CE0D9F885
:100C3000001051F8040BC9F8001040B21AE0D9F8BE
:100C4000001051F8040BC9F8001000B212E0D9F8F6
:100C50000000C21D22F00702C9F80020D2E90001FD
:100C60000832C9F8002006E0D9F8001051F8040B4A
:100C7000C9F80010C117CDE90201002902D5079873
:100C80002D210AE0BDF84000810702D507982B21ED
:100C900003E0C00705D50798202112AA1154401C73
:100CA000079012A8079901440591594602A800F03F
:100CB0004DF816E001200790D9F8000050F8041B09
:100CC000C9F800008DF848100BE001212522BBF186
:100CD000000F07918DF8482003D0022207928DF86B
:100CE00049B00F9D07990A986D1A08992D1A0B980B
:100CF0006D1A09992D1A0C986D1A9DF840102D1A2D
:100D000048073FF5DFAA2021002D8DF800107FF75E
:100D1000D9AA309E2C46FFF7C9BA4FF0FF3031B048
:100D2000BDE8F08FCBCCCC0C686A6C747A4C0000B8
:100D30007072696E74665F733A2062616420257315
:100D400020617267756D656E740000002DE9FC47C7
:100D500007468A463C6950466F2808BF082505D0DB
:100D6000FFF78EF9782814BF0A251025D7E900016E
:100D70003C2680468946BAF1640F18BFBAF1690F64
:100D800005D1002903D5D8F1000869EB4909B9F16B
:100D9000000F08BFB8F1000F0CD1386B50B9082D07
:100DA0003AD197F83800010736D530223B2684F82F
:100DB0003B2031E08DF800A0404649462A46EB171B
:100DC00000F0E6FA3032D0B2761E3A2801960EDAFA
:100DD000A255404649462A46EB1700F0D9FA80460C
:100DE0005FEA010908BFB8F1000F05D108E09DF8DE
:100DF00000001218513AEBE7F868A1198842DBD3DA
:100E0000082D09D197F83800010705D5A05D3028D5
:100E100002D0761E3020A055C6F13C03BB61A1195B
:100E2000F960386B834208DAC31A3B624FF6EF7001
:100E3000398F01403987BDE8F38700280ED597F830
:100E4000380000F01400102808D17A6B7969386AEC
:100E5000521A121AD21A002AC8BF3A62BDE8F387A2
:100E60002DE9D04306460F4614464FF00008DFF840
:100E7000449012E0E00707D542464B4630463946DB
:100E800000F07CFA06460F464046494642464B462D
:100E900000F074FA641080468946002CEAD130468E
:100EA0003946BDE8D0830000A08601000000F03F75
:100EB00084D7974100002440F8B505460E461746F2
:100EC0001C4600205CB117F8011BB068A847B06051
:100ED00030B1F06A401CF0620020641EF3D1F2BD14
:100EE0004FF0FF30F2BD00007072696E74665F7380
:100EF0003A20256E20646973616C6C6F77656400BD
:100F00007072696E74663A2062616420256E206199
:100F10007267756D656E7400000000006E616E0092
:100F20004E414E00696E6600494E46003000F0B4F6
:100F30000246106895681318506803EB5004C00708
:100F400048BF4D44A3422DD013F8016B16F00300A7
:100F500004BF13F8010BC01C31090F2907D113F886
:100F6000011B0F3103E013F8017B05F8017B401EE4
:100F7000F9D10029E6D013F8010BC6F38106032E40
:100F800008BF13F8016B00EB0620404228440026FE
:100F9000B71E8F421EBF10F8017B05F8017B761C3F
:100FA000F6D1CFE7F0BC02F10C007047C9B202786D
:100FB0008A421AB11CBF10F8012FF9E718BF0020B0
:100FC00070470268531C03601170704780B500B908
:100FD00006A005490B681BB122220021984701E0B9
:100FE00000F0EEFA222002BD34280328636F6E73EE
:100FF000747261696E742068616E646C65723A2007
:10100000626164206D6573736167650000F10103BF
:10101000810704D010F8011B820781B1FAD1026860
:10102000A2F10131914311F0803104BF50F8042F37
:10103000F6E709BAB1FA81F100EBD100401CC01A01
:1010400070470000C9B2830706D0521E22D310F8A1
:10105000013B9942F7D11FE0083A13D302F1040291
:1010600041EA012141EA014150F8043B121F21BF2E
:101070004B40A3F1013C2CEA030C1CF0803FF3D061
:10108000C9B2001F083210F8013B521E28BF91EA76
:10109000030FF8D818BF0120401E704762B38B07BA
:1010A00008D0521E11F8013B00F8013B00F02480EB
:1010B0008B07F6D1830740F0208000BF103A07D39A
:1010C00030B4B1E83810103AA0E83810F9D230BC8A
:1010D000530724BFB1E80810A0E8081044BF51F836
:1010E000043B40F8043BD20724BF31F8022B20F820
:1010F000022B44BF0B7803707047121F17D35B009D
:1011000009D151F8043B20F8023B1B0C121F20F8B8
:10111000023BF6D20BE051F8043B00F8013B1B0AFE
:1011200020F8023B1B0C121F00F8013BF3D238BF22
:10113000121D521E24BF11F8013B00F8013BF8D8E4
:101140007047000010B5144600F002F8226010BD90
:10115000C1F30A5343B14A0012F5001F28D2A3F28B
:10116000FE32A1EB0251704750EA410C20D001F051
:10117000004C31EA0C01B1FA81F204BFB0FA80F3FD
:10118000D2180B3AB2F120032CBF00FA03F19140C0
:1011900041EA0C013EBFC2F1200C20FA0CF31943C6
:1011A0009040524240F2FD33D21A01EB0351704796
:1011B0000022704741EA030C50EA4C0C52EA0C0C36
:1011C0004FF4001C09D307D01CEB410F9CBF1CEB54
:1011D000430F8B4208BF824270471CEB430FFBD882
:1011E000994208BF9042704741EA030C50EA4C0C08
:1011F00052EA0C0C4FF4001C09D307D01CEB410F32
:101200009CBF1CEB430F994208BF904270471CEBF8
:10121000410FFBD88B4208BF8242704700B541ECBA
:10122000100B104600F004F851EC100B00BD00BF8D
:10123000020030EE101B40F2FF7C37D41CEA115341
:1012400013D063456BD09B18634504D201EB025168
:1012500020EE101B704701F0004141EA0C510020C4
:1012600041EC100BAFF30080704710EE100B50EA0A
:10127000410054D0B2F57F7F08D202EB5C01090532
:10128000002041EC110B20EE010B70474FF0FE41A6
:10129000002341EC113B20EE010BB2F57E7230EEE3
:1012A000101B4FEA410342EB5353CDE752421CEA75
:1012B000115316D0634532D09A4204D2A1EB0251A9
:1012C00020EE101B70475B1ED21AA1EB035120EEDB
:1012D000101B372A0CD3002001F0004141EC100B09
:1012E000C0E710EE100B50EA410018D0372AF2D2B6
:1012F000C2EB5C021105002041EC110BF1EE100A6B
:1013000020F01F0121F4F851E1EE101A20EE010B3C
:10131000F1EE101AE1EE100A11F0080FA2D1704799
:1013200041EC100BBDEEC00B10EE100A704700EE42
:10133000100AB8EEC00B51EC100B704741EC100BCB
:1013400043EC112B30EE410B51EC100B704741EC8C
:10135000100B43EC112B80EE010B51EC100B70477E
:1013600041EC100BBCEEC00B10EE100A704700EE03
:10137000100AB8EE400B51EC100B704741EC100B0B
:1013800043EC112B20EE010B51EC100B70470000C9
:10139000BBBBE1B1B2F5803F80F07E80022A1ED94E
:1013A0008C46B1FBF2F102FB11C31B0443EA10436C
:1013B000B3FBF2FC02FB1C3380B240EA0343B3FBF5
:1013C000F2F002FB103240EA0C4000237047022A80
:1013D00005D98446B0FBF2F002FB10C270474AB157
:1013E00005D100F0010249085FEA30007047002291
:1013F0000023704700F0E8B80B0002000021002035
:101400007047904271EB030CF6D3B3F5803F2FD2B7
:10141000F0B5B3FA83F7B1FA81F4A7F10F0E3D1BD3
:101420005340CEF1200602FA0EF2F3415340B5F1DB
:101430000F0746D80F3C2C444140C4F12006A04081
:10144000F1414140B1FBF3F603FB1611A2FB064547
:10145000001BA94102D2761E8018594180EA010280
:1014600021FA0EF362FA0EF200215A403046F0BD26
:1014700030B4B1FBF3FC03FB1C11A2FB0C45001BB9
:10148000A94103D2ACF1010C8018594130BC02468D
:101490000B46604600217047B2F1807F65D3F0B5FE
:1014A000B2FA82F7B1FA81F4C7F10F063D1B22FAB6
:1014B00006F307F1110EF24120355A40B5F10F073E
:1014C000B8D94140C4F12006A040F1414140B1FBF0
:1014D000F3FC03FB1C11A2FB0C45001BA94103D22A
:1014E000BCF1010C801859410F2F12D30F3FC903D3
:1014F00041EA5041B1FBF3F603FB1611A2FB06458E
:10150000D4EBC030A94102D2761E8018594146EA78
:10151000CC3C07B34140C7F12006B840F1414140FF
:10152000B1FBF3F603FB1611A2FB0645001BA94114
:1015300002D2761E8018594180EA010221FA0EF388
:10154000C7F1200462FA0EF20CFA07F05A402CFAA6
:1015500004F13043F0BD80EA010221FA0EF30021CC
:1015600062FA0EF260465A40F0BD8C46B1FBF2F1D1
:1015700002FB11C31B0243EA1063B3FBF2FC02FB44
:101580001C331B024CEA002043EA1063B3FBF2FC5D
:1015900002FB1C331B024CEA002043EA1063B3FB3E
:1015A000F2FC02FB1C331B024CEA002043EA1063EE
:1015B000B3FBF2FC02FB1C324CEA00200023704714
:1015C000012000F003B800007047000080B5AFF3C1
:1015D0000080024A11001820ABBEFBE72600020083
:1015E000D0F80803C005C00D704710F541710A68B6
:1015F00052F480320A6010F541710A6832F4803288
:101600000A60D0F804037047C0F840127047D0F861
:101610000802C005C00D7047D0F80802C0F3C03002
:10162000704738B505002800FFF7F1FF04002800D7
:10163000FFF7F2FF0419002C01D1012000E0002087
:10164000C0B232BD0068C0F38130002801D18020D3
:1016500000E040207047016851F000410160704790
:101660002030026861F39B620260704780B5FFF72B
:10167000B7FF02BD80B5FFF7B8FF01BD022801D357
:10168000012010E00B00DBB2042B01DB01200AE09B
:10169000DFF8D43503EB8000C9B2405C824201D34D
:1016A000012000E000207047F8B504000F0015008D
:1016B0001E00022C01D301202AE02A003900C9B201
:1016C0002000FFF7DBFF012801D1012020E0069870
:1016D0003900C9B202291ED1B6F5803F19D220289F
:1016E00017D24FF4C052DFF8841563030B4403EBA9
:1016F000850313441F6866F317271F6064032144A2
:1017000001EB850111440A6860F3C7020A600020FA
:10171000F2BD0120FCE7FFB2032F1FD1B6F1807F9D
:101720001AD2202818D24FF4E052DFF84015630394
:101730000B4403EB850313441F6807F0FF0757EAC8
:1017400006271F606403214401EB850111440A68E8
:1017500060F3C7020A60DAE70120D9E70120D7E782
:1017600000B20012C0B27047F8B505000E001700B5
:10177000280000B2FFF7F4FF04002000C0B20228E6
:1017800001D3012024E03A003100C9B22000C0B2E8
:10179000FFF774FF012801D1012019E0DFF8CC1414
:1017A0002000C0B2400308442A00D2B200EB8200FD
:1017B000D0F8000CF6B266F3092067F30700E4B234
:1017C00064032144EDB201EB8501C1F8000C002057
:1017D000F2BD70B504000D001600022C01D30120EB
:1017E0001DE032002900C9B22000FFF747FF0128A1
:1017F00001D1012013E0DFF874146003085850F0A1
:10180000004050F0407050F47F00EDB265F30920C5
:1018100066F307006203885064030859002070BD16
:101820000100C020C9B2002905D0022907D004D385
:10183000032906D006E0122004E0622002E07A20AC
:1018400000E01A20C0B270470100C020C9B20029D0
:1018500005D0022907D004D3032906D006E01120C1
:1018600004E0612002E0792000E01920C0B2704756
:101870000100C020C9B2002905D0022907D004D335
:10188000032906D006E0102004E0602002E0782062
:1018900000E01820C0B270470100C020C9B2002982
:1018A0000BD002290DD00AD304290ED00BD3062960
:1018B0000FD00CD307290ED00EE013200CE014201B
:1018C0000AE0632008E0642006E07B2004E0292091
:1018D00002E01B2000E01C20C0B270470100002085
:1018E000C9B2002905D0022907D004D3032906D0A4
:1018F00006E0132004E0132002E0132000E0132090
:10190000C0B2704701000020C9B2002905D00229E9
:1019100007D004D3032906D006E0132004E01320E7
:1019200002E0132000E01320C0B270470100002045
:10193000C9B2002905D0022907D004D3032906D053
:1019400006E0132004E0132002E0132000E013203F
:10195000C0B2704701000020C9B200290BD0022993
:101960000DD00AD304290ED00BD306290FD00CD3E7
:1019700007290ED00EE013200CE013200AE01320FC
:1019800008E0132006E0132004E0132002E01320F7
:1019900000E01320C0B27047C9B2082902D0102954
:1019A00046D096E0DFF8B4140200D2B251F82220FB
:1019B000126832F440420300DBB251F823301A605F
:1019C0000200D2B251F82220D2F80022520952016C
:1019D0000300DBB251F82330C3F800220200D2B278
:1019E00051F82220D2F8002252F007020300DBB2A5
:1019F00051F82330C3F800220200D2B251F822205D
:101A0000D2F80023520952010300DBB251F823300F
:101A1000C3F800230200D2B251F82220D2F80023EA
:101A200052F00702C0B251F82000C0F8002350E085
:101A3000DFF828140200D2B251F82220126832F4E2
:101A400040420300DBB251F823301A600200D2B2E8
:101A500051F82220126852F480420300DBB251F8A0
:101A600023301A600200D2B251F82220D2F80022AC
:101A7000520952010300DBB251F82330C3F80022AF
:101A80000200D2B251F82220D2F8002252F00F0206
:101A90000300DBB251F82330C3F800220200D2B2B7
:101AA00051F82220D2F80023520952010300DBB280
:101AB00051F82330C3F800230200D2B251F822209B
:101AC000D2F8002352F00F02C0B251F82000C0F843
:101AD000002370472DE9F84307000D00140008218A
:101AE0003800C0B2FFF758FFDFF874633800C0B2A7
:101AF000305C08280FD03800C0B2305CC010DFF86E
:101B0000641311EBC01101203A00D2B2B25C12F0A2
:101B1000070290400860DFF8448329783800C0B29B
:101B200058F82000FFF770FD6D1C3800C0B258F85F
:101B30002000FFF787FD81463800C0B258F820002A
:101B4000FFF765FD8145F0D0641E002CE3D138001D
:101B5000C0B258F82000FFF764FD0028F7D0380025
:101B6000C0B2305C08280ED03800C0B2305CC01063
:101B7000DFF8F41211EBC0110120FFB2F25D12F098
:101B8000070290400860BDE8F1832DE9F0410400B0
:101B90000F00160008212000C0B2FFF7FDFEDFF89D
:101BA000C0522000C0B2285C08280FD02000C0B26C
:101BB000285CC010DFF8AC1211EBC011012022002C
:101BC000D2B2AA5C12F0070290400860DFF88C8263
:101BD000FFB239002000C0B258F82000FFF714FD12
:101BE0002000C0B258F82000FFF72CFD07002000AD
:101BF000C0B258F82000FFF70AFD8742F0D0F6B2D5
:101C000031002000C0B258F82000FFF7FDFC200092
:101C1000C0B258F82000FFF715FD06002000C0B242
:101C200058F82000FFF7F3FC8642F0D02000C0B245
:101C300058F82000FFF7F5FC0028F7D02000C0B2CC
:101C4000285C08280ED02000C0B2285CC010DFF845
:101C5000181211EBC0110120E4B22A5D12F0070244
:101C600090400860BDE8F081E8A70810000004403B
:101C7000F8B504000D00002008212000C0B2FFF7D5
:101C80008BFE774E2000C0B2305C08280ED02000BA
:101C9000C0B2305CC010734911EBC01101202200AA
:101CA000D2B2B25C12F00702904008606B4F200085
:101CB000C0B257F82000FFF7D9FC002805D020005B
:101CC000C0B257F82000FFF7D5FCEDB22900200084
:101CD000C0B257F82000FFF797FC2000C0B257F8B9
:101CE0002000FFF7C3FC0028F7D02000C0B257F84F
:101CF0002000FFF7BFFC00212000C0B257F82000F1
:101D0000FFF782FC2000C0B257F82000FFF789FCE3
:101D10000028F7D02000C0B257F82000FFF7A6FC3B
:101D20000028F7D02000C0B257F82000D0F84003B8
:101D30002100C9B2715C08290DD02100C9B2715CC3
:101D4000C910494A12EBC1120121E4B2335D13F00C
:101D5000070399401160C0B2F2BD2DE9F8438046F7
:101D60000D0016001C0008214046C0B2FFF714FE0B
:101D70003B4F4046C0B2385C08280ED04046C0B247
:101D8000385CC010374911EBC01101204246D2B275
:101D9000BA5C12F0070290400860DFF8C09040463D
:101DA000C0B259F82000FFF761FC002805D040467A
:101DB000C0B259F82000FFF75DFCEDB229004046A3
:101DC000C0B259F82000FFF71FFC4046C0B259F8D6
:101DD0002000FFF74BFC0028F7D04046C0B259F86E
:101DE0002000FFF747FC00214046C0B259F8200010
:101DF000FFF70AFC4046C0B259F82000FFF711FC7B
:101E00000028F7D04046C0B259F82000FFF72EFC5A
:101E10000028F7D04046C0B259F82000D0F840035F
:101E20003070761C641E002CDDD14046C0B2385C98
:101E300008280FD04046C0B2385CC0100A4911EBE8
:101E4000C01101205FFA88F817F8082012F0070285
:101E500090400860BDE8F1830000000024C0022823
:101E60001C28032804003140080031402DE9F843C4
:101E700080460D0016001C0008214046C0B2FFF746
:101E80008BFDDFF874734046C0B2385C08280FD071
:101E90004046C0B2385CC010DFF8601311EBC011CF
:101EA00001204246D2B2BA5C12F0070290400860AC
:101EB000DFF84C934046C0B259F82000FFF7D6FB3C
:101EC000002805D04046C0B259F82000FFF7D2FBE9
:101ED00029784046C0B259F82000FFF795FB6D1CE9
:101EE0004046C0B259F82000FFF79BFB0028F7D00E
:101EF0004046C0B259F82000FFF7B8FB0028F7D0E1
:101F00004046C0B259F82000D0F840033070761C2B
:101F1000641E002CDCD14046C0B2385C082810D0CA
:101F20004046C0B2385CC010DFF8D81211EBC011C7
:101F300001205FFA88F817F8082012F00702904095
:101F40000860BDE8F1832DE9F84F2DED028B9EB0BE
:101F500006000F009946042080B202FB00F2AA4856
:101F6000B0FBF2F8A84802FB180000EE100AB8EE29
:101F7000400B01EE102AB8EE411B80EE010BBFEEC4
:101F8000ED0B10EE100B08EE100A3421002201AC0C
:101F9000200000F03FF93C2100220EAC200000F0B0
:101FA00039F930004946C0B2C9B2884201D1012096
:101FB00000E000202A9DDFF854A24FF470725146D1
:101FC000C0B200F0FBFA48462900C0B2C9B288424C
:101FD00001D1012000E000202B9C40F2C13251468B
:101FE000C0B200F0EBFA062002902800C0B2FFF762
:101FF00089FC8DF80C002800C0B2FFF725FC824652
:102000005FF0080B2800C0B2FFF71EFC804D01AA4C
:102010009AFBFBF10BFB11AA5146C0B2C010C001E4
:10202000284400F0E8FB062002904846C0B2FFF7C3
:1020300055FC8DF80C004846C0B2FFF7F1FB824614
:102040005FF0080B4846C0B2FFF7EAFB01AA9AFB13
:10205000FBF10BFB11AA5146C0B2C010C0012844CD
:1020600000F0C9FB2000C0B204281ED00820029056
:102070002000C0B2FFF75AFC8DF80C002000C0B25F
:10208000FFF7F6FB81465FF0080A2000C0B2FFF7B9
:10209000EFFB01AA99FBFAF10AFB11994946C0B27C
:1020A000C010C001284400F0A6FB2C9C2000C0B248
:1020B00008281ED0062002902000C0B2FFF74AFC7C
:1020C0008DF80C002000C0B2FFF7E6FB81465FF000
:1020D000080A2000C0B2FFF7DFFB01AA99FBFAF162
:1020E0000AFB11994946C0B2C010C001284400F053
:1020F00082FB3000C0B2032803D23000C0B2401CC3
:1021000000E000203200D2B2D21D032110F58F7002
:1021100000B2FFF729FB3000C0B2032803D2300021
:10212000C0B2401C00E0002010F58F7000B2FFF735
:1021300017FB8DED008AB8F1010843463200D2B298
:10214000D21D0321C0B2FFF7AFFA3000C0B203289E
:1021500003D23000C0B2401C00E0002010F58F70A8
:1021600000B2FFF7FDFA3200D2B2D21D0321C0B295
:10217000FFF72FFBFFB2002F05D0022F09D005D3A8
:10218000032F09D00AE00020109007E001201090F2
:1021900004E00220109001E00320109001200E9036
:1021A00000200F9004201190082012900820139016
:1021B00001208DF8500001208DF85300104D0022B1
:1021C0000EA93000C0B255F8200000F053FB0021EA
:1021D0003000C0B255F82000FFF742FA3000C0B21C
:1021E00055F82000FFF737FA0348F6B284551EB0C1
:1021F000BDEC028BBDE8F18F1C28032804003140A0
:1022000024C002280800314000B4C40474A308109C
:102210000000314062F30F2262F31F42401810F0B9
:10222000030308D0C91A1FD3DB0748BF00F8012DEC
:1022300028BF20F8022D130030B41446154610397B
:1022400028BF20E93C00FAD8490728BF20E90C0044
:1022500048BF40F8042D890028BF20F8022D48BF50
:1022600000F8012D30BC7047C91818BF00F8012DC7
:10227000CB0728BF00F8012D7047000082B0002076
:102280000190002000900020019009E00098401C7F
:1022900000900098B0F5005FF8D30198401C0190C1
:1022A0000198B0F5805F02D200200090F1E702B003
:1022B000704780B50100002000F0A2FE01BD2DE9AD
:1022C000F043ADF5137D0700884616001C00002082
:1022D000ADF802000020ADF80000002002900020C0
:1022E000ADF804000020ADF806004046FEF78EFE73
:1022F0000290DFF8B0532888002801D02869804771
:10230000DFF8A4030078002800F033812888002833
:1023100000F01181BDF90600411CADF806103A002D
:10232000010089B20020EB68984747464046FEF717
:102330006DFE02906888A97990FBF1F0ADF8040079
:102340003800471C00780028FAD10020ADF80000C2
:102350000EE07F1E38782F2802D038785C2804D110
:10236000BDF80000401CADF800000298401E02902D
:10237000BDF80000022802DA02980028E9D5029888
:10238000002806D47A1CDFF8241353A801F02CF996
:102390000EE0BDF80000002805D13A00C44953A85A
:1023A00001F022F904E03A00C04953A801F01CF9F9
:1023B0000020ADF8020042E0BDF80010BDF800209A
:1023C000BDF8023053AF9BB2BDF90400434313FA8A
:1023D00082F0385C43AA89B25054BDF80000401C1A
:1023E000ADF80000BDF8000080B2BDF904108842CD
:1023F0000EDA53A8FEF70AFEBDF80020BDF8023041
:102400009BB2BDF904104B4313FA82F18842D3D238
:10241000002043A9BDF800208854BDF90600411CE6
:10242000ADF8061043AAE97911FB00F189B200204A
:10243000EB689847BDF80200401CADF80200BDF8FB
:10244000027053A8FEF7E2FDBDF90410B0FBF1F0F5
:10245000401CBFB2874203D20020ADF80000C1E7A4
:102460003200944953A801F0BFF8BDF90600411CA1
:10247000ADF8061053AAE97911FB00F189B20020EA
:10248000EB689847002C74D00020ADF8020041E0C2
:10249000BDF80010BDF80020BDF802309BB2BDF9B8
:1024A0000400434313FA82F0205C43AA89B25054DB
:1024B000BDF80000401CADF80000BDF8000080B27F
:1024C000BDF9041088420EDA2000FEF79FFDBDF82A
:1024D0000020BDF802309BB2BDF904104B4313FA43
:1024E00082F18842D4D2002043A9BDF8002088544C
:1024F000BDF90600411CADF8061043AAE97911FBAD
:1025000000F189B20020EB689847BDF80200401C3A
:10251000ADF80200BDF802602000FEF777FDBDF9BE
:102520000410B0FBF1F0401CB6B2864221D200206C
:10253000ADF80000C1E74FF4807100220DF10C09E5
:102540004846FFF767FE3800A9688847002C07D087
:10255000009433004246584903A801F045F805E0CD
:1025600033004246554903A801F03EF803A8A96884
:1025700088470DF5137DBDE8F08380B50A000100A2
:10258000002000F02EFD002002BD02B50100002356
:102590006A464B4801F07DF9009802BD10B54248EB
:1025A0000078002809D0474C2100002000F036FDBB
:1025B00001222100424801F09CF810BD38B50C0002
:1025C0001500C0B2002803D13F480078002800D190
:1025D00031BD3E490878002800D0FEE70878401C4D
:1025E000087001F073FB00232A0021003848FFF730
:1025F00066FEFFF743FEF6E710B514001A00C0B2FE
:10260000002808D128480078002804D00B002100B9
:102610003048FFF754FE10BD002101804FF6FF71D6
:1026200041808180FF218171C17100218160002181
:10263000C1600021016170471A4902880A804288FE
:102640004A8082888A8082798A71C279CA71826856
:102650008A60C268CA600069086101201249087076
:10266000704700B585B06846FFF7D6FF1A4802905C
:102670006846FFF7E1FF05B000BD80B5FFF7F1FF49
:10268000002300225FF4E131002000F0ADFE402382
:10269000124A00210A4801F0AFFA0121002000F09F
:1026A000B0FD01BD1427032846280328A0A7081061
:1026B00064A70810ACA7081064A6081004A70810A7
:1026C00084260328472803286FC0022848280328A7
:1026D00074A70810B8A70810B3220810A82403286C
:1026E00030B4614B1818C009604C14EB0014042975
:1026F0000DD223681F25C8008540AB43D2B212F02B
:102700001F02C90012FA01F1194321600CE0091FF0
:1027100063681F25C8008540AB43D2B212F01F0288
:10272000C9008A401A43626030BC7047002A04D155
:10273000012212FA01F1416003E0012212FA01F1D3
:102740008160704710B48900436C0F248C40A34310
:1027500012F00F0212FA01F11943416410BC7047E4
:1027600010B4836C01248C40A34312F0010212FACE
:1027700001F11943816410BC704710B4C36C01248B
:102780008C40A34312F0010212FA01F11943C16413
:1027900010BC704710B449001031C36C03248C4046
:1027A000A34312F0030212FA01F11943C16410BCF1
:1027B00070474269012212FA01F141614069704794
:1027C00010B4836901248C40A34312F0010212FA71
:1027D00001F11943816110BC704710B44900036CCA
:1027E00003248C40A34312F0030212FA01F11943AF
:1027F000016410BC7047F8B505000E0014000027F6
:10280000002D2ED0002C2CD0226831002800FFF79C
:102810008DFF227A31002800FFF762FF62693100E4
:102820002800FFF79DFFA26931002800FFF7A5FFF0
:10283000E26931002800FFF7ADFF6268310028002F
:10284000FFF780FFE26831002800FFF7C6FF310084
:102850002800FFF7AEFF226931002800FFF7B0FF24
:1028600000E0034F3800F2BD0000CFBF0000304051
:1028700001005A002DE9F041DFF8D0311C00DFF8EB
:10288000D051D5F800C0DFF8CC512D68DFF8C86111
:102890003668DFF8C8713F685FF0000E5FF0000E29
:1028A000002800F0D080002900F0CD804C68002C7A
:1028B00001D18C6805E04C68022C01D1002400E0B5
:1028C0000224D1F810E0D1F81480C64502D3D1F823
:1028D00010E001E0D1F814E0BEF1090F08D23CF499
:1028E000404C91F82130002B12D05CF4807C11E038
:1028F000BEF1110F03D2012363F38F3CF1E7BEF168
:10290000210F03D2022363F38F3CEAE718009BE018
:102910003CF4807CCB685B1E13F00F035FEA1C1C49
:102920005FEA0C1C53EA0C0C012363F3196CC0F82A
:1029300000C00B7F002B01D0002300E0012363F3D4
:1029400000054B681B0963F34105CB7E63F3041557
:102950004B7E63F345150B68012B01D1012300E089
:10296000002363F3DF7523005B0863F3820564F3E0
:10297000C3054B7F63F308258B7F63F34925CB7F2A
:1029800063F38A2591F8203063F3CB250B7913F09C
:10299000030363F3196505620B7E63F308278B7EDF
:1029A00063F349270B695B1E13F01F037F097F0147
:1029B0001F43C0F8007391F8243003F0FF0310F5B3
:1029C000417425682D0A2D022B4323600B7E63F38F
:1029D00008264B695B1E13F01F03760976011E4320
:1029E000C0F8006291F82C3003F0FF0310F5017479
:1029F00025682D0A2D022B4323600B6BC0F8883FFE
:102A00008B6AC0F8C83F91F8383010F570642568BB
:102A100063F34925256091F8391010F574631C683B
:102A200061F3CB241C600021C0F8C81E002A09D025
:102A300000201060002090610020D0600020D06154
:102A40000748106200242000BDE8F0810140AA0080
:102A500038A808103CA8081040A8081044A808107E
:102A6000EFCDAB00022801D3012010E00B00DBB258
:102A7000042B01DB01200AE0DFF8643903EB80005E
:102A8000C9B2405C824201D3012000E000207047BF
:102A9000F8B504000F0015001E00022C01D3012020
:102AA0002AE02A003900C9B22000FFF7DBFF012825
:102AB00001D1012020E006983900C9B202291ED1B7
:102AC000B6F5803F19D2202817D24FF4C052DFF854
:102AD000141963030B4403EB850313441F6866F367
:102AE00017271F606403214401EB850111440A6824
:102AF00060F3C7020A600020F2BD0120FCE7FFB2CC
:102B0000032F1FD1B6F1807F1AD2202818D24FF49C
:102B1000E052DFF8D01863030B4403EB8503134442
:102B20001F6807F0FF0757EA06271F606403214468
:102B300001EB850111440A6860F3C7020A60DAE715
:102B40000120D9E70120D7E700B20012C0B27047D8
:102B5000F8B505000E001700280000B2FFF7F4FFDB
:102B600004002000C0B2022801D3012024E03A0072
:102B70003100C9B22000C0B2FFF774FF012801D1B3
:102B8000012019E0DFF85C182000C0B240030844BF
:102B90002A00D2B200EB8200D0F8000CF6B266F345
:102BA000092067F30700E4B264032144EDB201EBAE
:102BB0008501C1F8000C0020F2BD70B504000D00C5
:102BC0001600022C01D301201DE032002900C9B2F9
:102BD0002000FFF747FF012801D1012013E0DFF8B3
:102BE00004186003085850F0004050F0407050F452
:102BF0007F00EDB265F3092066F307006203885099
:102C000064030859002070BDD0F84003704710F5E8
:102C10004170026861F3070202607047D0F8080350
:102C2000C005C00D704710F541710A6852F480323A
:102C30000A6010F541710A6832F480320A60D0F8F7
:102C400004037047C0F840127047D0F80802C0056E
:102C5000C00D7047D0F80802C0F3C030704738B5D7
:102C600005002800FFF7F1FF04002800FFF7F2FF3E
:102C70000419002C01D1012000E00020C0B232BDB7
:102C8000C0F8C81F7047D0F8C80F7047C0F8C01F01
:102C9000D0F8C00F7047C0F8881F7047D0F8880F71
:102CA0007047C0F8801FD0F8800F7047016851F05E
:102CB0000041016070472DE9F84F04000125002014
:102CC0000020DFF8E4082100C9B250F82160D6F8EE
:102CD0000403000601D1042700E001273000FFF7BC
:102CE000D2FF3900C9B2084253D03800C0B201281F
:102CF00035D13000FFF792FF80465FF0000901E018
:102D000019F101094046C0B2814522DADFF89CA8DA
:102D10002000C0B21AF80000411C2200D2B20AF80A
:102D20000210DFF88C182200D2B2120101EB020B64
:102D3000C0B200903000FFF767FF00990BF8010068
:102D40002000C0B21AF800001028D9DB3000FFF7CD
:102D50006AFF0120DFF85C18E4B2085513E0300088
:102D6000FFF752FFDFF848182200D2B21201885450
:102D70000120DFF838182200D2B288540120DFF891
:102D80003418E4B20855FFB239003000FFF77EFF77
:102D90000AE03000FFF782FF800505D54FF400718F
:102DA0003000FFF77EFF00252800C0B2BDE8F28F9B
:102DB00038B504001500C9B200290ED0102919D069
:102DC000202924D030292FD031293AD0402945D08C
:102DD000502950D060295BD067E0DFF8DC07A060A5
:102DE00001202073112060734FF48C70E081122059
:102DF000208260E0DFF8C407A0600120207311206A
:102E0000607340F21D10E0816B20208253E0DFF8F8
:102E1000B007A06001202073112060734FF48E7002
:102E2000E0816A20208246E0DFF89807A060022057
:102E300020731120607340F21B10E0816920208212
:102E400039E0DFF88407A06001202073112060734F
:102E500040F21B10E081692020822CE0DFF86C0733
:102E6000A06001202073132060734FF48D70E08107
:102E7000682020821FE0DFF85807A060012020733F
:102E80001120607340F21F10E0816D20208212E05B
:102E9000DFF84007A06001202073112060734FF419
:102EA0008F70E0816C20208205E0DE22DFF8281799
:102EB0000020FFF783FBEDB2002D0ED0102D19D0AE
:102EC000202D24D0302D2FD0312D3AD0402D45D07B
:102ED000502D50D0602D5BD067E0DFF8DC0620601D
:102EE00000202071112060714FF48C70E08112205D
:102EF000208261E0DFF8C4062060002020711120EC
:102F0000607140F21D10E0816B20208254E0DFF8F8
:102F1000B006206000202071112060714FF48E7087
:102F2000E0816A20208247E0DFF8980620600120D7
:102F300020711120607140F21B10E0816920208215
:102F40003AE0DFF8840620600020207111206071D3
:102F500040F21B10E081692020822DE0DFF86C0632
:102F6000206000202071132060714FF48D70E0818B
:102F70006820208220E0DFF85806206000202071C1
:102F80001120607140F21F10E0816D20208213E05B
:102F9000DFF84006206000202071112060714FF49E
:102FA0008F70E0816C20208206E04FF49172DFF890
:102FB00028160020FFF702FB31BD38B50400DFF80A
:102FC000E855C9B22000C0B255F82000FFF73AFE1C
:102FD0002000C0B255F82000FFF741FE0028F7D0CE
:102FE00031BD70B505000E00140006E031782800F0
:102FF000C0B2FFF7E2FF641E761C002CF6D170BD54
:1030000038B504000D0005E029782000C0B2FFF7B4
:10301000D4FF6D1C28780028F6D131BD30B40022D1
:10302000DFF890350200D2B29A5C002A2CD0DFF88B
:1030300080250400E4B22401145D0C70DFF86C45B7
:103040000100C9B2615C491E0500EDB26155010085
:10305000C9B2615C002912D000210300DBB2E35C3D
:1030600099420FDA0300DBB21B0113440500EDB2F5
:103070002D0115440D446D785D54491CEDE7002188
:10308000C0B21954012000E00020C0B230BC70472B
:1030900070B40022DFF81C350200D2B29A5C002A1C
:1030A0001CD0DFF808450200D2B2A25C0025060061
:1030B000F6B2A555002409E0DFF8F4540600F6B294
:1030C000360135442D5D0D70491C641C1500EDB2B0
:1030D000AC42F1DB0021C0B2195400E00022100024
:1030E000C0B270BC704770B505000C00DFF8B86462
:1030F0002800C0B256F82000FFF7D0FD400840007D
:1031000001002800C0B256F82000FFF7C4FD2800D7
:10311000C0B256F82000FFF7C1FD30F002000100F8
:103120002800C0B256F82000FFF7B5FD2800C0B255
:1031300056F82000FFF7B2FD30F020000100280013
:10314000C0B256F82000FFF7A6FD2800C0B256F81E
:103150002000FFF7A3FD30F0400001002800C0B2BE
:1031600056F82000FFF797FD2800C0B256F820005F
:10317000FFF794FD30F0100001002800C0B256F8AF
:103180002000FFF788FD2800C0B256F82000FFF7A6
:1031900085FD30F4807001002800C0B256F8200090
:1031A000FFF779FD2800C0B256F82000FFF776FD42
:1031B00030F4806001002800C0B256F82000FFF70C
:1031C0006AFD002C0ED02800C0B256F82000FFF790
:1031D0005AFD50F400700100EDB256F82500FFF7DB
:1031E0005AFD0DE02800C0B256F82000FFF74BFD55
:1031F00030F400700100EDB256F82500FFF74BFDEA
:1032000070BD70B505000C00DFF89C632800C0B2EB
:1032100056F82000FFF737FD30F0080001002800C5
:10322000C0B256F82000FFF72BFD2800C0B256F8B8
:103230002000FFF728FD30F0200001002800C0B278
:1032400056F82000FFF71CFD2800C0B256F82000F9
:10325000FFF719FD30F4807001002800C0B256F865
:103260002000FFF70DFD2800C0B256F82000FFF740
:103270000AFD30F4007001002800C0B256F82000AA
:10328000FFF7FEFC2800C0B256F82000FFF7FBFC59
:1032900030F4006001002800C0B256F82000FFF7AB
:1032A000EFFC2800C0B256F82000D0F80403000656
:1032B0001FD1002C5BD12800C0B256F82000FFF7C8
:1032C000E2FC4008400001002800C0B256F820008F
:1032D000FFF7D6FC2800C0B256F82000FFF7D3FC59
:1032E00030F004000100EDB256F82500FFF7C8FCED
:1032F00070BD002C1DD02800C0B256F82000FFF78A
:10330000C2FC30F0040001002800C0B256F82000D2
:10331000FFF7B6FC2800C0B256F82000FFF7B3FC58
:1033200050F001000100EDB256F82500FFF7A8FCAF
:10333000DEE72800C0B256F82000FFF7A4FC30F00A
:10334000040001002800C0B256F82000FFF798FCE6
:103350002800C0B256F82000FFF795FC4008400056
:103360000100EDB256F82500FFF78AFCC0E72800FF
:10337000C0B256F82000FFF786FC4008400001006C
:103380002800C0B256F82000FFF77AFC2800C0B22F
:1033900056F82000FFF777FC50F004000100EDB272
:1033A00056F82500FFF76CFCA2E738B504000D00C5
:1033B0002800C0B2102801DA012000E0002040F20D
:1033C0003122DFF81412C0B2FFF7F8F8EDB229008D
:1033D0007548E4B250F82400FFF719FC31BD000035
:1033E000E8A70810000004402DE9F0412DED028B04
:1033F000A8B005000E00170028003900C9B209095D
:10340000C0B2884201D1012000E000201C00DFF89A
:10341000C8814FF421724146C0B2FFF7CFF82800AF
:103420002100C9B20909C0B2884201D1012000E0DF
:10343000002040F285224146C0B2FFF7BFF802A843
:10344000142100F06BFC342100220DF16808404685
:10345000FEF7E0FE4C2100220DF11C084046FEF76D
:10346000D9FE082080B206FB00F65C48B0FBF6F8F7
:103470005A4806FB180000EE100AB8EE400B01EEA9
:10348000106AB8EE411B80EE010BBFEEED0B10EEA3
:10349000100B08EE100A2200D2B23900C9B202A8FD
:1034A000FFF786FC08201B909DF80D008DF870003A
:1034B0001AAA9DF80C100298FFF79DF906201B90A0
:1034C0009DF815008DF870001AAA9DF81410049844
:1034D000FFF791F900200790082008900820099034
:1034E00002200B9000200C900020129000201490DD
:1034F0002D4C2800C0B254F8200000F055FD38498A
:103500002A00D2B2382042430A4407A92800C0B298
:1035100054F8200000F006FC2800C0B254F8200047
:10352000FFF7C4FB2A00D2B20321BDF91600FFF752
:103530000FFBBDF91600FFF707FB8DED008AB8F110
:10354000010843462A00D2B20321C0B2FFF7A0FA15
:10355000BDF91600FFF7F8FA2A00D2B20321C0B273
:10356000FFF72BFBBDF91800ADF800000320ADF804
:10357000020001208DF8040007221A482900C9B270
:1035800050F82110684600F0ADFB00212800C0B2C1
:10359000FFF737FE00212800C0B2FFF7A4FD28B0D6
:1035A000BDEC028BBDE8F08150C00228CC27032877
:1035B00020230328D4270328000031400002314093
:1035C000000531408008314080063140000731401D
:1035D0000001314080013140E4A3081000B4C4046C
:1035E000941E032834C002280CB430B583B00A46B8
:1035F00006A90291044600250194009502AB01A999
:10360000084878441E30FCF73EFD019A15700028EA
:103610004EBF04460198041B204603B030BC5DF841
:103620000CFB00BF9FD9FFFF82688918816003E00F
:1036300082684169521A8260816842699142F7D278
:103640007047C2688918C16003E0C2684169521AB4
:10365000C260C16842699142F7D2704770B50400F8
:10366000002C01D0012000E000205422DFF8C41516
:10367000C0B2FEF7A3FF0025207850F001002070B3
:103680000020A0600020E060606920616078002870
:1036900003D0022810D007D315E0616900226668C4
:1036A0003000FEF7B7FD0EE0616949000022666850
:1036B0003000FEF7AFFD06E0616989000022666810
:1036C0003000FEF7A7FD002020702800C0B270BDBA
:1036D00010B50400002C01D0012000E00020702271
:1036E000DFF85015C0B2FEF769FF60692169401A22
:1036F00010BD2DE9F84305001600002D01D0012072
:1037000000E000200C00AA22DFF82815C0B2FEF766
:1037100055FF00270020002C01D10327B5E02878B1
:1037200010F0050F01D00427AFE0287850F0040016
:1037300028702869B042C0F0A380D5F81480A8682A
:10374000B8EB0008B04567D26878002803D002289B
:1037500041D01FD390E0424621006868AB6800EB7F
:1037600003094846FDF79AFC41462800FFF75CFF35
:10377000B6EB080204EB08016868AB6800EB0304D1
:103780002000FDF78BFCB6EB080841462800FFF748
:103790004BFF71E05FEA480221006868AB6800EB0C
:1037A00043094846FDF77AFC41462800FFF73CFFF5
:1037B000B6EB0802520004EB48016868AB6800EB06
:1037C00043042000FDF76AFCB6EB080841462800D8
:1037D000FFF72AFF50E05FEA880221006868AB68C3
:1037E00000EB83094846FDF759FC41462800FFF7E6
:1037F0001BFFB6EB0802920004EB88016868AB6817
:1038000000EB83042000FDF749FCB6EB08084146B5
:103810002800FFF709FF2FE06878002803D002286E
:103820001DD00ED328E0320021006868AB6800EBA1
:1038300003042000FDF732FC31002800FFF7F4FEFE
:103840001AE0720021006868AB6800EB43042000B6
:10385000FDF724FC31002800FFF7E6FE0CE0B20083
:1038600021006868AB6800EB83042000FDF716FCBC
:1038700031002800FFF7D8FE2869861B2E6100E082
:103880000527287810F0FB0028703800C0B2BDE88A
:10389000F2832DE9F04705000E001F00002D01D036
:1038A000012000E000201400DFF8888340F25B1262
:1038B0004146C0B2FEF782FE002C01D0012000E09C
:1038C00000204FF4AE724146C0B2FEF777FE5FF0C3
:1038D000000800200020002E02D15FF003088BE0DA
:1038E000297811F0030F03D020605FF006089CE0F8
:1038F0002800FFF7EDFE2168884209D220605FF0C2
:103900000708002804D1287810F0F70028708CE010
:10391000287850F008002870D5F81490E868B9EBC2
:1039200000092068814522D36878002803D0022846
:1039300013D008D35CE022686868E968014430006D
:10394000FDF7ACFB54E0226852006868E96800EBC0
:1039500041013000FDF7A2FB4AE02268920068684E
:10396000E96800EB81013000FDF798FB40E06878E2
:10397000002803D0022827D011D339E04A466868CE
:10398000E9680144B2465046FDF788FB2268B2EB75
:10399000090269684E443000FDF780FB28E05FEAC9
:1039A00049026868E96800EB4101B2465046FDF7FC
:1039B00075FB2268B2EB09025200696806EB490602
:1039C0003000FDF76BFB13E05FEA89026868E96885
:1039D00000EB8101B2465046FDF760FB2268B2EB76
:1039E00009029200696806EB89063000FDF756FB74
:1039F000287810F0F7002870FFB2002F15D1287832
:103A00000B2802D15FF002080FE0287850F0020086
:103A1000287021682800FFF714FE296920684118E2
:103A20002961287810F0FD0028704046C0B2BDE83A
:103A3000F0872DE9F04705000E001F00002D01D092
:103A4000012000E000201400DFF8E8814FF4DF726D
:103A50004146C0B2FEF7B2FD002C01D0012000E0CB
:103A6000002040F2BF124146C0B2FEF7A7FD5FF052
:103A7000000800200020002E02D15FF00308ABE018
:103A8000297811F0070F03D020605FF00608AFE03F
:103A90002800FFF71DFE2168884209D220605FF0F0
:103AA0000708002804D1287810F0F70028709FE05C
:103AB000287850F008002870E868A968884203D385
:103AC000A8682168884228D36878002803D0022893
:103AD00017D00AD37CE022686968AB6820681B1A9B
:103AE00019443000FDF7DAFA72E022685200696882
:103AF000AB6820681B1A01EB43013000FDF7CEFADA
:103B000066E0226892006968AB6820681B1A01EBC6
:103B100083013000FDF7C2FA5AE0D4F80090A8689B
:103B2000B9EB00096878002803D0022835D018D3F3
:103B30004EE04A4668686969B1EB09010144B24642
:103B40005046FDF7ABFA2268B2EB09026968AB6830
:103B500020681B1A194406EB09042000FDF79EFAA1
:103B600036E05FEA490268686969B1EB090100EB78
:103B70004101B2465046FDF791FA2268B2EB0902C4
:103B800052006968AB6820681B1A01EB430106EB21
:103B900049042000FDF782FA1AE05FEA89026868AA
:103BA0006969B1EB090100EB8101B2465046FDF7AE
:103BB00075FA2268B2EB090292006968AB68206866
:103BC0001B1A01EB830106EB89042000FDF766FA5E
:103BD000287810F0F7002870FFB2002F08D128785D
:103BE0000B2802D15FF0020802E02800FFF736FD43
:103BF0004046C0B2BDE8F087F8B504000E001700DB
:103C00001D00002C01D0012000E000204FF40772BD
:103C10000849C0B2FEF7D2FC002067600021217085
:103C200066700021A1600021E16025616561C0B27C
:103C3000F2BD000004A30810010009B2002908D455
:103C4000012210F01F018A401B4900B2400941F8CF
:103C500020207047010009B2002908D4012210F089
:103C60001F018A40154900B2400941F820207047E1
:103C7000020012B2002A04D44901114A00B21154C0
:103C800007E049010F4A00B210F00F00104400F89D
:103C9000041C7047002800D162B60B480168491C1B
:103CA0000160704772B608490868002802D00868A9
:103CB000401E08600868704700E100E080E200E014
:103CC00000E400E018ED00E01828032880B5FFF7B5
:103CD000E9FF00F0B1F901BD80B5C9B200B2FFF74C
:103CE000C7FF01BD70B504000D001600200000F0F4
:103CF000B3F92900B4F9000000F0EDF93100C9B2C0
:103D0000B4F90200FFF7E8FFB4F90200FFF7A2FFE1
:103D1000B4F90200FFF790FF70BD0000002200F030
:103D2000F1B900002DE9F44FDFF8D822DFF8D832DE
:103D30001B68DFF8D8422468DFF8D4522D68DFF81A
:103D4000D4623668DFF8D0723F68DFF8D0C2DCF8A2
:103D500000C0DFF8CCE2DEF800E0DFF8C882D8F877
:103D60000080DFF8C492D9F80090DFF8C0A2DAF83A
:103D700000A0002800F01581002900F012810A68D7
:103D8000022A06D191F82620002A02D15FF0000B0A
:103D900003E0D1F804B0BBF1010B91F82420002A14
:103DA00001D0012200E0002262F3104333F44043CB
:103DB0006BF30303022262F3196303600A7812F0C3
:103DC000030262F31964046491F82520002A01D0EB
:103DD000012200E0002262F38615CA7E002A01D08B
:103DE000012200E0002262F38A254A7E002A01D0E7
:103DF000012200E0002262F308258A7E002A01D019
:103E0000012200E0002262F349258A6B521E12F063
:103E10000F0262F313450A69521E12F00702ED0801
:103E2000ED0015434A6962F304154A69520862F3CA
:103E3000451585640A7B002A01D0012200E000229A
:103E400062F308260A7E002A01D0012200E0002247
:103E500062F349268A68521E12F01F027609760123
:103E60001643C0F800630A7F02F0FF023F0A3F02D8
:103E7000174391F8202002F0FF0262F31747C0F8C1
:103E8000107391F82720002A01D0012200E00022BF
:103E900062F3082C0A69521E12F007025FEADC0C7A
:103EA0005FEACC0C52EA0C0C4A6962F3041C4A69C2
:103EB000520862F3451CC0F844C00A7B002A01D0B6
:103EC000012200E0002262F3082E8A68521E12F0DE
:103ED0001F025FEA5E1E5FEA4E1E52EA0E0E0A687D
:103EE000012A01D1012200E0002262F3104EC0F845
:103EF00000E291F83C2002F0FF025FEA18285FEA36
:103F0000082852EA0808C0F8048391F82820002AFB
:103F100001D0012200E0002262F35969CA6A012A35
:103F200001D1012200E0002262F318694A6B012AE4
:103F300001D1012300E00023009A63F3104991F8B6
:103F4000303003F0FF035FEA19295FEA092953EAD9
:103F50000909C0F8509091F8443003F0FF035FEA7C
:103F60001A2A5FEA0A2A53EA0A0AC0F804A28B6CEA
:103F7000C0F8883F096CC0F8C81F002A10D0002084
:103F8000506000201060002090600020D060002071
:103F900010620020D06200201063DFF894005063AC
:103FA00000221000BDE8F28FDFF8881001605FF496
:103FB000401101640021816440F20711C0F8001330
:103FC0000022C0F804230022C0F81023002242641B
:103FD000C0F800120021C0F8041200210165002180
:103FE000C0F8C81E0021C0F8881E0021C0F8C81FF4
:103FF0000021C0F8881F0021C0F8081F0021C0F868
:10400000481F70470160AA0048A808104CA8081073
:1040100050A8081054A8081058A808105CA8081048
:1040200060A8081064A8081068A808106CA80810F8
:10403000EFCDAB000F000003002007E00549C201EF
:104040008A5822F00042C301CA50401C3F28F5DBC9
:10405000704700000000584030B40021234A136824
:10406000234A1468002832D0224A1568C5F3032574
:104070000E2D0FD01268C2F303220D2A28D18278A8
:1040800012F00F022409240114430279002A15D0EA
:10409000012214E0827812F00F021B091B01134366
:1040A0000279002A01D0012200E0002262F3DF73CE
:1040B000114AB0F9000042F8203009E0002262F312
:1040C000DF740E4AB0F9000042F8204000E00649D3
:1040D000080030BC70470A4B1A68002A03D01A68DF
:1040E00000B242F8201070470100560070A8081076
:1040F00074A808100000204000A0204000C020400C
:1041000030BF022800B500BF130096469446103910
:1041100028BFA0E80C50FAD85FEA417C28BF0CC049
:1041200048BF40F8042BC90728BF20F8022B48BF1E
:1041300000F8012B00BD0000DFF8C4110868C0F3CF
:104140004000002801D0022002E0086810F00100C1
:104150007047DFF8B001006810F001007047000000
:10416000C21E022A01D3012002E0C01E0860002006
:1041700070471CB5FF246946FFF7F2FFC0B2002864
:1041800002D02000C0B207E0DFF8FC01009950F82F
:10419000210010F00100C0B216BD0000002801D0BF
:1041A000032801D3012002E0401E08600020704770
:1041B0001CB5FF246946FFF7F1FFC0B2002802D00A
:1041C0002000C0B208E0DFF8C401009909010844EA
:1041D000C06810F00100C0B216BD0000DFF8BC01DD
:1041E0000068800810F00100704738B50400200016
:1041F000C0B2082811D3DFF898511822DFF89411C3
:10420000280000F00DFC0020E87540F65B00DFF8A8
:1042100088110860002000F03BFCDFF8CC11200082
:10422000C0B251F82000C0F30020002805D0E4B24D
:1042300051F8240010F00F0000E0FF2032BD38B527
:1042400004002000C0B2082811D3DFF8445118221E
:10425000DFF84011280000F0E3FB0020E8754FF480
:104260000960DFF834110860002000F011FCDFF86D
:104270007801E4B250F82400C0F30110C0B232BD9E
:10428000DFF868211368C3F3072303601068C0F3E5
:10429000C40008607047DFF858211368C3F3072390
:1042A00003601068C0F3C4000860704738B50400AC
:1042B000072C11D3DFF8D8501822DFF8C4112800DA
:1042C00000F0AEFB0020E8754FF4CE70DFF8C810A8
:1042D0000860002000F0DCFBDFF8A00150F82400AB
:1042E00010F00700010009B2042907D1DFF88801A6
:1042F00050F8240010F01F0050F4807000B232BD5E
:104300002415264040152640DFF8B01209688A03BC
:10431000920B0260090E11F00101C171DFF8A012C9
:1043200009680A00D204D20C82800A00120C02F042
:10433000FF020281090C01F0FF014181DFF8441105
:10434000096811F00F0202730A00C2F303124273EC
:104350000A00120AD204D20CC281090F11F0030123
:104360000174DFF8641309680A00120A12F00702E8
:1043700082710A00120CD205D20D4282890F11F00F
:1043800001010175704700004016264000192640C3
:104390003C260328C89D0810DC270328100027406E
:1043A0001CB50C006946FFF7DBFE0100C9B200290D
:1043B00001D0C0B217E0DFF8B404009950F8210032
:1043C00010F07F012160C0F304216160C0F304415B
:1043D000A1600100090F11F003016173C00E10F01C
:1043E00001002073002016BD401226400800204026
:1043F000080420401CB50C006946FFF7CFFE010001
:10440000C9B2002901D0C0B235E0DFF8101500981C
:104410000001085800F0FF022260C0F3042262602D
:10442000C0F30442A260000F10F003002073009854
:104430000001084442681000C00F6073C2F30270AC
:10444000002801D0012000E00020A07322F07F426C
:10445000226100980001084480680100C90F21759D
:104460000100090E11F001016175A075000C10F03A
:104470000700E075002016BD00012640001226400E
:104480004C9E08103815264080B50100DFF86805FD
:104490001822FCF713FE0120DFF8601508700020D9
:1044A00002BDDFF85C150968C90F002908D0DFF8E4
:1044B0004C150978002907D10021016003207047BD
:1044C000002101600320FAE7DFF82C15096801607C
:1044D0000020F4E710B50400FFF72EFE002803D1FA
:1044E0000020206003200DE0DFF810050078002890
:1044F00005D0DFF8040580682060002002E000207D
:104500002060032010BD0000DFF8F01409780029B6
:1045100005D0DFF8E41449680160002002E00021C2
:10452000016003207047DFF8DC140968C90F002917
:1045300008D0DFF8C8140978002907D100210160EC
:1045400003207047002101600320FAE7DFF8A81478
:10455000C96801600020F4E7DFF8AC140968C90FEE
:10456000002908D0DFF894140978002907D1002128
:10457000016003207047002101600320FAE7DFF8A3
:104580007814096901600020F4E710B50400FFF712
:1045900025FE002803D10020206003200DE0DFF875
:1045A0005C040078002805D0DFF84C0440692060E6
:1045B000002002E000202060032010BD30152640BE
:1045C0003415264010B50C00C0B2FFF76FFE00286E
:1045D0000ED0012810D0022812D0B0F5887F13D059
:1045E00040F21111884213D0B0F58A7F14D017E041
:1045F0002000FFF756FF16E02000FFF785FF12E0CE
:104600002000FFF767FF0EE02000FFF78CFF0AE0B5
:104610002000FFF7BAFF06E02000FFF79DFF02E051
:1046200000202060032010BD80B501000020FFF7AE
:10463000C9FF02BD80B50322D2B2824203D200205C
:104640000860012003E0401CC0B2FFF7BBFF02BDC1
:1046500018B587B004006846FFF7E6FF0100C9B24D
:10466000002903D000212160C0B22BE001A8FFF790
:104670004BFE9DF81400022803D100982060002012
:1046800020E0DFF888030068C00F002808D0FFF79B
:1046900060FDC0B2002807D100202060032011E097
:1046A0000098206000200DE0009901984143BDF87A
:1046B0000800B1FBF0F09DF80B10491CB0FBF1F0C5
:1046C0002060002008B010BD3C152640F0B58BB02E
:1046D00005000C0069462800C0B2FFF7ABFF0100DF
:1046E000C9B2002903D000212160C0B2BCE028007B
:1046F000C0B202284CD307A92800C0B2401CFFF763
:104700004FFEC0B2002811D0DFF804631822DFF892
:104710000413300000F084F90020F07540F66310B7
:10472000DFF8F4120860002000F0B2F94F482900C9
:10473000C9B200EB810050F8080CC00F002807D068
:104740009DF82900022807D10098206000208BE006
:1047500000982060002087E0EDB26D1C2800FFF774
:1047600008FD0100C9B2002902D0C0B2FF2803D160
:1047700000202060032077E00099079841430898C3
:10478000B1FBF0F00999B0FBF1F0206000206BE084
:1047900001A92800C0B2401CFFF72CFEC0B20028BF
:1047A00011D0DFF86C621822DFF86812300000F0D8
:1047B00037F90020F07540F67F10DFF85C120860D2
:1047C000002000F065F955482900C9B20901405898
:1047D000C00F002807D09DF81000022807D10098CC
:1047E0002060002040E00098206000203CE0EDB216
:1047F0006D1C2800FFF7DCFC0100C9B2002902D0C3
:10480000C0B2FF2803D10020206003202CE09DF8D7
:10481000110001281DD1009A0023019E00273F06A8
:1048200047EA162736060598002136184F41A6FBA1
:10483000020106FB031107FB0211029A039BA3FB73
:104840000223FCF7A5FD000E40EA0120090E2060BE
:1048500009E00099019841430298B1FBF0F00399F7
:10486000B0FBF1F0206000200BB0F0BD0016264038
:1048700010B50323421E0400E4B2002C03D108004B
:10488000FFF7E6FE0CE01400DBB2E4B2A34204D36F
:104890001000C0B2FFF71AFF02E0C0B2FFF792FEAD
:1048A00010BD38B505000C002800C0B2FFF79DFC14
:1048B0000100C9B2FF2904D12000FFF7F2FDC0B208
:1048C0001BE06946C0B2FFF7D3FF0100C9B200295F
:1048D00003D000212160C0B20FE02800C0B2FFF772
:1048E000AEFCC0B2002805D002280BD006D30328A6
:1048F0000CD00FE000982060002032BD00984008E6
:104900002060F9E7009880082060F5E70098C0086B
:104910002060F1E7002020600320EEE70019264028
:104920001FB5040002A90120FFF7BBFF0100C9B2B7
:10493000002903D000212160C0B21AE0694601A815
:10494000FFF79EFC01980021421C71F1FF335B01CF
:1049500043EAD26352010098002112184B41029899
:104960000021490141EAD0614001FCF711FD2060BE
:10497000002004B010BD1FB5040002A90120FFF7FC
:1049800090FF0100C9B2002903D000212160C0B20C
:104990001AE0694601A8FFF77EFC01980021421C3D
:1049A00071F1FF335B0143EAD263520100980021A9
:1049B00012184B4102980021490141EAD06140019F
:1049C000FCF7E6FC2060002004B010BD80B5DFF8E5
:1049D0004C100A68C2F303220E2A07D00968C1F3FB
:1049E00003210D2905D1FFF7C6FF02BDFFF798FF90
:1049F000FBE70120F9E700002426032844280328C8
:104A000018152640081526400C152640301526405E
:104A10003C2603284C9E0810DC2703280000204079
:104A200001B58B071AD1830724D1121F21D351F866
:104A3000043BA3F1013C2CEA030C1CF0803C04BFB6
:104A400040F8043BF1E79CFA8CFCBCFA8CF1C1F114
:104A500018018B40CB4040F8043B13E0042A09D3F3
:104A600011F8013B521E00F8013B5BB18B07F7D1F7
:104A7000D9E7121D5AB111F8013B521E00F8013B53
:104A800003B1F8D111001CBF0022FDF7C7FB01BD27
:104A900001BEFEE780B5234A23490B6893423ED00E
:104AA0000A60224A12684A62214A8A6202684A609F
:104AB00042688A608268CA60C2680A6102694A61A3
:104AC00042698A618269CA61C2690A62F1EE102A8A
:104AD00012F0900F23D0174A8A62026ACA62426AB1
:104AE0000A63826A4A63C26A8A63026BCA63426B60
:104AF0000A64826B4A64C26B8A64026CCA64426C48
:104B00000A65826C4A65C26C8A65026DCA65426D2F
:104B10000A66826D4A66C26D8A66006EC86600F0DB
:104B20000BF801BDFAF9F8F7B022032828ED00E0F0
:104B3000A4A3A2A1ABAAA9A8FEE7000070B5040037
:104B40000D00DFF834682A0092B2120AD2B22100B6
:104B5000C9B2300000F080FE2A00D2B2F02130004D
:104B600000F07AFE70BD2DE9F04704000D0001262B
:104B700000275FF000085FF00A09484640B20028AD
:104B800036D0484640B2052190FBF1F201FB1200FD
:104B9000002810D1DFF8E0A72A0092B2120AD2B2A0
:104BA0002100C9B2504600F057FE2A00D2B2F021CF
:104BB000504600F051FEDFF8C0A72100C9B25046B0
:104BC00000F072FE0700F021504600F06DFE8046B6
:104BD000280080B23900C9B24246D2B252EA01225C
:104BE000904202D10020060002E0B9F10109C4E7B9
:104BF000300040B2BDE8F08770B50400DFF8786798
:104C00002100C9B2300000F04FFE0500F021300055
:104C100000F04AFEEDB2C0B250EA052080B270BD8D
:104C2000F8B50400002500260127DFF84C075C21B9
:104C30000172E168C1602168016061684160002023
:104C4000FFF7DAFF0600300041F2243180B28842DB
:104C50000BD0300041F2113180B2884205D03000D3
:104C600041F2133180B2884202D10020070004E0F3
:104C70006D1C2800C0B21528E1DB3800C0B2F2BDBF
:104C80002DE9F14F8AB05FF0000A00240020ADF852
:104C9000200000250020ADF806000020ADF81E0021
:104CA0000020ADF81C0000265FF0000800270A98DD
:104CB000C088ADF808000A984089ADF80A000A9843
:104CC000C089ADF80C000A98408AADF80E000A9829
:104CD000C08AADF810000A98408BADF812000A980F
:104CE000C08BADF814000A98408CADF816000A98F5
:104CF000C08CADF81A004BF6EF61FE20FFF71EFFE7
:104D000003210C20FFF71AFF0020FFF775FF0700B3
:104D100041F224393800494680B288420BD038002D
:104D200041F2113180B2884205D0380041F213318E
:104D300080B2884200D109E018F101084046C0B2B3
:104D4000142802DB0120060000E0DDE73000C0B2DD
:104D5000002840F00C83BDF81000792807DABDF870
:104D600010008000ADF806005AF0020A15E0BDF808
:104D70001000F12807DABDF810004000ADF8060079
:104D80005AF0010A09E0BDF8100040F2E111884232
:104D900003DABDF81000ADF80600BDF80E00BD281E
:104DA00006DABDF80E00800005005AF0080A15E08A
:104DB000BDF80E0040F27911884206DABDF80E0007
:104DC000400005005AF0040A08E0BDF80E0040F269
:104DD000F121884202DABDF80E000500DFF89CB52B
:104DE00040F24E31280080B2091ACBF8001038008A
:104DF000494680B288427AD148F288310720FFF7CD
:104E0000B2FE80190600DFF87815BDF81020921C5C
:104E10002B009BB2DBF80000C3185A43121D91FB14
:104E2000F2F00400200080B240F2F511884202DB6B
:104E30004FF4FA7004002000BDF80C1080B28842D4
:104E400001D2ADF80C40DFF83C15DFF83405BDF8B1
:104E50000C2090FBF2F2121F2B009BB2DBF800003B
:104E6000C31892FBF3F2BDF81000121A0A6047F65D
:104E700021600A68824202DA0A68022A0EDA0A68A7
:104E8000022A02DA0220086008E00A68824203DB94
:104E900047F62060086001E008680860DFF8E00479
:104EA000BDF80C2090FBF2F2121F0968BDF810004B
:104EB000411892FBF1F1280080B2091ACBF80010DA
:104EC000DBF800003D2803DA3D20CBF8000081E04C
:104ED000DBF80000B0F5806F04DB40F2FF30CBF868
:104EE000000077E0DBF80000CBF8000072E0DFF8AC
:104EF0009014BDF81020121D2B009BB2DBF80000AF
:104F0000C3185A43121D91FBF2F00400200080B236
:104F100040F2F511884202DB4FF4FA7004002000E1
:104F2000BDF80C1080B2884201D2ADF80C40DFF819
:104F30005414DFF84C04BDF80C2090FBF2F2121F61
:104F40002B009BB2DBF80000C31892FBF3F2BDF814
:104F50001000121A0A6040F6B9300A68824202DA7A
:104F60000A68042A0EDA0A68042A02DA04200860B1
:104F700008E00A68824203DB40F6B830086001E0CE
:104F800008680860DFF8F803BDF80C2090FBF2F227
:104F9000121F0968BDF81000411892FBF1F12800BA
:104FA00080B2091ACBF80010DBF800002B2803DAD6
:104FB0002B20CBF800000DE0DBF80000B0F5806F8F
:104FC00004DB40F2FF30CBF8000003E0DBF8000028
:104FD000CBF80000DFF8AC030168BDF81000411801
:104FE000891EBDF80A00814208DADFF898030168DB
:104FF000BDF810004118881EADF80A00280080B2E4
:10500000D0F53C70022190FBF1F0BDF912100200C6
:1050100012B2D14203DA010009B2494209E00100AB
:10502000BDF9122009B2914201DA010001E0BDF997
:105030001210ADF81210401CBDF91210411AADF853
:105040001E10BDF80610D1F5F071022291FBF2F1AD
:10505000BDF914200B001BB2DA4203DA080000B2DB
:10506000404209E00800BDF9142000B2904201DA84
:10507000080001E0BDF91400ADF81400091DADF8F9
:105080002010BDF92010BDF914004118ADF81C1016
:1050900001211B20FFF767FD80198DF804009DF8A2
:1050A00004000090BDF81E100120FFF75CFD009980
:1050B00040188DF804009DF804000090BDF81C1005
:1050C0000220FFF750FD009940188DF804009DF86C
:1050D00004000090BDF806100320FFF744FD00997E
:1050E00040188DF804009DF804000090290089B252
:1050F0000420FFF738FD009940188DF804009DF852
:1051000004000090DBF80000010089B20520FFF7E1
:105110002AFD009940188DF804009DF804B09948C4
:105120000068010089B20620FFF71DFD10EB0B0B94
:105130008DF804B09DF804B04FF4B2710A20FFF767
:1051400012FD10EB0B0B8DF804B09DF804B040F28B
:10515000BB110820FFF707FD10EB0B0B8DF804B017
:105160009DF804B040F2D9110920FFF7FCFC10EBC8
:105170000B0BBDF80800002807D1BDF80A100B2062
:10518000FFF7F1FC10EB0B0083465AF44C7189B227
:105190000D20FFF7E8FC10EB0B008DF804009DF8E4
:1051A000046027213120FFF7DEFC86198DF80460AA
:1051B0009DF804601A213220FFF7D5FC86198DF87E
:1051C00004609DF8046005213320FFF7CCFC8619AC
:1051D000BDF816103520FFF7C6FC80198DF80400C5
:1051E000380080B2484529D1504680B2042801DBFE
:1051F000012100E000219DF80460C9B2090189B2D3
:105200007220FFF7B0FC86198DF804609DF80490B9
:1052100040F201110F20FFF7A6FC10EB09098121D4
:105220004720FFF7A0FC83461BEB090BEC2148202D
:10523000FFF799FC060016EB0B0615E09DF80490AD
:1052400011210F20FFF78FFC10EB09098121472066
:10525000FFF789FC83461BEB090BE7214820FFF78A
:1052600082FC060016EB0B064FF462710720FFF775
:105270007AFC80198DF804009DF804B040F20331E7
:105280001C20FFF770FC10EB0B0B03212C20FFF709
:105290006AFC814619EB0B09BDF80800002807D10C
:1052A0000021AF20FFF75FFC060016EB09064DE07A
:1052B000BDF80810A520FFF756FC060016EB0906FE
:1052C0000221A620FFF74FFC83461BEB060B0221B1
:1052D000A820FFF748FC10EB0B008DF80400BDF888
:1052E0000E10BDF810004143042091FBF0F0B0F522
:1052F000803F08DABDF80E10BDF8100041430420CD
:1053000091FBF0F101E04FF6FF719DF8046089B266
:10531000B020FFF728FC86198DF804609DF80490F2
:105320001421AE20FFF71FFC10EB090940F2011118
:10533000AF20FFF718FC83461BEB090BBDF80A10E2
:10534000AD20FFF710FC060016EB0B06BDF80800B9
:105350000D490860BDF80A000C490860BDF810004E
:105360000B4908604DF6AD61FE20FFF7E7FB30000A
:10537000C0B20BB0BDE8F08F6C27032824280328A7
:10538000C0FC9B0120280328282803282C28032858
:10539000302803281CB50400002C01D0012000E0B7
:1053A00000204122DFF8A414C0B2FDF707F9DFF8AE
:1053B000A00401212278D21010EBC212237813F03E
:1053C000070311FA03F313602279D21010EBC21015
:1053D000227912F0070211FA02F20260E0680090EE
:1053E0000098421E00920028FAD1DFF86824207944
:1053F000C01012EBC010237913F0070311FA03F366
:105400000360E06800900098431E00930028FAD1E2
:105410002078C01012EBC012207810F007008140F5
:105420001160E06800900098411E00910028FAD1B8
:1054300013BD1CB50400002C01D0012000E00020A9
:105440005522DFF80814C0B2FDF7B8F8DFF80404FD
:1054500001212279D21010EBC212237913F0070335
:1054600011FA03F313602278D21010EBC2102278E5
:1054700012F0070211FA02F20260E0680090009850
:10548000421E00920028FAD1DFF8C4232078C01011
:1054900012EBC010237813F0070311FA03F3036033
:1054A000E06800900098431E00930028FAD120790C
:1054B000C01012EBC012207910F00700814011607B
:1054C000E06800900098411E00910028FAD113BDB9
:1054D00038B504000D00002C01D0012000E00020B0
:1054E0006A22DFF86813C0B2FDF768F8DFF86413CA
:1054F00001222078C01011EBC010237813F00703AD
:1055000012FA03F30360EDB2002D0CD02079C01025
:10551000DFF83C3313EBC013207910F0070012FAC8
:1055200000F0186009E02079C01011EBC010237959
:1055300013F0070312FA03F30360E0680090009889
:10554000431E00930028FAD1DFF804332078C010FE
:1055500013EBC010257815F0070512FA05F5056064
:10556000E06800900098451E00950028FAD1207848
:10557000C01011EBC011207810F0070012FA00F0F3
:1055800008602079C01013EBC013207910F00700D9
:1055900082401A6031BD2DE9FC410400002C01D08D
:1055A000012000E000208622DFF8A012C0B2FDF743
:1055B00005F80025DFF8EC6201272078C01016EB13
:1055C000C010217811F0070117FA01F10160DFF82E
:1055D00080822079C01018EBC010217911F00701EA
:1055E00017FA01F10160002200216068C0B200F0EA
:1055F0001FFAE06800900098411E00910028FAD13F
:105600002078C01018EBC018207810F0070017FAA7
:1056100000F0C8F80000E06800900098411E00917A
:105620000028FAD16068C0B200F0F1F9002800D07B
:1056300001252078C01016EBC016207810F0070066
:1056400087403760032201216068C0B200F0F0F9A2
:10565000E06800900098411E00910028FAD12800CF
:10566000C0B2BDE8F6817CB504000D00002C01D06D
:10567000012000E00020A822DFF8D011C0B2FCF722
:105680009DFF80210800C0B200284ED02800C0B283
:1056900008420CD00120227912F0070290402279B2
:1056A000D210DFF8AC3113EBC21318600BE001200D
:1056B000227912F0070290402279D210DFF8E4310B
:1056C00013EBC2131860C9B24908E06840080090A3
:1056D0000098421E00920028FAD10122207810F092
:1056E000070012FA00F02378DB10DFF8646116EB94
:1056F000C3163060E06800900098431E00930028B5
:10570000FAD1207810F0070082402078C010DFF82E
:10571000943113EBC0131A60E068400800900098C1
:10572000421E00920028FAD1ACE72000FFF733FFB9
:10573000012801D1002000E00120C0B276BD2DE992
:10574000FC4704000D00002C01D0012000E00020E7
:10575000C222DFF8F810C0B2FCF730FF002608279D
:10576000DFF8F0805FF001092078C01018EBC0105E
:10577000217811F0070119FA01F10160E068009049
:105780000098411E00910028FAD1DFF8C4A02079CA
:10579000C0101AEBC010217911F0070119FA01F1BC
:1057A0000160002200216068C0B200F041F927E0EA
:1057B0002078C01018EBC010217811F0070119FAF9
:1057C00001F10160E06800900098411E00910028FE
:1057D000FAD12078C0101AEBC010217811F007011F
:1057E00019FA01F10160E06800900098411E0091F3
:1057F0000028FAD16068C0B200F009F950EA460604
:105800003800471EC0B20028D2D12078C01018EB53
:10581000C018207810F0070019FA00F9C8F80090B5
:10582000032201216068C0B200F002F9E068009034
:105830000098411E00910028FAD12900C9B2200029
:10584000FFF746FE3000C0B2BDE8F68790A2081010
:10585000080031400400314070B504000D0016000E
:10586000002C01D0012000E0002040F28D224749A9
:10587000C0B2FCF7A3FE2000FFF78CFD217A49009F
:10588000C9B22000FFF7EFFE2900C9B22000FFF7E0
:10589000EAFE3100C9B22000FFF7E5FE2000FFF765
:1058A000C8FD70BD0400314038B504000D00002C67
:1058B00001D0012000E0002040F29F223349C0B215
:1058C000FCF77CFE00202000FFF764FD217A4900F0
:1058D000C9B22000FFF7C7FE2900C9B22000FFF7B8
:1058E000C2FE2000FFF7A5FD2000FFF753FD217A3F
:1058F000490051F00101C9B22000FFF7B4FE0121B7
:105900002000FFF71CFF05002000FFF792FD280094
:10591000C0B232BD2DE9F843040088461700002CC0
:1059200001D0012000E00020089D1E00DFF85C90FF
:1059300040F2BA224946C0B2FCF740FE30002900CE
:10594000C0B2C9B2884201D0012000E0002040F27C
:10595000BB224946C0B2FCF731FE3000C0B2206025
:105960002800C0B2606084F80880E7600323012249
:1059700001213000C0B200F082F80323012201218E
:105980002800C0B200F07BF8BDE8F18390A20810B7
:105990000069C84010F001007047012212FA01F1BD
:1059A00081607047012212FA01F14160704710B422
:1059B0008900436C0F248C40A34312F00F0212FAAB
:1059C00001F11943416410BC704780B5C9B2002988
:1059D0000ED00100C9B2082291FBF2F302FB1311B1
:1059E000494AC0B2C010C0011044FFF7D6FF0DE015
:1059F0000100C9B2082291FBF2F302FB1311424AE3
:105A0000C0B2C010C0011044FFF7CCFF01BD80B58B
:105A10000100C9B2082291FBF2F302FB13113A4ACA
:105A2000C0B2C010C0011044FFF7B2FFC0B202BD47
:105A300010B5C9B200290BD1D2B2002A02D0022A75
:105A400002D003E00F220BE00B2209E00A2207E05C
:105A5000D2B2042A01D10C2200E00E2212F0070279
:105A60000100C9B2082391FBF3F403FB1411264B88
:105A7000C0B2C010C0011844FFF799FF10BD2DE956
:105A8000F8418DB004000E0015001F0034210022E3
:105A9000E8464046FCF7BEFBF6B2002E0ED1FFB240
:105AA000002F02D0022F03D005E00F2001900DE05F
:105AB000082001900AE00820019007E0FFB2042FBF
:105AC00002D10F20019001E00E2001902000C0B211
:105AD000C0280FD02100C9B208206A4691FBF0F31C
