:020000041008E2
:100000000000082879E4081075F0081081ED081048
:1000100079F008107DF0081081F008100000000051
:100020000000000000000000000000002DEE08109D
:1000300085F008100000000089F008108DF008100D
:10004000FFE2081025E308104BE3081071E30810E5
:1000500097E30810BDE30810E3E3081009E4081073
:1000600091F0081095F0081099F008109DF0081014
:10007000A1F00810A5F00810A9F00810ADF00810C4
:10008000DFF8F80890ED000A7047DFF8F40890ED0B
:10009000000A7047DFF8F00890ED000A7047DFF8BB
:1000A000E40890ED000A7047000000002DE9F843D5
:1000B0002DED028BDFF8D4489FED758ADFED762AAF
:1000C0009FED742AF0EE481A9FED731ADFED720A65
:1000D000B3EE090A200000F051FFDFF8B458DFED5D
:1000E0006F8ADFED6F2AB0EE682AF0EE481AB0EEA4
:1000F000081ADFED690A9FED6B0A280000F03EFF49
:10010000DFF89068DFED682A9FED682AF0EE481A64
:100110009FED671ADFED670A9FED670A300000F078
:100120002DFFF7EE002AB3EE042AF0EE481A9FEDF9
:100130005A1AF6EE000AB1EE040ADFF85C0800F085
:100140001DFFDFF85878DFED5D2AB0EE682AF0EE8B
:10015000481A9FED511AF2EE040A9FED590A380031
:1001600000F00CFFDFED572A9FED572AF0EE481AFA
:100170009FED561ADFED560A9FED560ADFF820086C
:1001800000F0FCFEDFF81C88F6EE002AB7EE002A2D
:10019000F0EE481A9FED401ADFED3F0ABAEE000A72
:1001A000404600F0EBFEDFF800989FED8B8A9FED54
:1001B0003A2AF0EE681AB1EE001ADFED370AB0EE17
:1001C000480A484600F070FF9FED332AF0EE681AA7
:1001D000B1EE001ADFED300AB0EE480ADFF8CC07C6
:1001E00000F062FFDFF8C8079FED7C0A80ED000A8F
:1001F000DFED7B0AC0ED010ADFF8D00C80ED000ACC
:10020000C0ED010A2100002001F02BF82900012097
:1002100001F027F815F10801022001F022F8310061
:10022000032001F01EF84946042001F01AF8414667
:10023000052001F016F83900062001F012F817F138
:100240000801072001F00DF801F093FA01F034FBEA
:1002500001F0C8FB01F0F2FBBDEC028BBDE8F183BD
:1002600080B5DFF8280700F099FEDFF8240700F0DA
:1002700095FEDFF8200700F091FE01BD80B5DFF8A4
:10028000200700F08BFEDFF81C0700F087FE01BDA1
:100290006F12833A000087430000000000401C46B4
:1002A00000803B45008089C49EEFA73D8FC2F53E8C
:1002B000000000808FC275BD0AD7A3BE0000FA44BB
:1002C0000060064500004842000096420AD773408D
:1002D000EC51783F00000A4438B52DED048B88B00E
:1002E0000C001500C0B2002808D1F7EE009AB0EE5D
:1002F000698AFFEE008AB0EE699A07E0F7EE009A8D
:10030000B0EE698AFFEE008AB0EE699A9FED640A4A
:10031000F0EE400A49EE080ACDED020A09EEA80AFD
:100320008DED030A04A902A801F092FD002817D15F
:10033000D4ED010A94ED000A6A4601A904A801F06F
:1003400035FE00280CD19DED010A09EE008A85EDED
:10035000008A9DED000A49EE808AC5ED018A03E01E
:1003600085ED008AC5ED018A9FED4E0AD5ED000AA4
:10037000F4EE400AF1EE10FA02D5F0EE400A0DE07C
:10038000D5ED000A9FED481AF4EE410AF1EE10FA9D
:1003900002DBDFED460A01E0D5ED000AC5ED000AFB
:1003A000D5ED010AF4EE400AF1EE10FA0DD495ED08
:1003B000010ADFED3D0AB4EE600AF1EE10FA02DB4D
:1003C0009FED3A0A01E095ED010A85ED010A08B0BA
:1003D000BDEC048B31BD000000009644CDCCCC3E7A
:1003E000CDCCCCBEDFED320A90ED040A20EE200A1F
:1003F00090ED061A61EE200ADFF8E03A1A78002A3A
:100400000DD0002008600020486000208860002097
:10041000C860002008610020486100207047B0EEED
:10042000C00A9FED241AB4EE410AF1EE10FA08DA80
:10043000B0EEE00ADFED200AB4EE600AF1EE10FA49
:1004400002DB01201870DCE79FED170AD0ED090AE6
:10045000F0EEE00AF4EE400AF1EE10FA1ADAD0ED0E
:100460000A0AF0EEE00AF4EE400AF1EE10FA11DAB0
:10047000D0ED0B0AF0EEE00AF4EE400AF1EE10FACD
:1004800008DAD0ED0C0AF0EEE00AF4EE400AF1EEE4
:1004900010FA02DB01201870B3E70120BEE700006C
:1004A000DB0FC93FB81E2DC0B91E2D40B81E2D4010
:1004B000E02E654201005C420100344270B52DED32
:1004C000028B98B007A8DFF8081A442201F0BEFD9D
:1004D00002A8DFF8001A142201F0B8FDDFF8084A7C
:1004E000210007A8FFF77EFF002800F0338201F00B
:1004F00076F905002800C0B200280AD102A801F050
:1005000080FA01F0BEFA002803D001F0CDFA8DED9B
:10051000040A2800C0B2002840F0F78001F056F924
:10052000002803D101F064F9002802D09FED9F0A52
:1005300006E09DED040ADFF85C1407A801F0F4FD65
:10054000DFF84C24DFF8441407A801F0C7FDB5EE2E
:10055000400AF1EE10FA06DDF6EE000A70EE200A0F
:10056000FDEEE00A05E0FEEE000A70EE200AFDEE68
:10057000E00AC4ED000AF1EE400AF5EE400AF1EEA1
:1005800010FA06DDF6EE000A30EEC00ABDEEC00A33
:1005900005E0FEEE000A30EEC00ABDEEC00A84EDB2
:1005A000010A02A907A801F0C5F901F06AFA0028BA
:1005B0000AD007A801F08AFA01F067FADDED020A15
:1005C00030EE800A8DED020A01F09DF90600300040
:1005D000C0B200280CD0DFF814090078002807D139
:1005E000DFF8B40300F0DAFCDFF8B00300F0D6FC6B
:1005F000DFF8F80806709DED0C0ADDED020A30EE1A
:10060000C00A03E0DFEDD50A30EE200ADFEDD40AA0
:10061000B4EE600AF1EE10FAF4DADFEDD20AB4EECD
:10062000600AF1EE10FA04D5DFEDCF0A30EE200AB1
:10063000F3E7DDED020A30EEC08ADFF8B4689DED25
:10064000020AD6ED000A30EE600AB0EEC00ADFED15
:10065000C70AB4EE600AF1EE10FA05DBCE4800F0EE
:100660009DFCCE4800F09AFC02983060F0EE480AFB
:100670009DED020AC84800F099FCDDED080AF1EE94
:10068000600AC64800F092FCB5EE400AF1EE10FA9E
:1006900008DDF6EE000A30EE200ABDEEC00A10EECC
:1006A000100A07E0FEEE000A30EE200ABDEEC00A96
:1006B00010EE100A2168091A21606168081A60604A
:1006C00001F017F9002861D19DED080ADFEDA80AB5
:1006D00020EE200AF3EE040A80EE200AFFEE000A64
:1006E000B4EE600AF1EE10FA02D5B0EE600A09E04D
:1006F000DFEDA00AB4EE600AF1EE10FA02DBB7EE0D
:10070000000AFFE78DED050A40E09FED280AA04AA8
:100710009E4907A801F0E2FCB5EE400AF1EE10FA9E
:1007200006DDF6EE000A70EE200AFDEEE00A05E0B6
:10073000FEEE000A70EE200AFDEEE00AC4ED000AAB
:10074000F1EE400AF5EE400AF1EE10FA06DDF6EEA3
:10075000000A30EEC00ABDEEC00A05E0FEEE000A57
:1007600030EEC00ABDEEC00A84ED010A94ED000A25
:10077000B8EEC00ABDEEC00A84ED000A94ED010A8D
:10078000B8EEC00ABDEEC00A84ED010AEDB2002D3C
:100790000ED1DFF860070190DFF85C070090814B15
:1007A0007F4A07A902A801F0DFFC0DE0000000006D
:1007B000DFF844070021016000214160DFF83407C1
:1007C000002101600021416001F000F8002806D0FE
:1007D00007AADFF82017DFF8200701F019F801F069
:1007E00050F9002813D001F055F9DFF80C07D0EDCF
:1007F000010A30EE800A80ED010A01F050F9DFF8BD
:10080000F406D0ED010A30EE800A80ED010A684D51
:100810002A00DFF8E4160020FFF75EFDDFF8AC6683
:100820003200DFF8D0160120FFF756FD00940023B8
:1008300007AA29005C4800F06BFC0094012307AA7A
:1008400031005A4800F064FC9FED4B0ADFF8AC061B
:10085000D4ED000AF8EEE00A90ED001A70EEC10A3D
:1008600090ED001A00EE801A80ED001ADFF8901665
:10087000D4ED010AF8EEE00A91ED001A70EEC10A1B
:1008800091ED001A00EE801A81ED001ADFF874264F
:10089000D4ED020AF8EEE00A92ED001A70EEC10AF9
:1008A00092ED001A00EE801A82ED001ADFF8583639
:1008B000D4ED030AF8EEE00A93ED001A70EEC10AD7
:1008C00093ED001A00EE801A83ED001ADFF83C5613
:1008D000D4ED040AF8EEE00A95ED001A70EEC10AB4
:1008E00095ED001A00EE801A85ED001ADFF82066FB
:1008F000D4ED050AF8EEE00A96ED001A70EEC10A92
:1009000096ED001A00EE801A86ED001A90ED000AAE
:10091000BDEEC00A84ED000A91ED000ABDEEC00AEA
:1009200084ED010A92ED000ABDEEC00A84ED020AD0
:1009300093ED000ABDEEC00A84ED030A95ED000AAE
:10094000BDEEC00A84ED040A96ED000ABDEEC00AB1
:1009500084ED050A18B0BDEC028B70BDDB0FC9C079
:10096000DC0F4940DB0F49C0DB0FC9400100003FED
:10097000CDCC4CBE0100803FCDCC4C3E9C2D0328FD
:10098000A02D0328A42D0328A82D0328602A0328BE
:10099000842A0328A82A0328CC2A0328F02A03281B
:1009A000142B0328382B03284828032890280328D1
:1009B000F82C03282DE9F8432DED068B04000E00DA
:1009C00015002068306194ED010ADFED980A30EEE1
:1009D000200A86ED060AA0687061E068B0602069B0
:1009E00070606069F060A0693060DFF828150878F1
:1009F000002805D17069DFF82025106001200870FB
:100A000096ED050ADFF81005D0ED000A30EE600A19
:100A100086ED050A07E096ED050ADFEDD70A30EE10
:100A2000200A86ED050A9FEDD58A96ED050AB4EEFB
:100A3000480AF1EE10FAEEDADFEDD18A96ED050AFA
:100A4000B4EE680AF1EE10FA08D596ED050ADFED6E
:100A5000CD0A30EE200A86ED050AEDE7F2EE040A33
:100A6000DFF8B80490ED070A20EE200A90ED081A8E
:100A700061EE200ADFF8A814087800280AD1DFF810
:100A8000A40480ED000ADFF8A004C0ED000A0120F4
:100A9000087001E1DFF88C0490ED001A30EE411A85
:100AA000DFF88414D1ED001A70EEE11A9FEDB62A3A
:100AB000B4EE421AF1EE10FA03D5DFEDB42A31EEAE
:100AC000221ADFEDB32AB4EE621AF1EE10FA03DB5C
:100AD0009FEDB03A31EE031AF4EE421AF1EE10FA3D
:100AE00003D59FEDAA2A71EE821AF4EE621AF1EE96
:100AF00010FA03DB9FEDA72A71EE821A80ED000A3F
:100B0000C1ED000A9FEDD90A61EE000A9FEDD82AD7
:100B1000C0EE820AFFEE002A21EE802A9FEDD43A31
:100B200082EE032A22EE222A9FEDD23ADFF8FC035E
:100B3000D0ED003A70EEE30AD0ED003A40EE833A91
:100B4000C0ED003ADFF8E813D1ED000A72EE600A5A
:100B500091ED002A00EE832A81ED002A0068F06101
:100B60000868306201EEA21AF0EE000AC1EE200A17
:100B700020EE800ADFEDD30A20EE200ADFEDBC0A6A
:100B800020EE209ADFF8AC03DFF8AC83B0EEC90AA0
:100B9000D8ED000A90ED001A00EE201A80ED001A40
:100BA000D6ED059ADFF8947397ED00AA39EECA0ADC
:100BB00003E0DFED710A30EE200AB4EE480AF1EEF0
:100BC00010FAF6DAB4EE680AF1EE10FA04D5DFEDA9
:100BD0006D0A30EE200AF5E7F0EEC00A9FEDBA1A72
:100BE000F4EE410AF1EE10FA22D5DFF85493B0EE9C
:100BF0004A0A01F065FC20EE090AD8ED000A99EDD9
:100C0000001A00EE201A89ED001ADFF83893B0EED2
:100C10004A0A01F057FC20EE090AD8ED000A99EDC6
:100C2000001A00EE201A89ED001A33E06E35F8BC88
:100C300089EE009AB0EE690A01F044FCF0EE40AA99
:100C4000DFF8FC92B0EE4A0A01F03CFC3AEEC00A32
:100C500020EE090AD8ED000A99ED001A00EE201ADC
:100C600089ED001AB0EE4A0A01F02AFCB0EE40AA63
:100C7000DFF8D092B0EE690A01F022FC3AEE400AA9
:100C800020EE090AD8ED000A99ED001A00EE201AAC
:100C900089ED001AC7ED009AAB489FED740AD0EDBC
:100CA000090A60EE800AC6ED090AD0ED0A0A60EE74
:100CB000800AC6ED0A0AA548D0ED090A60EE800A4E
:100CC000C6ED0B0AD0ED0A0A20EE800A86ED0C0A6A
:100CD000B6EE000A9E48D6ED090A90ED001A70EEB5
:100CE000C10A90ED001A00EE801A80ED001A9949B1
:100CF000D6ED0A0A91ED001A70EEC10A91ED001AC4
:100D000000EE801A81ED001A934AD6ED0B0A92ED9F
:100D1000001A70EEC10A92ED001A00EE801A82ED00
:100D2000001A8E4BD6ED0C0A93ED001A70EEC10A34
:100D300093ED001A00EE801A83ED001A00687062CD
:100D40000868B0621068F0621868306301F005FD51
:100D5000002802D0300001F008FD81490878002801
:100D60001AD0002070630020B0630020F0630020E0
:100D70003064002008703DE0DB0FC9C0DC0F494043
:100D8000DB0F49C0DB0FC940000034C30000B4438F
:100D9000010034430000B4C39FED350AD6ED090AC3
:100DA000704890ED001A70EEC10AC0EE800AC6EDE0
:100DB0000D0AD6ED0A0A6C4890ED001A70EEC10AD1
:100DC000C0EE800AC6ED0E0AD6ED0B0A674890ED1C
:100DD000001A70EEC10AC0EE800AC6ED0F0AD6ED09
:100DE0000C0A634890ED001A70EEC10A80EE800A8A
:100DF00086ED100A706A5B490860B06A5A4908605B
:100E0000F06A5A490860306B5949086094ED080A45
:100E1000DFED310A20EE200A85ED020A0020E860AD
:100E2000002028610020686052490878002804D119
:100E30007069514A10600120087094F8240000285D
:100E400003D0A06A4C4908601EE04B4894ED070AA5
:100E5000F1EE080A20EE200ADFED050A90ED001AF7
:100E600000EE201A80ED001A0EE000BF35FA8E3C2D
:100E70006F12833ACDCC4C3E90ED000ADFED180A9C
:100E800030EE200A80ED000A3B4890ED000AB4EEF7
:100E9000480AF1EE10FAEFDA90ED000AB4EE680AB3
:100EA000F1EE10FA08D590ED000ADFED0E0A30EEF3
:100EB000200A80ED000AEFE700682860BDEC068B91
:100EC000BDE8F183000002426F12033B002D0328AE
:100ED00020290328302C0328333353408B2E03283A
:100EE000DB0FC9C0DB0FC940002C03288C2E032860
:100EF000AC2D0328F02C0328E82C0328B02D032860
:100F0000B42D0328B82D0328BC2D0328C02D032899
:100F1000C42D03288D2E0328C82D0328DC2903287F
:100F20008E2E0328CC2D0328D02D0328D42D032862
:100F3000D82D0328A82D032864BF0228A42D032838
:100F40009C2D0328A02D0328082A0328342A0328CF
:100F5000DC2D0328E02D0328E42D0328E82D0328A9
:100F600068C00228EC2D0328F02D0328F42D032857
:100F7000F82D03288F2E0328FC2D032880B580ED43
:100F8000000AC0ED010A80ED021AC0ED031A80EDDF
:100F9000072AC0ED082A00F001F801BD0021016117
:100FA00000214161002181617047000070EE600AFC
:100FB00090ED000A20EE200A90ED011AD0ED041AFF
:100FC00021EE211AD0ED051A70EEE11A90ED032AF8
:100FD000C1EE821A90ED062A71EEC21A9FED312AF7
:100FE000D0ED062A41EE822AC0ED062AC0ED050AA0
:100FF000D0ED021A90ED062A61EE821A30EE010A57
:1010000030EE210A90ED071AB4EE401AF1EE10FA14
:1010100002D590ED070A0CE090ED071AB1EE411AE7
:10102000B4EE410AF1EE10FA03D590ED070AB1EEE5
:10103000400AB0EEC01AD0ED071AB4EE611AF1EE14
:1010400010FA08D490ED041A20EE811AB5EE401A79
:10105000F1EE10FA07D890ED031AD0ED041A40EE25
:10106000811AC0ED041AD0ED080A90ED041AF4EECE
:10107000410AF1EE10FA02D5016A016110E0D0EDEB
:10108000040A90ED081AB1EE411AF4EE410AF1EEAD
:1010900010FA05D5D0ED080AF1EE600AC0ED040A99
:1010A00070470000CDCC4C3E10B52DED068B0400F2
:1010B000B0EE408AF0EE608AB0EE419AF0EE619AAE
:1010C000B0EE42AADFED11AAF0EE4A2AB0EE692A8C
:1010D000F0EE6A1AB0EE491AF0EE680AB0EE480A6D
:1010E0002000FFF74BFFF0EE4A2AB0EE692AF0EE3F
:1010F0006A1AB0EE491AF0EE680AB0EE480A14F126
:101100002400FFF73BFFBDEC068B10BD6F12833A46
:1011100038B52DED048B04001D002800C0B2002856
:1011200008D1D2ED090A92ED0A8A91ED000AD1EDBB
:10113000018A07E0D2ED0B0A92ED0C8A91ED000ACC
:10114000D1ED018A2000FFF731FFB0EE409AF0EEBA
:10115000480AB0EE680A14F12400FFF727FFFDEEFD
:10116000C90A10EE901ABDEEC00A10EE102A0898B7
:10117000EDB2002D04D1494281605242C26003E0C9
:101180004942016152424261BDEC048B31BDF0B471
:101190000246106895681318506803EB5004C007A6
:1011A00048BF4D44A3422DD013F8016B16F0030045
:1011B00004BF13F8010BC01C31090F2907D113F824
:1011C000011B0F3103E013F8017B05F8017B401E82
:1011D000F9D10029E6D013F8010BC6F38106032EDE
:1011E00008BF13F8016B00EB06204042284400269C
:1011F000B71E8F421EBF10F8017B05F8017B761CDD
:10120000F6D1CFE7F0BC02F10C00704781B0010AC3
:101210000902184A91420AD10100C9B2082902DA2A
:101220001549087002E0FF20134908700EE0124AC9
:101230001178082908DA1149137851F82310002988
:1012400002D0009000980860FF20107001B0704735
:1012500080B50B49002001F0D4FA0120094908703B
:1012600001BD0200D2B2082A03DA044AC0B242F831
:10127000201070470000445267C002287C2B0328CE
:101280000D1208108A2E0328B5EE401AF1EE10FA5E
:101290000DD9F7EE001AB4EE611AF1EE10FA02DB86
:1012A000B0EE600A03E070EEC00A00EE810A7047FB
:1012B000DFF8D01508700020DFF8CC1508807047E3
:1012C000DFF8C8059FEDB50A80ED000ADFEDB40A2E
:1012D000C0ED010A80ED090AC0ED0A0ADFF8B00589
:1012E00080ED000AC0ED010A80ED090AC0ED0A0A8E
:1012F00070470000DFF894059FEDAA0A80ED000A10
:101300000021416080ED090A00218162DFF880053B
:1013100080ED000A0021416080ED090A0021816210
:10132000704770B50D001600DFF85C452088012875
:1013300001D1FEF7A3FF0020286000203060DFF815
:1013400054050078DFF850150978884202D140F240
:10135000DC5001E04FF49670218880B2814202D3C4
:101360000220FFF7A5FF70BDF8B50C001500DFF8EF
:1013700018653088012807D16068DFF820150860FB
:101380006868DFF81C150860DFF808050078DFF8EA
:1013900008150978884201D0012000E00020C0B281
:1013A000002801D0C82701E04FF4C877308800EE4C
:1013B000100AB8EE400A380080B200EE900AF8EE4B
:1013C000600A80EE201A9FED780AB4EE401AF1EE22
:1013D00010FA01DBB7EE001ADFEDC70A9FED730AC2
:1013E000FFF752FF0020206000202860DFF8AC04E7
:1013F000D0ED000A70EE800AC4ED010ADFF8A00407
:10140000D0ED000A30EE800A85ED010A3088BFB2C7
:10141000B84202D30320FFF74BFFF1BDF8B504003B
:101420000E001700DFF860542888012809D1DFF882
:10143000740431680160DFF8700439680160FFF7F7
:101440003FFF288800EE100AB8EE400ADFED540A8C
:1014500080EE201A9FED540AB4EE401AF1EE10FA15
:1014600001DBB7EE001ADFED520A9FEDA30AFFF78A
:101470000BFF3068306038683860DFF82004D0ED4A
:10148000000A70EE800AC6ED010ADFF81404D0ED00
:10149000000A30EE800A87ED010A002029885129D0
:1014A0000DDB94ED000AB0EEC00ADFEDC50AB4EE24
:1014B000600AF1EE10FA01D5012000E00020C0B270
:1014C000002802D12888C82808DBFFF713FFFEF7A1
:1014D000C7FEFEF7D3FE0420FFF7EAFEF1BD0000D1
:1014E000F8B505000E001700DFF89C4320881E2881
:1014F0000FDA208800EE100AB8EE400AF3EE0E0A6A
:1015000080EE201ADFED290A9FED290AFFF7BCFEC5
:1015100016E020883C2811DA20881E3880B200EEC0
:10152000100AB8EE400AF3EE0E0A80EE201ADFED44
:10153000A50A9FED1E0AFFF7A7FE01E09FEDA10A95
:10154000DFF8600300683060DFF85C030068386033
:1015500086ED010A87ED010AD5ED000A9FED9A1A82
:10156000F4EE410AF1EE10FA04DB20884C2801DB8E
:10157000012000E00020C0B2002804D1208840F201
:10158000F511884208DBDFF8240380ED000AFEF73E
:1015900075FE0520FFF78CFEF1BD000000401C46E3
:1015A00000004842000096440100803F0000000017
:1015B0000000C8C32DE9F0410D001600DFF8D44249
:1015C0002078022801DB012000E0002000212960B2
:1015D00000213160C0B2002862D01E2111F19600B6
:1015E00010F16407DFF8A082B8F8002089B29142B8
:1015F00016D3B8F8000000EE100AB8EE400AF3EE79
:101600000E0A80EE201ADFF8A40290ED000ADFED4A
:101610007D0A70EE200A90ED000AFFF735FE2DE0FE
:101620000100B8F8002089B2914207D39F4890ED9D
:10163000000ADFED740A30EE200A1FE0B8F800104F
:10164000081A80B200EE100AB8EE400ADFED2A0A4E
:1016500080EE201A9FED6C0AB4EE401AF1EE10FAFB
:1016600001DBB7EE001ADFED690A904890ED000A41
:10167000DFED641A30EE210AFFF706FE85ED010A60
:1016800086ED010AB8F80000BFB2B8426FD3FEF78A
:10169000F5FD2078401E20700220FFF709FE66E06D
:1016A000C8271E37DFF8E081B8F800001F2815DAD8
:1016B000B8F8000000EE100AB8EE400AF3EE0E0A89
:1016C00080EE201A794890ED000ADFED4E0A70EEA8
:1016D000200A90ED000AFFF7D7FD2FE03800B8F898
:1016E000001080B2884209D3704890ED000ADFED07
:1016F000450A30EE200A21E00000C842B8F8000098
:10170000C01B80B200EE100AB8EE400ADFED5C0AA2
:1017100080EE201A9FED3C0AB4EE401AF1EE10FA6A
:1017200001DBB7EE001ADFED390A604890ED000AE0
:10173000DFED341A30EE210AFFF7A6FD85ED010A30
:1017400086ED010AB8F80000BFB217F5C877B842B5
:101750000DDBFEF793FD0020207000204E4908703D
:1017600040F2DC50524908800020FFF7A1FDBDE89F
:10177000F0810020434908700020434908804B480D
:101780000021016000204349087000204249087090
:10179000704780B53B490978002910D10100C9B2D2
:1017A00000290CD0434981ED000A3A4908703A49B2
:1017B000087000203E4908800120FFF779FD01BD37
:1017C0009A99993E000070C23433333F2D48007817
:1017D000002801D0012000E00020C0B27047294855
:1017E0000078042801D1012000E00020C0B2704739
:1017F0002F480088002801D0012000E00020C0B25E
:10180000704700000000B4420100803F000000006B
:1018100010B513001C4A1488641C1480194A1278ED
:10182000012A07D024D3032A10D009D3052A19D0BE
:1018300012D31DE00A0001001800FFF772FD1EE040
:101840000A0001001800FFF78FFD18E00A000100F0
:101850001800FFF7E3FD12E00A0001001800FFF78F
:101860003FFE0CE00A0001001800FFF7A3FE06E0AF
:101870000F490888002802D00888401E088010BD43
:101880000000C843812E0328642E0328482803281B
:1018900090280328822E0328832E03283C2D03281A
:1018A000402D0328342D0328382D0328302D0328FC
:1018B000662E03282C2D03280020DFF84C15087015
:1018C000DFF8480500210160DFF8440500210160D0
:1018D0007047DFF834150878002809D10120087016
:1018E000DFF8280500210160DFF8240500210160F0
:1018F0007047DFF814050078012801D1012000E0CD
:101900000020C0B27047DFF800050078022801D13E
:10191000012000E00020C0B270470020DFF8E8148A
:101920000870DFF8E80400210160DFF8E40400211A
:101930000160704730B4DFF8D0241378012B4FD109
:10194000DFF8C83493ED000AB5EE400AF1EE10FA64
:1019500003D14469DFF8B8542C60DFF8B44494ED47
:10196000000ADFED530A30EE200A84ED000A2468F5
:101970000C6090ED010ADFED4F0A20EE200AF3EE35
:10198000040A80EE200AFFEE000AB4EE600AF1EECF
:1019900010FA02D5B0EE600A09E0DFED470AB4EEB6
:1019A000600AF1EE10FA02DBB7EE000AFFE781ED04
:1019B000030A90ED010AB0EEC00ADFED400A93ED94
:1019C000001A00EE201A83ED001A93ED000ADFEDF5
:1019D0003C0AB4EE600AF1EE10FA01DB022010704E
:1019E00030BC70470020DFF82C14087070470120CD
:1019F000DFF82014087070470020DFF81814087012
:101A00007047DFF810140978002902D0DFF80814B5
:101A100081607047B5EE401AF1EE10FA0DD9F7EE7D
:101A2000001AB4EE611AF1EE10FA02DBB0EE600AB1
:101A300003E070EEC00A00EE810A70470020DFF874
:101A4000DC130870DFF8D80300210160DFF8D4034D
:101A500000210160DFF8D003002101600020DFF8E1
:101A6000CC13087070470120DFF8B0130870002015
:101A7000DFF8B813087070470020DFF8A013087073
:101A80007047DFF8980300787047DFF8940390ED13
:101A9000000A7047DFF88C0390ED000A7047DFF80A
:101AA000880390ED000A70479FED060A704700001A
:101AB000C926343C3333B3BE0100803F6F12833AF2
:101AC000DB0F49418FC2F53D7047704770B5DFF8B5
:101AD0004C231178002901D0002800D18BE190ED32
:101AE000070AD0ED080ADFF84413087800281AD155
:101AF000DFF83C0380ED000ADFF83803C0ED000A90
:101B0000012008700020DFF8301308700020DFF893
:101B10002C1308800020DFF8281308800020DFF84D
:101B20002413087067E1DFEDB41AC14890ED001A84
:101B300030EE411A81EE211ABE4991ED002A30EEB5
:101B4000C22AC2EE211A80ED000AC1ED000ABB4C88
:101B50002088401C2080BA480188491C01800088E8
:101B600042F6E06188420BDB00201070AC48002197
:101B70000160AC4800210160AB48002101603AE1FE
:101B8000AD4D2878002807D0022800F09D8041D371
:101B9000032800F0D7802EE1A148AB490160A1489D
:101BA00000210160A04800210160BBEE040AB4EEF0
:101BB000401AF1EE10FA01D5012000E000209FED5F
:101BC0008F0AF4EE401AF1EE10FA01DB012100E079
:101BD0000021C0B208420DD09A480178491C01701A
:101BE0000178032909DB01212970002121800021CE
:101BF000017002E0002093490870208840F24C41B7
:101C0000884206DB012028700020208000208D49BA
:101C10000870F0E082488C4901608348002101602F
:101C20004FF4AF76502120880A0092B2904215D22C
:101C3000208800EE100AB8EE400A89B200EE901A31
:101C4000F8EE600A80EE201ADFED6D0A9FED6D0A56
:101C5000FFF7E0FE734880ED000A2CE02288330095
:101C60009BB2080080B21B1A9A4203DA6D4864499D
:101C7000016020E02088320092B2904218D2208881
:101C8000801B081880B200EE100AB8EE400A89B234
:101C900000EE901AF8EE600A80EE201ADFED590A85
:101CA0009FED570AFFF7B6FE5E4880ED000A02E09E
:101CB0005C48002101602088B6B2B04203D3022004
:101CC00028700020208096E0554860490160554802
:101CD00000210160544800210160BBEE040AF4EECB
:101CE000401AF1EE10FA01D5012000E000209FED2E
:101CF000430AB4EE401AF1EE10FA01DB012100E0D4
:101D00000021C0B208420DD04E480178491C017034
:101D10000178032909DB032129700021218000219A
:101D2000017002E0002047490870208840F24C41D1
:101D3000884206DB032028700020208000204149D3
:101D4000087058E03648414901603648002101607A
:101D50004FF4AF76502120880A0092B2904215D2FB
:101D6000208800EE100AB8EE400A89B200EE901A00
:101D7000F8EE600A80EE201ADFED210A9FED210ABD
:101D8000FFF748FE284880ED000A2CE02288330047
:101D90009BB2080080B21B1A9A4203DA2248184903
:101DA000016020E02088320092B2904218D2208850
:101DB000801B081880B200EE100AB8EE400A89B203
:101DC00000EE901AF8EE600A80EE201ADFED0D0AA0
:101DD0009FED0B0AFFF71EFE134880ED000A02E09C
:101DE0001148002101602088B6B2B04203D3002020
:101DF00028700020208070BD6F12833AFFFF1FC142
:101E00000000204200000000932E0328182E032813
:101E10001C2E0328942E03289A99193F952E0328E7
:101E2000202E0328242E0328282E0328962E03284C
:101E30002C2E0328302E0328972E03286A2E0328E1
:101E40006C2E0328982E0328C2B8B23DC2B8B2BD8A
:101E500038B52DED108B04000D00F3EE08BA9FEDA0
:101E60006E8A9FED6EFA94ED000A00F02BFBF0EE07
:101E7000408A94ED000A00F023FBB0EE409A94ED06
:101E8000010A00F01FFBF0EE409A94ED010A00F009
:101E900017FBB0EE40AA28EE090A70EE6BAA28EEF6
:101EA00028BA48EE0ABA28EE29CA7BEEEACA3CEE06
:101EB0004BDA2CEEAC0A0DEE0D0A00F0D9FCF0EE78
:101EC00040DAB0EE000A2FEE000AB4EE6D0AF1EE31
:101ED00010FA06D49FED52EAF4EE4EDAF1EE10FA63
:101EE00002D55FF0FF305EE0F6EE00EA2DEEAE0ABE
:101EF0006FEE0F0A40EE400A9FED4A0A00F0C8FC60
:101F000000F0B6FC7AEEAB0A20EEAE1A7BEE0C0ABD
:101F100060EEAE1ACDEE2D0AF1EE600A8CEEAD2A1F
:101F200000EE201A40EE021A31EE6A0A71EECB0A78
:101F300031EE6B1A71EECC1A29EE202A08EEC02A77
:101F400022EE082A6AEE212A49EEC12A62EE882A88
:101F500020EE213A00EEC13AF0EEC33AF4EE4E3AEA
:101F6000F1EE10FA02D55FF0FF301CE0F7EE003A18
:101F700083EE833A63EE211A61EE821AC5ED001AF0
:101F800063EE200A60EEE20AC5ED010A63EE010A83
:101F900060EEC20AC5ED020A23EE000A20EE220A14
:101FA00085ED030A0020BDEC108B32BD90ED001AC8
:101FB000D0ED031A21EE211AD0ED011A90ED022A7C
:101FC00001EEC21AF0EEC11A9FED172AF4EE421A82
:101FD000F1EE10FA02D55FF0FF301CE0F7EE001AC8
:101FE00081EE811AD0ED031A61EE801A90ED012A7C
:101FF00042EE601A61EE811AC1ED001AD0ED001AAE
:1020000061EEA00AD0ED021A41EEC00A20EE810A6C
:1020100082ED000A002070470000AA42000007433A
:10202000CDCCCC3D0000000077CC2B3262B38B07C7
:1020300008D0521E11F8013B00F8013B00F024804B
:102040008B07F6D1830740F0208000BF103A07D3FA
:1020500030B4B1E83810103AA0E83810F9D230BCEA
:10206000530724BFB1E80810A0E8081044BF51F896
:10207000043B40F8043BD20724BF31F8022B20F880
:10208000022B44BF0B7803707047121F17D35B00FD
:1020900009D151F8043B20F8023B1B0C121F20F819
:1020A000023BF6D20BE051F8043B00F8013B1B0A5F
:1020B00020F8023B1B0C121F00F8013BF3D238BF83
:1020C000121D521E24BF11F8013B00F8013BF8D845
:1020D00070470268531C03601170704710B52DEDF6
:1020E000028B1400D0ED040A9FED1B1A30EE818A9A
:1020F000D0ED028AF0EE480A0800FEF757FFF0EE36
:10210000680A2000FEF752FFF0EE408AB0EE480A5F
:1021100000F0D8F9DFED110A40EE208AB0EE680A2F
:10212000BDEC028B10BD000080B5D0ED070A90ED2C
:10213000081A70EE810AB0EE001AC0EE810A9FED17
:10214000081AC0EE810A9FED071A80EE010A080006
:10215000FEF72CFF01BD0000A692ABBD0000484277
:1021600000007042333353402DE9F04104000D006C
:1021700010001E0095ED070AD5ED080A30EE200A82
:10218000F0EE000A80EE200ADFED4E0AC0EE200AD3
:1021900094ED020AFEF70AFFDFED4B0AB4EE600A87
:1021A000F1EE10FA02D5B0EE600A09E0DFED470A61
:1021B000B4EE600AF1EE10FA02DB9FED450AFFE78C
:1021C000DDF81C80069F87ED000AB1EE400A88ED1D
:1021D000000A95ED060ADFED3F0AC0EE200A94EDF5
:1021E000030A3000FEF7E2FEFFEE000AB4EE600ADA
:1021F000F1EE10FA02D5B0EE600A09E0DFED360A22
:10220000B4EE600AF1EE10FA02DBB7EE000AFFE767
:10221000DFED320A60EE200AC7ED010ADFED300A79
:1022200020EE200A88ED010A94ED040AF3EE0E0A6E
:1022300020EE200AD7ED010A70EE800AC7ED010AF0
:10224000D8ED010A30EE800A88ED010A284895EDA4
:10225000040AB0EEC00AD0ED000A30EE600ADFEDED
:10226000210A90ED001A00EE201A80ED001ADFED31
:10227000180A90ED000A20EE200A9FED1B1A20EEAE
:10228000010AB5EE400AF1EE10FA02D59FED170AE9
:1022900009E09FED0E1AB4EE410AF1EE10FA02DBEE
:1022A000B0EE600AFFE7D7ED010A70EE800AC7EDD5
:1022B000010AD8ED010A30EE800A88ED010ABDE876
:1022C000F08100BF000070420000A0C20100A042E7
:1022D0000000A042CDCC4C3F0100803F00003443C1
:1022E000000034C30AD7A33B9A99993F000000002D
:1022F0004C2D0328DFED620A60EE200A10EE902AD2
:1023000022F0004101EE101ADFED5E1AB4EE611A00
:10231000F1EE10FA25D54FF07C5102F000420A434D
:1023200001EE102A71EE200AFDEEE00A10EE901A7E
:1023300000296AD0FAEEC90A9FED531A00EE810A0D
:10234000DFED521A00EEA10A9FED512A00EE820A3B
:10235000DFED502A00EEA20A9FED4F1A00EE810A2F
:1023600053E010EE101A4B001B1613F1010F0AD1A7
:102370004900081610F1010F02D1090240F07F80D8
:102380009FED460A7047490004D1002877D0B7EE88
:10239000000A70474FF07C5102F000420A4301EE00
:1023A000102A71EE200A10EE902A51000DD0090E6D
:1023B000C1F196011829A8BF02F0004203DA0029F2
:1023C000C4BFCA408A4000EE902A10EE901A49001D
:1023D00017D09FED331A20EE811ADFED2B1A01EE94
:1023E000210A9FED2A2A01EE020ADFED292A01EED9
:1023F000220A9FED283A01EE030ADFED271A01EECB
:10240000210AFDEEE00A10EE901A01F0030108180F
:1024100010EE101A21F0004100EE901A9FED211AE3
:10242000F4EE410AF1EE10FA04D5C10723D5B7EE58
:10243000000A20E0C10760EE000A0ED59FED1A0ADF
:102440009FED1A1A00EE801ADFED191A41EE201ADC
:10245000B7EE000A01EEA00A0DE09FED162ADFEDAF
:10246000161A40EE821ADFED152A20EE201A41EEF0
:10247000A02A01EE220A800748BFB1EE400A704749
:1024800083F9223F0000004F0000C9C600A0FDC034
:102490000020A2BA000034B30030C2AEFFFFFF7FBD
:1024A00000008038000080399349B2BA36A02A3D36
:1024B000DFFFFFBE6E8C4CB94283083CA1AA2ABE46
:1024C000012017E7002015E7C9B2002905D002292D
:1024D00009D005D3032909D00BE090ED090A0AE0E1
:1024E00090ED0A0A07E090ED0B0A04E090ED0C0A6B
:1024F00001E09FED500A7047C9B2002905D00229BA
:1025000007D004D3032906D007E0826005E0C2604B
:1025100003E0026101E04261FFE770470021816052
:102520000021C1600021016100214161704780B537
:102530009F4B0A00D2B21A4492F91020002A00D10F
:102540000122B3F9043002FB03F2C9B2FFF7D4FF52
:1025500001BD30EE600AB5EE400AF1EE10FA02D588
:10256000B1EE400AFFE770479148002181700021D9
:1025700081620021C16200214163704710B58C4C1B
:1025800000222178491EC9B2FFF7B6FF2078401C0F
:10259000207060782178884205D2052020700120C3
:1025A00084F8240001E0FFF7DFFF10BD7FB50400D1
:1025B000382100227E4D2E00300000F07FF90020EF
:1025C0002870002C05D0684621001022FFF73EFD40
:1025D00004E0684677491022FFF738FD281D694658
:1025E0001022FFF733FDB5F90400002803D5B5F933
:1025F00004004042A880B5F9040042F211718842FB
:1026000002DB42F21070A880E888002801D1012086
:10261000E88095ED030AB5EE400AF1EE10FA01D814
:102620006548E8600420687001202870FFF79CFF6F
:102630007FBD00000000000070B52DED028B0D0085
:102640005B4C2178002902D02178052900DB81E04C
:10265000216B491C2163618900290CD0216B62899F
:10266000914208DB012084F8250005202070280015
:10267000FFF754FF6EE021784E1E3100C9B2FFF71C
:1026800023FFB0EE408AA078002803D002283AD079
:102690000FD35FE084ED0D8AA06A401CA062280081
:1026A000FFF73CFFA06A2189884201DB0120A0706E
:1026B00050E0D4ED0D0AB0EE480AFFF74AFFD4ED22
:1026C000030AB4EE600AF1EE10FA0BDB0220A070F0
:1026D0000020E06284ED0D8A3100C9B22800FFF7C6
:1026E00026FF37E0E06A401CE062E06A40F6B9315C
:1026F0008842EFDBF6B204EB860080ED058A280005
:10270000FFF73CFF26E0D4ED0D0AB0EE480AFFF7D4
:1027100020FFD4ED030AB4EE600AF1EE10FA03D5FF
:10272000E06A401CE06201E00020E06284ED0D8A76
:10273000E06AE188884208DBF6B204EB860080EDAF
:10274000058A2800FFF71AFF04E03100C9B228000B
:10275000FFF7EDFEBDEC028B70BD154890F824002C
:102760007047134890F825007047114990ED090A09
:10277000D1ED050A30EE600A80ED090A90ED0A0AF3
:10278000D1ED060A30EE600A80ED0A0A90ED0B0AE0
:10279000D1ED070A30EE600A80ED0B0A90ED0C0ACD
:1027A000D1ED080A30EE600A80ED0C0A7047000097
:1027B000A42903281CEF0810A69B443B010009B282
:1027C000002908D4012210F01F018A40224900B2DA
:1027D000400941F820207047010009B2002908D4BF
:1027E000012210F01F018A401C4900B2400941F843
:1027F00020207047704780B54068194909688847AC
:1028000001BD7FB504000D006846174991E84C00F2
:1028100080E84C008DF80040684600F0C5F80121C2
:10282000124800F02AF968462100C9B200EB810085
:10283000B0F90400FFF7D0FF68462100C9B200EBF1
:102840008100B0F90400FFF7B9FF054805600548AD
:1028500004707FBD0000000000E100E080E200E0C5
:10286000DCBF0228A72E032890EF0810F7270810D6
:10287000B5EEC00AF1EE10FA02D4B1EEC00A70470C
:102880006FF0004C00EE10CAAFF3008070470000FC
:1028900010EE100AF5EE400AF1EE10FA09D604BF68
:1028A000C04207E0B4EE600AF1EE10FAB8BFB0EE35
:1028B000600A704728BFB0EE600A704762F30F22CB
:1028C00062F31F42401810F0030308D0C91A1FD347
:1028D000DB0748BF00F8012D28BF20F8022D1300A8
:1028E00030B414461546103928BF20E93C00FAD808
:1028F000490728BF20E90C0048BF40F8042D890093
:1029000028BF20F8022D48BF00F8012D30BC7047C9
:10291000C91818BF00F8012DCB0728BF00F8012DFA
:102920007047000038B50400082C0FD3DFF81452AC
:102930001822DFF81412280000F01AF90020E875B8
:10294000CD2082490860002000F04AF980486401E7
:10295000204432BD38B50400082C0DD3794D18221F
:102960007949280000F004F90020E875E82077494B
:102970000860002000F034F976486401204432BD3C
:10298000754B1B6862F31F4361F30F03836070474D
:10299000C068704700687047C069C00FC0B2704718
:1029A00080B500F0E1F902BDFEB5040000256B4ED4
:1029B00020783070307804EB8000C078ADF80000EB
:1029C000307804EB80008088ADF8020001208DF89B
:1029D0000400002108E001220800C0B204EB8000DE
:1029E000807882401543491C0800C0B20228F2DBFF
:1029F000002715E040F2FF3306E038003178C0B21E
:102A00008842F7D1BDF900301BB22A003800C0B2AD
:102A100004EB8000811C3800C0B200F012F87F1C6B
:102A20003800C0B20228E8DB684600F0B3F90FF2C4
:102A30005D01BDF9000000F0ECF901204849087083
:102A4000F7BD38B51C00474D24235843054408788A
:102A5000286048786860AA602868FFF763FF2861EB
:102A60006868FFF777FF6861AA68A9686869FFF777
:102A700087FF0020A861AC8131BD082904D23A4A01
:102A800042F82100002000E03848704780B5344803
:102A90000078002808D03349304802782420424387
:102AA00001EB020000F001F801BD7CB5040000203C
:102AB000009000266069FFF76BFF0500280C0004FA
:102AC000002827D0280C0004616908602069FFF7FE
:102AD00063FF00281ED0BFF34F8F69462069FFF7C0
:102AE0005FFF002810D100980668360C0098007827
:102AF00000F0FF00082807D21B4951F820100800F9
:102B0000002801D000988847BFF34F8F310020691B
:102B100000F000F9280411D0ADB260690560E069E9
:102B2000002804D0E06980470020E06104E0206ACA
:102B3000002801D0206A80470020A0616069FFF76B
:102B400029FF73BDD02B0328CCE60810282D0328BD
:102B50000000224000102240F8EF08107C2E0328CD
:102B60007D2E0328002803285C2B03280A028A00F4
:102B700001B58B071AD1830724D1121F21D351F835
:102B8000043BA3F1013C2CEA030C1CF0803C04BF85
:102B900040F8043BF1E79CFA8CFCBCFA8CF1C1F1E3
:102BA00018018B40CB4040F8043B13E0042A09D3C2
:102BB00011F8013B521E00F8013B5BB18B07F7D1C6
:102BC000D9E7121D5AB111F8013B521E00F8013B22
:102BD00003B1F8D111001CBF0022FFF773FE01BD45
:102BE00001BEFEE780B5354A35490B6893423ED0B9
:102BF0000A60344A12684A62334A8A6202684A604A
:102C000042688A608268CA60C2680A6102694A6171
:102C100042698A618269CA61C2690A62F1EE102A58
:102C200012F0900F23D0294A8A62026ACA62426A6D
:102C30000A63826A4A63C26A8A63026BCA63426B2E
:102C40000A64826B4A64C26B8A64026CCA64426C16
:102C50000A65826C4A65C26C8A65026DCA65426DFE
:102C60000A66826D4A66C26D8A66006EC86600F0AA
:102C7000E7F801BD01290EDB10F01F025118BFF368
:102C80004F8F134A1060203020390129F9DABFF341
:102C90004F8FBFF36F8F704701290EDB10F01F02BB
:102CA0005118BFF34F8F0B4A106020302039012993
:102CB000F9DABFF34F8FBFF36F8F7047FAF9F8F768
:102CC0002826032828ED00E0A4A3A2A1ABAAA9A866
:102CD0005CEF00E068EF00E02B4A126861F30F023E
:102CE00082607047294A126861F30F0242607047A0
:102CF000C160704701617047C0687047C069C00F0C
:102D0000C0B270470068C00F002801D1204800E021
:102D10000020704738B504000D002000FFF7EEFFDB
:102D2000002805D029002000FFF7DCFF002000E08C
:102D3000174832BDF8B504000D0016001F00200032
:102D4000FFF7E0FF00280DD131002000FFF7D0FF92
:102D500039002000FFF7CEFF29002000FFF7BCFF5D
:102D6000002000E00A48F2BD38B504000D00200044
:102D7000FFF7C4FF002805D02000FFF7BDFF286043
:102D8000002000E0024832BDF0EF0810F4EF081018
:102D900001008A0030B40021234A1368234A1468D2
:102DA000002832D0224A1568C5F303250E2D0FD016
:102DB0001268C2F303220D2A28D1827812F00F0282
:102DC0002409240114430279002A15D0012214E0B9
:102DD000827812F00F021B091B0113430279002AAB
:102DE00001D0012200E0002262F3DF73114AB0F942
:102DF000000042F8203009E0002262F3DF740E4A3E
:102E0000B0F9000042F8204000E00649080030BC5C
:102E100070470A4B1A68002A03D01A6800B242F8B9
:102E200020107047010056003CF0081040F00810D8
:102E30000000204000A0204000C0204030BF0228F9
:102E4000FEE7000040F0200070472DE9F14FB0B0E0
:102E5000924604910DF142013A9A2B9199464A709B
:102E600000200AE01AF8011B0498309A90470028C5
:102E7000049000F034860D98401C0D909AF80000E4
:102E800050B12528EED10021002207910892099126
:102E90000A920B910C9204E00D9800F022BE41F0D2
:102EA00001011AF8010F2028F9D023280CD02B2873
:102EB00004D02D2805D0302809D00BE041F00201C4
:102EC000EFE741F00401ECE741F00801E9E741F0E8
:102ED0001001E6E72A280FD1D9F8002052F8040B98
:102EE000C9F8002000280F9003D540420F9041F010
:102EF00004010AF1010A14E00F92DFF8EC3B0AE04A
:102F00000F98984205DA00EB800402EB4402303A55
:102F10000F920AF1010A9AF80020A2F130000A2863
:102F2000EED39AF800002E2803D04FF0FF320E9215
:102F300029E01AF8010F2A2809D1D9F8000050F821
:102F4000042BC9F800000E920AF1010A1BE02D289B
:102F50000CBF0AF1010A002000220E92DFF8884B14
:102F60000BE040B90E9AA24205DA02EB820503EBB0
:102F70004503303B0E930AF1010A9AF80030A3F1A1
:102F800030020A2AEDD3ADF840100FF660309AF8FF
:102F9000001000F0AFFE08B11AF8010B8DF84200E6
:102FA0009DF84200682805D19AF8000068280CD1E5
:102FB000622106E06C2804BF9AF800006C2804D156
:102FC00071218DF842100AF1010A12A806901AF830
:102FD00001BBBBF125012CD01C3900F09481091FE5
:102FE000022940F29081133900F0AB84093900F0D6
:102FF0008A81891E00F04085491E00F0ED84491E3B
:10300000022940F28081091F00F0E684491F00F088
:10301000EF80491E00F09584491E00F0D780C91E3C
:103020000CD0891E00F08D84C91E00F08A8400F047
:103030002EBD01230793252100F026BDD9F80000FD
:1030400050F8044BC9F80000002C059440F0AB8008
:103050002B994878002800F0A1804FF0FF340FF63C
:10306000942000F053FE241A40F0398500F01BBD77
:1030700001236A4602A9304600F000FE002840F015
:103080002E85641EF4D13096079C12AF74B1309E29
:1030900017F8011B0498B0470028049000F01F8522
:1030A0000D98401C641E0D90F2D130960A9C302180
:1030B000002C8DF800100CDD309E01236A4602A919
:1030C000304600F0DBFD002840F00985641EF4D195
:1030D0003096059F089C74B1309E17F8011B049828
:1030E000B0470028049000F0FA840D98401C641E3C
:1030F0000D90F2D130960B9C3021002C8DF80010F1
:103100000CDD309E01236A4602A9304600F0B6FD70
:10311000002840F0E484641EF4D1309605980899A4
:10312000099C471874B1309E17F8011B0498B047EA
:103130000028049000F0D3840D98401C641E0D906C
:10314000F2D130960C9C3021002C8DF800100CDD53
:10315000309E01236A4602A9304600F08FFD002808
:1031600040F0BD84641EF4D130969DF840004107C4
:103170007FF584AE2020002D8DF800007FF77EAE15
:10318000309C01236A4602A9204600F077FD002802
:1031900040F0A5846D1EF4D130946FE60FF63C30FC
:1031A000059000F080BC0E9D002D04D5204600F057
:1031B000CDFD044607E02A46204600F0E3FD002846
:1031C00014BF041B2C46089400F06DBCD9F8001005
:1031D00051F8040BC9F8001020F00004002121F080
:1031E000FF35CDE9024512AB0593782100F040BCD4
:1031F0002B99487820B14FF0FF340FF6B02030E71C
:103200009DF84200622860D0682817D06A283FD015
:103210006C2806D0712847D074282CD07A281DD06D
:1032200062E0D9F8001051F8040BC9F8001000282A
:1032300066D14FF0FF340FF68C2012E7D9F800105A
:1032400051F8040BC9F8001020B94FF0FF340FF605
:10325000742006E70D99018000F025BCD9F8001014
:1032600051F8040BC9F80010002849D14FF0FF3481
:103270000FF65020F5E6D9F8001051F8040BC9F804
:10328000001000283CD14FF0FF340FF63820E8E65C
:10329000D9F8001051F8040BC9F8001080B94FF0AC
:1032A000FF340FF62020DCE6D9F8001051F8040BAB
:1032B000C9F8001020B94FF0FF340FF60820D0E60F
:1032C0000D9AD317C0E90023EDE3D9F8001051F8A7
:1032D000040BC9F8001020B94FF0FF340FF6E410CA
:1032E000BFE60D990170DEE3D9F8001051F8040B28
:1032F000C9F8001020B94FF0FF340FF6C810B0E63F
:103300000D990160CFE39DF842004C2807BFD9F822
:103310000010CA1DD9F80000C21D22F00702C9F82A
:103320000020D2E900010832C9F80020CDE90201ED
:10333000C80F02D007982D210AE0BDF84000810790
:1033400002D507982B2103E0C00705D50798202157
:1033500012AA1154401C079012A807994BF02003A1
:1033600000EB010CDDE90201CDE92C01612BCDF868
:1033700014C021AC0BD00E98002848BF062105D4FC
:1033800004BF4BF02000672801D101210E91DDE937
:1033900002014F0047EAD0777E15FF174FF0FF324A
:1033A000974208BF964210D1090341EA1051000329
:1033B000002908BF002808D0ABF1610503211A2DB0
:1033C000089118D30FF61C1110E0DDE902014A0044
:1033D000521512F1010F11D108030FD1ABF16105A4
:1033E00003211A2D08911FD30FF600110322604606
:1033F000FEF71CFE57E30FF6E801F7E7DDE90201EF
:103400006A4600F0EBFCCDE902014BF02000612898
:1034100011D1059830210170821C0592BBF1610F1A
:103420000CBF7821582102E00FF6BC01DEE74170A5
:103430000798801C0790DDE9020120F0000231F0BE
:10344000004308BF002A02D10026002542E14BF0CC
:103450002008B8F1610F40F092800E98002847BF15
:1034600021210191401C0190019FDDE92C017F1C6D
:1034700000220023DDE9024500F0E8FC38BF85F0BA
:10348000004500998DF88420091F002F00910DF14F
:10349000850632DD204629460022002300F0F0FC9C
:1034A0002BD21C2200F006FD04460D4600F084FDE0
:1034B000FF1F002F804609DD00F085FD02460B4608
:1034C0002046294600F086FD04460D46F01D0721E2
:1034D000B8F1000F0CDD491E5EBF08F00F0200F8C6
:1034E000012D4FEA2818F3D502E0002200F8012D43
:1034F000491EFAD5C61D002FCCDC0DF18500361A09
:1035000001980DF185048642D8BF304600282FD49B
:10351000B04206DA0DF185010A5C082AA8BF0F2126
:1035200000DA0021024621AB134400E0401E13F8EC
:103530000159521E8D42F9D00F2904D10DF1850198
:103540008B5C5B1C8B54002A04D50099091D21ACAF
:10355000401C0091411E0BD4621813783033DDB249
:103560003A2DA4BF5B443A3B491E02F80139F4D519
:103570000E99002940F1AC80421E0E92A8E00099FD
:10358000DFF8E82647F29750414391FBF2F20092B0
:10359000DDE92C45C2F10702002A25F0004504DDD3
:1035A0002046294600F03EFB0BE052420020DFF8A7
:1035B000C01600F037FB02460B462046294600F0B5
:1035C00012FD04460D46B8F1660F06BF009F0A378C
:1035D00006270E983F18142FC8BF142730208DF8E7
:1035E00084000DF18506002F34DD2046294600F0C9
:1035F00003FD01460A4606F1080304200A26B2FB31
:10360000F6F606EB860EA2EB4E02303203F8012CE2
:103610000A22B6FBF2F202EB820EA6EB4E06303621
:10362000401E03F8026DE9D1083F002F03F10806A0
:10363000D9DD084600F0E7FC02460B462046294645
:1036400000F0C8FC0022DFF82C3600F0E3FC044652
:103650000D46CAE70DF18500361A0DF1850404E028
:103660000098401E761E0090641C20783028F7D009
:10367000B8F1660F02D10098401C04E0B8F1650F64
:103680000CBF012000200E9940188642B8BF701E62
:1036900000281DD4B04204DA215C3429C8BF392186
:1036A00000DC30210246631E9D1800E0401E15F824
:1036B0000169521E8E42F9D0392902D1A15C491C00
:1036C000A154002A04D50099491C1C46401C0091B5
:1036D0000646009D0E9F30B2002802DC01260FF244
:1036E00010644BF02000662808BF6D1C15D06728B9
:1036F0000FFA85F841D118F1040F44DBB84542DADE
:103700009DF840006D1C010703D430B2B842D8BF09
:10371000074628B23F1A48BF00270FFA85F8B8F1CC
:10372000000F00F3AF800898411C089130220599E2
:103730000A54002F03DC9DF84000010705D50898C6
:10374000411C08912E2205990A5417EB080FB8BFA7
:103750007D422DB26842ED1932B20B909542B8BF4E
:103760002E46059B089836B20996324621461844E3
:10377000FEF75CFCAD1B0C95CCE0BBF1610F15D1E5
:103780004FF0700B17E030B2B84204DA9DF84010E9
:103790000A0758BF07467F1E48BF0027BBF1670FC7
:1037A00014BF4FF0450B4FF0650B04E0BBF1410F28
:1037B00008BF4FF0500B0898411C0891002F059945
:1037C00014F8012B0A5403DC9DF84000010719D5B9
:1037D0000898411C08912E2205990A54002F11DDEA
:1037E000761E30B28742B8BF3E460598089B32B27B
:1037F00021461844FEF71AFC089836B23018BF1B51
:1038000008900B97059808990844B8F1000F80F8C4
:1038100000B003D42B224270821C04E02D214546C7
:103820004170821C6D4200212CAB28460AE0044600
:103830000A2094FBF0F000EB8005A4EB450403F8AC
:10384000014B491C00B20028F1DC012906DC4BF0D9
:103850002000652804BF302002F8010B00292CABA2
:1038600008D1302002F8010B06E0491E585C3030C8
:1038700002F8010B0029F8DC059908980844121A8F
:10388000099247E030B229B288421BDA0598089BBA
:1038900032B221461844FEF7C9FB089936B27118B6
:1038A0000891A8EB0600002F0B9003DC9DF8400068
:1038B000020705D5059A2E2050540999491C0991F3
:1038C0000C9727E00598089B2AB221461844FEF77A
:1038D000ADFB0898761B4044002F089003DC9DF850
:1038E00040100A0704D5411C08912E2205990A545C
:1038F00030B28742B8BF3E460598089B32B204EB0F
:1039000008011844FEF792FB089836B23018BE1B27
:1039100008900B969DF8400000F01400102840F02D
:10392000C280079A08980B99821809988A188218F9
:103930000C980F998018884280F2B580081A0A9076
:10394000B1E09DF84200622808D068280ED06A28AD
:1039500014D06C281FD0712810D01CE0D9F80010AA
:1039600051F8040BC9F80010C0B21AE0D9F80010E1
:1039700051F8040BC9F8001080B212E0D9F8000029
:10398000C21D22F00702C9F80020D2E90001083266
:10399000C9F8002006E0D9F8001051F8040BC9F866
:1039A00000100021CDE902019DF8400001075AD521
:1039B000DDE90223002B08BF002A54D04BF0200081
:1039C000782850D1079812A930220A54401C431C71
:1039D000079301F800B046E09DF84200622808D045
:1039E00068280ED06A2814D06C281FD0712810D0F7
:1039F0001CE0D9F8001051F8040BC9F8001040B2CF
:103A00001AE0D9F8001051F8040BC9F8001000B200
:103A100012E0D9F80000C21D22F00702C9F8002008
:103A2000D2E900010832C9F8002006E0D9F80010F8
:103A300051F8040BC9F80010C117CDE902010029A3
:103A400002D507982D210AE0BDF84000810702D574
:103A500007982B2103E0C00705D50798202112AA5B
:103A60001154401C079012A807990144059159462A
:103A700002A800F04DF816E001200790D9F80000E8
:103A800050F8041BC9F800008DF848100BE0012124
:103A90002522BBF1000F07918DF8482003D00222A8
:103AA00007928DF849B00F9D07990A986D1A0899E9
:103AB0002D1A0B986D1A09992D1A0C986D1A9DF8EC
:103AC00040102D1A48073FF5DFAA2021002D8DF860
:103AD00000107FF7D9AA309E2C46FFF7C9BA4FF0E5
:103AE000FF3031B0BDE8F08FCBCCCC0C686A6C7481
:103AF0007A4C00007072696E74665F733A2062617E
:103B00006420257320617267756D656E7400000016
:103B10002DE9FC4707468A463C6950466F2808BF96
:103B2000082505D0FFF78EF9782814BF0A2510253F
:103B3000D7E900013C2680468946BAF1640F18BFD8
:103B4000BAF1690F05D1002903D5D8F1000869EB56
:103B50004909B9F1000F08BFB8F1000F0CD1386B5B
:103B600050B9082D3AD197F83800010736D53022E0
:103B70003B2684F83B2031E08DF800A040464946C2
:103B80002A46EB1700F050FA3032D0B2761E3A28AF
:103B900001960EDAA255404649462A46EB1700F038
:103BA00043FA80465FEA010908BFB8F1000F05D16A
:103BB00008E09DF800001218513AEBE7F868A119E7
:103BC0008842DBD3082D09D197F83800010705D5C5
:103BD000A05D302802D0761E3020A055C6F13C03EF
:103BE000BB61A119F960386B834208DAC31A3B62E2
:103BF0004FF6EF70398F01403987BDE8F387002811
:103C00000ED597F8380000F01400102808D17A6B10
:103C10007969386A521A121AD21A002AC8BF3A624F
:103C2000BDE8F3872DE9D04306460F4614464FF012
:103C30000008DFF8449012E0E00707D542464B4603
:103C40003046394600F0E6F906460F4640464946FA
:103C500042464B4600F0DEF9641080468946002C4F
:103C6000EAD130463946BDE8D0830000A086010085
:103C70000000F03F84D7974100002440F8B5054686
:103C80000E4617461C4600205CB117F8011BB068B1
:103C9000A847B06030B1F06A401CF0620020641E9A
:103CA000F3D1F2BD4FF0FF30F2BD00007072696ECB
:103CB00074665F733A20256E20646973616C6C6F63
:103CC000776564007072696E74663A206261642080
:103CD000256E20617267756D656E740000000000CE
:103CE0006E616E004E414E00696E6600494E4600A0
:103CF00030000000C9B202788A421AB11CBF10F825
:103D0000012FF9E718BF00207047000080B500B907
:103D100006A005490B681BB122220021984701E04B
:103D200000F09AFA222002BD602E0328636F6E73A2
:103D3000747261696E742068616E646C65723A2099
:103D4000626164206D6573736167650000F1010352
:103D5000810704D010F8011B820781B1FAD10268F3
:103D6000A2F10131914311F0803104BF50F8042FCA
:103D7000F6E709BAB1FA81F100EBD100401CC01A94
:103D800070470000C9B2830706D0521E22D310F834
:103D9000013B9942F7D11FE0083A13D302F1040224
:103DA00041EA012141EA014150F8043B121F21BFC1
:103DB0004B40A3F1013C2CEA030C1CF0803FF3D0F4
:103DC000C9B2001F083210F8013B521E28BF91EA09
:103DD000030FF8D818BF0120401E704710B51446D5
:103DE00000F002F8226010BDC1F30A5343B14A004B
:103DF00012F5001F28D2A3F2FE32A1EB0251704748
:103E000050EA410C20D001F0004C31EA0C01B1FA2B
:103E100081F204BFB0FA80F3D2180B3AB2F120035A
:103E20002CBF00FA03F1914041EA0C013EBFC2F100
:103E3000200C20FA0CF319439040524240F2FD331B
:103E4000D21A01EB035170470022704741EA030C7C
:103E500050EA4C0C52EA0C0C4FF4001C09D307D06A
:103E60001CEB410F9CBF1CEB430F8B4208BF8242EF
:103E700070471CEB430FFBD8994208BF9042704734
:103E800041EA030C50EA4C0C52EA0C0C4FF4001CB3
:103E900009D307D01CEB410F9CBF1CEB430F994289
:103EA00008BF904270471CEB410FFBD88B4208BF04
:103EB0008242704700B541EC100B104600F004F848
:103EC00051EC100B00BD00BF020030EE101B40F2A1
:103ED000FF7C37D41CEA115313D063456BD09B1879
:103EE000634504D201EB025120EE101B704701F034
:103EF000004141EA0C51002041EC100BAFF300806F
:103F0000704710EE100B50EA410054D0B2F57F7F9D
:103F100008D202EB5C010905002041EC110B20EEF8
:103F2000010B70474FF0FE41002341EC113B20EEA6
:103F3000010BB2F57E7230EE101B4FEA410342EBEB
:103F40005353CDE752421CEA115316D0634532D089
:103F50009A4204D2A1EB025120EE101B70475B1E67
:103F6000D21AA1EB035120EE101B372A0CD30020EC
:103F700001F0004141EC100BC0E710EE100B50EACD
:103F8000410018D0372AF2D2C2EB5C0211050020A2
:103F900041EC110BF1EE100A20F01F0121F4F85151
:103FA000E1EE101A20EE010BF1EE101AE1EE100A0C
:103FB00011F0080FA2D1704741EC100BBDEEC00B01
:103FC00010EE100A704700EE100AB8EEC00B51EC6C
:103FD000100B704741EC100B43EC112B30EE410BF2
:103FE00051EC100B704741EC100B43EC112B80EEA1
:103FF000010B51EC100B704741EC100BBCEEC00BE9
:1040000010EE100A704700EE100AB8EE400B51ECAB
:10401000100B704741EC100B43EC112B20EE010B01
:1040200051EC100B70470000BBBBE1B1B2F5803F13
:1040300080F07E80022A1ED98C46B1FBF2F102FB91
:1040400011C31B0443EA1043B3FBF2FC02FB1C3315
:1040500080B240EA0343B3FBF2F002FB103240EAC5
:104060000C4000237047022A05D98446B0FBF2F0C9
:1040700002FB10C270474AB105D100F001024908A5
:104080005FEA3000704700220023704700F0E8B874
:104090000B000200002100207047904271EB030CDE
:1040A000F6D3B3F5803F2FD2F0B5B3FA83F7B1FA68
:1040B00081F4A7F10F0E3D1B5340CEF1200602FA0A
:1040C0000EF2F3415340B5F10F0746D80F3C2C4494
:1040D0004140C4F12006A040F1414140B1FBF3F65C
:1040E00003FB1611A2FB0645001BA94102D2761E56
:1040F0008018594180EA010221FA0EF362FA0EF2A9
:1041000000215A403046F0BD30B4B1FBF3FC03FB54
:104110001C11A2FB0C45001BA94103D2ACF1010C00
:104120008018594130BC02460B466046002170475A
:10413000B2F1807F65D3F0B5B2FA82F7B1FA81F4BB
:10414000C7F10F063D1B22FA06F307F1110EF241EB
:1041500020355A40B5F10F07B8D94140C4F12006C7
:10416000A040F1414140B1FBF3FC03FB1C11A2FB59
:104170000C45001BA94103D2BCF1010C8018594128
:104180000F2F12D30F3FC90341EA5041B1FBF3F6A1
:1041900003FB1611A2FB0645D4EBC030A94102D2A5
:1041A000761E8018594146EACC3C07B34140C7F11E
:1041B0002006B840F1414140B1FBF3F603FB161174
:1041C000A2FB0645001BA94102D2761E8018594168
:1041D00080EA010221FA0EF3C7F1200462FA0EF21E
:1041E0000CFA07F05A402CFA04F13043F0BD80EA93
:1041F000010221FA0EF3002162FA0EF260465A40E3
:10420000F0BD8C46B1FBF2F102FB11C31B0243EA85
:104210001063B3FBF2FC02FB1C331B024CEA0020D0
:1042200043EA1063B3FBF2FC02FB1C331B024CEAB3
:10423000002043EA1063B3FBF2FC02FB1C331B02B9
:104240004CEA002043EA1063B3FBF2FC02FB1C3291
:104250004CEA002000237047012000F003B8000062
:104260007047000080B5AFF30080024A11001820AB
:10427000ABBEFBE726000200022801D3012010E0BC
:104280000B00DBB2042B01DB01200AE0DFF8283849
:1042900003EB8000C9B2405C824201D3012000E000
:1042A00000207047F8B506000F0015001C00022E14
:1042B00001D301201DE02A003900C9B23000FFF708
:1042C000DBFF012801D1012013E03800C0B2002833
:1042D00012D1B4F5807F0DD2DFF8E00776033044C9
:1042E00000EB850010F58050016864F30F21016038
:1042F0000020F2BD0120FCE7FFB2012F11D1B4F57F
:10430000803F0CD2DFF8B4077603304400EB850021
:1043100010F5A050016864F317210160E8E701205F
:10432000E7E70120E5E700B20012C0B27047F8B538
:1043300005000E001700280000B2FFF7F4FF04008C
:104340002000C0B2022801D3012024E03A0031004D
:10435000C9B22000C0B2FFF78FFF012801D10120B0
:1043600019E0DFF858172000C0B2400308442A00C3
:10437000D2B200EB8200D0F8000CF6B266F309204E
:1043800067F30700E4B264032144EDB201EB850159
:10439000C1F8000C0020F2BD70B504000D0016003D
:1043A000022C01D301201DE032002900C9B22000F7
:1043B000FFF762FF012801D1012013E0DFF8FC16AE
:1043C0006003085850F0004050F0407050F47F00F7
:1043D000EDB265F3092066F30700620388506403B9
:1043E0000859002070BD10B5C0B2002800F0EA8066
:1043F000022800F0EB80C0F0E780042800F0EA809B
:10440000C0F0E680062800F0E980C0F0E5800828CA
:1044100000F0E880C0F0E4800A2800F0E780C0F0F7
:10442000E3800C2800F0E680C0F0E2800E2800F067
:10443000E580C0F0E180102800F0E480C0F0E0806A
:10444000122800F0E380C0F0DF80142800F0E28042
:10445000C0F0DE80162800F0E180C0F0DD80182872
:1044600000F0E080C0F0DC801A2800F0DF80C0F0AF
:10447000DB801C2800F0DE80C0F0DA801E2800F00F
:10448000DD80C0F0D980202800F0DC80C0F0D8802A
:10449000222800F0DB80C0F0D780242800F0DA80EA
:1044A000C0F0D680262800F0D980C0F0D58028281A
:1044B00000F0D880C0F0D4802A2800F0D780C0F067
:1044C000D3802C2800F0D680C0F0D2802E2800F0B7
:1044D000D580C0F0D180302800F0D480C0F0D080EA
:1044E000322800F0D380C0F0CF80342800F0D28092
:1044F000C0F0CE80362800F0D180C0F0CD803828C2
:1045000000F0D080C0F0CC803A2800F0CF80C0F01E
:10451000CB803C2800F0CE80C0F0CA803E2800F05E
:10452000CD80C0F0C980402800F0CC80C0F0C880A9
:10453000422800F0CB80C0F0C780442800F0CA8039
:10454000C0F0C680462800F0C980C0F0C580482869
:1045500000F0C880C0F0C4804A2800F0C780C0F0D6
:10456000C3804C2800F0C680C0F0C2804E2800F006
:10457000C580C0F0C180502800F0C480C0F0C08069
:10458000522800F0C380C0F0BF80542800F0C280E1
:10459000C0F0BE80562800F0C180C0F0BD80582811
:1045A00000F0C080C0F0BC805A2800F0BF80C0F08E
:1045B000BB805C2800F0BE80C0F0BA805D2800F0AF
:1045C000BB80BBE01924BFE03124BDE01824BBE070
:1045D0003324B9E03524B7E01424B5E03724B3E040
:1045E0001324B1E02024AFE01224ADE02124ABE09D
:1045F0001124A9E01024A7E02824A5E02924A3E0A1
:104600002A24A1E009249FE02B249DE008249BE0BC
:104610002C2499E0032497E0022495E0392493E0C8
:104620003B2491E03D248FE001248DE03F248BE08A
:10463000002489E0402487E0412485E0422483E08F
:10464000432481E0BF247FE048247DE049247BE0CF
:10465000BC2479E0992477E09A2475E0502473E033
:104660009B2471E0B6246FE051246DE09C246BE044
:10467000B52469E0522467E0A02465E0B42463E037
:10468000532461E0B3245FE054245DE0B2245BE096
:10469000B12459E0AD2457E0602455E0AE2453E046
:1046A000612451E0AD244FE062244DE063244BE0EF
:1046B000AB2449E0642447E0AA2445E0652443E0B4
:1046C000A92441E0A8243FE069243DE06B243BE0BD
:1046D0006D2439E06F2437E0A32435E0702433E003
:1046E000A22431E071242FE0A1242DE097242BE0B7
:1046F000962429E0742427E0952425E0752423E0FE
:10470000942421E093241FE092241DE078241BE0F0
:10471000792419E08C2417E07A2415E08B2413E027
:104720007B2411E08A240FE05A240DE059240BE089
:10473000892409E0582407E0882405E09D22DFF859
:104740004019002000F033FE2000C0B210BD10B5AB
:10475000C0B2002800F0EA80022800F0EB80C0F030
:10476000E780042800F0EA80C0F0E680062800F028
:10477000E980C0F0E580082800F0E880C0F0E4801F
:104780000A2800F0E780C0F0E3800C2800F0E68003
:10479000C0F0E2800E2800F0E580C0F0E180102833
:1047A00000F0E480C0F0E080122800F0E380C0F068
:1047B000DF80142800F0E280C0F0DE80162800F0D0
:1047C000E180C0F0DD80182800F0E080C0F0DC80DF
:1047D0001A2800F0DF80C0F0DB801C2800F0DE80AB
:1047E000C0F0DA801E2800F0DD80C0F0D9802028DB
:1047F00000F0DC80C0F0D880222800F0DB80C0F020
:10480000D780242800F0DA80C0F0D680262800F077
:10481000D980C0F0D580282800F0D880C0F0D4809E
:104820002A2800F0D780C0F0D3802C2800F0D68052
:10483000C0F0D2802E2800F0D580C0F0D180302882
:1048400000F0D480C0F0D080322800F0D380C0F0D7
:10485000CF80342800F0D280C0F0CE80362800F01F
:10486000D180C0F0CD80382800F0D080C0F0CC805E
:104870003A2800F0CF80C0F0CB803C2800F0CE80FA
:10488000C0F0CA803E2800F0CD80C0F0C98040282A
:1048900000F0CC80C0F0C880422800F0CB80C0F08F
:1048A000C780442800F0CA80C0F0C680462800F0C7
:1048B000C980C0F0C580482800F0C880C0F0C4801E
:1048C0004A2800F0C780C0F0C3804C2800F0C680A2
:1048D000C0F0C2804E2800F0C580C0F0C1805028D2
:1048E00000F0C480C0F0C080522800F0C380C0F047
:1048F000BF80542800F0C280C0F0BE80562800F06F
:10490000C180C0F0BD80582800F0C080C0F0BC80DD
:104910005A2800F0BF80C0F0BB805C2800F0BE8049
:10492000C0F0BA805D2800F0BB80BBE00824C0E086
:104930000824BEE00824BCE00824BAE00824B8E05B
:104940000824B6E00824B4E00824B2E00824B0E06B
:104950000824AEE00824ACE00824AAE00824A8E07B
:104960000824A6E00824A4E00824A2E00824A0E08B
:1049700008249EE008249CE008249AE0082498E09B
:10498000082496E0082494E0082492E0082490E0AB
:1049900008248EE008248CE008248AE0082488E0BB
:1049A000082486E0082484E0082482E0082480E0CB
:1049B00008247EE008247CE008247AE0082478E0DB
:1049C000082476E0082474E0082472E0082470E0EB
:1049D00008246EE008246CE008246AE0082468E0FB
:1049E000082466E0082464E0082462E0082460E00B
:1049F00008245EE008245CE008245AE0162458E00D
:104A0000082456E0082454E0082452E0082450E02A
:104A100008244EE008244CE008244AE0082448E03A
:104A2000082446E0082444E0082442E0082440E04A
:104A300008243EE008243CE008243AE0082438E05A
:104A4000082436E0082434E0082432E0082430E06A
:104A500008242EE008242CE008242AE0082428E07A
:104A6000082426E0082424E0082422E0082420E08A
:104A700008241EE008241CE008241AE0082418E09A
:104A8000082416E0082414E0082412E0082410E0AA
:104A900008240EE008240CE008240AE0082408E0BA
:104AA000082406E04FF48672DFF8D415002000F0E9
:104AB0007EFC2000C0B210BDB8EF0810000004401A
:104AC00080B5C0B2002800F0EA80022800F0EB8038
:104AD000C0F0E780042800F0EA80C0F0E6800628F5
:104AE00000F0E980C0F0E580082800F0E880C0F020
:104AF000E4800A2800F0E780C0F0E3800C2800F092
:104B0000E680C0F0E2800E2800F0E580C0F0E18091
:104B1000102800F0E480C0F0E080122800F0E3806C
:104B2000C0F0DF80142800F0E280C0F0DE8016289C
:104B300000F0E180C0F0DD80182800F0E080C0F0D7
:104B4000DC801A2800F0DF80C0F0DB801C2800F039
:104B5000DE80C0F0DA801E2800F0DD80C0F0D98051
:104B6000202800F0DC80C0F0D880222800F0DB8014
:104B7000C0F0D780242800F0DA80C0F0D680262844
:104B800000F0D980C0F0D580282800F0D880C0F08F
:104B9000D4802A2800F0D780C0F0D3802C2800F0E1
:104BA000D680C0F0D2802E2800F0D580C0F0D18011
:104BB000302800F0D480C0F0D080322800F0D380BC
:104BC000C0F0CF80342800F0D280C0F0CE803628EC
:104BD00000F0D180C0F0CD80382800F0D080C0F047
:104BE000CC803A2800F0CF80C0F0CB803C2800F089
:104BF000CE80C0F0CA803E2800F0CD80C0F0C980D1
:104C0000402800F0CC80C0F0C880422800F0CB8063
:104C1000C0F0C780442800F0CA80C0F0C680462893
:104C200000F0C980C0F0C580482800F0C880C0F0FE
:104C3000C4804A2800F0C780C0F0C3804C2800F030
:104C4000C680C0F0C2804E2800F0C580C0F0C18090
:104C5000502800F0C480C0F0C080522800F0C3800B
:104C6000C0F0BF80542800F0C280C0F0BE8056283B
:104C700000F0C180C0F0BD80582800F0C080C0F0B6
:104C8000BC805A2800F0BF80C0F0BB805C2800F0D8
:104C9000BE80C0F0BA805D2800F0BB80BBE0002081
:104CA000C0E00020BEE00120BCE00120BAE002200C
:104CB000B8E00320B6E00320B4E00420B2E0042012
:104CC000B0E00520AEE00520ACE00620AAE0072019
:104CD000A8E00920A6E00A20A4E00B20A2E00B2017
:104CE000A0E00C209EE00C209CE00D209AE00D201E
:104CF00098E00E2096E00F2094E0102092E0112022
:104D000090E011208EE012208CE012208AE0132027
:104D100088E0142086E0152084E0162082E016202A
:104D200080E018207EE019207CE019207AE01A202B
:104D300078E01B2076E01C2074E01C2072E01C2030
:104D400070E01D206EE01D206CE01D206AE01E203A
:104D500068E01E2066E01E2064E01F2062E01F2045
:104D600060E020205EE020205CE021205AE022204C
:104D700058E0242056E0242054E0252052E025204D
:104D800050E026204EE027204CE027204AE0282053
:104D900048E0282046E0292044E0292042E02A205B
:104DA00040E02C203EE02D203CE02E203AE02F2059
:104DB00038E02F2036E0302034E0302032E031205F
:104DC00030E031202EE032202CE033202AE0342065
:104DD00028E0342026E0352024E0352022E036206B
:104DE00020E037201EE038201CE039201AE039206E
:104DF00018E03A2016E03A2014E03B2012E03B2075
:104E000010E03B200EE03C200CE03C200AE03D207E
:104E100008E03D2006E040F27B129949002000F0B6
:104E2000C6FA0020C0B202BD002007E09549C201C9
:104E30008A5822F00042C301CA50401C3F28F5DBCB
:104E4000704770B504000E00002000202000C0B2A2
:104E5000FFF736FE8B4DC0B2C0012844006A80B215
:104E600006FB00F642F21070B6FBF0F62000C0B26E
:104E7000FFF726FEC0012844B6B246612000C0B24A
:104E8000FFF71EFE0100C9B2C9012944096C51F0A7
:104E90000101C0B2C0012844016470BD2DE9F04198
:104EA000AAB004000D001600342100221DAF380006
:104EB000FDF704FD0020742100226F463800FDF745
:104EC000FDFC0E201E902000C0B2FFF740FC8DF8C4
:104ED0007C002000C0B2FFF786FA07005FF00808E8
:104EE0002000C0B2FFF77FFA1DAA97FBF8F108FB7C
:104EF00011773900644BC0B2C010C001184400F0F3
:104F000074FB2000C0B2FFF7DBFD00220121C0B21C
:104F100010F5937000B2FFF70AFA2000C0B2FFF755
:104F2000CFFDC0B210F5937000B2FFF7FCF9092372
:104F300000220121C0B2FFF7B5F92000C0B2FFF78F
:104F4000BFFDC0B210F5937000B2FFF7ECF900227C
:104F50000121C0B2FFF720FA4C48B0FBF5F1090C73
:104F60004A482A04B0FBF2F302FB1300002800D0E9
:104F7000491C022903D200208DF801002FE00329EB
:104F800003D201208DF8010029E0052903D2022077
:104F90008DF8010023E0092903D203208DF80100D8
:104FA0001DE0112903D204208DF8010017E021290A
:104FB00003D205208DF8010011E0412903D206201B
:104FC0008DF801000BE0812903D207208DF8010044
:104FD00005E040F2C9122A49002000F0E8F9042057
:104FE0008DF8000001208DF8100000208DF81100D0
:104FF00003208DF8120003208DF8130000208DF897
:105000000800224901229DF901008240B1FBF2F023
:10501000B0FBF5F0401E05900598401C06FB00F61D
:1050200042F21070B6FBF0F0089002208DF84000BC
:1050300003208DF8680001201B9001208DF82800C6
:105040002000C0B2FFF73CFD0E4D6946C0B2C00162
:10505000284400F009FB2000C0B2FFF731FDC0B2C8
:10506000C001284400F000FC2000C0B2FFF728FD7A
:10507000C0B2C001284400F0FCFB2AB0BDE8F081BA
:105080004CEA0810000058400000314000127A003D
:1050900082B000200190002000900020019009E0E3
:1050A0000098401C00900098B0F5005FF8D301987C
:1050B000401C01900198B0F5805F02D20020009062
:1050C000F1E702B0704780B50100002000F0A6FEB5
:1050D00001BD2DE9F043ADF5137D070088461600AC
:1050E0001C000020ADF802000020ADF800000020F8
:1050F00002900020ADF804000020ADF80600404604
:10510000FEF724FE0290DFF890532888002801D093
:1051100028698047DFF884030078002800F0338195
:105120002888002800F01181BDF90600411CADF867
:1051300006103A00010089B20020EB689847474604
:105140004046FEF703FE02906888A97990FBF1F0D3
:10515000ADF804003800471C00780028FAD1002080
:10516000ADF800000EE07F1E38782F2802D0387886
:105170005C2804D1BDF80000401CADF80000029886
:10518000401E0290BDF80000022802DA02980028B2
:10519000E9D50298002806D47A1CDFF8041353A836
:1051A00001F030F90EE0BDF80000002805D13A000A
:1051B000BC4953A801F026F904E03A00B84953A8C5
:1051C00001F020F90020ADF8020042E0BDF8001027
:1051D000BDF80020BDF8023053AF9BB2BDF904000A
:1051E000434313FA82F0385C43AA89B25054BDF8A5
:1051F0000000401CADF80000BDF8000080B2BDF911
:10520000041088420EDA53A8FEF7A0FDBDF8002076
:10521000BDF802309BB2BDF904104B4313FA82F182
:105220008842D3D2002043A9BDF800208854BDF99C
:105230000600411CADF8061043AAE97911FB00F104
:1052400089B20020EB689847BDF80200401CADF819
:105250000200BDF8027053A8FEF778FDBDF90410F6
:10526000B0FBF1F0401CBFB2874203D20020ADF882
:105270000000C1E732008C4953A801F0C3F8BDF922
:105280000600411CADF8061053AAE97911FB00F1A4
:1052900089B20020EB689847002C74D00020ADF84C
:1052A000020041E0BDF80010BDF80020BDF802305A
:1052B0009BB2BDF90400434313FA82F0205C43AA79
:1052C00089B25054BDF80000401CADF80000BDF894
:1052D000000080B2BDF9041088420EDA2000FEF70B
:1052E00035FDBDF80020BDF802309BB2BDF90410B9
:1052F0004B4313FA82F18842D4D2002043A9BDF86F
:1053000000208854BDF90600411CADF8061043AAE0
:10531000E97911FB00F189B20020EB689847BDF8EC
:105320000200401CADF80200BDF802602000FEF74C
:105330000DFDBDF90410B0FBF1F0401CB6B2864281
:1053400021D20020ADF80000C1E74FF480710022A7
:105350000DF10C094846FDF7B1FA3800A9688847F5
:10536000002C07D0009433004246504903A801F0B6
:1053700049F805E0330042464D4903A801F042F8E0
:1053800003A8A96888470DF5137DBDE8F08310B523
:1053900042480078002809D0474C2100002000F046
:1053A0004BFD01222100434801F059F810BD38B5EA
:1053B0000C001500C0B2002803D140480078002836
:1053C00000D131BD3E490878002800D0FEE70878BA
:1053D000401C087001F07CF900232A0021003948A4
:1053E000FFF777FEFFF754FEF6E710B514001A003A
:1053F000C0B2002808D129480078002804D00B004A
:1054000021003148FFF765FE10BD002101804FF6F5
:10541000FF7141808180FF218171C1710021816014
:105420000021C1600021016170471B4902880A8088
:1054300042884A8082888A8082798A71C279CA7158
:1054400082688A60C268CA600069086101201349E5
:105450000870704700B585B06846FFF7D6FF1B4857
:1054600002906846FFF7E1FF05B000BD80B5FFF789
:10547000F1FF002300225FF4E131002000F0C2FEC2
:105480004023134A00210B4801F0B9F80121002004
:1054900000F0C5FD01BD0000582C03289B2E0328F9
:1054A0006CEF08104CEF081078EF0810F4ED0810BE
:1054B000DCEE0810182C03289C2E032869C0022853
:1054C0009D2E03285CEF081084EF0810C7500810C9
:1054D0006429032830B4614B1818C009604C14EBE0
:1054E000001404290DD223681F25C8008540AB4352
:1054F000D2B212F01F02C90012FA01F11943216061
:105500000CE0091F63681F25C8008540AB43D2B279
:1055100012F01F02C9008A401A43626030BC704713
:10552000002A04D1012212FA01F1416003E00122B4
:1055300012FA01F18160704710B48900436C0F24A6
:105540008C40A34312F00F0212FA01F11943416497
:1055500010BC704710B4836C01248C40A34312F03C
:10556000010212FA01F11943816410BC704710B4B2
:10557000C36C01248C40A34312F0010212FA01F122
:105580001943C16410BC704710B449001031C36C9A
:1055900003248C40A34312F0030212FA01F11943D1
:1055A000C16410BC70474269012212FA01F14161E5
:1055B0004069704710B4836901248C40A34312F002
:1055C000010212FA01F11943816110BC704710B455
:1055D0004900036C03248C40A34312F0030212FA27
:1055E00001F11943016410BC7047F8B505000E00C5
:1055F00014000027002D2ED0002C2CD02268310062
:105600002800FFF78DFF227A31002800FFF762FFA4
:10561000626931002800FFF79DFFA2693100280070
:10562000FFF7A5FFE26931002800FFF7ADFF6268D0
:1056300031002800FFF780FFE26831002800FFF703
:10564000C6FF31002800FFF7AEFF226931002800B5
:10565000FFF7B0FF00E0034F3800F2BD0000CFBFFE
:105660000000304001005A000122002800F0EC80C8
:10567000002900F0E980754A12680B7A63F39242C0
:105680000B7B13F0030363F311420B7813F0070352
:1056900063F31A628B7863F39E7291F8283063F398
:1056A000000291F8343063F341020B7F63F382020E
:1056B0004B7F63F3C30291F8403063F38A2291F881
:1056C0004030DBB25B08DBB263F3492291F8703003
:1056D00063F3082291F8713013F0030363F30D3282
:1056E00002600A7A002A02D10022826007E00A7A68
:1056F000012A02D14A69826001E0012282600A6ABD
:1057000002614A6A4261CA6A82610A6BC2614A697D
:1057100002628A6942624E4A126891F8443003F08C
:10572000FF03120A12021A4391F84C3003F0FF03F0
:1057300063F3174291F85C3003F0FF0363F31F62D9
:1057400091F86C3003F0FF0363F30F224264414A87
:10575000126891F8643003F0FF0363F30F2291F8AD
:10576000543003F0FF03120A12021A4382643A4AC9
:10577000126891F8413013F00303920892001A4323
:1057800091F8603013F0030363F38B2291F84830F3
:1057900013F0030363F3051291F8503013F0030381
:1057A00063F3092291F8583013F0030363F387126F
:1057B00091F8683013F0030363F38302C264274A4D
:1057C000126891F8723013F00703D208D2001A431E
:1057D00091F8733013F0070363F30612426591F8F2
:1057E000352082671E4A12680B7C13F0030392086F
:1057F00092001A43CB7C13F0030363F387124B7CB4
:1058000013F0030363F383028B7C13F0030363F34E
:1058100005120265134A1268CB8863F31F428B8816
:105820009BB21B0A9BB263F30F220B78052B06D1A8
:10583000097901F0FF01120A12020A4302E04978D5
:1058400061F30702026300221000704758F008104D
:105850005CF0081060F0081064F0081068F00810A0
:105860006CF0081070F00810016851F00041016000
:1058700070474030016851F010010160704700002E
:10588000022801D3012010E00B00DBB2042B01DB66
:1058900001200AE0DFF8643903EB8000C9B2405C04
:1058A000824201D3012000E000207047F8B50400D7
:1058B0000F0015001E00022C01D301202AE02A004F
:1058C0003900C9B22000FFF7DBFF012801D1012018
:1058D00020E006983900C9B202291ED1B6F5803FF2
:1058E00019D2202817D24FF4C052DFF814196303DD
:1058F0000B4403EB850313441F6866F317271F60EF
:105900006403214401EB850111440A6860F3C70276
:105910000A600020F2BD0120FCE7FFB2032F1FD177
:10592000B6F1807F1AD2202818D24FF4E052DFF867
:10593000D01863030B4403EB850313441F6807F07F
:10594000FF0757EA06271F606403214401EB850126
:1059500011440A6860F3C7020A60DAE70120D9E758
:105960000120D7E700B20012C0B27047F8B50500B9
:105970000E001700280000B2FFF7F4FF040020001B
:10598000C0B2022801D3012024E03A003100C9B29C
:105990002000C0B2FFF774FF012801D1012019E0F7
:1059A000DFF85C182000C0B2400308442A00D2B2DD
:1059B00000EB8200D0F8000CF6B266F3092067F322
:1059C0000700E4B264032144EDB201EB8501C1F8A4
:1059D000000C0020F2BD70B504000D001600022C72
:1059E00001D301201DE032002900C9B22000FFF7D9
:1059F00047FF012801D1012013E0DFF804186003FC
:105A0000085850F0004050F0407050F47F00EDB264
:105A100065F3092066F307006203885064030859A0
:105A2000002070BDD0F84003704710F54170026847
:105A300061F3070202607047D0F80803C005C00D8B
:105A4000704710F541710A6852F480320A6010F50F
:105A500041710A6832F480320A60D0F8040370475A
:105A6000C0F840127047D0F80802C005C00D70475A
:105A7000D0F80802C0F3C030704738B505002800E0
:105A8000FFF7F1FF04002800FFF7F2FF0419002CD4
:105A900001D1012000E00020C0B232BDC0F8C81F13
:105AA0007047D0F8C80F7047C0F8C01FD0F8C00FBB
:105AB0007047C0F8881F7047D0F8880F7047C0F84B
:105AC000801FD0F8800F7047016851F000410160DD
:105AD00070472DE9F84F0400012500200020DFF871
