:020000041008E2
:100000000000082801A30810BDAB081039A908108A
:10001000C1AB0810C5AB0810C9AB08100000000048
:10002000000000000000000000000000EDA9081022
:10003000CDAB081000000000D1AB0810D5AB081004
:10004000539D0810799D08109F9D0810C59D0810AC
:10005000EB9D0810119E0810379E08105D9E081039
:10006000D9AB0810DDAB0810E1AB0810E5AB081008
:10007000E9AB0810EDAB0810F1AB0810F5AB0810B8
:1000800040F0200070472DE9F14FB0B09246049146
:100090000DF142013A9A2B9199464A7000200AE0EC
:1000A0001AF8011B0498309A90470028049000F039
:1000B00034860D98401C0D909AF8000050B1252808
:1000C000EED1002100220791089209910A920B912A
:1000D0000C9204E00D9800F022BE41F001011AF8E4
:1000E000010F2028F9D023280CD02B2804D02D284C
:1000F00005D0302809D00BE041F00201EFE741F0D4
:100100000401ECE741F00801E9E741F01001E6E7FE
:100110002A280FD1D9F8002052F8040BC9F8002082
:1001200000280F9003D540420F9041F004010AF1DE
:10013000010A14E00F92DFF8EC3B0AE00F989842B6
:1001400005DA00EB800402EB4402303A0F920AF128
:10015000010A9AF80020A2F130000A28EED39AF89A
:1001600000002E2803D04FF0FF320E9229E01AF83B
:10017000010F2A2809D1D9F8000050F8042BC9F83A
:1001800000000E920AF1010A1BE02D280CBF0AF1B3
:10019000010A002000220E92DFF8884B0BE040B9E4
:1001A0000E9AA24205DA02EB820503EB4503303BCF
:1001B0000E930AF1010A9AF80030A3F130020A2ADC
:1001C000EDD3ADF840100FF660309AF8001000F053
:1001D000EDFE08B11AF8010B8DF842009DF84200BF
:1001E000682805D19AF8000068280CD1622106E041
:1001F0006C2804BF9AF800006C2804D171218DF896
:1002000042100AF1010A12A806901AF801BBBBF1CC
:1002100025012CD01C3900F09481091F022940F2DD
:100220009081133900F0AB84093900F08A81891E6E
:1002300000F04085491E00F0ED84491E022940F27D
:100240008081091F00F0E684491F00F0EF80491EFD
:1002500000F09584491E00F0D780C91E0CD0891E7D
:1002600000F08D84C91E00F08A8400F02EBD0123A9
:100270000793252100F026BDD9F8000050F8044B63
:10028000C9F80000002C059440F0AB802B99487809
:10029000002800F0A1804FF0FF340FF6942000F00A
:1002A00095FE241A40F0398500F01BBD01236A46F3
:1002B00002A9304600F000FE002840F02E85641EA2
:1002C000F4D13096079C12AF74B1309E17F8011B21
:1002D0000498B0470028049000F01F850D98401C3A
:1002E000641E0D90F2D130960A9C3021002C8DF8BE
:1002F00000100CDD309E01236A4602A9304600F052
:10030000DBFD002840F00985641EF4D13096059F7E
:10031000089C74B1309E17F8011B0498B047002860
:10032000049000F0FA840D98401C641E0D90F2D1E8
:1003300030960B9C3021002C8DF800100CDD309E87
:1003400001236A4602A9304600F0B6FD002840F0BD
:10035000E484641EF4D1309605980899099C4718E6
:1003600074B1309E17F8011B0498B0470028049020
:1003700000F0D3840D98401C641E0D90F2D130968D
:100380000C9C3021002C8DF800100CDD309E0123D8
:100390006A4602A9304600F08FFD002840F0BD8477
:1003A000641EF4D130969DF8400041077FF584AE7D
:1003B0002020002D8DF800007FF77EAE309C0123B9
:1003C0006A4602A9204600F077FD002840F0A58487
:1003D0006D1EF4D130946FE60FF63C30059000F0BE
:1003E00080BC0E9D002D04D5204600F00FFE044673
:1003F00007E02A46204600F025FE002814BF041B13
:100400002C46089400F06DBCD9F8001051F8040B8C
:10041000C9F8001020F00004002121F0FF35CDE9DB
:10042000024512AB0593782100F040BC2B99487827
:1004300020B14FF0FF340FF6B02030E79DF84200B6
:10044000622860D0682817D06A283FD06C2806D070
:10045000712847D074282CD07A281DD062E0D9F8B2
:10046000001051F8040BC9F80010002866D14FF0B5
:10047000FF340FF68C2012E7D9F8001051F8040B66
:10048000C9F8001020B94FF0FF340FF6742006E7CA
:100490000D99018000F025BCD9F8001051F8040B2B
:1004A000C9F80010002849D14FF0FF340FF6502052
:1004B000F5E6D9F8001051F8040BC9F8001000282F
:1004C0003CD14FF0FF340FF63820E8E6D9F80010A1
:1004D00051F8040BC9F8001080B94FF0FF340FF643
:1004E0002020DCE6D9F8001051F8040BC9F8001000
:1004F00020B94FF0FF340FF60820D0E60D9AD3173D
:10050000C0E90023EDE3D9F8001051F8040BC9F855
:10051000001020B94FF0FF340FF6E410BFE60D993C
:100520000170DEE3D9F8001051F8040BC9F800108F
:1005300020B94FF0FF340FF6C810B0E60D990160F6
:10054000CFE39DF842004C2807BFD9F80010CA1D20
:10055000D9F80000C21D22F00702C9F80020D2E934
:1005600000010832C9F80020CDE90201C80F02D00D
:1005700007982D210AE0BDF84000810702D50798B1
:100580002B2103E0C00705D50798202112AA11549A
:10059000401C079012A807994BF0200300EB010CB8
:1005A000DDE90201CDE92C01612BCDF814C021ACAD
:1005B0000BD00E98002848BF062105D404BF4BF08D
:1005C0002000672801D101210E91DDE902014F00D1
:1005D00047EAD0777E15FF174FF0FF32974208BFEA
:1005E000964210D1090341EA10510003002908BFC7
:1005F000002808D0ABF1610503211A2D089118D30A
:100600000FF61C1110E0DDE902014A00521512F14B
:10061000010F11D108030FD1ABF1610503211A2D90
:1006200008911FD30FF600110322604600F036FD3B
:1006300057E30FF6E801F7E7DDE902016A4600F04B
:1006400081FDCDE902014BF02000612811D1059810
:1006500030210170821C0592BBF1610F0CBF782123
:10066000582102E00FF6BC01DEE741700798801CBC
:100670000790DDE9020120F0000231F0004308BFDD
:10068000002A02D10026002542E14BF02008B8F1F3
:10069000610F40F092800E98002847BF2121019100
:1006A000401C0190019FDDE92C017F1C00220023EA
:1006B000DDE9024500F07EFD38BF85F00045009978
:1006C0008DF88420091F002F00910DF1850632DD81
:1006D000204629460022002300F086FD2BD21C2252
:1006E00000F09CFD04460D4600F01AFEFF1F002F8F
:1006F000804609DD00F01BFE02460B4620462946D7
:1007000000F01CFE04460D46F01D0721B8F1000F55
:100710000CDD491E5EBF08F00F0200F8012D4FEA04
:100720002818F3D502E0002200F8012D491EFAD561
:10073000C61D002FCCDC0DF18500361A01980DF195
:1007400085048642D8BF304600282FD4B04206DA4E
:100750000DF185010A5C082AA8BF0F2100DA0021EB
:10076000024621AB134400E0401E13F80159521E0B
:100770008D42F9D00F2904D10DF185018B5C5B1CF2
:100780008B54002A04D50099091D21AC401C00910E
:10079000411E0BD4621813783033DDB23A2DA4BF5A
:1007A0005B443A3B491E02F80139F4D50E99002901
:1007B00040F1AC80421E0E92A8E00099DFF8E826D6
:1007C00047F29750414391FBF2F20092DDE92C454C
:1007D000C2F10702002A25F0004504DD2046294623
:1007E00000F03EFB0BE052420020DFF8C01600F0A4
:1007F00037FB02460B462046294600F0A8FD04467A
:100800000D46B8F1660F06BF009F0A3706270E98FF
:100810003F18142FC8BF142730208DF884000DF125
:100820008506002F34DD2046294600F099FD01465B
:100830000A4606F1080304200A26B2FBF6F606EB88
:10084000860EA2EB4E02303203F8012C0A22B6FBD0
:10085000F2F202EB820EA6EB4E063036401E03F893
:10086000026DE9D1083F002F03F10806D9DD0846E3
:1008700000F07DFD02460B462046294600F05EFD55
:100880000022DFF82C3600F079FD04460D46CAE759
:100890000DF18500361A0DF1850404E00098401E24
:1008A000761E0090641C20783028F7D0B8F1660FCF
:1008B00002D10098401C04E0B8F1650F0CBF012084
:1008C00000200E9940188642B8BF701E00281DD423
:1008D000B04204DA215C3429C8BF392100DC302160
:1008E0000246631E9D1800E0401E15F80169521E65
:1008F0008E42F9D0392902D1A15C491CA154002AA9
:1009000004D50099491C1C46401C00910646009DD8
:100910000E9F30B2002802DC01260FF210644BF06B
:100920002000662808BF6D1C15D067280FFA85F8CF
:1009300041D118F1040F44DBB84542DA9DF840007C
:100940006D1C010703D430B2B842D8BF074628B2A5
:100950003F1A48BF00270FFA85F8B8F1000F00F3DF
:10096000AF800898411C0891302205990A54002F45
:1009700003DC9DF84000010705D50898411C08914B
:100980002E2205990A5417EB080FB8BF7D422DB2ED
:100990006842ED1932B20B909542B8BF2E46059BC6
:1009A000089836B2099632462146184400F076FB84
:1009B000AD1B0C95CCE0BBF1610F15D14FF0700B66
:1009C00017E030B2B84204DA9DF840100A0758BF69
:1009D00007467F1E48BF0027BBF1670F14BF4FF0CB
:1009E000450B4FF0650B04E0BBF1410F08BF4FF022
:1009F000500B0898411C0891002F059914F8012B01
:100A00000A5403DC9DF84000010719D50898411CE1
:100A100008912E2205990A54002F11DD761E30B25E
:100A20008742B8BF3E460598089B32B2214618441B
:100A300000F034FB089836B23018BF1B08900B97B3
:100A4000059808990844B8F1000F80F800B003D465
:100A50002B224270821C04E02D2145464170821CED
:100A60006D4200212CAB28460AE004460A2094FB84
:100A7000F0F000EB8005A4EB450403F8014B491CA2
:100A800000B20028F1DC012906DC4BF020006528CB
:100A900004BF302002F8010B00292CAB08D1302014
:100AA00002F8010B06E0491E585C303002F8010BD9
:100AB0000029F8DC059908980844121A099247E0C1
:100AC00030B229B288421BDA0598089B32B221461F
:100AD000184400F0E3FA089936B271180891A8EBAF
:100AE0000600002F0B9003DC9DF84000020705D59F
:100AF000059A2E2050540999491C09910C9727E01A
:100B00000598089B2AB22146184400F0C7FA0898B5
:100B1000761B4044002F089003DC9DF840100A0724
:100B200004D5411C08912E2205990A5430B28742FF
:100B3000B8BF3E460598089B32B204EB0801184442
:100B400000F0ACFA089836B23018BE1B08900B962D
:100B50009DF8400000F01400102840F0C280079A71
:100B600008980B99821809988A1882180C980F997E
:100B70008018884280F2B580081A0A90B1E09DF88A
:100B80004200622808D068280ED06A2814D06C2849
:100B90001FD0712810D01CE0D9F8001051F8040BB8
:100BA000C9F80010C0B21AE0D9F8001051F8040BCF
:100BB000C9F8001080B212E0D9F80000C21D22F07E
:100BC0000702C9F80020D2E900010832C9F8002064
:100BD00006E0D9F8001051F8040BC9F80010002104
:100BE000CDE902019DF8400001075AD5DDE9022355
:100BF000002B08BF002A54D04BF02000782850D199
:100C0000079812A930220A54401C431C079301F88C
:100C100000B046E09DF84200622808D068280ED057
:100C20006A2814D06C281FD0712810D01CE0D9F885
:100C3000001051F8040BC9F8001040B21AE0D9F8BE
:100C4000001051F8040BC9F8001000B212E0D9F8F6
:100C50000000C21D22F00702C9F80020D2E90001FD
:100C60000832C9F8002006E0D9F8001051F8040B4A
:100C7000C9F80010C117CDE90201002902D5079873
:100C80002D210AE0BDF84000810702D507982B21ED
:100C900003E0C00705D50798202112AA1154401C73
:100CA000079012A8079901440591594602A800F03F
:100CB0004DF816E001200790D9F8000050F8041B09
:100CC000C9F800008DF848100BE001212522BBF186
:100CD000000F07918DF8482003D0022207928DF86B
:100CE00049B00F9D07990A986D1A08992D1A0B980B
:100CF0006D1A09992D1A0C986D1A9DF840102D1A2D
:100D000048073FF5DFAA2021002D8DF800107FF75E
:100D1000D9AA309E2C46FFF7C9BA4FF0FF3031B048
:100D2000BDE8F08FCBCCCC0C686A6C747A4C0000B8
:100D30007072696E74665F733A2062616420257315
:100D400020617267756D656E740000002DE9FC47C7
:100D500007468A463C6950466F2808BF082505D0DB
:100D6000FFF78EF9782814BF0A251025D7E900016E
:100D70003C2680468946BAF1640F18BFBAF1690F64
:100D800005D1002903D5D8F1000869EB4909B9F16B
:100D9000000F08BFB8F1000F0CD1386B50B9082D07
:100DA0003AD197F83800010736D530223B2684F82F
:100DB0003B2031E08DF800A0404649462A46EB171B
:100DC00000F0E6FA3032D0B2761E3A2801960EDAFA
:100DD000A255404649462A46EB1700F0D9FA80460C
:100DE0005FEA010908BFB8F1000F05D108E09DF8DE
:100DF00000001218513AEBE7F868A1198842DBD3DA
:100E0000082D09D197F83800010705D5A05D3028D5
:100E100002D0761E3020A055C6F13C03BB61A1195B
:100E2000F960386B834208DAC31A3B624FF6EF7001
:100E3000398F01403987BDE8F38700280ED597F830
:100E4000380000F01400102808D17A6B7969386AEC
:100E5000521A121AD21A002AC8BF3A62BDE8F387A2
:100E60002DE9D04306460F4614464FF00008DFF840
:100E7000449012E0E00707D542464B4630463946DB
:100E800000F07CFA06460F464046494642464B462D
:100E900000F074FA641080468946002CEAD130468E
:100EA0003946BDE8D0830000A08601000000F03F75
:100EB00084D7974100002440F8B505460E461746F2
:100EC0001C4600205CB117F8011BB068A847B06051
:100ED00030B1F06A401CF0620020641EF3D1F2BD14
:100EE0004FF0FF30F2BD00007072696E74665F7380
:100EF0003A20256E20646973616C6C6F77656400BD
:100F00007072696E74663A2062616420256E206199
:100F10007267756D656E7400000000006E616E0092
:100F20004E414E00696E6600494E46003000F0B4F6
:100F30000246106895681318506803EB5004C00708
:100F400048BF4D44A3422DD013F8016B16F00300A7
:100F500004BF13F8010BC01C31090F2907D113F886
:100F6000011B0F3103E013F8017B05F8017B401EE4
:100F7000F9D10029E6D013F8010BC6F38106032E40
:100F800008BF13F8016B00EB0620404228440026FE
:100F9000B71E8F421EBF10F8017B05F8017B761C3F
:100FA000F6D1CFE7F0BC02F10C007047C9B202786D
:100FB0008A421AB11CBF10F8012FF9E718BF0020B0
:100FC00070470268531C03601170704780B500B908
:100FD00006A005490B681BB122220021984701E0B9
:100FE00000F0EEFA222002BD8C240328636F6E739A
:100FF000747261696E742068616E646C65723A2007
:10100000626164206D6573736167650000F10103BF
:10101000810704D010F8011B820781B1FAD1026860
:10102000A2F10131914311F0803104BF50F8042F37
:10103000F6E709BAB1FA81F100EBD100401CC01A01
:1010400070470000C9B2830706D0521E22D310F8A1
:10105000013B9942F7D11FE0083A13D302F1040291
:1010600041EA012141EA014150F8043B121F21BF2E
:101070004B40A3F1013C2CEA030C1CF0803FF3D061
:10108000C9B2001F083210F8013B521E28BF91EA76
:10109000030FF8D818BF0120401E704762B38B07BA
:1010A00008D0521E11F8013B00F8013B00F02480EB
:1010B0008B07F6D1830740F0208000BF103A07D39A
:1010C00030B4B1E83810103AA0E83810F9D230BC8A
:1010D000530724BFB1E80810A0E8081044BF51F836
:1010E000043B40F8043BD20724BF31F8022B20F820
:1010F000022B44BF0B7803707047121F17D35B009D
:1011000009D151F8043B20F8023B1B0C121F20F8B8
:10111000023BF6D20BE051F8043B00F8013B1B0AFE
:1011200020F8023B1B0C121F00F8013BF3D238BF22
:10113000121D521E24BF11F8013B00F8013BF8D8E4
:101140007047000010B5144600F002F8226010BD90
:10115000C1F30A5343B14A0012F5001F28D2A3F28B
:10116000FE32A1EB0251704750EA410C20D001F051
:10117000004C31EA0C01B1FA81F204BFB0FA80F3FD
:10118000D2180B3AB2F120032CBF00FA03F19140C0
:1011900041EA0C013EBFC2F1200C20FA0CF31943C6
:1011A0009040524240F2FD33D21A01EB0351704796
:1011B0000022704741EA030C50EA4C0C52EA0C0C36
:1011C0004FF4001C09D307D01CEB410F9CBF1CEB54
:1011D000430F8B4208BF824270471CEB430FFBD882
:1011E000994208BF9042704741EA030C50EA4C0C08
:1011F00052EA0C0C4FF4001C09D307D01CEB410F32
:101200009CBF1CEB430F994208BF904270471CEBF8
:10121000410FFBD88B4208BF8242704700B541ECBA
:10122000100B104600F004F851EC100B00BD00BF8D
:10123000020030EE101B40F2FF7C37D41CEA115341
:1012400013D063456BD09B18634504D201EB025168
:1012500020EE101B704701F0004141EA0C510020C4
:1012600041EC100BAFF30080704710EE100B50EA0A
:10127000410054D0B2F57F7F08D202EB5C01090532
:10128000002041EC110B20EE010B70474FF0FE41A6
:10129000002341EC113B20EE010BB2F57E7230EEE3
:1012A000101B4FEA410342EB5353CDE752421CEA75
:1012B000115316D0634532D09A4204D2A1EB0251A9
:1012C00020EE101B70475B1ED21AA1EB035120EEDB
:1012D000101B372A0CD3002001F0004141EC100B09
:1012E000C0E710EE100B50EA410018D0372AF2D2B6
:1012F000C2EB5C021105002041EC110BF1EE100A6B
:1013000020F01F0121F4F851E1EE101A20EE010B3C
:10131000F1EE101AE1EE100A11F0080FA2D1704799
:1013200041EC100BBDEEC00B10EE100A704700EE42
:10133000100AB8EEC00B51EC100B704741EC100BCB
:1013400043EC112B30EE410B51EC100B704741EC8C
:10135000100B43EC112B80EE010B51EC100B70477E
:1013600041EC100BBCEEC00B10EE100A704700EE03
:10137000100AB8EE400B51EC100B704741EC100B0B
:1013800043EC112B20EE010B51EC100B70470000C9
:10139000BBBBE1B1B2F5803F80F07E80022A1ED94E
:1013A0008C46B1FBF2F102FB11C31B0443EA10436C
:1013B000B3FBF2FC02FB1C3380B240EA0343B3FBF5
:1013C000F2F002FB103240EA0C4000237047022A80
:1013D00005D98446B0FBF2F002FB10C270474AB157
:1013E00005D100F0010249085FEA30007047002291
:1013F0000023704700F0E8B80B0002000021002035
:101400007047904271EB030CF6D3B3F5803F2FD2B7
:10141000F0B5B3FA83F7B1FA81F4A7F10F0E3D1BD3
:101420005340CEF1200602FA0EF2F3415340B5F1DB
:101430000F0746D80F3C2C444140C4F12006A04081
:10144000F1414140B1FBF3F603FB1611A2FB064547
:10145000001BA94102D2761E8018594180EA010280
:1014600021FA0EF362FA0EF200215A403046F0BD26
:1014700030B4B1FBF3FC03FB1C11A2FB0C45001BB9
:10148000A94103D2ACF1010C8018594130BC02468D
:101490000B46604600217047B2F1807F65D3F0B5FE
:1014A000B2FA82F7B1FA81F4C7F10F063D1B22FAB6
:1014B00006F307F1110EF24120355A40B5F10F073E
:1014C000B8D94140C4F12006A040F1414140B1FBF0
:1014D000F3FC03FB1C11A2FB0C45001BA94103D22A
:1014E000BCF1010C801859410F2F12D30F3FC903D3
:1014F00041EA5041B1FBF3F603FB1611A2FB06458E
:10150000D4EBC030A94102D2761E8018594146EA78
:10151000CC3C07B34140C7F12006B840F1414140FF
:10152000B1FBF3F603FB1611A2FB0645001BA94114
:1015300002D2761E8018594180EA010221FA0EF388
:10154000C7F1200462FA0EF20CFA07F05A402CFAA6
:1015500004F13043F0BD80EA010221FA0EF30021CC
:1015600062FA0EF260465A40F0BD8C46B1FBF2F1D1
:1015700002FB11C31B0243EA1063B3FBF2FC02FB44
:101580001C331B024CEA002043EA1063B3FBF2FC5D
:1015900002FB1C331B024CEA002043EA1063B3FB3E
:1015A000F2FC02FB1C331B024CEA002043EA1063EE
:1015B000B3FBF2FC02FB1C324CEA00200023704714
:1015C000012000F003B800007047000080B5AFF3C1
:1015D0000080024A11001820ABBEFBE72600020083
:1015E0002DE9F8432DED048BDFF8C4489FED8F8A79
:1015F000DFED8F2A9FED8F2AF0EE481A9FED8C1AAF
:10160000DFED8B0AB3EE090A200000F015FFDFF8CA
:10161000A458F0EE088A9FED889ADFED882AB0EE94
:10162000492AF0EE481AB0EE681ADFED810A9FED04
:10163000840A280000F000FFDFF87C68DFED819A63
:10164000DFED812AB0EE692AF0EE481A9FED781A94
:10165000DFED770A9FED7D0A300000F0EDFEF7EE3A
:10166000002AB0EE682AF0EE481A9FED711AF6EEE5
:10167000000AB1EE040ADFF8440800F0DDFEDFF8EE
:101680004078F2EE048AF0EE692AB0EE492AF0EED4
:10169000481A9FED671AF0EE680A9FED6D0A380050
:1016A00000F0CAFEF0EE682A9FEDAA2AF0EE481A72
:1016B0009FED5F1ADFEDA80A9FEDA80ADFF8040886
:1016C00000F0BAFEDFF80088F6EE002AB7EE002A36
:1016D000F0EE481A9FED561ADFED550ABBEE040AEC
:1016E000404600F0A9FEDFF8E4979FED9D8A9FED4C
:1016F000502AF0EE491AB1EE001ADFED4D0AB0EEB5
:10170000480A484600F02EFF9FED492AF0EE491A9C
:10171000B1EE001ADFED460AB0EE480ADFF8B00776
:1017200000F020FFDFF8AC079FED8E0A80ED000A85
:10173000DFED8D0AC0ED010ADFF89C0780ED000A9D
:10174000C0ED010A2100002000F080FF29000120E7
:1017500000F07CFF15F10801022000F077FF310056
:10176000032000F073FF4946042000F06FFF41465C
:10177000052000F06BFF3900062000F067FF17F12D
:101780000801072000F062FFDFF8F81B082000F0D6
:101790005DFF01F0B3F9BDEC048BBDE8F18380B5CA
:1017A000DFF80C0700F058FEDFF8080700F054FEE1
:1017B000DFF8040700F050FE01F054FA01BD78B5DF
:1017C0008BB004000D00160006A8142101F0DCFA0D
:1017D00002A8019004A80090DFF8EC36DFF8E426B8
:1017E000210006A801F0D4FA95ED000ADDED040A07
:1017F00030EE200A85ED000A95ED010ADDED050ABF
:1018000030EE200A85ED010A96ED000ADDED020AB0
:1018100030EE200A86ED000A96ED010ADDED030A9E
:1018200030EE200A86ED010A0CB070BD6F12833ACB
:10183000000000000000874300401C4600803B453C
:10184000008089C40000FA440000FA4300000080D0
:101850000060064538B52DED048B88B00C001500EE
:10186000C0B2002808D1F7EE009AB0EE698AFFEE08
:10187000008AB0EE699A07E0F7EE009AB0EE698A46
:10188000FFEE008AB0EE699A9FED670AF0EE400A1B
:1018900049EE080ACDED020A09EEA80A8DED030A09
:1018A00004A902A801F0F8FA002817D1D4ED010A22
:1018B00094ED000A6A4601A904A801F09BFB0028E8
:1018C0000CD19DED010A09EE008A85ED008A9DED9F
:1018D000000A49EE808AC5ED018A03E085ED008AA1
:1018E000C5ED018A9FED510AD5ED000AF4EE400ADC
:1018F000F1EE10FA02D5F0EE400A0DE0D5ED000A47
:101900009FED4B1AF4EE410AF1EE10FA02DBDFED27
:10191000490A01E0D5ED000AC5ED000AD5ED010A3E
:10192000F4EE400AF1EE10FA0DD495ED010ADFED68
:10193000400AB4EE600AF1EE10FA02DB9FED3D0AB8
:1019400001E095ED010A85ED010A08B0BDEC048BBC
:1019500031BD00000000B442CDCC4C3E00007A43C3
:1019600000009644CDCCCC3ECDCCCCBEDFED320ACF
:1019700090ED040A20EE200A90ED061A61EE200A8E
:10198000DFF80C3A1A78002A0DD0002008600020F9
:101990004860002088600020C860002008610020A6
:1019A000486100207047B0EEC00A9FED241AB4EEE3
:1019B000410AF1EE10FA08DAB0EEE00ADFED200A93
:1019C000B4EE600AF1EE10FA02DB01201870DCE7D9
:1019D0009FED170AD0ED090AF0EEE00AF4EE400A96
:1019E000F1EE10FA1ADAD0ED0A0AF0EEE00AF4EE9F
:1019F000400AF1EE10FA11DAD0ED0B0AF0EEE00A2F
:101A0000F4EE400AF1EE10FA08DAD0ED0C0AF0EE2E
:101A1000E00AF4EE400AF1EE10FA02DB0120187041
:101A2000B3E70120BEE70000DB0FC93F508D27C0A0
:101A3000518D2740508D2740E02E654201003442F1
:101A400001000C42F8B52DED028B98B007A8DFF825
:101A500038194422FFF732FB02A8DFF830191422AC
:101A6000FFF72CFBDFF82C49210007A8FFF77EFFCA
:101A7000002800F0428101F085F8002804D0210000
:101A800007A801F093F838E10094DFF82834DFF874
:101A90002024DFF8241407A801F0EEF89DED0C0ACD
:101AA000DDED020A30EEC00A03E0DFED960A30EE0B
:101AB000200ADFED950AB4EE600AF1EE10FAF4DACE
:101AC000DFED920AB4EE600AF1EE10FA04D5DFED14
:101AD000900A30EE200AF3E7DDED020A30EEC08A0C
:101AE000DFF8B4589DED020AD5ED000AB4EE600AA5
:101AF000F1EE10FA09D0DFF8C40300F0ADFCDFF816
:101B0000C00300F0A9FC02982860F0EE480A9DEDA1
:101B1000020ADFF8A80300F0A7FCDDED080AF1EEE9
:101B2000600ADFF89C0300F09FFCB5EE400AF1EE7E
:101B300010FA08DDF6EE000A30EE200ABDEEC00A0B
:101B400010EE100A07E0FEEE000A30EE200ABDEEAD
:101B5000C00A10EE100A2168091A21606168081A8B
:101B600060609DED080AFEEE000A20EE200AF0EE0D
:101B7000080A80EE200AFFEE000AB4EE600AF1EED9
:101B800010FA02D5B0EE600A09E0DFED620AB4EEA9
:101B9000600AF1EE10FA02DBB7EE000AFFE78DED06
:101BA000050ADFF8F857DFF8F86701960095C64B8D
:101BB000C44A07A902A801F0EBF8C64F3A00290071
:101BC0000020FFF747FEC44D2A0031000120FFF737
:101BD00041FE0094002307AA3900BC4800F0F6FC3F
:101BE0000094012307AA2900B94800F0EFFC9FEDFB
:101BF000AD0ADFF8B007D4ED000AF8EEE00A90ED88
:101C0000001A70EEC10A90ED001A00EE801A80ED05
:101C1000001ADFF89417D4ED010AF8EEE00A91ED0E
:101C2000001A70EEC10A91ED001A00EE801A81EDE3
:101C3000001ADFF87827D4ED020AF8EEE00A92EDF8
:101C4000001A70EEC10A92ED001A00EE801A82EDC1
:101C5000001ADFF85C37D4ED030AF8EEE00A93EDE2
:101C6000001A70EEC10A93ED001A00EE801A83ED9F
:101C7000001ADFF84057D4ED040AF8EEE00A95EDBB
:101C8000001A70EEC10A95ED001A00EE801A85ED7B
:101C9000001ADFF82467D4ED050AF8EEE00A96EDA5
:101CA000001A70EEC10A96ED001A00EE801A86ED59
:101CB000001A90ED000ABDEEC00A84ED000A91ED15
:101CC000000ABDEEC00A84ED010A92ED000ABDEEE5
:101CD000C00A84ED020A93ED000ABDEEC00A84ED4D
:101CE000030A95ED000ABDEEC00A84ED040A96EDE4
:101CF000000ABDEEC00A84ED050A18B0BDEC028BE7
:101D0000F1BD0000DB0FC9C0DC0F4940DB0F49C04B
:101D1000DB0FC9400100803F10B4F1EE040AB4EEBD
:101D2000600AF1EE10FA10D50021016000218160F7
:101D300000214160DFF88406DFF88416096801603D
:101D4000DFF8800600210160AAE0DFF87C46226807
:101D5000082A08DBDFF86C16096801600021816041
:101D6000002141609CE0DFF864361A78002A4FD1E8
:101D7000DFF85026146804605FF07C54846000240F
:101D80004460DFF83C0690ED000ADFF83006D0ED45
:101D9000000A30EE600AF7EE000AB4EE600AF1EED7
:101DA00010FA7DDB01201870DFF8240600230360A1
:101DB0004869DFF82016086092ED000ADFED3A0A64
:101DC00030EE200A82ED000A07E092ED000ADFED16
:101DD000C70A30EE200A82ED000A92ED000ADFED1C
:101DE000C40AB4EE600AF1EE10FAEEDA92ED000ADF
:101DF000DFEDD50AB4EE600AF1EE10FA50D592ED9F
:101E0000000ADFEDD20A30EE200A82ED000AEDE78B
:101E1000DFF8B02512680260002282600022426072
:101E2000DFF8B00591ED050AD0ED000A30EE600A4A
:101E300003E0DFEDAE0A30EE200ADFEDAD0AB4EECE
:101E4000600AF1EE10FAF4DADFEDBF0AB4EE600AD0
:101E5000F1EE10FA04D5DFEDBD0A30EE200AF3E70B
:101E6000DFF86C25B0EEC00AD2ED000A30EE200A91
:101E700082ED000A4969016092ED000ADFED0B0A6C
:101E8000B4EE600AF1EE10FA0ADB00201870206848
:101E9000401C2060DFF82405DFF824150968016084
:101EA00010BC7047CDCC4C3EDB0FC93F4302BF3F57
:101EB000502103287421032898210328BC210328DA
:101EC000E02103280422032828220328F41E0328E3
:101ED0003C1F0328942303289C2303282DE9F04169
:101EE0002DED048B0C001500016821614168A16192
:101EF00081686161C168A160016961604069E060F9
:101F000000202060DFF8D0140878002805D160692F
:101F1000DFF8C82410600120087094ED050ADFF88E
:101F2000BC04D0ED000A30EE600A84ED050A07E03B
:101F300094ED050ADFED6D0A30EE200A84ED050A06
:101F40009FED6B0AD4ED050AF4EE400AF1EE10FAAB
:101F5000EEDADFED7D0A94ED051AB4EE601AF1EECB
:101F600010FA08D5D4ED050A9FED781A70EE810AB3
:101F7000C4ED050AEDE7F2EE041ADFF8640490ED13
:101F8000071A21EE211A90ED082A62EE211ADFF8D5
:101F90005414087800280AD1DFF84C0480ED001AA8
:101FA000DFF84804C0ED001A0120087004E1DFF8F2
:101FB000380490ED002A31EE422ADFF83014D1EDDA
:101FC000002A71EEE22A9FEDB43AB4EE432AF1EE14
:101FD00010FA03D5DFEDB13A32EE232ADFEDB03A45
:101FE000B4EE632AF1EE10FA03DB9FEDAE4A32EE57
:101FF000042AF4EE432AF1EE10FA03D59FEDA73A36
:1020000072EE832AF4EE632AF1EE10FA03DB9FED01
:10201000A53A72EE832A80ED001AC1ED001A9FEDF9
:10202000D41A62EE011A9FEDD33AC1EE831AFFEE85
:10203000003A22EE813A9FEDCF4A83EE043A23EE36
:10204000233A9FEDCD4ADFF8A803D0ED004A71EEA8
:10205000E41AD0ED004A41EE844AC0ED004ADFF8B0
:102060009413D1ED001A73EE611A91ED003A01EE6E
:10207000843A81ED003A0068E0610868206202EE6F
:10208000A32AF0EE001AC2EE211A21EE811ADFED2A
:10209000BB1A21EE211ADFEDB71A21EE218AC848BA
:1020A000B84EB0EEC81AD6ED001A90ED002A01EE37
:1020B000212A80ED002AD4ED058ACF4F97ED009AB2
:1020C00038EEC91A03E0DFED091A31EE211AB4EE39
:1020D000401AF1EE10FAF6DAB4EE601AF1EE10FAE8
:1020E00008D59FED1A0A31EE001AF5E7DB0FC9C0DB
:1020F000DC0F4940B0EEC10ADFEDA10AB4EE600A80
:10210000F1EE10FA24D5DFF8F482B0EE490A01F0BE
:1021100097F820EE080AD6ED000A98ED001A00EEB6
:10212000201A88ED001ADFF8D882B0EE490A01F0D3
:1021300089F820EE080AD6ED000A98ED001A00EEA4
:10214000201A88ED001A35E0DB0F49C0DB0FC940CB
:1021500088EE018AB0EE680A01F074F8F0EE409A59
:10216000DFF89882B0EE490A01F06CF839EEC00A47
:1021700020EE080AD6ED000A98ED001A00EE201AAB
:1021800088ED001AB0EE490A01F05AF8B0EE409A14
:10219000DFF86C82B0EE680A01F052F839EE400ABE
:1021A00020EE080AD6ED000A98ED001A00EE201A7B
:1021B00088ED001AC7ED008A92489FED6D0AD0EDB8
:1021C000090A60EE800AC4ED090AD0ED0A0A60EE41
:1021D000800AC4ED0A0A8C48D0ED090A60EE800A34
:1021E000C4ED0B0AD0ED0A0A20EE800A84ED0C0A39
:1021F000B6EE000A8548D4ED090A90ED001A70EE9B
:10220000C10A90ED001A00EE801A80ED001A804994
:10221000D4ED0A0A91ED001A70EEC10A91ED001A90
:1022200000EE801A81ED001A7A4AD4ED0B0A92ED85
:10223000001A70EEC10A92ED001A00EE801A82EDCB
:10224000001A754BD4ED0C0A93ED001A70EEC10A1A
:1022500093ED001A00EE801A83ED001A00686062A8
:102260000868A0621068E0621868206301F035F920
:10227000002802D0200001F038F9684908780028C9
:1022800012D0002060630020A0630020E0630020E3
:1022900020640020087035E0000034C30000B4431F
:1022A000010034430000B4C39FED320AD4ED090AA3
:1022B0005B4890ED001A70EEC10AC0EE800AC4EDD2
:1022C0000D0AD4ED0A0A574890ED001A70EEC10AC3
:1022D000C0EE800AC4ED0E0AD4ED0B0A524890ED10
:1022E000001A70EEC10AC0EE800AC4ED0F0AD4EDE8
:1022F0000C0A4E4890ED001A70EEC10A80EE800A7A
:1023000084ED100A606A46490860A06A4549086081
:10231000E06A45490860206B444908600020286154
:102320000020686001F0D9F8002812D040490878F0
:10233000002804D13F4800220260012008703D4877
:1023400090ED000ADFED0B0A30EE200A80ED000A66
:1023500002E0002036490870364890ED000A21005E
:102360002800FFF7D9FCBDEC048BBDE8F08100BF6D
:1023700035FA8E3C6F12833ACDCC4C3E00000242BF
:102380006F12033B54BF022810200328FC220328AD
:10239000A2240328B422032858BF02288423032838
:1023A0008C230328E8230328EC230328F0230328A5
:1023B000F4230328F8230328FC23032804240328F8
:1023C000E42303281024032800240328A32403283B
:1023D000082403280C240328A424032814240328F5
:1023E000CC200328A5240328182403281C24032810
:1023F0002024032824240328E0230328D8230328A7
:10240000DC230328F8200328242103282824032878
:102410002C240328302403283424032857C00228FE
:10242000382403283C240328402403284424032878
:10243000A62403284824032880B580ED000AC0EDB7
:10244000010A80ED021AC0ED031A80ED072AC0EDE3
:10245000082A00F001F801BD00210161002141615D
:10246000002181617047000070EE600A90ED000A63
:1024700020EE200A90ED011AD0ED041A21EE211A67
:10248000D0ED051A70EEE11A90ED032AC1EE821A22
:1024900090ED062A71EEC21A9FED312AD0ED062A80
:1024A00041EE822AC0ED062AC0ED050AD0ED021ADF
:1024B00090ED062A61EE821A30EE010A30EE210A12
:1024C00090ED071AB4EE401AF1EE10FA02D590ED35
:1024D000070A0CE090ED071AB1EE411AB4EE410A7A
:1024E000F1EE10FA03D590ED070AB1EE400AB0EE16
:1024F000C01AD0ED071AB4EE611AF1EE10FA08D442
:1025000090ED041A20EE811AB5EE401AF1EE10FAA1
:1025100007D890ED031AD0ED041A40EE811AC0EDF1
:10252000041AD0ED080A90ED041AF4EE410AF1EE17
:1025300010FA02D5016A016110E0D0ED040A90EDB5
:10254000081AB1EE411AF4EE410AF1EE10FA05D57F
:10255000D0ED080AF1EE600AC0ED040A70470000F1
:10256000CDCC4C3E10B52DED068B0400B0EE408A6C
:10257000F0EE608AB0EE419AF0EE619AB0EE42AAB7
:10258000DFED11AAF0EE4A2AB0EE692AF0EE6A1ADF
:10259000B0EE491AF0EE680AB0EE480A2000FFF7E4
:1025A0004BFFF0EE4A2AB0EE692AF0EE6A1AB0EE5E
:1025B000491AF0EE680AB0EE480A14F12400FFF759
:1025C0003BFFBDEC068B10BD6F12833A38B52DED85
:1025D000048B04001D002800C0B2002808D1D2EDF1
:1025E000090A92ED0A8A91ED000AD1ED018A07E00D
:1025F000D2ED0B0A92ED0C8A91ED000AD1ED018A21
:102600002000FFF731FFB0EE409AF0EE480AB0EE3E
:10261000680A14F12400FFF727FFFDEEC90A10EE47
:10262000901ABDEEC00A10EE102A0898EDB2002DE7
:1026300004D1494281605242C26003E049420161D3
:1026400052424261BDEC048B31BD00000200D2B2A7
:10265000082A03D2024AC0B242F820107047000094
:102660004C22032880B5FFF79AF801BD38B5040065
:102670000D00009500232200DFF89815DFF898057B
:10268000FFF7A4FF009501232200DFF89015DFF883
:102690009005FFF79BFF31BD38B52DED028B82B061
:1026A00004000D00B0EE408AB5EE408AF1EE10FA5B
:1026B00004D800202860002068604AE00095DFF818
:1026C0006435DFF86425DFF86415200000F0D4FAE3
:1026D00094ED010AF1EE400A9FEDA30ADFF85005E0
:1026E000FFF7C2FEB5EE400AF1EE10FA08DDF6EE95
:1026F000000A30EE200ABDEEC00A10EE100A07E014
:10270000FEEE000A30EE200ABDEEC00A10EE100AFE
:102710002968411829606968081A6860B7EE000ADC
:10272000B4EE408AF1EE10FA13D595ED000AB8EE3A
:10273000C00A20EE080ABDEEC00A85ED000A95ED3C
:10274000010AB8EEC00A20EE080ABDEEC00A85ED07
:10275000010A02B0BDEC028B31BDDFF8D81408705D
:102760000020DFF8D4140880704738B584B0040026
:102770000D0002A8DFF8C41491EC020A80EC020AF2
:102780006846DFF8BC1491EC020A80EC020AB7EE4E
:10279000000A29002000FFF77FFF6A4602A92000F7
:1027A000FFF70DF8DFF86C2402A90020FFF752F8BC
:1027B000DFF8682469460120FFF74CF82900200063
:1027C000FFF754FFDFF870040088B0F5FA7F04DBF0
:1027D000FFF748FF0220FFF7C0FF05B030BD38B556
:1027E00084B004000D0002A8DFF8581491EC020A2E
:1027F00080EC020A6846DFF8501491EC020A80EC83
:10280000020AB7EE000A29002000FFF745FF6A46DA
:1028100002A92000FEF7D3FFDFF8F82302A9002069
:10282000FFF718F8DFF8F42369460120FFF712F8E4
:1028300029002000FFF71AFFDFF8FC030088B0F53D
:10284000FA7F02DB0320FFF788FF05B030BDF8B543
:1028500084B004000D0002A8DFF8F01391EC020A26
:1028600080EC020A6846DFF8E81391EC020A80EC7B
:10287000020ADFF8C4633088012811D1DFF89873A9
:102880003800FFF7E9FD17F12400FFF7E5FDDFF859
:1028900090733800FFF7E0FD17F12400FFF7DCFD2F
:1028A000B7EE000A29002000FFF7F6FE6A4602A9EB
:1028B0002000FEF784FFDFF85C2302A90020FEF76A
:1028C000C9FFDFF8582369460120FEF7C3FF29003E
:1028D0002000FFF7CBFE3088962804DBFFF7C2FE0E
:1028E0000420FFF73AFF05B0F0BD00007CB50400FE
:1028F0000D006846DFF85C1391EC020A80EC020AD6
:10290000DFF83463308800EE100AB8EE400ADFEDDD
:102910009C0A80EE200AF7EE000A30EEC00AB5EEFF
:10292000400AF1EE10FA01D59FED0F0A29002000B0
:10293000FFF7B2FEDFF8DC2269460020FEF78AFFCF
:10294000DFF8D82269460120FEF784FF2900200025
:10295000FFF78CFE3088C82804DBFFF783FE0520D4
:10296000FFF7FBFE73BD000000000000FEB5040091
:102970000D006846DFF8E01291EC020A80EC020AD2
:10298000AD4E308801280FD1A34F3800FFF764FD0A
:1029900017F12400FFF760FDA14F3800FFF75CFD41
:1029A00017F12400FFF758FD308800EE100AB8EE4A
:1029B000400ADFED790A80EE200ADFED780AB4EEF6
:1029C000600AF1EE10FA01DBB7EE000A29002000E0
:1029D000FFF762FE8F4A69460020FEF73BFF8F4AF1
:1029E00069460120FEF736FF29002000FFF73EFE72
:1029F0003088642804DBFFF735FE0620FFF7ADFEC4
:102A0000F7BD00007FB504000D008B4E308800EE4E
:102A1000100AB8EE400ADFED620A80EE200ADFED10
:102A20005F0AB4EE600AF1EE10FA02DBB7EE000ABC
:102A3000FFE7DFED5C0A60EE200ADFED5B1A9FED39
:102A4000701A00EE211ACDED020A8DED031ACDEDBC
:102A5000000A8DED011AB7EE000A29002000FFF7E9
:102A60001BFE6A4602A92000FEF7A9FE694A02A9D8
:102A70000020FEF7EFFE694A69460120FEF7EAFEF4
:102A800029002000FFF7F2FD3088B0F5167F0DDB3E
:102A900072480178491C01700078032803DA01208C
:102AA000FFF75BFE02E00720FFF757FE7FBD3EB554
:102AB00004000D0068466A4991EC020A80EC020AA3
:102AC000B7EE000A29002000FFF7E6FD514A6946EB
:102AD0000020FEF7BFFE514A69460120FEF7BAFE0C
:102AE00029002000FFF7C2FD53480088B0F5FA7FA7
:102AF00002DB0020FFF731FE37BD000080B52DED71
:102B0000068B9FED408ADFED408AB2EE049ADFED3E
:102B10003F9A9FED3FAAB0EE4A2AF0EE691AB0EE56
:102B2000491AF0EE680AB0EE480A3B48FFF71AFD72
:102B3000B0EE4A2AF0EE691AB0EE491AF0EE680AD1
:102B4000B0EE480A3648FFF70DFD002039490870FD
:102B50000020394908800020404908702D48B7EE10
:102B6000000A80ED000AFFEE000AC0ED010A2B48C2
:102B700080ED000AC0ED010ABDEC068B01BD00002E
:102B8000000048432B480078002801D0012000E0D5
:102B90000020C0B2704700000000C8420100803F22
:102BA00000001644000000000000F04280B5224AF8
:102BB00013885B1C13801F4A1278012A0AD01ED387
:102BC000032A0DD009D3052A10D00CD3072A13D01D
:102BD0000FD314E0FFF7C9FD11E0FFF700FE0EE090
:102BE000FFF735FE0BE0FFF781FE08E0FFF7BEFEC2
:102BF00005E0FFF707FF02E0FFF759FFFFE701BD20
:102C000000008CC200803B450000484200401C464A
:102C10000000FA4474230328641E03287C2303283D
:102C2000AC1E03287421032850210328982103286F
:102C3000E02103289F2403289024032800AB0810D8
:102C400008AB081010AB081018AB081020AB081028
:102C500028AB081030AB081038AB0810A0240328AC
:102C600040AB08100020454908704548002101602C
:102C70004448002101607047F8B52DED028B040037
:102C800017001D003D4E307800281FD194ED070A33
:102C9000D4ED080A30EE200AF0EE000AC0EE200A59
:102CA0009FED330A0800FFF7DFFB364880ED000A8E
:102CB00094ED040ADFED2F0A70EE200A9FED2C0A36
:102CC0003800FFF7D1FB2E4880ED000A3078401C19
:102CD0000A2190FBF1F201FB12003070D4ED020AE0
:102CE000274890ED000A2800FFF7BEFB2548D0EDED
:102CF000000A30EE208A94ED040ADFED1E0A30EE61
:102D0000200A00F09FFADFED1C0A20EE200A38EEC0
:102D1000000AB5EE400AF1EE10FA06DDF6EE000A02
:102D200070EE200AFDEEE00A05E0FEEE000A70EE0D
:102D3000200AFDEEE00A0898C0ED000AF1EE400A14
:102D4000F5EE400AF1EE10FA06DDF6EE000A30EE7E
:102D5000C00ABDEEC00A05E0FEEE000A30EEC00A71
:102D6000BDEEC00A80ED010ABDEC028BF1BD000092
:102D700000000000C2B8B2BD00004842A1240328F0
:102D8000D0230328D4230328002200F0D7BB00005F
:102D90002DE9F04104000D0010001E0095ED070A1A
:102DA000D5ED080A30EE200AF0EE000A80EE200A87
:102DB000DFED310AC0EE200A94ED020AFFF754FB62
:102DC000DFED2E0AB4EE600AF1EE10FA02D5B0EE95
:102DD000600A09E0DFED2A0AB4EE600AF1EE10FAAB
:102DE00002DB9FED280AFFE7DDF81C80069F87EDD8
:102DF000000AB1EE400A88ED000A95ED060ADFED03
:102E0000220AC0EE200A94ED030A3000FFF72CFBE3
:102E1000FFEE000AB4EE600AF1EE10FA02D5B0EE51
:102E2000600A09E0DFED190AB4EE600AF1EE10FA6B
:102E300002DBB7EE000AFFE7DFED150A60EE200ABD
:102E4000C7ED010ADFED130A20EE200A88ED010A22
:102E500094ED040AF3EE0E0A20EE200AD7ED010AE3
:102E600070EE800AC7ED010AD8ED010A30EE800A43
:102E700088ED010ABDE8F081000070420000B4C294
:102E80000100B4420000B442CDCC4C3F0100803F71
:102E90000000A0420000A0C238B52DED108B040048
:102EA0000D00F3EE08BA9FED6E8A9FED6EFA94ED79
:102EB000000A00F0C7F9F0EE408A94ED000A00F035
:102EC000BFF9B0EE409A94ED010A00F0BBF9F0EEC4
:102ED000409A94ED010A00F0B3F9B0EE40AA28EE52
:102EE000090A70EE6BAA28EE28BA48EE0ABA28EE54
:102EF00029CA7BEEEACA3CEE4BDA2CEEAC0A0DEEA8
:102F00000D0A00F035FBF0EE40DAB0EE000A2FEECD
:102F1000000AB4EE6D0AF1EE10FA06D49FED52EA03
:102F2000F4EE4EDAF1EE10FA02D55FF0FF305EE01B
:102F3000F6EE00EA2DEEAE0A6FEE0F0A40EE400A02
:102F40009FED4A0A00F024FB00F012FB7AEEAB0A78
:102F500020EEAE1A7BEE0C0A60EEAE1ACDEE2D0A14
:102F6000F1EE600A8CEEAD2A00EE201A40EE021A55
:102F700031EE6A0A71EECB0A31EE6B1A71EECC1AA1
:102F800029EE202A08EEC02A22EE082A6AEE212A1B
:102F900049EEC12A62EE882A20EE213A00EEC13ABB
:102FA000F0EEC33AF4EE4E3AF1EE10FA02D55FF0CD
:102FB000FF301CE0F7EE003A83EE833A63EE211A0D
:102FC00061EE821AC5ED001A63EE200A60EEE20A95
:102FD000C5ED010A63EE010A60EEC20AC5ED020A00
:102FE00023EE000A20EE220A85ED030A0020BDEC44
:102FF000108B32BD90ED001AD0ED031A21EE211A8C
:10300000D0ED011A90ED022A01EEC21AF0EEC11ABB
:103010009FED172AF4EE421AF1EE10FA02D55FF096
:10302000FF301CE0F7EE001A81EE811AD0ED031A92
:1030300061EE801A90ED012A42EE601A61EE811A6B
:10304000C1ED001AD0ED001A61EEA00AD0ED021A0F
:1030500041EEC00A20EE810A82ED000A002070478E
:103060000000AA4200000743CDCCCC3D0000000088
:1030700077CC2B32DFED620A60EE200A10EE902A48
:1030800022F0004101EE101ADFED5E1AB4EE611A73
:10309000F1EE10FA25D54FF07C5102F000420A43C0
:1030A00001EE102A71EE200AFDEEE00A10EE901AF1
:1030B00000296AD0FAEEC90A9FED531A00EE810A80
:1030C000DFED521A00EEA10A9FED512A00EE820AAE
:1030D000DFED502A00EEA20A9FED4F1A00EE810AA2
:1030E00053E010EE101A4B001B1613F1010F0AD11A
:1030F0004900081610F1010F02D1090240F07F804B
:103100009FED460A7047490004D1002877D0B7EEFA
:10311000000A70474FF07C5102F000420A4301EE72
:10312000102A71EE200A10EE902A51000DD0090EDF
:10313000C1F196011829A8BF02F0004203DA002964
:10314000C4BFCA408A4000EE902A10EE901A49008F
:1031500017D09FED331A20EE811ADFED2B1A01EE06
:10316000210A9FED2A2A01EE020ADFED292A01EE4B
:10317000220A9FED283A01EE030ADFED271A01EE3D
:10318000210AFDEEE00A10EE901A01F00301081882
:1031900010EE101A21F0004100EE901A9FED211A56
:1031A000F4EE410AF1EE10FA04D5C10723D5B7EECB
:1031B000000A20E0C10760EE000A0ED59FED1A0A52
:1031C0009FED1A1A00EE801ADFED191A41EE201A4F
:1031D000B7EE000A01EEA00A0DE09FED162ADFED22
:1031E000161A40EE821ADFED152A20EE201A41EE63
:1031F000A02A01EE220A800748BFB1EE400A7047BC
:1032000083F9223F0000004F0000C9C600A0FDC0A6
:103210000020A2BA000034B30030C2AEFFFFFF7F2F
:1032200000008038000080399349B2BA36A02A3DA8
:10323000DFFFFFBE6E8C4CB94283083CA1AA2ABEB8
:10324000012017E7002015E7C9B2002905D002299F
:1032500009D005D3032909D00BE090ED090A0AE053
:1032600090ED0A0A07E090ED0B0A04E090ED0C0ADD
:1032700001E09FED500A7047C9B2002905D002292C
:1032800007D004D3032906D007E0826005E0C260BE
:1032900003E0026101E04261FFE7704700218160C5
:1032A0000021C1600021016100214161704780B5AA
:1032B0009F4B0A00D2B21A4492F91020002A00D182
:1032C0000122B3F9043002FB03F2C9B2FFF7D4FFC5
:1032D00001BD30EE600AB5EE400AF1EE10FA02D5FB
:1032E000B1EE400AFFE7704791480021817000214C
:1032F00081620021C16200214163704710B58C4C8E
:1033000000222178491EC9B2FFF7B6FF2078401C81
:10331000207060782178884205D205202070012035
:1033200084F8240001E0FFF7DFFF10BD7FB5040043
:10333000382100227E4D2E00300000F03FF90020A1
:103340002870002C05D0684621001022FDF7B6FE3B
:1033500004E0684677491022FDF7B0FE281D694653
:103360001022FDF7ABFEB5F90400002803D5B5F92E
:1033700004004042A880B5F9040042F2117188426D
:1033800002DB42F21070A880E888002801D10120F9
:10339000E88095ED030AB5EE400AF1EE10FA01D887
:1033A0006548E8600420687001202870FFF79CFFE2
:1033B0007FBD00000000000070B52DED028B0D00F8
:1033C0005B4C2178002902D02178052900DB81E0BF
:1033D000216B491C2163618900290CD0216B628912
:1033E000914208DB012084F8250005202070280088
:1033F000FFF754FF6EE021784E1E3100C9B2FFF78F
:1034000023FFB0EE408AA078002803D002283AD0EB
:103410000FD35FE084ED0D8AA06A401CA0622800F3
:10342000FFF73CFFA06A2189884201DB0120A070E0
:1034300050E0D4ED0D0AB0EE480AFFF74AFFD4ED94
:10344000030AB4EE600AF1EE10FA0BDB0220A07062
:103450000020E06284ED0D8A3100C9B22800FFF738
:1034600026FF37E0E06A401CE062E06A40F6B931CE
:103470008842EFDBF6B204EB860080ED058A280077
:10348000FFF73CFF26E0D4ED0D0AB0EE480AFFF747
:1034900020FFD4ED030AB4EE600AF1EE10FA03D572
:1034A000E06A401CE06201E00020E06284ED0D8AE9
:1034B000E06AE188884208DBF6B204EB860080ED22
:1034C000058A2800FFF71AFF04E03100C9B228007E
:1034D000FFF7EDFEBDEC028B70BD154890F824009F
:1034E0007047134890F825007047114990ED090A7C
:1034F000D1ED050A30EE600A80ED090A90ED0A0A66
:10350000D1ED060A30EE600A80ED0A0A90ED0B0A52
:10351000D1ED070A30EE600A80ED0B0A90ED0C0A3F
:10352000D1ED080A30EE600A80ED0C0A7047000009
:103530009420032898AA0810A69B443B00B500BF1E
:10354000130096469446103928BFA0E80C50FAD8CC
:103550005FEA417C28BF0CC048BF40F8042BC90774
:1035600028BF20F8022B48BF00F8012B00BD000047
:10357000B5EEC00AF1EE10FA02D4B1EEC00A7047FF
:103580006FF0004C00EE10CAAFF3008070470000EF
:1035900010EE100AF5EE400AF1EE10FA09D604BF5B
:1035A000C04207E0B4EE600AF1EE10FAB8BFB0EE28
:1035B000600A704728BFB0EE600A704762F30F22BE
:1035C00062F31F42401810F0030308D0C91A1FD33A
:1035D000DB0748BF00F8012D28BF20F8022D13009B
:1035E00030B414461546103928BF20E93C00FAD8FB
:1035F000490728BF20E90C0048BF40F8042D890086
:1036000028BF20F8022D48BF00F8012D30BC7047BC
:10361000C91818BF00F8012DCB0728BF00F8012DED
:1036200070470000022801D3012010E00B00DBB23C
:10363000042B01DB01200AE0DFF8643903EB800092
:10364000C9B2405C824201D3012000E000207047F3
:10365000F8B504000F0015001E00022C01D3012054
:103660002AE02A003900C9B22000FFF7DBFF012859
:1036700001D1012020E006983900C9B202291ED1EB
:10368000B6F5803F19D2202817D24FF4C052DFF888
:10369000141963030B4403EB850313441F6866F39B
:1036A00017271F606403214401EB850111440A6858
:1036B00060F3C7020A600020F2BD0120FCE7FFB200
:1036C000032F1FD1B6F1807F1AD2202818D24FF4D1
:1036D000E052DFF8D01863030B4403EB8503134477
:1036E0001F6807F0FF0757EA06271F60640321449D
:1036F00001EB850111440A6860F3C7020A60DAE74A
:103700000120D9E70120D7E700B20012C0B270470C
:10371000F8B505000E001700280000B2FFF7F4FF0F
:1037200004002000C0B2022801D3012024E03A00A6
:103730003100C9B22000C0B2FFF774FF012801D1E7
:10374000012019E0DFF85C182000C0B240030844F3
:103750002A00D2B200EB8200D0F8000CF6B266F379
:10376000092067F30700E4B264032144EDB201EBE2
:103770008501C1F8000C0020F2BD70B504000D00F9
:103780001600022C01D301201DE032002900C9B22D
:103790002000FFF747FF012801D1012013E0DFF8E7
:1037A00004186003085850F0004050F0407050F486
:1037B0007F00EDB265F3092066F3070062038850CD
:1037C00064030859002070BDD0F84003704710F51D
:1037D0004170026861F3070202607047D0F8080385
:1037E000C005C00D704710F541710A6852F480326F
:1037F0000A6010F541710A6832F480320A60D0F82C
:1038000004037047C0F840127047D0F80802C005A2
:10381000C00D7047D0F80802C0F3C030704738B50B
:1038200005002800FFF7F1FF04002800FFF7F2FF72
:103830000419002C01D1012000E00020C0B232BDEB
:10384000C0F8C81F7047D0F8C80F7047C0F8C01F35
:10385000D0F8C00F7047C0F8881F7047D0F8880FA5
:103860007047C0F8801FD0F8800F7047016851F092
:103870000041016070472DE9F84F04000125002048
:103880000020DFF8E4082100C9B250F82160D6F822
:103890000403000601D1042700E001273000FFF7F0
:1038A000D2FF3900C9B2084253D03800C0B2012853
:1038B00035D13000FFF792FF80465FF0000901E04C
:1038C00019F101094046C0B2814522DADFF89CA80F
:1038D0002000C0B21AF80000411C2200D2B20AF83F
:1038E0000210DFF88C182200D2B2120101EB020B99
:1038F000C0B200903000FFF767FF00990BF801009D
:103900002000C0B21AF800001028D9DB3000FFF701
:103910006AFF0120DFF85C18E4B2085513E03000BC
:10392000FFF752FFDFF848182200D2B21201885484
:103930000120DFF838182200D2B288540120DFF8C5
:103940003418E4B20855FFB239003000FFF77EFFAB
:103950000AE03000FFF782FF800505D54FF40071C3
:103960003000FFF77EFF00252800C0B2BDE8F28FCF
:1039700038B504001500C9B200290ED0102919D09D
:10398000202924D030292FD031293AD0402945D0C0
:10399000502950D060295BD067E0DFF8DC07A060D9
:1039A00001202073112060734FF48C70E08112208D
:1039B000208260E0DFF8C407A0600120207311209E
:1039C000607340F21D10E0816B20208253E0DFF82D
:1039D000B007A06001202073112060734FF48E7037
:1039E000E0816A20208246E0DFF89807A06002208C
:1039F00020731120607340F21B10E0816920208247
:103A000039E0DFF88407A060012020731120607383
:103A100040F21B10E081692020822CE0DFF86C0767
:103A2000A06001202073132060734FF48D70E0813B
:103A3000682020821FE0DFF85807A0600120207373
:103A40001120607340F21F10E0816D20208212E08F
:103A5000DFF84007A06001202073112060734FF44D
:103A60008F70E0816C20208205E0DE22DFF82817CD
:103A7000002000F028FDEDB2002D0ED0102D19D041
:103A8000202D24D0302D2FD0312D3AD0402D45D0AF
:103A9000502D50D0602D5BD067E0DFF8DC06206051
:103AA00000202071112060714FF48C70E081122091
:103AB000208261E0DFF8C406206000202071112020
:103AC000607140F21D10E0816B20208254E0DFF82D
:103AD000B006206000202071112060714FF48E70BC
:103AE000E0816A20208247E0DFF89806206001200C
:103AF00020711120607140F21B10E081692020824A
:103B00003AE0DFF884062060002020711120607107
:103B100040F21B10E081692020822DE0DFF86C0666
:103B2000206000202071132060714FF48D70E081BF
:103B30006820208220E0DFF85806206000202071F5
:103B40001120607140F21F10E0816D20208213E08F
:103B5000DFF84006206000202071112060714FF4D2
:103B60008F70E0816C20208206E04FF49172DFF8C4
:103B70002816002000F0A7FC31BD38B50400DFF89E
:103B8000E855C9B22000C0B255F82000FFF73AFE50
:103B90002000C0B255F82000FFF741FE0028F7D002
:103BA00031BD70B505000E00140006E03178280024
:103BB000C0B2FFF7E2FF641E761C002CF6D170BD88
:103BC00038B504000D0005E029782000C0B2FFF7E9
:103BD000D4FF6D1C28780028F6D131BD30B4002206
:103BE000DFF890350200D2B29A5C002A2CD0DFF8C0
:103BF00080250400E4B22401145D0C70DFF86C45EC
:103C00000100C9B2615C491E0500EDB261550100B9
:103C1000C9B2615C002912D000210300DBB2E35C71
:103C200099420FDA0300DBB21B0113440500EDB229
:103C30002D0115440D446D785D54491CEDE70021BC
:103C4000C0B21954012000E00020C0B230BC70475F
:103C500070B40022DFF81C350200D2B29A5C002A50
:103C60001CD0DFF808450200D2B2A25C0025060095
:103C7000F6B2A555002409E0DFF8F4540600F6B2C8
:103C8000360135442D5D0D70491C641C1500EDB2E4
:103C9000AC42F1DB0021C0B2195400E00022100058
:103CA000C0B270BC704770B505000C00DFF8B86496
:103CB0002800C0B256F82000FFF7D0FD40084000B1
:103CC00001002800C0B256F82000FFF7C4FD28000C
:103CD000C0B256F82000FFF7C1FD30F0020001002D
:103CE0002800C0B256F82000FFF7B5FD2800C0B28A
:103CF00056F82000FFF7B2FD30F020000100280048
:103D0000C0B256F82000FFF7A6FD2800C0B256F852
:103D10002000FFF7A3FD30F0400001002800C0B2F2
:103D200056F82000FFF797FD2800C0B256F8200093
:103D3000FFF794FD30F0100001002800C0B256F8E3
:103D40002000FFF788FD2800C0B256F82000FFF7DA
:103D500085FD30F4807001002800C0B256F82000C4
:103D6000FFF779FD2800C0B256F82000FFF776FD76
:103D700030F4806001002800C0B256F82000FFF740
:103D80006AFD002C0ED02800C0B256F82000FFF7C4
:103D90005AFD50F400700100EDB256F82500FFF70F
:103DA0005AFD0DE02800C0B256F82000FFF74BFD89
:103DB00030F400700100EDB256F82500FFF74BFD1E
:103DC00070BD70B505000C00DFF89C632800C0B220
:103DD00056F82000FFF737FD30F0080001002800FA
:103DE000C0B256F82000FFF72BFD2800C0B256F8ED
:103DF0002000FFF728FD30F0200001002800C0B2AD
:103E000056F82000FFF71CFD2800C0B256F820002D
:103E1000FFF719FD30F4807001002800C0B256F899
:103E20002000FFF70DFD2800C0B256F82000FFF774
:103E30000AFD30F4007001002800C0B256F82000DE
:103E4000FFF7FEFC2800C0B256F82000FFF7FBFC8D
:103E500030F4006001002800C0B256F82000FFF7DF
:103E6000EFFC2800C0B256F82000D0F8040300068A
:103E70001FD1002C5BD12800C0B256F82000FFF7FC
:103E8000E2FC4008400001002800C0B256F82000C3
:103E9000FFF7D6FC2800C0B256F82000FFF7D3FC8D
:103EA00030F004000100EDB256F82500FFF7C8FC21
:103EB00070BD002C1DD02800C0B256F82000FFF7BE
:103EC000C2FC30F0040001002800C0B256F8200007
:103ED000FFF7B6FC2800C0B256F82000FFF7B3FC8D
:103EE00050F001000100EDB256F82500FFF7A8FCE4
:103EF000DEE72800C0B256F82000FFF7A4FC30F03F
:103F0000040001002800C0B256F82000FFF798FC1A
:103F10002800C0B256F82000FFF795FC400840008A
:103F20000100EDB256F82500FFF78AFCC0E7280033
:103F3000C0B256F82000FFF786FC400840000100A0
:103F40002800C0B256F82000FFF77AFC2800C0B263
:103F500056F82000FFF777FC50F004000100EDB2A6
:103F600056F82500FFF76CFCA2E738B504000D00F9
:103F70002800C0B2102801DA012000E0002040F241
:103F80003122DFF81412C0B200F09DFAEDB2290020
:103F90007548E4B250F82400FFF719FC31BD000069
:103FA000F8AA0810000004402DE9F0412DED028B25
:103FB000A8B005000E00170028003900C9B2090991
:103FC000C0B2884201D1012000E000201C00DFF8CF
:103FD000C8814FF421724146C0B200F074FA280043
:103FE0002100C9B20909C0B2884201D1012000E014
:103FF000002040F285224146C0B200F064FA02A8D7
:104000001421FEF7C1FE342100220DF1680840465C
:10401000FFF7D4FA4C2100220DF11C084046FFF7AF
:10402000CDFA082080B206FB00F65C48B0FBF6F83B
:104030005A4806FB180000EE100AB8EE400B01EEDD
:10404000106AB8EE411B80EE010BBFEEED0B10EED7
:10405000100B08EE100A2200D2B23900C9B202A831
:10406000FFF786FC08201B909DF80D008DF870006E
:104070001AAA9DF80C10029800F043FB06201B9032
:104080009DF815008DF870001AAA9DF81410049878
:1040900000F037FB002007900820089008200990C6
:1040A00002200B9000200C90002012900020149011
:1040B0002D4C2800C0B254F8200000F0A3FC384971
:1040C0002A00D2B2382042430A4407A92800C0B2CD
:1040D00054F8200000F054FB2800C0B254F820002F
:1040E000FFF7C4FB2A00D2B20321BDF91600FFF787
:1040F0000FFBBDF91600FFF707FB8DED008AB8F145
:10410000010843462A00D2B20321C0B2FFF7A0FA49
:10411000BDF91600FFF7F8FA2A00D2B20321C0B2A7
:10412000FFF72BFBBDF91800ADF800000320ADF838
:10413000020001208DF8040007221A482900C9B2A4
:1041400050F82110684600F0FBFC00212800C0B2A6
:10415000FFF737FE00212800C0B2FFF7A4FD28B00A
:10416000BDEC028BBDE8F08138C00228AC230328E7
:10417000F41D0328B423032800003140000231401D
:104180000005314080083140800631400007314051
:10419000000131408001314004A7081000B4C4047C
:1041A0007C1A03281CC0022882B000200190002045
:1041B00000900020019009E00098401C00900098B9
:1041C000B0F5005FF8D30198401C01900198B0F55C
:1041D000805F02D200200090F1E702B0704780B506
:1041E00001000020FFF7ECFC01BD2DE9F043ADF527
:1041F000137D0700884616001C000020ADF8020061
:104200000020ADF80000002002900020ADF804006E
:104210000020ADF806004046FCF7F8FE0290DFF8FB
:1042200090532888002801D028698047DFF884034C
:104230000078002800F033812888002800F01181E0
:10424000BDF90600411CADF806103A00010089B224
:104250000020EB68984747464046FCF7D7FE02909F
:104260006888A97990FBF1F0ADF804003800471C8C
:1042700000780028FAD10020ADF800000EE07F1E83
:1042800038782F2802D038785C2804D1BDF8000097
:10429000401CADF800000298401E0290BDF80000DE
:1042A000022802DA02980028E9D50298002806D4EC
:1042B0007A1CDFF8041353A800F05EFC0EE0BDF892
:1042C0000000002805D13A00BC4953A800F054FC76
:1042D00004E03A00B84953A800F04EFC0020ADF8C5
:1042E000020042E0BDF80010BDF80020BDF8023029
:1042F00053AF9BB2BDF90400434313FA82F0385C1C
:1043000043AA89B25054BDF80000401CADF800002B
:10431000BDF8000080B2BDF9041088420EDA53A83F
:10432000FCF774FEBDF80020BDF802309BB2BDF969
:1043300004104B4313FA82F18842D3D2002043A9E0
:10434000BDF800208854BDF90600411CADF80610E8
:1043500043AAE97911FB00F189B20020EB68984784
:10436000BDF80200401CADF80200BDF8027053A871
:10437000FCF74CFEBDF90410B0FBF1F0401CBFB2DD
:10438000874203D20020ADF80000C1E732008C491B
:1043900053A800F0F1FBBDF90600411CADF8061072
:1043A00053AAE97911FB00F189B20020EB68984724
:1043B000002C74D00020ADF8020041E0BDF80010E0
:1043C000BDF80020BDF802309BB2BDF904004343A4
:1043D00013FA82F0205C43AA89B25054BDF8000061
:1043E000401CADF80000BDF8000080B2BDF904101B
:1043F00088420EDA2000FCF709FEBDF80020BDF867
:1044000002309BB2BDF904104B4313FA82F188428B
:10441000D4D2002043A9BDF800208854BDF906007D
:10442000411CADF8061043AAE97911FB00F189B2ED
:104430000020EB689847BDF80200401CADF8020070
:10444000BDF802602000FCF7E1FDBDF90410B0FBEF
:10445000F1F0401CB6B2864221D20020ADF8000037
:10446000C1E74FF4807100220DF10C094846FFF7B7
:10447000A5F83800A9688847002C07D000943300BD
:104480004246504903A800F077FB05E0330042465E
:104490004D4903A800F070FB03A8A96888470DF5F3
:1044A000137DBDE8F08310B542480078002809D09C
:1044B000474C21000020FFF791FB012221004348D7
:1044C00000F0DFFB10BD38B50C001500C0B20028AD
:1044D00003D140480078002800D131BD3E4908781A
:1044E000002800D0FEE70878401C087000F01CFB94
:1044F00000232A0021003948FFF777FEFFF754FE1A
:10450000F6E710B514001A00C0B2002808D12948F7
:104510000078002804D00B0021003148FFF765FE29
:1045200010BD002101804FF6FF7141808180FF2185
:104530008171C171002181600021C1600021016190
:1045400070471B4902880A8042884A8082888A8094
:1045500082798A71C279CA7182688A60C268CA60C7
:1045600000690861012013490870704700B585B0E3
:104570006846FFF7D6FF1B4802906846FFF7E1FF49
:1045800005B000BD80B5FFF7F1FF002300225FF406
:10459000E1310020FFF708FD4023134A00210B48BA
:1045A00000F00FFD01210020FFF70BFC01BD000012
:1045B00010230328A7240328C8AA0810A8AA0810B3
:1045C000D4AA0810B4A908106CAA0810CC22032899
:1045D000A824032858C00228A9240328B8AA081030
:1045E000E0AA0810DF4108105420032830B4614BC2
:1045F0001818C009604C14EB001404290DD223686C
:104600001F25C8008540AB43D2B212F01F02C9007B
:1046100012FA01F1194321600CE0091F63681F259C
:10462000C8008540AB43D2B212F01F02C9008A40D5
:104630001A43626030BC7047002A04D1012212FA8A
:1046400001F1416003E0012212FA01F1816070473B
:1046500010B48900436C0F248C40A34312F00F0266
:1046600012FA01F11943416410BC704710B4836C15
:1046700001248C40A34312F0010212FA01F1194304
:10468000816410BC704710B4C36C01248C40A343F8
:1046900012F0010212FA01F11943C16410BC704713
:1046A00010B449001031C36C03248C40A34312F0B2
:1046B000030212FA01F11943C16410BC7047426948
:1046C000012212FA01F141614069704710B4836917
:1046D00001248C40A34312F0010212FA01F11943A4
:1046E000816110BC704710B44900036C03248C40F6
:1046F000A34312F0030212FA01F11943016410BC42
:104700007047F8B505000E0014000027002D2ED0CC
:10471000002C2CD0226831002800FFF78DFF227A70
:1047200031002800FFF762FF626931002800FFF7BF
:104730009DFFA26931002800FFF7A5FFE269310063
:104740002800FFF7ADFF626831002800FFF780FF07
:10475000E26831002800FFF7C6FF31002800FFF7AC
:10476000AEFF226931002800FFF7B0FF00E0034FE1
:104770003800F2BD0000CFBF0000304001005A00F9
:104780002DE9F44FDFF8D822DFF8D8321B68DFF8C4
:10479000D8422468DFF8D4522D68DFF8D462366836
:1047A000DFF8D0723F68DFF8D0C2DCF800C0DFF875
:1047B000CCE2DEF800E0DFF8C882D8F80080DFF84D
:1047C000C492D9F80090DFF8C0A2DAF800A000285F
:1047D00000F01581002900F012810A68022A06D132
:1047E00091F82620002A02D15FF0000B03E0D1F8F7
:1047F00004B0BBF1010B91F82420002A01D0012262
:1048000000E0002262F3104333F440436BF30303F0
:10481000022262F3196303600A7812F0030262F362
:104820001964046491F82520002A01D0012200E0D7
:10483000002262F38615CA7E002A01D0012200E020
:10484000002262F38A254A7E002A01D0012200E07C
:10485000002262F308258A7E002A01D0012200E0AE
:10486000002262F349258A6B521E12F00F0262F396
:1048700013450A69521E12F00702ED08ED001543B8
:104880004A6962F304154A69520862F34515856462
:104890000A7B002A01D0012200E0002262F30826F0
:1048A0000A7E002A01D0012200E0002262F349269C
:1048B0008A68521E12F01F02760976011643C0F86C
:1048C00000630A7F02F0FF023F0A3F02174391F89C
:1048D000202002F0FF0262F31747C0F8107391F82E
:1048E0002720002A01D0012200E0002262F3082CD8
:1048F0000A69521E12F007025FEADC0C5FEACC0C78
:1049000052EA0C0C4A6962F3041C4A69520862F3C9
:10491000451CC0F844C00A7B002A01D0012200E0F7
:10492000002262F3082E8A68521E12F01F025FEA0C
:104930005E1E5FEA4E1E52EA0E0E0A68012A01D17F
:10494000012200E0002262F3104EC0F800E291F86C
:104950003C2002F0FF025FEA18285FEA082852EACA
:104960000808C0F8048391F82820002A01D0012209
:1049700000E0002262F35969CA6A012A01D10122CA
:1049800000E0002262F318694A6B012A01D1012379
:1049900000E00023009A63F3104991F8303003F0EF
:1049A000FF035FEA19295FEA092953EA0909C0F8F8
:1049B000509091F8443003F0FF035FEA1A2A5FEA4F
:1049C0000A2A53EA0A0AC0F804A28B6CC0F8883F8E
:1049D000096CC0F8C81F002A10D0002050600020C9
:1049E0001060002090600020D06000201062002045
:1049F000D06200201063DFF89400506300221000A2
:104A0000BDE8F28FDFF8881001605FF440110164A7
:104A10000021816440F20711C0F800130022C0F8A1
:104A200004230022C0F8102300224264C0F80012C0
:104A30000021C0F80412002101650021C0F8C81E41
:104A40000021C0F8881E0021C0F8C81F0021C0F84E
:104A5000881F0021C0F8081F0021C0F8481F7047B8
:104A60000160AA0078AB08107CAB081080AB08107E
:104A700084AB081088AB08108CAB081090AB081002
:104A800094AB081098AB08109CAB0810EFCDAB00AE
:104A90000F000003010009B2002908D4012210F020
:104AA0001F018A401B4900B2400941F8202070478D
:104AB000010009B2002908D4012210F01F018A4028
:104AC000154900B2400941F820207047020012B297
:104AD000002A04D44901114A00B2115407E04901E7
:104AE0000F4A00B210F00F00104400F8041C704789
:104AF000002800D162B60B480168491C016070476C
:104B000072B608490868002802D00868401E08608C
:104B10000868704700E100E080E200E000E400E0A7
:104B200018ED00E06424032880B5FFF7E9FF00F0EA
:104B300067FA01BD80B5C9B200B2FFF7C7FF01BD7A
:104B400070B504000D001600200000F069FA29007D
:104B5000B4F9000000F0A3FA3100C9B2B4F90200C0
:104B6000FFF7E8FFB4F90200FFF7A2FFB4F9020073
:104B7000FFF790FF70BD00000CB430B583B00A465B
:104B800006A90291044600250194009502AB01A9F3
:104B9000084878441E30FBF776FA019A1570002811
:104BA0004EBF04460198041B204603B030BC5DF89C
:104BB0000CFB00BF0FC4FFFF82688918816003E00F
:104BC00082684169521A8260816842699142F7D2D3
:104BD0007047C2688918C16003E0C2684169521A0F
:104BE000C260C16842699142F7D2704770B5040053
:104BF000002C01D0012000E000205422DFF8FC133B
:104C0000C0B2FFF760FC0025207850F00100207052
:104C10000020A0600020E0606069206160780028CA
:104C200003D0022810D007D315E06169002266681E
:104C30003000FEF7C3FC0EE061694900002266689F
:104C40003000FEF7BBFC06E061698900002266685F
:104C50003000FEF7B3FC002020702800C0B270BD09
:104C600010B50400002C01D0012000E000207022CB
:104C7000DFF88813C0B2FFF726FC60692169401A8B
:104C800010BD2DE9F84305001600002D01D00120CC
:104C900000E000200C00AA22DFF86013C0B2FFF78A
:104CA00012FC00270020002C01D10327B5E0287852
:104CB00010F0050F01D00427AFE0287850F0040071
:104CC00028702869B042C0F0A380D5F81480A86885
:104CD000B8EB0008B04567D26878002803D00228F6
:104CE00041D01FD390E0424621006868AB6800EBDA
:104CF00003094846FCF7D2F941462800FFF75CFF5C
:104D0000B6EB080204EB08016868AB6800EB03042B
:104D10002000FCF7C3F9B6EB080841462800FFF76E
:104D20004BFF71E05FEA480221006868AB6800EB66
:104D300043094846FCF7B2F941462800FFF73CFF1B
:104D4000B6EB0802520004EB48016868AB6800EB60
:104D500043042000FCF7A2F9B6EB080841462800FE
:104D6000FFF72AFF50E05FEA880221006868AB681D
:104D700000EB83094846FCF791F941462800FFF70C
:104D80001BFFB6EB0802920004EB88016868AB6871
:104D900000EB83042000FCF781F9B6EB08084146DC
:104DA0002800FFF709FF2FE06878002803D00228C9
:104DB0001DD00ED328E0320021006868AB6800EBFC
:104DC00003042000FCF76AF931002800FFF7F4FE25
:104DD0001AE0720021006868AB6800EB4304200011
:104DE000FCF75CF931002800FFF7E6FE0CE0B200AA
:104DF00021006868AB6800EB83042000FCF74EF9E3
:104E000031002800FFF7D8FE2869861B2E6100E0DC
:104E10000527287810F0FB0028703800C0B2BDE8E4
:104E2000F2832DE9F04705000E001F00002D01D090
:104E3000012000E000201400DFF8C08140F25B1286
:104E40004146C0B2FFF73FFB002C01D0012000E03B
:104E500000204FF4AE724146C0B2FFF734FB5FF062
:104E6000000800200020002E02D15FF003088BE034
:104E7000297811F0030F03D020605FF006089CE052
:104E80002800FFF7EDFE2168884209D220605FF01C
:104E90000708002804D1287810F0F70028708CE06B
:104EA000287850F008002870D5F81490E868B9EB1D
:104EB00000092068814522D36878002803D00228A1
:104EC00013D008D35CE022686868E96801443000C8
:104ED000FCF7E4F854E0226852006868E96800EBE7
:104EE00041013000FCF7DAF84AE022689200686875
:104EF000E96800EB81013000FCF7D0F840E0687809
:104F0000002803D0022827D011D339E04A46686828
:104F1000E9680144B2465046FCF7C0F82268B2EB9B
:104F2000090269684E443000FCF7B8F828E05FEAEF
:104F300049026868E96800EB4101B2465046FCF757
:104F4000ADF82268B2EB09025200696806EB490627
:104F50003000FCF7A3F813E05FEA89026868E968AB
:104F600000EB8101B2465046FCF798F82268B2EB9C
:104F700009029200696806EB89063000FCF78EF89A
:104F8000287810F0F7002870FFB2002F15D128788C
:104F90000B2802D15FF002080FE0287850F00200E1
:104FA000287021682800FFF714FE2969206841183D
:104FB0002961287810F0FD0028704046C0B2BDE895
:104FC000F087F8B504000E0017001D00002C01D07A
:104FD000012000E000204FF407720849C0B2FFF73B
:104FE00072FA002067600021217066700021A160C4
:104FF0000021E16025616561C0B2F2BD24A6081000
:10500000002007E00549C2018A5822F00042C3018E
:10501000CA50401C3F28F5DB704700000000584094
:1050200030B40021234A1368234A1468002832D080
:10503000224A1568C5F303250E2D0FD01268C2F35E
:1050400003220D2A28D1827812F00F0224092401AC
:1050500014430279002A15D0012214E0827812F05C
:105060000F021B091B0113430279002A01D0012200
:1050700000E0002262F3DF73114AB0F9000042F849
:10508000203009E0002262F3DF740E4AB0F900001C
:1050900042F8204000E00649080030BC70470A4B47
:1050A0001A68002A03D01A6800B242F8201070472C
:1050B00001005600A0AB0810A4AB0810000020406F
:1050C00000A0204000C0204030BF0228D0F80803D4
:1050D000C005C00D704710F541710A6852F4803266
:1050E0000A6010F541710A6832F480320A60D0F823
:1050F00004037047C0F840127047D0F80802C0059A
:10510000C00D7047D0F80802C0F3C030704738B502
:1051100005002800FFF7F1FF04002800FFF7F2FF69
:105120000419002C01D1012000E00020C0B232BDE2
:105130000068C0F38130002801D1802000E04020C9
:105140007047016851F000410160704720300268EB
:1051500061F39B620260704780B5FFF7B7FF02BD45
:1051600080B5FFF7B8FF01BD022801D3012010E090
:105170000B00DBB2042B01DB01200AE0DFF8203555
:1051800003EB8000C9B2405C824201D3012000E001
:1051900000207047F8B504000F0015001E00022C17
:1051A00001D301202AE02A003900C9B22000FFF70C
:1051B000DBFF012801D1012020E006983900C9B2A7
:1051C00002291ED1B6F5803F19D2202817D24FF4FC
:1051D000C052DFF8D01463030B4403EB8503134480
:1051E0001F6866F317271F606403214401EB8501E4
:1051F00011440A6860F3C7020A600020F2BD012072
:10520000FCE7FFB2032F1FD1B6F1807F1AD220280E
:1052100018D24FF4E052DFF88C1463030B4403EB15
:10522000850313441F6807F0FF0757EA06271F602E
:105230006403214401EB850111440A6860F3C7024D
:105240000A60DAE70120D9E70120D7E700B20012AF
:10525000C0B27047F8B505000E001700280000B274
:10526000FFF7F4FF04002000C0B2022801D30120A0
:1052700024E03A003100C9B22000C0B2FFF774FF49
:10528000012801D1012019E0DFF818142000C0B274
:10529000400308442A00D2B200EB8200D0F8000C90
:1052A000F6B266F3092067F30700E4B26403214411
:1052B000EDB201EB8501C1F8000C0020F2BD70B524
:1052C00004000D001600022C01D301201DE0320065
:1052D0002900C9B22000FFF747FF012801D10120B2
:1052E00013E0DFF8C0136003085850F0004050F09E
:1052F000407050F47F00EDB265F3092066F30700BB
:105300006203885064030859002070BD0100C0206A
:10531000C9B2002905D0022907D004D3032906D039
:1053200006E0122004E0622002E07A2000E01A2069
:10533000C0B270470100C020C9B2002905D00229BF
:1053400007D004D3032906D006E0112004E0612031
:1053500002E0792000E01920C0B270470100C020AF
:10536000C9B2002905D0022907D004D3032906D0E9
:1053700006E0102004E0602002E0782000E0182021
:10538000C0B270470100C020C9B200290BD0022969
:105390000DD00AD304290ED00BD306290FD00CD37D
:1053A00007290ED00EE013200CE014200AE0632041
:1053B00008E0642006E07B2004E0292002E01B20B6
:1053C00000E01C20C0B2704701000020C9B20029D3
:1053D00005D0022907D004D3032906D006E0132004
:1053E00004E0132002E0132000E01320C0B2704755
:1053F00001000020C9B2002905D0022907D004D33A
:10540000032906D006E0132004E0132002E0132055
:1054100000E01320C0B2704701000020C9B200298B
:1054200005D0022907D004D3032906D006E01320B3
:1054300004E0132002E0132000E01320C0B2704704
:1054400001000020C9B200290BD002290DD00AD3D7
:1054500004290ED00BD306290FD00CD307290ED068
:105460000EE013200CE013200AE0132008E01320C4
:1054700006E0132004E0132002E0132000E01320D4
:10548000C0B27047C9B2082902D0102946D096E0B0
:10549000DFF800140200D2B251F82220126832F470
:1054A00040420300DBB251F823301A600200D2B24E
:1054B00051F82220D2F80022520952010300DBB237
:1054C00051F82330C3F800220200D2B251F8222052
:1054D000D2F8002252F007020300DBB251F8233069
:1054E000C3F800220200D2B251F82220D2F80023E1
:1054F000520952010300DBB251F82330C3F80023F4
:105500000200D2B251F82220D2F8002352F0070252
:10551000C0B251F82000C0F8002350E0DFF8741347
:105520000200D2B251F82220126832F44042030045
:10553000DBB251F823301A600200D2B251F82220B7
:10554000126852F480420300DBB251F823301A6033
:105550000200D2B251F82220D2F8002252095201A0
:105560000300DBB251F82330C3F800220200D2B2AC
:1055700051F82220D2F8002252F00F020300DBB2D1
:1055800051F82330C3F800220200D2B251F8222091
:10559000D2F80023520952010300DBB251F8233044
:1055A000C3F800230200D2B251F82220D2F800231F
:1055B00052F00F02C0B251F82000C0F8002370472B
:1055C0002DE9F04104000F00160008212000C0B2B0
:1055D000FFF758FFDFF8C0522000C0B2285C08284F
:1055E0000FD02000C0B2285CC010DFF8B01211EB61
:1055F000C01101202200D2B2AA5C12F00702904032
:105600000860DFF89082FFB239002000C0B258F87D
:105610002000FFF76FFD2000C0B258F82000FFF710
:1056200087FD07002000C0B258F82000FFF765FD95
:105630008742F0D0F6B231002000C0B258F8200006
:10564000FFF758FD2000C0B258F82000FFF770FDAA
:1056500006002000C0B258F82000FFF74EFD864239
:10566000F0D02000C0B258F82000FFF750FD00280D
:10567000F7D02000C0B2285C08280ED02000C0B2AD
:10568000285CC010DFF8181211EBC0110120E4B241
:105690002A5D12F0070290400860BDE8F08100002A
:1056A000F8AA081000000440F8B504000D0000201E
:1056B00008212000C0B2FFF7E5FE774E2000C0B2FF
:1056C000305C08280ED02000C0B2305CC010734996
:1056D00011EBC01101202200D2B2B25C12F007021D
:1056E000904008606B4F2000C0B257F82000FFF7D1
:1056F00033FD002805D02000C0B257F82000FFF786
:105700002FFDEDB229002000C0B257F82000FFF7AE
:10571000F1FC2000C0B257F82000FFF71DFD002863
:10572000F7D02000C0B257F82000FFF719FD002184
:105730002000C0B257F82000FFF7DCFC2000C0B208
:1057400057F82000FFF7E3FC0028F7D02000C0B294
:1057500057F82000FFF700FD0028F7D02000C0B266
:1057600057F82000D0F840032100C9B2715C082925
:105770000DD02100C9B2715CC910494A12EBC112A7
:105780000121E4B2335D13F0070399401160C0B208
:10579000F2BD2DE9F84380460D0016001C000821DB
:1057A0004046C0B2FFF76EFE3B4F4046C0B2385C89
:1057B00008280ED04046C0B2385CC010374911EB03
:1057C000C01101204246D2B2BA5C12F007029040EA
:1057D0000860DFF8C0904046C0B259F82000FFF7DB
:1057E000BBFC002805D04046C0B259F82000FFF7A6
:1057F000B7FCEDB229004046C0B259F82000FFF7CF
:1058000079FC4046C0B259F82000FFF7A5FC0028FB
:10581000F7D04046C0B259F82000FFF7A1FC0021A4
:105820004046C0B259F82000FFF764FC4046C0B2C1
:1058300059F82000FFF76BFC0028F7D04046C0B2B3
:1058400059F82000FFF788FC0028F7D04046C0B286
:1058500059F82000D0F840033070761C641E002CEC
:10586000DDD14046C0B2385C08280FD04046C0B2F7
:10587000385CC0100A4911EBC01101205FFA88F8AA
:1058800017F8082012F0070290400860BDE8F18385
:10589000000000000CC002287424032804003140DA
:1058A000080031402DE9F84F2DED028B9EB0060027
:1058B0000F009946042080B202FB00F2A848B0FB1A
:1058C000F2F8A74802FB180000EE100AB8EE400BF1
:1058D00001EE102AB8EE411B80EE010BBFEEED0B7E
:1058E00010EE100B08EE100A3421002201AC20004B
:1058F000FDF764FE3C2100220EAC2000FDF75EFEA9
:1059000030004946C0B2C9B2884201D1012000E04E
:1059100000202A9DDFF84CA24FF470725146C0B2AD
:10592000FEF7D1FD48462900C0B2C9B2884201D174
:10593000012000E000202B9C40F2C1325146C0B251
:10594000FEF7C1FD062002902800C0B2FFF750FD0F
:105950008DF80C002800C0B2FFF7ECFC82465FF027
:10596000080B2800C0B2FFF7E5FC7F4D01AA9AFBA7
:10597000FBF10BFB11AA5146C0B2C010C001284474
:10598000FEF7BFFE062002904846C0B2FFF71CFD9E
:105990008DF80C004846C0B2FFF7B8FC82465FF0B5
:1059A000080B4846C0B2FFF7B1FC01AA9AFBFBF115
:1059B0000BFB11AA5146C0B2C010C0012844FEF72B
:1059C000A0FE2000C0B204281ED0082002902000B3
:1059D000C0B2FFF721FD8DF80C002000C0B2FFF728
:1059E000BDFC81465FF0080A2000C0B2FFF7B6FC9C
:1059F00001AA99FBFAF10AFB11994946C0B2C010FD
:105A0000C0012844FEF77DFE2C9C2000C0B208286F
:105A10001ED0062002902000C0B2FFF711FD8DF8C5
:105A20000C002000C0B2FFF7ADFC81465FF0080A11
:105A30002000C0B2FFF7A6FC01AA99FBFAF10AFB0D
:105A400011994946C0B2C010C0012844FEF759FE62
:105A50003000C0B2032803D23000C0B2401C00E0C6
:105A600000203200D2B2D21D032110F58F7000B297
:105A7000FFF7F0FB3000C0B2032803D23000C0B201
:105A8000401C00E0002010F58F7000B2FFF7DEFB35
:105A90008DED008AB8F1010843463200D2B2D21D22
:105AA0000321C0B2FFF776FB3000C0B2032803D257
:105AB0003000C0B2401C00E0002010F58F7000B232
:105AC000FFF7C4FB3200D2B2D21D0321C0B2FFF7F0
:105AD000F6FBFFB2002F05D0022F09D005D3032F0C
