:020000041008E2
:1000000000000828A5F20810F9FE0810ADFB081042
:10001000FDFE081001FF081005FF08100000000099
:1000200000000000000000000000000099FC081023
:1000300009FF0810000000000DFF081011FF081054
:100040002BF1081051F1081077F108109DF10810FC
:10005000C3F10810E9F108100FF2081035F208108A
:1000600015FF081019FF08101DFF081021FF0810C8
:1000700025FF081029FF08102DFF081031FF081078
:10008000DFF8B00A90ED000A7047DFF8AC0A90ED97
:10009000000A7047DFF8A80A90ED000A7047DFF801
:1000A0009C0A90ED000A7047000000009FED840A52
:1000B000DFF8900AD0ED070A90ED081A70EE810A79
:1000C000B6EE001A60EE810A20EE800A704700004A
:1000D0002DE9F8432DED028BDFF86C4A9FED798A0C
:1000E000DFED7B2A9FED782AF0EE481A9FED781A13
:1000F000DFED770AB3EE090A200001F085F8DFF89A
:100100004C5ADFED728ADFED732AB0EE682AF0EE0A
:10011000481AB0EE081ADFED6E0A9FED6F0A28004C
:1001200001F072F8DFF8286ADFED6C2A9FED6C2A87
:10013000F0EE481A9FED6B1ADFED6A0A9FED690A2F
:10014000300001F061F8F7EE002AB3EE042AF0EE79
:10015000481A9FED5F1AF6EE000AB1EE040ADFF8C6
:10016000F40901F051F8DFF8F079DFED5F2AB0EE25
:10017000682AF0EE481A9FED561AF2EE040A9FED37
:100180005B0A380001F040F8DFED592A9FED592A4B
:10019000F0EE481A9FED581ADFED580A9FED580A05
:1001A000DFF8B80901F030F8DFF8B489F6EE002A7C
:1001B000B7EE002AF0EE481A9FED451ADFED440A2B
:1001C0009FED430A404601F01FF8DFF898999FED34
:1001D0008D8A9FED3F2AF0EE681AB1EE001ADFED2E
:1001E0003C0AB0EE480A484601F0A4F89FED382AD0
:1001F000F0EE681AB1EE001ADFED350AB0EE480AEB
:10020000DFF8640901F096F8DFF860099FED7E0AD7
:1002100080ED000ADFED7D0AC0ED010ADFF850092C
:1002200080ED000AC0ED010A2100002001F05FF915
:100230002900012001F05BF915F10801022001F00D
:1002400056F93100032001F052F94946042001F02B
:100250004EF94146052001F04AF93900062001F027
:1002600046F917F10801072001F041F9DFF80419F8
:10027000082001F03CF901F0BFFC01F096FD01F00F
:10028000D1FE01F042FFBDEC028BBDE8F18380B5E9
:10029000DFF8B40800F0C8FFDFF8B00800F0C4FFD2
:1002A000DFF8AC0800F0C0FF01BD80B5DFF8AC0896
:1002B00000F0BAFFDFF8A80800F0B6FF01BD0000AB
:1002C000B91E053D6F12833A0000874300401C466B
:1002D0000000000000803B45008089C49EEFA73DE0
:1002E0008FC2F53E000000800000FA440060064521
:1002F00000004842000096420AD77340EC51783F14
:1003000000000A4438B52DED048B88B00C001500B0
:10031000C0B2002808D1F7EE009AB0EE698AFFEE6D
:10032000008AB0EE699A07E0F7EE009AB0EE698AAB
:10033000FFEE008AB0EE699A9FED690AF0EE400A7E
:1003400049EE080ACDED020A09EEA80A8DED030A6E
:1003500004A902A801F0FCFF002817D1D4ED010A7E
:1003600094ED000A6A4601A904A802F09FF800284B
:100370000CD19DED010A09EE008A85ED008A9DED04
:10038000000A49EE808AC5ED018A03E085ED008A06
:10039000C5ED018A9FED530AD5ED000AF4EE400A3F
:1003A000F1EE10FA02D5F0EE400A0DE0D5ED000AAC
:1003B0009FED4D1AF4EE410AF1EE10FA02DBDFED8B
:1003C0004B0A01E0D5ED000AC5ED000AD5ED010AA2
:1003D000F4EE400AF1EE10FA0DD495ED010ADFEDCE
:1003E000420AB4EE600AF1EE10FA02DB9FED3F0A1A
:1003F00001E095ED010A85ED010A08B0BDEC048B22
:1004000031BD000000009644CDCCCC3ECDCCCCBE5E
:1004100070B52DED028B05000C009FED350AD5ED72
:10042000040A20EE808AD5ED060A60EE808ADFF8A5
:100430004C67307800280FD00020206000206060DA
:100440000020A0600020E0600020206100206061AA
:100450000020BDEC028B70BD01F075FE002814D1A8
:10046000B0EEC80ADFED230AB4EE600AF1EE10FA2E
:1004700008DAB0EEE80ADFED200AB4EE600AF1EE29
:1004800010FA02DB01203070D6E79FED170AD5ED98
:10049000090AF0EEE00AF4EE400AF1EE10FA1ADA78
:1004A000D5ED0A0AF0EEE00AF4EE400AF1EE10FA99
:1004B00011DAD5ED0B0AF0EEE00AF4EE400AF1EEA7
:1004C00010FA08DAD5ED0C0AF0EEE00AF4EE400A74
:1004D000F1EE10FA02DB01203070ADE70120B8E741
:1004E000DB0FC93FB81E2DC0B91E2D40B81E2D40D0
:1004F000E02E654201005C420100344270B52DEDF2
:10050000028B98B007A8DFF83C16442202F01EF8D0
:1005100002A8DFF86416142202F018F8DFF860462B
:10052000210007A8FFF774FF002800F0F88201F00F
:1005300097FB05002800C0B200280AD102A801F0EC
:10054000BCFD01F000FE002803D001F0FFFD8DEDA1
:10055000040A2800C0B2002840F074819FEDC38ACD
:1005600001F075FB00286ED101F09AFB00286AD1DA
:1005700001F0A0FD002866D19DED0E0ADDED0F0A09
:1005800030EE200ADFEDBA0A80EE200AF0EEC00A53
:100590009DED0B1ADFEDB71AB4EE611AF1EE10FA09
:1005A00001D5012000E000209FEDB31AF4EE410ACE
:1005B000F1EE10FA01DB012100E000210843C0B296
:1005C000002840D1049830F0004001EE100ADFED21
:1005D000AB1AB4EE611AF1EE10FA08D59FEDA81A25
:1005E000F4EE410AF1EE10FA01DB012000E00020F8
:1005F000DDED040A60EE800A9FEDA21AF4EE410AD6
:10060000F1EE10FA01D5012100E000210843C0B24B
:10061000002818D0DFF85C05D0ED000A20EEC00AF3
:10062000BDEE008AB4EE480AF1EE10FA0BD4DFED0D
:10063000960AB4EE600AF1EE10FA02DBB5EE008A1B
:1006400001E0B0EE408AB0EE480ADFF80025DFF89E
:10065000F81407A801F0C2FFB5EE400AF1EE10FA57
:1006600006DDF6EE000A70EE200AFDEEE00A05E077
:10067000FEEE000A70EE200AFDEEE00AC4ED000A6C
:10068000F1EE400AF5EE400AF1EE10FA06DDF6EE64
:10069000000A30EEC00ABDEEC00A05E0FEEE000A18
:1006A00030EEC00ABDEEC00A84ED010A02A907A817
:1006B00001F014FC01F047FD002813D001F05EFDAD
:1006C00001F08DFD07A801F09DFD01F045FDDDED78
:1006D000020A30EE800A8DED020A0120DFF8901A3E
:1006E00008700AE0DFF8886A3078002805D001F049
:1006F0005FFD01F07DFD0020307001F0B8FB0600C9
:100700003000C0B200280CD0DFF8680A007800285A
:1007100007D1DFF8400400F087FDDFF83C0400F06B
:1007200083FDDFF8500A06709DED0C0ADDED020A2C
:1007300030EEC00A03E0DFED8C0A30EE200ADFED78
:100740008B0AB4EE600AF1EE10FAF4DADFED880AF3
:10075000B4EE600AF1EE10FA04D5DFED860A30EE51
:10076000200AF3E7DDED020A30EEC08ADFF8086AFE
:100770009DED020AD6ED000A30EE600AB0EEC00A26
:10078000DFED7D0AB4EE600AF1EE10FA07DBDFF868
:10079000C40300F049FDDFF8C00300F045FD0298F6
:1007A0003060F0EE480A9DED020ADFF8A80300F081
:1007B00043FDDDED080AF1EE600ADFF89C0300F06E
:1007C0003BFDB5EE400AF1EE10FA08DDF6EE000A48
:1007D00030EE200ABDEEC00A10EE100A07E0FEEE71
:1007E000000A30EE200ABDEEC00A10EE100A2168A1
:1007F000091A21606168081A606001F02BFB00286B
:1008000072D19DED080ADFEDC80A20EE200AF3EE52
:10081000040A80EE200AFFEE000AB4EE600AF1EE50
:1008200010FA02D5B0EE600A09E0DFEDC00AB4EEBE
:10083000600AF1EE10FA02DBB7EE000AFFE78DED79
:10084000050A51E09FED090AC04ABF4907A801F017
:10085000C5FEB5EE400AF1EE10FA17DDF6EE000A1D
:1008600070EE200AFDEEE00A16E000BF0000000076
:100870000000F0420AD723BD9B99993E0AD7A33CBA
:1008800090C2753C52499DB90100803EFEEE000ABF
:1008900070EE200AFDEEE00AC4ED000AF1EE400A17
:1008A000F5EE400AF1EE10FA06DDF6EE000A30EE43
:1008B000C00ABDEEC00A05E0FEEE000A30EEC00A36
:1008C000BDEEC00A84ED010A94ED000AB8EEC00A3C
:1008D000BDEEC00A84ED000A94ED010AB8EEC00A2C
:1008E000BDEEC00A84ED010AEDB2002D46D101F043
:1008F000AEF9002803D001F0DCF98DED040A01F017
:10090000CFF9002801D08A48049001F01CFC00288F
:1009100003D001F01BFC8DED040A01F0AAF90028B8
:1009200003D101F0B1F9002808D001F0C2F9B5EE09
:10093000400AF1EE10FA01D08DED040ADFF83C58C0
:10094000DFF83C6801960095854B844A07A902A808
:1009500001F06EFE01F07BF900281BD000206860DA
:100960000020706016E000BFDB0FC9C0DC0F4940FB
:10097000DB0F49C0DB0FC9400100003FDFF8FC0777
:100980000021016000214160DFF8F40700210160CF
:100990000021416001F05BF9002806D007AADFF8CA
:1009A000E017DFF8D80701F091F901F0CCFB00283F
:1009B00013D001F0D5FBDFF8C407D0ED010A30EE0B
:1009C000800A80ED010A01F0D1FBDFF8B407D0ED19
:1009D000010A30EE800A80ED010A644D2A00DFF83A
:1009E0009C170020FFF78EFC614E3200DFF8901755
:1009F0000120FFF787FC0094002307AA290059482B
:100A000000F0CCFC0094012307AA3100564800F006
:100A1000C5FCDFF870079FED460AD4ED000AF8EE3A
:100A2000E00A90ED001A70EEC10A90ED001A00EE97
:100A3000801A80ED001ADFF85017D4ED010AF8EEA5
:100A4000E00A91ED001A70EEC10A91ED001A00EE75
:100A5000801A81ED001ADFF83427D4ED020AF8EE8F
:100A6000E00A92ED001A70EEC10A92ED001A00EE53
:100A7000801A82ED001ADFF81837D4ED030AF8EE79
:100A8000E00A93ED001A70EEC10A93ED001A00EE31
:100A9000801A83ED001ADFF8FC56D4ED040AF8EE54
:100AA000E00A95ED001A70EEC10A95ED001A00EE0D
:100AB000801A85ED001ADFF8E066D4ED050AF8EE3D
:100AC000E00A96ED001A70EEC10A96ED001A00EEEB
:100AD000801A86ED001A90ED000ABDEEC00A84ED82
:100AE000000A91ED000ABDEEC00A84ED010A92ED04
:100AF000000ABDEEC00A84ED020A93ED000ABDEEC5
:100B0000C00A84ED030A95ED000ABDEEC00A84ED2B
:100B1000040A96ED000ABDEEC00A84ED050A18B07D
:100B2000BDEC028B70BD0000CDCC4CBE0100803FFF
:100B3000CDCC4C3EC82F0328CC2F0328D02F032820
:100B4000D42F03282C2B03286C2C0328902C03284B
:100B5000B42C0328D82C0328FC2C0328202D032890
:100B6000442D0328542A03289C2A0328182F0328DD
:100B7000202F032868BF0228402E0328C3300328F3
:100B8000102E03282DE9F8432DED068B04000E00EE
:100B900015002068306194ED010ADFED9D0A30EE0A
:100BA000200A86ED060AA0687061E068B0602069DE
:100BB00070606069F060A0693060DFF8E015087867
:100BC000002805D17069DFF8D82510600120087071
:100BD00096ED050ADFF8C805D0ED000A30EE600A90
:100BE00086ED050A07E096ED050ADFED8A0A30EE8C
:100BF000200A86ED050A9FEDDA8A96ED050AB4EE25
:100C0000480AF1EE10FAEEDADFEDD68A96ED050A23
:100C1000B4EE680AF1EE10FA08D596ED050ADFED9C
:100C2000D20A30EE200A86ED050AEDE7F2EE040A5C
:100C3000DFF8700590ED070A20EE200A90ED081A03
:100C400061EE200ADFF86015087800280AD1DFF885
:100C50005C0580ED000ADFF85805C0ED000A0120B0
:100C600008700DE1DFF8440590ED001A30EE419A6E
:100C7000DFF83C1591ED001A70EEC19A9FEDBB1A9A
:100C8000B4EE419AF1EE10FA03D5DFEDB91A39EE60
:100C9000219ADFEDB81AB4EE619AF1EE10FA03DB97
:100CA0009FEDDE2A39EE029AF4EE419AF1EE10FA47
:100CB00003D59FEDAF1A79EE819AF4EE619AF1EEC9
:100CC00010FA03DB9FEDD51A79EE819A80ED000AC8
:100CD000C1ED000A9FEDD2AA29EE0A0ADFEDD10A82
:100CE00080EE200AFFEE00AA69EE8A0A9FEDCD1A77
:100CF000C0EE810A60EEAA0A9FEDCB1ADFF8B404B9
:100D0000D0ED001A30EE610AD0ED001A40EE011A63
:100D1000C0ED001ADFF8A01491ED000A30EEC00A11
:100D2000D1ED000A40EE010AC1ED000A0068F06151
:100D30000868306201F0A5F8002804D07069DFF877
:100D40007C1408609CE009EEAA9AB0EE000A89EED5
:100D5000000A20EE0A0ADFEDB50A20EE200ADFEDD8
:100D6000B10A20EE209ADFF85804DFF85884B0EE7C
:100D7000C90AD8ED000A90ED001A00EE201A80EDA5
:100D8000001AD6ED059ADFF8347497ED00AA39EE13
:100D9000CA0A03E0DFED1F0A30EE200AB4EE480A6B
:100DA000F1EE10FAF6DAB4EE680AF1EE10FA04D5B4
:100DB000DFED6D0A30EE200AF5E7F0EEC00A9FED98
:100DC000D41AF4EE410AF1EE10FA25D5DFF8F893C3
:100DD000B0EE4A0A01F0D8FD20EE090AD8ED000A6B
:100DE00099ED001A00EE201A89ED001ADFF8DC9365
:100DF000B0EE4A0A01F0CAFD20EE090AD8ED000A59
:100E000099ED001A00EE201A89ED001A36E000BFB5
:100E100088C364BCDB0FC9C089EE009AB0EE690AD2
:100E200001F0B4FDF0EE40AADFF89C93B0EE4A0A60
:100E300001F0ACFD3AEEC00A20EE090AD8ED000A36
:100E400099ED001A00EE201A89ED001AB0EE4A0A58
:100E500001F09AFDB0EE40AADFF87093B0EE690A97
:100E600001F092FD3AEE400A20EE090AD8ED000AA0
:100E700099ED001A00EE201A89ED001AC7ED009ACC
:100E8000D3489FED670AD0ED090A60EE800AC6EDEF
:100E9000090AD0ED0A0A60EE800AC6ED0A0ACD48BA
:100EA000D0ED090A60EE800AC6ED0B0AD0ED0A0A01
:100EB00020EE800A86ED0C0AB6EE000AC648D6ED92
:100EC000090A90ED001A70EEC10A90ED001A00EECA
:100ED000801A80ED001AC149D6ED0A0A91ED001A78
:100EE00070EEC10A91ED001A00EE801A81ED001A31
:100EF000BB4AD6ED0B0A92ED001A70EEC10A92EDD4
:100F0000001A00EE801A82ED001AB64BD6ED0C0ADC
:100F100093ED001A70EEC10A93ED001A00EE801AEC
:100F200083ED001A006870620868B0621068F062B1
:100F30001868306301F075FE002802D0300001F01F
:100F400078FEA9490878002816D000207063002098
:100F5000B0630020F063002030640020087039E0A6
:100F6000DC0F4940DB0F49C0DB0FC940000034C330
:100F70000000B443010034439FED2A0AD6ED090A6C
:100F80009A4890ED001A70EEC10AC0EE800AC6EDD4
:100F90000D0AD6ED0A0A964890ED001A70EEC10AC5
:100FA000C0EE800AC6ED0E0AD6ED0B0A914890ED10
:100FB000001A70EEC10AC0EE800AC6ED0F0AD6ED27
:100FC0000C0A8D4890ED001A70EEC10A80EE800A7E
:100FD00086ED100A706A85490860B06A8449086025
:100FE000F06A84490860306B83490860834894ED57
:100FF000080AD0ED000A30EE600AF2EE000A94ED25
:10100000081AD0ED001A21EE211AB5EE401AF1EEC1
:1010100010FA0DD5F3EE0E0A1AE000BF0000B4C3BB
:1010200035FA8E3C6F12833ACDCC4C3E0000024222
:10103000216A31F0004101EE101AD0ED001AF0EEF5
:10104000E11AB4EE611AF1EE10FA01D5F2EE0C0AD3
:101050009FED431A60EE810AF1EE601AB4EE610A68
:10106000F1EE10FA02D5B1EE600A07E0F4EE400AA4
:10107000F1EE10FA02D5B0EE600AFFE7D0ED000AFB
:1010800030EE800A80ED000A9FED210AD4ED080AB7
:10109000F0EEE00AF4EE400AF1EE10FA0AD5D0EDD7
:1010A000000AF0EEE00AF4EE400AF1EE10FA01D583
:1010B0000021016090ED000ADFED2A0A20EE200AEF
:1010C00085ED020A0020E8600020286100206860A9
:1010D0004B490878002804D170694A4A1060012001
:1010E000087094F82400002803D0A06A45490860DD
:1010F00018E0444894ED070AF1EE080A20EE200AB1
:10110000D0ED000A40EE010AC0ED000A0AE000BF7F
:101110006F12033B90ED000ADFED130A30EE200A58
:1011200080ED000A374890ED000AB4EE480AF1EE6F
:1011300010FAEFDA90ED000AB4EE680AF1EE10FA58
:1011400008D590ED000ADFED090A30EE200A80EDA7
:10115000000AEFE700682860BDEC068BBDE8F1836C
:101160006F12833A33335340DB0FC9C0DB0FC940E2
:10117000C4300328C5300328D82F0328082F03289C
:10118000102F0328DC2F0328E02F0328E42F032847
:10119000E82F0328EC2F0328F02F0328C63003285C
:1011A000F42F0328E82B0328C7300328F82F03283F
:1011B000FC2F03280030032804300328D02F0328F5
:1011C000D42F032864BF0228C82F0328CC2F03285C
:1011D000142C0328402C0328083003280C30032843
:1011E000103003281430032874C002281830032854
:1011F0001C300328203003282430032828300328FB
:10120000C83003282C30032880B580ED000AC0EDDB
:10121000010A80ED021AC0ED031A80ED072AC0ED25
:10122000082A00F001F801BD00210161002141619F
:10123000002181617047000070EE600A90ED000AA5
:1012400020EE200A90ED011AD0ED041A21EE211AA9
:10125000D0ED051A70EEE11A90ED032AC1EE821A64
:1012600090ED062A71EEC21A9FED312AD0ED062AC2
:1012700041EE822AC0ED062AC0ED050AD0ED021A21
:1012800090ED062A61EE821A30EE010A30EE210A54
:1012900090ED071AB4EE401AF1EE10FA02D590ED77
:1012A000070A0CE090ED071AB1EE411AB4EE410ABC
:1012B000F1EE10FA03D590ED070AB1EE400AB0EE58
:1012C000C01AD0ED071AB4EE611AF1EE10FA08D484
:1012D00090ED041A20EE811AB5EE401AF1EE10FAE4
:1012E00007D890ED031AD0ED041A40EE811AC0ED34
:1012F000041AD0ED080A90ED041AF4EE410AF1EE5A
:1013000010FA02D5016A016110E0D0ED040A90EDF7
:10131000081AB1EE411AF4EE410AF1EE10FA05D5C1
:10132000D0ED080AF1EE600AC0ED040A7047000033
:10133000CDCC4C3E10B52DED068B0400B0EE408AAE
:10134000F0EE608AB0EE419AF0EE619AB0EE42AAF9
:10135000DFED11AAF0EE4A2AB0EE692AF0EE6A1A21
:10136000B0EE491AF0EE680AB0EE480A2000FFF726
:101370004BFFF0EE4A2AB0EE692AF0EE6A1AB0EEA0
:10138000491AF0EE680AB0EE480A14F12400FFF79B
:101390003BFFBDEC068B10BD6F12833A38B52DEDC7
:1013A000048B04001D002800C0B2002808D1D2ED33
:1013B000090A92ED0A8A91ED000AD1ED018A07E04F
:1013C000D2ED0B0A92ED0C8A91ED000AD1ED018A63
:1013D0002000FFF731FFB0EE409AF0EE480AB0EE81
:1013E000680A14F12400FFF727FFFDEEC90A10EE8A
:1013F000901ABDEEC00A10EE102A0898EDB2002D2A
:1014000004D1494281605242C26003E04942016115
:1014100052424261BDEC048B31BDF0B4024610680B
:1014200095681318506803EB5004C00748BF4D443B
:10143000A3422DD013F8016B16F0030004BF13F87C
:10144000010BC01C31090F2907D113F8011B0F3103
:1014500003E013F8017B05F8017B401EF9D1002958
:10146000E6D013F8010BC6F38106032E08BF13F86C
:10147000016B00EB0620404228440026B71E8F4235
:101480001EBF10F8017B05F8017B761CF6D1CFE773
:10149000F0BC02F10C00704781B0010A0902184A41
:1014A00091420AD10100C9B2082902DA154908702F
:1014B00002E0FF20134908700EE0124A1178082953
:1014C00008DA1149137851F82310002902D000904E
:1014D00000980860FF20107001B0704780B50B497C
:1014E000002001F0F2FB01200949087001BD020053
:1014F000D2B2082A03DA044AC0B242F82010704778
:101500000000445273C00228882D03289914081043
:10151000C2300328B5EE401AF1EE10FA0DD9F7EEFD
:10152000001AB4EE611AF1EE10FA02DBB0EE600AB6
:1015300003E070EEC00A00EE810A7047DFF8001881
:1015400008700020DFF8FC1708807047DFF8F80704
:101550009FED5E0A80ED000ADFEDC10AC0ED010AD1
:1015600080ED090AC0ED0A0ADFF8E00780ED000A05
:10157000C0ED010A80ED090AC0ED0A0A70470000BB
:10158000DFF8C4079FED520A80ED000A0021416098
:1015900080ED090A00218162DFF8B00780ED000AC2
:1015A0000021416080ED090A00218162704770B519
:1015B0000D001600DFF88C472088012801D1FEF7C6
:1015C00074FE0020686000207060DFF884070178F6
:1015D000DFF880271278914202D140F2DC5005E01A
:1015E0000078012801D1642000E07D20218880B2AC
:1015F000814202D30220FFF7A1FF70BD2DE9F04127
:101600000C001500DFF83C673088012807D16068BE
:10161000DFF8441708606868DFF840170860DFF8F3
:101620003477DFF82C0700783978884201D0012020
:1016300000E00020C0B2002802D05FF0780801E08E
:101640004FF4C878308800EE100AB8EE400A4046E1
:1016500080B200EE900AF8EE600A80EE201A9FED4C
:10166000910AB4EE401AF1EE10FA01DBB7EE001A5F
:10167000DFED8D0A9FEDB90AFFF74CFF387801289E
:1016800002D1DFED8A0A01E0DFEDB40AC4ED000A01
:10169000F1EE600AC5ED000ADFF8BC06D0ED000AE5
:1016A00070EE800AC4ED010ADFF8B006D0ED000A42
:1016B00030EE800A85ED010A30881FFA88F840452F
:1016C00002D30320FFF73AFFBDE8F08100401C463B
:1016D00000009644F8B504000E001700DFF86456C9
:1016E000288801284ED1DFF86C060078012821D126
:1016F000DFF86C066D490160DFF86806DFF8F0146A
:101700000160DFF844069FED6A0A80ED000ADFED14
:10171000540AC0ED010A80ED090AC0ED0A0ADFF89B
:101720002C0680ED000AC0ED010A80ED090AC0ED2B
:101730000A0A27E0DFF8300690ED000ADFEDA80A7C
:1017400020EE200ADFEDA70AB4EE600AF1EE10FAEF
:1017500002D5B0EE600A09E0DFEDA30AB4EE600A3C
:10176000F1EE10FA02DB9FEDA10AFFE7DFF8F005CA
:1017700080ED000ADFF8EC05B1EE400A80ED000ACA
:10178000FFF7E4FE288800EE100AB8EE400ADFED0D
:10179000340A80EE201A9FED430AB4EE401AF1EEAF
:1017A00010FA01DBB7EE001ADFED910A9FED3E0A59
:1017B000FFF7B0FEDFF89C050178012905D13B4910
:1017C0003160DFF82C14396003E03168316039682A
:1017D0003960DFF88415D1ED000A70EE800AC6ED9D
:1017E000010ADFF87815D1ED000A30EE800A87EDA6
:1017F000010A0178012913D12988012903D1DFF8D1
:101800006C1500220A60DFF8641591ED000AD4ED32
:10181000000AB4EE600AF1EE10FA01D522680A60FF
:1018200000210278012A01D1642200E050222B8895
:1018300092B29A4226D20078012815D1DFF82C0501
:1018400090ED000AD4ED000A30EE600ADFED690A7F
:10185000B4EE600AF1EE10FA04DB012112E000BFE1
:101860000000484200210DE094ED000AB0EEC00AED
:10187000DFED610AB4EE600AF1EE10FA01D5012144
:1018800000E00021C9B2002902D12888C82808DB5D
:10189000FFF776FEFEF7FBFCFEF707FD0420FFF7DF
:1018A0004DFEF1BD0100803F0000C84200007042C3
:1018B00000803B462DE9F04104000D001600DFF8E2
:1018C00094743878012802D19FED4C0A01E09FED15
:1018D000230A3878012801D11E2000E01E201E2195
:1018E000DFF86084B8F8002003009BB29A4213D25C
:1018F000B8F8001000EE901AF8EE600A80B201EE1F
:10190000100AB8EE411A80EE811AF0EE400A9FEDFF
:10191000380AFFF7FFFD1BE0B8F8002043009BB238
:101920009A4213D2B8F80020101A80B200EE900A42
:10193000F8EE600A89B201EE101AB8EE411A80EE94
:10194000811ADFEDAB0AFFF7E5FD01E09FEDA80A84
:101950003878012804D1DFEDA70A03E00000000079
:10196000DFED220ADFF8F80390ED001A31EE201ABD
:1019700085ED001ADFF8EC0390ED001A71EE600AB5
:10198000C6ED000A85ED010A86ED010A38780128C6
:1019900002D1DFEDA10A01E0DFEDA00A94ED001A0B
:1019A000F4EE410AF1EE10FA05D5B8F800004C2823
:1019B00001DB012000E00020C0B2002805D1B8F80A
:1019C000000040F2F511884208DBDFF8A40380ED47
:1019D000000AFEF76AFC0520FFF7B0FDBDE8F081C4
:1019E000000048430000A0C20100A0420000A04245
:1019F0000000C8C3CECC4C3F9A99993E00004842A3
:101A00002DE9F8430C001500DFF844633078022814
:101A100001DB012000E0002000212160002129607D
:101A2000C0B200286AD01E21080010F13C07DFF880
:101A30001483B8F8002089B2914216D3B8F8000098
:101A400000EE100AB8EE400AF3EE0E0A80EE201AFD
:101A5000DFF81C0390ED000ADFED8A0A70EE200A21
:101A600090ED000AFFF756FD2EE00100B8F80020C7
:101A700089B2914208D3DFF8F80290ED000ADFED59
:101A8000810A30EE200A1FE0B8F80010081A80B270
:101A900000EE100AB8EE400ADFED800A80EE201A50
:101AA0009FED860AB4EE401AF1EE10FA01DBB7EEB4
:101AB000001ADFED830AAE4890ED000ADFED711ADF
:101AC00030EE210AFFF726FD84ED010A85ED010ABB
:101AD000B8F80000BFB2B842C0F08780FEF7E5FB5F
:101AE0003078401E30703078012803D10120FFF794
:101AF00025FD7AE00220FFF721FD76E0954F38784A
:101B0000012802D19FED6F0A01E09FED6F0A84ED7D
:101B1000000AB1EE400A85ED000A5FF0C80818F12E
:101B20001E08DFF82092B9F800001F2815DAB9F86E
:101B3000000000EE100AB8EE400AF3EE0E0A80EE46
:101B4000201A8B4890ED000ADFED4E0A70EE200A55
:101B500090ED000AFFF7DEFC2EE04046B9F80010D9
:101B600080B2884207D3824890ED000ADFED450A33
:101B700030EE200A20E0B9F80000B0EB080080B297
:101B800000EE100AB8EE400ADFED6C0A80EE201A73
:101B90009FED4A0AB4EE401AF1EE10FA01DBB7EEFF
:101BA000001ADFED470A724890ED000ADFED351AA2
:101BB00030EE210AFFF7AEFC84ED010A85ED010A43
:101BC000B9F800001FFA88F818F5C87840450CDB12
:101BD000FEF76BFB00203070002038704FF4FA6085
:101BE000644908800020FFF7A9FCBDE8F1830000EC
:101BF000000070C200001643002051490870002008
:101C0000504908805A48002101600020504908705E
:101C10000020504908707047CDCCCC3F9A99993F2D
:101C200080B547490978002910D10100C9B20029BF
:101C30000CD04D4981ED000A4549087045490870AE
:101C400000204C4908800120FFF778FC01BD3C488A
:101C50000078002801D0012000E00020C0B27047C9
:101C600037480078042801D1012000E00020C0B2EC
:101C7000704733480078012801D1012000E000209E
:101C8000C0B270470000DC422D480078022801D124
:101C9000012000E00020C0B2704700000000704248
:101CA00034480088002801D0012000E00020C0B2A4
:101CB00070472D4890ED000A704700000100803FFA
:101CC000000000000000F042000048C210B5130000
:101CD0001C4A1488641C1480194A1278012A07D0FF
:101CE00024D3032A10D009D3052A19D012D31DE01A
:101CF0000A0001001800FFF75AFC1EE00A0001006C
:101D00001800FFF77BFC18E00A0001001800FFF73D
:101D1000E1FC12E00A0001001800FFF7CBFD0CE027
:101D20000A0001001800FFF76BFE06E01149088861
:101D3000002802D00888401E088010BD0000C8435B
:101D4000B530032894300328542A03289C2A0328FA
:101D5000B6300328B73003285C2F0328602F0328F0
:101D6000542F0328582F03284C2F0328642F0328AF
:101D7000502F03289630032803E0DFED550A30EE9C
:101D8000200ADFED540AB4EE600AF1EE10FAF4DA3C
:101D9000DFED510AB4EE600AF1EE10FA04D5DFED82
:101DA000C20A30EE200AF3E770470020DFF818156A
:101DB0000870DFF8180500210160DFF81405002124
:101DC0000160DFF81005DFF88C130160DFF808050B
:101DD0005FF07E5101600020DFF800150870DFF829
:101DE0000005002101600020DFF8F814087070473A
:101DF000DFF8D424117800291ED101211170DFF8F9
:101E0000CC1400220A60DFF8C81400220A60DFF850
:101E1000C414DFF840230A60DFF8BC145FF07E5280
:101E20000A600021DFF8B4241170DFF8B41481EDEA
:101E3000000ADFF8B01408707047000080B59FED0D
:101E4000BB0A0020FFF7D4FF01BD80B50120FFF7DA
:101E5000CFFF01BDDFF870040178012902D00078BE
:101E6000022801D1012000E00020C0B27047DFF855
:101E700058040078032801D1012000E00020C0B2FE
:101E8000704780B5FFF7E6FF02BD0020DFF8381489
:101E90000870DFF8380400210160DFF83404002105
:101EA0000160DFF83004AB490160DFF82C045FF01B
:101EB0007E5101600020DFF824140870DFF8200450
:101EC000002101600020DFF81C140870704700003A
:101ED000DB0FC9C0DC0F4940DB0F49C070B50500FE
:101EE0000E00DFF8E4432078012803D02078022890
:101EF00040F09780DFF8EC030078002804D0DFF88A
:101F0000E00390ED000A01E096ED000A0020B060C9
:101F100000207060DFF8C4130878002805D16869D4
:101F2000DFF8AC23106001200870207801282DD143
:101F3000DFF89C03016831600021F160022121700B
:101F4000DFF8881300220A6069690160D5ED050A8F
:101F500030EE600AFFF710FFB5EE400AF1EE10FA1E
:101F600005D5DFF87403DFF88013016004E0DFF8C3
:101F700068035FF07E510160B0EEC00ADFED750AC4
:101F800030EE200ADFF84C0380ED000A9FED760A60
:101F9000DFF83C03DFF84013D1ED000A9FED751A1E
:101FA00060EE810A90ED001A00EE801A80ED001AB2
:101FB00000683060D5ED010A9FED6F1A60EE810A6E
:101FC000B3EE041AC0EE810ABFEE001AF4EE410A25
:101FD000F1EE10FA02D5F0EE410A09E09FED731A16
:101FE000F4EE410AF1EE10FA02DBF7EE000AFFE729
:101FF000C6ED030AB548D5ED010AF0EEE00A90ED12
:10200000001A00EE801A80ED001A90ED000AB14827
:10201000D0ED000AB4EE600AF1EE10FA01DB032005
:10202000207070BD0020B14908700020B0490870D0
:102030000020B049088070470120AC49087000209A
:10204000AB490870AC48AD49016042F21070AC4930
:1020500008800020A7490880704780B50120A34967
:1020600008700120A2490870A348A64901604FF4F6
:102070007A60A349088000209E490880A248A349AD
:102080000160FFF7D1F801BD0020984908700020D9
:102090009849088096490878002804D09A48002278
:1020A0000260002008707047DB0FC94080B5FFF761
:1020B000EBFF01BD8D480078704780B58B490978EA
:1020C00000290DD08C49096881608A480188491C23
:1020D000018000888A490988884201D3FFF7D4FF2C
:1020E00001BDB5EE401AF1EE10FA0DD9F7EE001A67
:1020F000B4EE611AF1EE10FA02DBB0EE600A03E012
:1021000070EEC00A00EE810A704700208049087016
:102110008048002101608048002101607F48002143
:10212000016000207E490870704700000000000038
:102130000120774908700020794908707047002015
:102140007349087070477248007870479FED580ACD
:1021500070470000DB0F49416E4890ED000A704760
:102160006D4890ED000A70476F12833A6B4890ED0E
:10217000000A7047E0ED2F413333B3BE69489FED4D
:102180004D0A80ED000AF0EE080AC0ED020A80ED6B
:10219000090AC0ED0B0A644880ED000AC0ED020A8E
:1021A00080ED090AC0ED0B0A704700000100803F76
:1021B0005C489FED410A80ED000AF1EE000AC0ED97
:1021C000020A80ED090AC0ED0B0A574880ED000AAB
:1021D000C0ED020A80ED090AC0ED0B0A70475348B2
:1021E0005349016053485449016054498160704724
:1021F0004E48534901604F4852490160524981603D
:102200007047000080B5424A1178002901D00028AB
:1022100000D14BE04249087800280ED10120087017
:1022200000204A4908803B48002101603A480021CB
:1022300001603A480021016038E044480188491CA7
:102240000180018842F2107399420BDB002010706C
:102250003048002101603048002101602F480021F2
:10226000016023E02B4900220A600188C82915DAA1
:10227000008800EE100AB8EE400ADFED100A80EE8A
:10228000201ADFED0F0A9FED0F0AFFF72AFF224801
:1022900080ED000A214880ED000A07E09FED080A62
:1022A0001D4880ED000A1D4880ED000A01BD0000B8
:1022B0000AD7A3BD0080894400009644000048432B
:1022C0000000F0C200000000CD3003284830032891
:1022D0004C3003286CBF022870BF0228CE30032880
:1022E00050300328CF300328000080BFD0300328AF
:1022F000D13003289E30032854300328CDCCCCBEE7
:102300009C3003289A9999BE442D03280000A0C14F
:10231000D2300328583003285C300328603003286B
:10232000D3300328542A03289C2A03286C2C032822
:10233000CDCC9441902C032800004DC4CDCC0C4052
:102340000000C841008089C400004040A03003283C
:1023500038B52DED108B04000D00F3EE08BA9FED9B
:102360006E8A9FED6EFA94ED000A00F00FFBF0EE1E
:10237000408A94ED000A00F007FBB0EE409A94ED1D
:10238000010A00F003FBF0EE409A94ED010A00F020
:10239000FBFAB0EE40AA28EE090A70EE6BAA28EE0E
:1023A00028BA48EE0ABA28EE29CA7BEEEACA3CEE01
:1023B0004BDA2CEEAC0A0DEE0D0A00F0BDFCF0EE8F
:1023C00040DAB0EE000A2FEE000AB4EE6D0AF1EE2C
:1023D00010FA06D49FED52EAF4EE4EDAF1EE10FA5E
:1023E00002D55FF0FF305EE0F6EE00EA2DEEAE0AB9
:1023F0006FEE0F0A40EE400A9FED4A0A00F0ACFC77
:1024000000F09AFC7AEEAB0A20EEAE1A7BEE0C0AD4
:1024100060EEAE1ACDEE2D0AF1EE600A8CEEAD2A1A
:1024200000EE201A40EE021A31EE6A0A71EECB0A73
:1024300031EE6B1A71EECC1A29EE202A08EEC02A72
:1024400022EE082A6AEE212A49EEC12A62EE882A83
:1024500020EE213A00EEC13AF0EEC33AF4EE4E3AE5
:10246000F1EE10FA02D55FF0FF301CE0F7EE003A13
:1024700083EE833A63EE211A61EE821AC5ED001AEB
:1024800063EE200A60EEE20AC5ED010A63EE010A7E
:1024900060EEC20AC5ED020A23EE000A20EE220A0F
:1024A00085ED030A0020BDEC108B32BD90ED001AC3
:1024B000D0ED031A21EE211AD0ED011A90ED022A77
:1024C00001EEC21AF0EEC11A9FED172AF4EE421A7D
:1024D000F1EE10FA02D55FF0FF301CE0F7EE001AC3
:1024E00081EE811AD0ED031A61EE801A90ED012A77
:1024F00042EE601A61EE811AC1ED001AD0ED001AA9
:1025000061EEA00AD0ED021A41EEC00A20EE810A67
:1025100082ED000A002070470000AA420000074335
:10252000CDCCCC3D0000000077CC2B3262B38B07C2
:1025300008D0521E11F8013B00F8013B00F0248046
:102540008B07F6D1830740F0208000BF103A07D3F5
:1025500030B4B1E83810103AA0E83810F9D230BCE5
:10256000530724BFB1E80810A0E8081044BF51F891
:10257000043B40F8043BD20724BF31F8022B20F87B
:10258000022B44BF0B7803707047121F17D35B00F8
:1025900009D151F8043B20F8023B1B0C121F20F814
:1025A000023BF6D20BE051F8043B00F8013B1B0A5A
:1025B00020F8023B1B0C121F00F8013BF3D238BF7E
:1025C000121D521E24BF11F8013B00F8013BF8D840
:1025D00070470268531C03601170704710B52DEDF1
:1025E000028B1400D0ED040A9FED0F1A30EE818AA1
:1025F000D0ED028AF0EE480A0800FEF71DFEF0EE6C
:10260000680A2000FEF718FEF0EE408AB0EE480A95
:1026100000F0BCF9DFED050A40EE208AB0EE680A52
:10262000BDEC028B10BD000035FA8EBD00004842A3
:102630002DE9F04104000D0010001E0095ED070A81
:10264000D5ED080A30EE200AF0EE000A80EE200AEE
:10265000DFED4E0AC0EE200A94ED020AFEF7ECFD13
:10266000DFED4B0AB4EE600AF1EE10FA02D5B0EEDF
:10267000600A09E0DFED470AB4EE600AF1EE10FAF5
:1026800002DB9FED450AFFE7DDF81C80069F87ED22
:10269000000AB1EE400A88ED000A95ED060ADFED6A
:1026A0003F0AC0EE200A94ED030A3000FEF7C4FD95
:1026B000FFEE000AB4EE600AF1EE10FA02D5B0EEB9
:1026C000600A09E0DFED360AB4EE600AF1EE10FAB6
:1026D00002DBB7EE000AFFE7DFED320A60EE200A08
:1026E000C7ED010ADFED300A20EE200A88ED010A6D
:1026F00094ED040AF3EE0E0A20EE200AD7ED010A4B
:1027000070EE800AC7ED010AD8ED010A30EE800AAA
:1027100088ED010A284895ED040AB0EEC00AD0ED14
:10272000000A30EE600ADFED210A90ED001A00EE9B
:10273000201A80ED001ADFED180A90ED000A20EE55
:10274000200A9FED1B1A20EE010AB5EE400AF1EEB9
:1027500010FA02D59FED170A09E09FED0E1AB4EEAC
:10276000410AF1EE10FA02DBB0EE600AFFE7D7EDA6
:10277000010A70EE800AC7ED010AD8ED010A30EEB9
:10278000800A88ED010ABDE8F08100BF00007042B8
:102790000000A0C20100A0420000A042CDCC4C3FEE
:1027A0000100803F00003443000034C30AD7A33B3C
:1027B0009A99993F00000000702F0328DFED620A0C
:1027C00060EE200A10EE902A22F0004101EE101A6D
:1027D000DFED5E1AB4EE611AF1EE10FA25D54FF076
:1027E0007C5102F000420A4301EE102A71EE200AE9
:1027F000FDEEE00A10EE901A00296AD0FAEEC90A3E
:102800009FED531A00EE810ADFED521A00EEA10A85
:102810009FED512A00EE820ADFED502A00EEA20A57
:102820009FED4F1A00EE810A53E010EE101A4B0094
:102830001B1613F1010F0AD14900081610F1010F00
:1028400002D1090240F07F809FED460A704749009F
:1028500004D1002877D0B7EE000A70474FF07C51C2
:1028600002F000420A4301EE102A71EE200A10EE37
:10287000902A51000DD0090EC1F196011829A8BF68
:1028800002F0004203DA0029C4BFCA408A4000EEC9
:10289000902A10EE901A490017D09FED331A20EEBF
:1028A000811ADFED2B1A01EE210A9FED2A2A01EE93
:1028B000020ADFED292A01EE220A9FED283A01EEF5
:1028C000030ADFED271A01EE210AFDEEE00A10EE01
:1028D000901A01F00301081810EE101A21F00041BF
:1028E00000EE901A9FED211AF4EE410AF1EE10FA73
:1028F00004D5C10723D5B7EE000A20E0C10760EE7A
:10290000000A0ED59FED1A0A9FED1A1A00EE801AE2
:10291000DFED191A41EE201AB7EE000A01EEA00A07
:102920000DE09FED162ADFED161A40EE821ADFED5C
:10293000152A20EE201A41EEA02A01EE220A800775
:1029400048BFB1EE400A704783F9223F0000004FB4
:102950000000C9C600A0FDC00020A2BA000034B328
:102960000030C2AEFFFFFF7F0000803800008039DA
:102970009349B2BA36A02A3DDFFFFFBE6E8C4CB938
:102980004283083CA1AA2ABE012017E7002015E7D0
:10299000C9B2002905D0022909D005D3032909D0DD
:1029A0000BE090ED090A0AE090ED0A0A07E090EDCD
:1029B0000B0A04E090ED0C0A01E09FED500A70470D
:1029C000C9B2002905D0022907D004D3032906D0B3
:1029D00007E0826005E0C26003E0026101E042615D
:1029E000FFE77047002181600021C1600021016183
:1029F00000214161704780B59F4B0A00D2B21A4452
:102A000092F91020002A00D10122B3F9043002FB10
:102A100003F2C9B2FFF7D4FF01BD30EE600AB5EE94
:102A2000400AF1EE10FA02D5B1EE400AFFE7704716
:102A3000914800218170002181620021C162002142
:102A40004163704710B58C4C00222178491EC9B2F1
:102A5000FFF7B6FF2078401C20706078217888420C
:102A600005D205202070012084F8240001E0FFF742
:102A7000DFFF10BD7FB50400382100227E4D2E00FF
:102A8000300000F07FF900202870002C05D0684647
:102A900021001022FFF75AFD04E068467749102212
:102AA000FFF754FD281D69461022FFF74FFDB5F9C9
:102AB0000400002803D5B5F904004042A880B5F908
:102AC000040042F21171884202DB42F21070A880C9
:102AD000E888002801D10120E88095ED030AB5EED1
:102AE000400AF1EE10FA01D86548E86004206870E9
:102AF00001202870FFF79CFF7FBD00000000000050
:102B000070B52DED028B0D005B4C2178002902D0B1
:102B10002178052900DB81E0216B491C2163618953
:102B200000290CD0216B6289914208DB012084F8D6
:102B30002500052020702800FFF754FF6EE0217863
:102B40004E1E3100C9B2FFF723FFB0EE408AA078D5
:102B5000002803D002283AD00FD35FE084ED0D8A1D
:102B6000A06A401CA0622800FFF73CFFA06A2189F0
:102B7000884201DB0120A07050E0D4ED0D0AB0EED8
:102B8000480AFFF74AFFD4ED030AB4EE600AF1EEFB
:102B900010FA0BDB0220A0700020E06284ED0D8AA9
:102BA0003100C9B22800FFF726FF37E0E06A401C79
:102BB000E062E06A40F6B9318842EFDBF6B204EB3E
:102BC000860080ED058A2800FFF73CFF26E0D4ED63
:102BD0000D0AB0EE480AFFF720FFD4ED030AB4EE69
:102BE000600AF1EE10FA03D5E06A401CE06201E0F1
:102BF0000020E06284ED0D8AE06AE188884208DB0B
:102C0000F6B204EB860080ED058A2800FFF71AFF74
:102C100004E03100C9B22800FFF7EDFEBDEC028BE5
:102C200070BD154890F824007047134890F82500AF
:102C30007047114990ED090AD1ED050A30EE600A9E
:102C400080ED090A90ED0A0AD1ED060A30EE600A1D
:102C500080ED0A0A90ED0B0AD1ED070A30EE600A0A
:102C600080ED0B0A90ED0C0AD1ED080A30EE600AF7
:102C700080ED0C0A70470000B02B0328A0FD08105F
:102C8000A69B443B010009B2002908D4012210F0A0
:102C90001F018A40224900B2400941F820207047B4
:102CA000010009B2002908D4012210F01F018A4056
:102CB0001C4900B2400941F820207047704780B598
:102CC000406819490968884701BD7FB504000D00B7
:102CD0006846174991E84C0080E84C008DF80040A8
:102CE000684600F0C5F80121124800F02AF968464C
:102CF0002100C9B200EB8100B0F90400FFF7D0FF5A
:102D000068462100C9B200EB8100B0F90400FFF76A
:102D1000B9FF05480560054804707FBD000000004C
:102D200000E100E080E200E0E8BF0228E230032892
:102D300014FE0810BF2C0810B5EEC00AF1EE10FA10
:102D400002D4B1EEC00A70476FF0004C00EE10CA1A
:102D5000AFF300807047000010EE100AF5EE400A55
:102D6000F1EE10FA09D604BFC04207E0B4EE600AE3
:102D7000F1EE10FAB8BFB0EE600A704728BFB0EEAF
:102D8000600A704762F30F2262F31F42401810F08E
:102D9000030308D0C91A1FD3DB0748BF00F8012D71
:102DA00028BF20F8022D130030B414461546103900
:102DB00028BF20E93C00FAD8490728BF20E90C00C9
:102DC00048BF40F8042D890028BF20F8022D48BFD5
:102DD00000F8012D30BC7047C91818BF00F8012D4C
:102DE000CB0728BF00F8012D7047000038B504005C
:102DF000082C0FD3DFF814521822DFF81412280021
:102E000000F01AF90020E875CD2082490860002002
:102E100000F04AF980486401204432BD38B504000E
:102E2000082C0DD3794D18227949280000F004F9B7
:102E30000020E875E82077490860002000F034F9A8
:102E400076486401204432BD754B1B6862F31F4312
:102E500061F30F0383607047C06870470068704774
:102E6000C069C00FC0B2704780B500F0E1F902BD83
:102E7000FEB5040000256B4E20783070307804EBEE
:102E80008000C078ADF80000307804EB80008088C6
:102E9000ADF8020001208DF80400002108E00122B5
:102EA0000800C0B204EB8000807882401543491CC2
:102EB0000800C0B20228F2DB002715E040F2FF3321
:102EC00006E038003178C0B28842F7D1BDF9003051
:102ED0001BB22A003800C0B204EB8000811C38000D
:102EE000C0B200F012F87F1C3800C0B20228E8DB44
:102EF000684600F0B3F90FF25D01BDF9000000F083
:102F0000ECF9012048490870F7BD38B51C00474D61
:102F10002423584305440878286048786860AA60EC
:102F20002868FFF763FF28616868FFF777FF68612B
:102F3000AA68A9686869FFF787FF0020A861AC81CB
:102F400031BD082904D23A4A42F82100002000E0AD
:102F50003848704780B534480078002808D0334995
:102F6000304802782420424301EB020000F001F8CF
:102F700001BD7CB504000020009000266069FFF7C9
:102F80006BFF0500280C0004002827D0280C000443
:102F9000616908602069FFF763FF00281ED0BFF356
:102FA0004F8F69462069FFF75FFF002810D1009816
:102FB0000668360C0098007800F0FF00082807D259
:102FC0001B4951F820100800002801D000988847BC
:102FD000BFF34F8F3100206900F000F9280411D0B1
:102FE000ADB260690560E069002804D0E0698047FF
:102FF0000020E06104E0206A002801D0206A8047B8
:103000000020A0616069FFF729FF73BDF82D032838
:10301000F8F40810482F0328000022400010224036
:103020007CFE0810B0300328B13003280C2A032896
:10303000682D03280A028A0001B58B071AD183077D
:1030400024D1121F21D351F8043BA3F1013C2CEAF7
:10305000030C1CF0803C04BF40F8043BF1E79CFAF1
:103060008CFCBCFA8CF1C1F118018B40CB4040F8CC
:10307000043B13E0042A09D311F8013B521E00F867
:10308000013B5BB18B07F7D1D9E7121D5AB111F89B
:10309000013B521E00F8013B03B1F8D111001CBFE7
:1030A0000022FFF773FE01BD01BEFEE780B5354A81
:1030B00035490B6893423ED00A60344A12684A622E
:1030C000334A8A6202684A6042688A608268CA60DB
:1030D000C2680A6102694A6142698A618269CA6199
:1030E000C2690A62F1EE102A12F0900F23D0294A29
:1030F0008A62026ACA62426A0A63826A4A63C26A6E
:103100008A63026BCA63426B0A64826B4A64C26B55
:103110008A64026CCA64426C0A65826C4A65C26C3D
:103120008A65026DCA65426D0A66826D4A66C26D25
:103130008A66006EC86600F0E7F801BD01290EDB63
:1031400010F01F025118BFF34F8F134A1060203048
:1031500020390129F9DABFF34F8FBFF36F8F704722
:1031600001290EDB10F01F025118BFF34F8F0B4ADD
:103170001060203020390129F9DABFF34F8FBFF3F7
:103180006F8F7047FAF9F8F73428032828ED00E02C
:10319000A4A3A2A1ABAAA9A85CEF00E068EF00E09D
:1031A0002B4A126861F30F0282607047294A126845
:1031B00061F30F0242607047C16070470161704760
:1031C000C0687047C069C00FC0B270470068C00FC8
:1031D000002801D1204800E00020704738B50400E5
:1031E0000D002000FFF7EEFF002805D02900200089
:1031F000FFF7DCFF002000E0174832BDF8B50400FF
:103200000D0016001F002000FFF7E0FF00280DD181
:1032100031002000FFF7D0FF39002000FFF7CEFF7C
:1032200029002000FFF7BCFF002000E00A48F2BDA3
:1032300038B504000D002000FFF7C4FF002805D0BA
:103240002000FFF7BDFF2860002000E0024832BDEB
:1032500074FE081078FE081001008A0030B40021C6
:10326000234A1368234A1468002832D0224A15687A
:10327000C5F303250E2D0FD01268C2F303220D2AC9
:1032800028D1827812F00F02240924011443027914
:10329000002A15D0012214E0827812F00F021B09D7
:1032A0001B0113430279002A01D0012200E0002211
:1032B00062F3DF73114AB0F9000042F8203009E0F0
:1032C000002262F3DF740E4AB0F9000042F8204099
:1032D00000E00649080030BC70470A4B1A68002A13
:1032E00003D01A6800B242F820107047010056005F
:1032F000C0FE0810C4FE08100000204000A02040BE
:1033000000C0204030BF0228FEE7000003E0DFEDF0
:10331000810A30EE200ADFED800AB4EE600AF1EE99
:1033200010FAF4DADFED7D0AB4EE600AF1EE10FA7D
:1033300004D5DFEDCE0A30EE200AF3E77047B4EE95
:10334000600AF1EE10FA02D5B0EE600A07E0B4EEC2
:10335000401AF1EE10FA02D5B0EE410AFFE77047CD
:10336000DFF8AC0A8078DFF8AC1A08700020DFF8CC
:10337000A81A08700020DFF8A41A0870704780B5FA
:10338000DFF8900A0078DFF8881A8978884201D03F
:10339000FFF7E6FF01BDDFF8881A02680A6041689E
:1033A000DFF8802A11608168DFF87C2A11600169EA
:1033B000DFF8782A11600169DFF8742A1160DFF8FC
:1033C000741A00220A604069DFF86C1A08607047BE
:1033D00070B52DED068B04000D0095ED000ADFF8A9
:1033E000400AD0ED000A30EE608A95ED010ADFF860
:1033F000340AD0ED000A70EE608ADFF8306A96ED8C
:10340000000AFFF7C1FAB0EE409A96ED000AFFF706
:10341000BDFAF0EE409A95ED020ADFF80C0AD0ED05
:10342000000A30EE60AA2000C0B2002804D1DFF804
:10343000040A0021016011E0DFF8F86995ED040A43
:10344000DFF8EC09D0ED000A30EE600AFFF75EFF0E
:10345000D6ED000A30EE200A86ED000A2869DFF872
:10346000D01908601821DFF8D42929EE080A09EEDE
:10347000A80A2000C0B24843104480ED000A200092
:10348000C0B24843104429EE280A09EEC80A80ED6C
:10349000010AB5EE40AAF1EE10FA01DC9FED90AA08
:1034A0002000C0B24843104480ED02AA2000C0B200
:1034B00048431044DFF87C391B68C3602000C0B269
:1034C000484302EB00036D69DFF86C0900682D1AB0
:1034D0001D61E4B24C4302EB040000210175BDEC18
:1034E000068B70BDDFF828295178002902D19FEDA5
:1034F0007C0A0EE001005378C9B2994201D350789A
:10350000401EDFF83829C0B218214843104490ED1E
:10351000030A7047DB0FC9C0DC0F4940DB0F49C00D
:103520002DE9F8432DED028B07000C0015001E005D
:10353000DFF8DC184878002812D1002C03D0DFF81F
:10354000000900682060002D03D0DFF8F80800684B
:103550002860002E03D0DFF8F0080068306044E0F7
:1035600038004A78C0B2904201D34878471EDFF84D
:10357000CC183A00D2B21820424301EB0208DFF81F
:10358000C89899ED000AFFF7FFF9B0EE408A99ED6F
:10359000000AFFF7FBF9D8ED000A98ED011A002C9C
:1035A00009D0DFF89C08D0ED001A48EE201A40EE52
:1035B000411AC4ED001A002D09D0DFF88808D0EDBB
:1035C000001A40EE201A48EE011AC5ED001A002E2E
:1035D0000BD03800C0B2FFF785FFD9ED000A30EEFE
:1035E000800AFFF793FE86ED000ABDEC028BBDE872
:1035F000F183000080B52DED028B31EE401A71EEA3
:10360000E01A32EE402A72EEE00A21EE010A01EEE3
:10361000A10ADFED5D2AB4EE620AF1EE10FA01D5DF
:1036200000201FE061EE022A41EEA02AF4EE402ABB
:10363000F1EE10FA01D5002014E061EE200A41EE0F
:10364000C20AB0EEE08AFFF777FB88EE000ADFEDF2
:103650004F0AB4EE600AF1EE10FA01D5012000E045
:103660000020C0B2BDEC028B02BD0000DB0FC940E0
:1036700080B5DFF89C078178491C8170FFF770FEE8
:10368000002000F05CFE01BD002806D00A00DFF833
:1036900080375B78D2B29A4200D30AE001224275A9
:1036A0008175DFF8C03BC9B2182251431944097D26
:1036B000C17570470020DFF8B01B08700020DFF8EC
:1036C000AC1B0860DFF8A80B002101607047000008
:1036D00080B5DFEDB60A30EE200AFFF717FE01BD18
:1036E0000000000070B52DED028B84B005000C00C9
:1036F000002C06D0DFF8186728007178C0B2884225
:1037000001D300203BE0002302AA03A92800C0B295
:10371000FFF706FF6D1C00E06D1C28007178C0B239
:1037200088422BD200236A4601A92800C0B2FFF7C5
:10373000F7FE9DED010ADDED030A30EE608A9DED96
:10374000000ADDED020A70EE608A28EE080A08EE33
:10375000A80AFFF7F1FADFEDC70AB4EE600AF1EE4E
:1037600010FAD9DBF0EE480AB0EE680A00F002FE6B
:10377000FFF7AEFF84ED000A012000E0002004B056
:10378000BDEC028B70BD0000BE3786350BD7233DE4
:10379000002801D0002900D105E0002202600122AA
:1037A00002720969C160704778B587B005000C00E6
:1037B000160001A8182100F013FE002C05D12800E6
:1037C00001A91822FEF7C2FE1EE03100C9B201A80D
:1037D000FFF75AFFFFF74CFF69463000C0B2FFF712
:1037E00081FF002807D00020019001208DF80C00F7
:1037F0000098049003E0210001A8FFF7C9FF28000A
:1038000001A91822FEF7A2FE08B070BDF8B52DED93
:10381000028B04000D00F0EE408AB0EE608A002CAE
:1038200012D0002D10D01000DFF8E4154978C0B296
:10383000884209D2DFF80416D2B21820424301EBC5
:103840000200007D012801D00020ACE0DFF8C8654F
:103850003078002810D095ED030AB0EEC00ADFEDF5
:10386000900AB4EE600AF1EE10FA2CD50020307008
:103870000120DFF8A815087095ED030A00F0FCF8A8
:10388000DFF898753878002822D1DFED860AF4EE4B
:10389000608AF1EE10FA1BDBD5ED030AF0EEE00AC8
:1038A0009FED7F1AF4EE410AF1EE10FA10DBB4EE50
:1038B000480AF1EE10FA0BDB01203070DFF8C40982
:1038C000206001206FE0DFF8BC09206001206AE081
:1038D0009FED740AF4EE408AF1EE10FA20DB9FEDC2
:1038E000B20AB4EE408AF1EE10FA19D5B7EE001A1A
:1038F000DFEDAE0A9FEDAC0A88EE000AFFF71FFD70
:10390000F7EE000A30EEC00ADFEDCC0A94ED001AA3
:1039100070EEC10A94ED001A00EE801A84ED001AD0
:103920009FEDA30AB4EE408AF1EE10FA09D538787B
:10393000002806D101203070DFF8480920600120FE
:1039400031E09FED9C0AB4EE408AF1EE10FA03D507
:1039500000202060002026E09FEDB90AB4EE408AE6
:10396000F1EE10FA01DB00201DE09FEDB60AB5EE86
:10397000400AF1EE10FA03D800202060002012E087
:10398000DFEDB10A78EE200A80EE800AB7EE001A69
:10399000DFED860AFFF7D3FCD4ED000A20EE800AA3
:1039A00084ED000A0020BDEC028BF2BDDB0F494024
:1039B00010B52DED048B84B00400F0EE408A200099
:1039C000C0B2401CDFF848144978884202D39FED0A
:1039D000770A36E0002302AA03A92000C0B2FFF74D
:1039E0009FFD00236A4601A9641C2000C0B2FFF7B6
:1039F00097FD9DED010ADDED030A30EE608A9DED35
:103A0000000ADDED020A30EE609A28EE080A09EE9F
:103A1000090AFFF791F9DFED170AB4EE600AF1EE3B
:103A200010FA02D59FED610A0BE0F0EE480AB0EE05
:103A3000490A00F09FFC30EE680AFFF767FCB0EE21
:103A4000C00A04B0BDEC048B10BD000080B5B0EE20
:103A5000C00A20EE000ADFEDA00A80EE200ADFEDAA
:103A6000AE0A30EE200AB7EE001ADFED500AFFF77B
:103A700066FC01BD8FC2753C80B5B0EEC00A20EE79
:103A8000000ADFED950A80EE200ADFEDA40A30EE91
:103A9000200AB7EE001ADFED450AFFF750FC01BD22
:103AA0000BD7A33DCDCC4C3D70B52DED028B040062
:103AB0000D00B0EE608A002C16D0002D14D0DFED82
:103AC000A20AB4EE600AF1EE10FA0DD49FED9F0A3F
:103AD000B4EE401AF1EE10FA06D494ED000AB5EEF9
:103AE000400AF1EE10FA01DB00205AE0DFF828630B
:103AF000307800280FD095ED030AB0EEC00ADFED54
:103B0000AF0AB4EE600AF1EE10FA22D50020307050
:103B10000120C249087095ED030AFFF797FFBF48DF
:103B20000078002819D1D5ED030AF0EEE00A9FEDE8
:103B3000A31AF4EE410AF1EE10FA0EDBB4EE480AD5
:103B4000F1EE10FA09DB012030707348206001208B
:103B500027E071482060012023E09FED130AB4EEB6
:103B6000408AF1EE10FA01DB00201AE0B7EE001AED
:103B7000DFED0E0A9FED0C0A88EE000AFFF7DFFB6F
:103B8000F7EE000A30EEC00ADFED2C0A94ED001AC1
:103B900070EEC10A94ED001A00EE801A84ED001A4E
:103BA0000020BDEC028B70BD6666663F0000000021
:103BB0002A5C0F3D2A5C8F3D38B586B005000C00AD
:103BC0006846182100F00CFC002C05D1280069463D
:103BD0001822FEF7BBFC2FE06169DFF89006006851
:103BE000091AB1F5827F15D3FFF764FD88480221D9
:103BF000017000218170FFF7B3FB01208DF81000E8
:103C000021006846FFF7C4FD280069461822FEF728
:103C10009DFC11E0DFF87006009001208DF808008F
:103C2000DFF84C060068039001208DF81200280090
:103C300069461822FEF78AFC07B030BD8FC275BDF9
:103C40009A99993E20856B3E295C8FBD10B5040082
:103C5000002C01D1002019E000F0DFFBDFF82C067A
:103C60000121017001214170002181700021C1708A
:103C700000210171FFF71EFDFFF772FB2000FFF727
:103C80008AFB21000020FFF7A3FB012010BD70B5C7
:103C90000D00002803D05E4C2178012901D00020BE
:103CA00018E06178402903D301202071002011E041
:103CB000667801003000C0B2FFF78AFBDFF8A41578
:103CC000F6B21820464301EB060005756078401CEB
:103CD0006070012070BD0000CDCCCC3F10B54C4CC5
:103CE0002078012801D0002014E06078022805D255
:103CF000002020700020E07000200BE06178DFF8E9
:103D0000640500F0DAFC022121700121E17000213C
:103D1000A170C0B210BD0000EC51383ECDCC0C3FBC
:103D200080B500F07AFBDFF8640500210170002106
:103D30004170002181700021C17000210171FFF7E5
:103D4000B9FCFFF70DFB01BDCDCC4C3FDB0F493F6C
:103D500038B5050000F061FBDFF830450020207029
:103D600065700020A0700020E07000202071FFF737
:103D7000A1FCFFF7F5FA6078022803D200206070FA
:103D8000002004E0022020700120E070012032BDFC
:103D900080B5030000208DF80000DBB26A464021A8
:103DA000DFF8C00400F004FD002801D1002003E08A
:103DB0009DF80000FFF7CCFF02BD0000ED51383E3A
:103DC00080B50020FFF7E4FF02BD38B50400002CE9
:103DD00006D00F4DE878002802D06878022801D27A
:103DE000002013E000F019FB032028700120A870C8
:103DF000134821680160606812490860206912490F
:103E00000860FFF757FCFFF7ABFA012032BD000056
:103E1000002F0328BD300328BE300328BF300328FD
:103E2000942F0328982F03289C2F0328A02F0328C2
:103E3000A42F0328A82F0328AC2F0328AC1E032887
:103E4000B02F0328B42F0328B82F03282DE9F047FB
:103E50002DED068B96B005000C0004A8182100F08B
:103E6000BFFA002C0AD0DFF824643078032805D18B
:103E7000F078002802D07078022805D2280004A922
:103E80001822FEF763FBC8E1607E002814D00220F0
:103E900030700020B070FFF70DFCFFF761FA0120D1
:103EA0008DF82100210004A8FFF772FC280004A966
:103EB0001822FEF74BFBB0E1DFF8AC73387800282E
:103EC00004D021002800FFF777FEA6E10AA800F041
:103ED000C7FA9DED0DAAB5EE40AAF1EE10FA06D98B
:103EE0009FEDD00AB4EE40AAF1EE10FA0DDB9FED83
:103EF000CEAA0AE04146C9B204A8FFF7C5FBFFF706
:103F0000B7FB9DF82700002860D1B078717888420F
:103F100080F06F81B078B0F1010996F80280FFF768
:103F20002EFA002302AA03A94846C0B2FFF7F8FA06
:103F300000236A4601A94046C0B2FFF7F1FA4046A5
:103F4000C0B2401C7178884202D35FF0010901E0E1
:103F50005FF000099DED010ADDED030A30EE608A95
:103F60009DED000ADDED020A30EE609A28EE080AA7
:103F700009EE090AFEF7E0FEF0EE408AF0EE480A8C
:103F8000B0EE490A00F0F6F9F0EE409AB0EE690A98
:103F90004046C0B2FFF70CFDB0EE408A9FEDAF0A7D
:103FA000F4EE408AF1EE10FA1AD5AE494246D2B28A
:103FB0001820424301EB0200007D01289AD14246BD
:103FC000D2B221002800FFF7EFFB26E1210004A870
:103FD000FFF7DEFB280004A91822FEF7B7FA1CE160
:103FE0009DED010AD4ED000A30EE600ADDED000A15
:103FF00094ED011A70EEC10A20EE000A00EEA00A4C
:10400000FEF79AFEB0EE409A1826DFF858A2404616
:10401000C0B270435044007D012801D19FED90AAA9
:10402000D4ED012A94ED002ADDED001A9DED011A70
:10403000DDED020A9DED030AFFF7DCFA4946C9B23D
:10404000002935D00100C9B2002931D04046C0B2A4
:1040500006FB00F60AEB0600007D012806D1424669
:10406000D2B221002800FFF79FFBD6E0FFF700FB4C
:104070000120387060697D490860B0EE690AFFF779
:1040800027FB7B4880ED000A210010A8FFF794FD74
:104090000AA810A91822FEF759FA4146C9B20AA87F
:1040A000FFF7F2FA28000AA91822FEF74FFAB4E047
:1040B0005FFA89F9B9F1000F28D1B4EE49AAF1EEFF
:1040C00010FA02DAC0B2002820D04046C0B206FB87
:1040D00000F60AEB0600007D012806D14246D2B266
:1040E00021002800FFF760FB97E04146C9B204A811
:1040F000FFF7CAFAFFF7BCFA210004A8FFF748FB54
:10410000280004A91822FEF721FA86E0B0EE690A19
:10411000FEF73CFCB0EE40AAB0EE690AFEF734FCB4
:10412000D4ED010A9DED021A70EEC10A20EE800A5C
:10413000DDED030A94ED001A70EEC10A00EE8A0A62
:104140009FED4C1ADFED4C0AF8EE001A20EE210A22
:10415000FFF7F5F839EE800AFFF7BAFAF0EE409A69
:1041600094ED040A39EEC00AFFF7D0F8B0EEC00AA9
:10417000DFED420AB4EE600AF1EE10FA02DB002035
:1041800004900AE042480490DFED3D0AB4EE600A74
:10419000F1EE10FA01DB3F480490B0EE481AF0EE61
:1041A000490AB0EE680A210004A8FFF77DFCC0B2FE
:1041B000002801D0D4ED049AF0EE490A4246D2B26A
:1041C000B0EE680A210004A8FFF720FBC0B2002867
:1041D00001D0D4ED049A01208DF81800CDED079A96
:1041E00001208DF82200280004A91822FEF7AEF95C
:1041F00013E0022030700020B070FFF75BFAFFF789
:10420000AFF801208DF82000210004A8FFF7C0FAC4
:10421000280004A91822FEF799F916B0BDEC068B08
:10422000BDE8F08790C2F53C8FC2F53C80B500F048
:10423000F4F81649C878002801D0022000E00020D8
:10424000087000208870FFF735FAFFF789F801BD84
:1042500080B50E490522FEF769F901BD8FC2753C94
:104260000AD7233CAC1E0328BC300328BC2F0328EC
:10427000C02F0328C2B8B23EC2B8B2BEF366DF3E5A
:10428000C2B8323ECDCCCC3ECDCC4C3E002F032824
:104290009A9999BEEC5138BE80B5C0B2002805D0BD
:1042A00041F288312A2001F090F803E000212A2011
:1042B00001F08BF801BD80B500224FF4FA612A208D
:1042C00001F0B0F800202749086000202649087056
:1042D00000202649086001BD38B5224C216800291C
:1042E0002CD0214A2168137801EB83031988002917
:1042F00005D10020FFF7D0FF002020601EE01B4901
:104300000D684019086008681D88A84216D30D681A
:1043100018882D1A0D601078401C107020681178D4
:1043200000EB81010888002805D10020FFF7B4FFC9
:104330000020206002E08878FFF7AEFF31BD80B535
:1043400008490B4AC0B252F8200008600020064A13
:1043500010700020054A106008688078FFF79CFF05
:1043600001BD0000682F0328B83003286C2F0328F4
:1043700034BF022852EC101AB0EEC00AC80F490030
:104380005200F0EEE00A28BF0C3011F1807F38BFF8
:1043900012F1807F0CD28A4238BF80F004001242B2
:1043A00014D034BF80EE800A80EE200A01F034B9C8
:1043B00011F1807F08BF80F0040098BF12F1807F68
:1043C00008D88A4214BF00224FF07E5200EE102A15
:1043D00001F022B96FF0004100EE101A70470000A2
:1043E000002201F06BB9000080B50100002904D063
:1043F000DFF88C001422FEF7A9F8DFF88800DFF858
:10440000781008600420DFF87410087000F005F8D8
:10441000FFF786FCFFF7D4FC01BD144800210170B2
:1044200000214170002181700021C17000210171C3
:1044300000214171002181710021C17100210172AF
:104440000021C160002101610021416100218161E1
:1044500007480021016000200649086070470000FD
:1044600080B507491422FEF771F801BDC42D032859
:104470008C2F0328902F032860BF022872C00228C7
:104480004CBF022850FA081010B5C44C2078002800
:1044900003D101F0EDF90120207010BD10B402002D
:1044A000BF48002407E052F8243058400300BD48BC
:1044B00000FB03F0641C8C42F5D310BC7047C0B203
:1044C0005D307047F8B50C001500B74E3168B74A3B
:1044D00091420AD171680A2907D1F168891E3F29E2
:1044E00003D2C0B2F168884201D2002016E03769D9
:1044F0000020306140F285113000FFF7CFFF874286
:1045000002D03761002009E03761002C01D0F0684B
:104510002070002D01D0B06828600120F2BD2DE987
:10452000FC410C0016001D0000218DF80010010058
:10453000C9B2032903D23100C9B2002901D1002038
:1045400035E0DDF82080C0B2FFF7B9FF964F40F2AA
:1045500085133A000100002001F006F94246694641
:104560003000C0B2FFF7AEFF002801D100201EE0EE
:10457000002C16D000260EE018213000C0B24843AF
:1045800020443200D2B201FB02F139441431182226
:10459000FDF7DCFF761C30009DF80010C0B28842A9
:1045A000EAD3002D02D09DF8000028700120BDE85C
:1045B000F681FEB504000D000026002020700020CA
:1045C0002860002718E03000C0B2002803D0286817
:1045D000029988420FD227700298286001260AE0CB
:1045E00002A8009001AB402200213800C0B2FFF7C2
:1045F00096FF0028E7D17F1C3800C0B20328EFD314
:104600003000C0B2FEBD2DE9FF4705000C000321BC
:10461000002203AE3000FEF7B5FB0026002C03D0CD
:104620002800C0B2032801D3002043E0002705E0A2
:10463000012003A93200D2B288547F1C280039001F
:10464000C0B2C9B2884233D35FF0000A00265FF0DF
:1046500000085FF0000919E05046C0B2002802D0FF
:104660000298804510D24E46DDF808805FF0010ABE
:104670000AE002A8009001AB402200214846C0B2E7
:10468000FFF74DFF0028E7D119F101094846C0B2F4
:10469000032806D203A84946C9B2405C0028E8D0E6
:1046A000F2E75FFA8AFABAF1000FC1D1002001E007
:1046B0002670012004B0BDE8F0872DE9FE43040018
:1046C0000E0000208DF804000025002002905FF00D
:1046D0000108002C04D03000C0B2801E3F2801D356
:1046E000002059E0FFF7D0FE02A901A8FFF761FF03
:1046F00000280BD09DF80400401C0325B0FBF5F109
:1047000005FB1105DDF8088018F1010840F214617D
:10471000FF22254FB9464846FEF734FB2348386050
:104720000A207860C7F808803000C0B2F860002026
:1047300038615FF000080FE018214046C0B24843DE
:10474000384414304246D2B201FB02F1214418220F
:10475000FDF7FCFE18F1010840463100C0B2C9B2B5
:104760008842E9D340F2851421003800FFF796FE15
:1047700038612800C0B2FFF7A2FE23003A00010012
:10478000002001F036F80020009000234022002194
:104790002800C0B2FFF7C3FEBDE8FE83C030032887
:1047A000C59D1C8193010001981803285256414E63
:1047B000FEB505000E0014001F0000208DF8040057
:1047C000002D05D0002C03D03000C0B2002801D14C
:1047D000002014E0FFF758FE01A93800C0B2FFF72F
:1047E00012FF002801D1002009E0002000902300E2
:1047F0003200D2B229009DF80400FFF790FEFEBD02
:10480000022801D3012010E00B00DBB2042B01DBF6
:1048100001200AE0DFF8283803EB8000C9B2405CD1
:10482000824201D3012000E000207047F8B5060065
:104830000F0015001C00022E01D301201DE02A00EC
:104840003900C9B23000FFF7DBFF012801D1012098
:1048500013E03800C0B2002812D1B4F5807F0DD229
:10486000DFF8E0077603304400EB850010F5805058
:10487000016864F30F2101600020F2BD0120FCE714
:10488000FFB2012F11D1B4F5803F0CD2DFF8B4078D
:104890007603304400EB850010F5A050016864F306
:1048A00017210160E8E70120E7E70120E5E700B212
:1048B0000012C0B27047F8B505000E0017002800BE
:1048C00000B2FFF7F4FF04002000C0B2022801D3B9
:1048D000012024E03A003100C9B22000C0B2FFF745
:1048E0008FFF012801D1012019E0DFF858172000BF
:1048F000C0B2400308442A00D2B200EB8200D0F8D4
:10490000000CF6B266F3092067F30700E4B2640313
:104910002144EDB201EB8501C1F8000C0020F2BD8D
:1049200070B504000D001600022C01D301201DE01B
:1049300032002900C9B22000FFF762FF012801D12F
:10494000012013E0DFF8FC166003085850F0004027
:1049500050F0407050F47F00EDB265F3092066F32B
:1049600007006203885064030859002070BD10B529
:10497000C0B2002800F0EA80022800F0EB80C0F00E
:10498000E780042800F0EA80C0F0E680062800F006
:10499000E980C0F0E580082800F0E880C0F0E480FD
:1049A0000A2800F0E780C0F0E3800C2800F0E680E1
:1049B000C0F0E2800E2800F0E580C0F0E180102811
:1049C00000F0E480C0F0E080122800F0E380C0F046
:1049D000DF80142800F0E280C0F0DE80162800F0AE
:1049E000E180C0F0DD80182800F0E080C0F0DC80BD
:1049F0001A2800F0DF80C0F0DB801C2800F0DE8089
:104A0000C0F0DA801E2800F0DD80C0F0D9802028B8
:104A100000F0DC80C0F0D880222800F0DB80C0F0FD
:104A2000D780242800F0DA80C0F0D680262800F055
:104A3000D980C0F0D580282800F0D880C0F0D4807C
:104A40002A2800F0D780C0F0D3802C2800F0D68030
:104A5000C0F0D2802E2800F0D580C0F0D180302860
:104A600000F0D480C0F0D080322800F0D380C0F0B5
:104A7000CF80342800F0D280C0F0CE80362800F0FD
:104A8000D180C0F0CD80382800F0D080C0F0CC803C
:104A90003A2800F0CF80C0F0CB803C2800F0CE80D8
:104AA000C0F0CA803E2800F0CD80C0F0C980402808
:104AB00000F0CC80C0F0C880422800F0CB80C0F06D
:104AC000C780442800F0CA80C0F0C680462800F0A5
:104AD000C980C0F0C580482800F0C880C0F0C480FC
:104AE0004A2800F0C780C0F0C3804C2800F0C68080
:104AF000C0F0C2804E2800F0C580C0F0C1805028B0
:104B000000F0C480C0F0C080522800F0C380C0F024
:104B1000BF80542800F0C280C0F0BE80562800F04C
:104B2000C180C0F0BD80582800F0C080C0F0BC80BB
:104B30005A2800F0BF80C0F0BB805C2800F0BE8027
:104B4000C0F0BA805D2800F0BB80BBE01924BFE054
:104B50003124BDE01824BBE03324B9E03524B7E0AC
:104B60001424B5E03724B3E01324B1E02024AFE0EF
:104B70001224ADE02124ABE01124A9E01024A7E029
:104B80002824A5E02924A3E02A24A1E009249FE009
:104B90002B249DE008249BE02C2499E0032497E03B
:104BA000022495E0392493E03B2491E03D248FE0FA
:104BB00001248DE03F248BE0002489E0402487E03D
:104BC000412485E0422483E0432481E0BF247FE048
:104BD00048247DE049247BE0BC2479E0992477E0F7
:104BE0009A2475E0502473E09B2471E0B6246FE0B2
:104BF00051246DE09C246BE0B52469E0522467E009
:104C0000A02465E0B42463E0532461E0B3245FE0B2
:104C100054245DE0B2245BE0B12459E0AD2457E0B8
:104C2000602455E0AE2453E0612451E0AD244FE010
:104C300062244DE063244BE0AB2449E0642447E068
:104C4000AA2445E0652443E0A92441E0A8243FE0EC
:104C500069243DE06B243BE06D2439E06F2437E0AC
:104C6000A32435E0702433E0A22431E071242FE046
:104C7000A1242DE097242BE0962429E0742427E03A
:104C8000952425E0752423E0942421E093241FE05B
:104C900092241DE078241BE0792419E08C2417E08D
:104CA0007A2415E08B2413E07B2411E08A240FE0A2
:104CB0005A240DE059240BE0892409E0582407E028
:104CC000882405E09D22DFF84019002000F076FFDF
:104CD0002000C0B210BD10B5C0B2002800F0EA80BC
:104CE000022800F0EB80C0F0E780042800F0EA80A2
:104CF000C0F0E680062800F0E980C0F0E5800828D2
:104D000000F0E880C0F0E4800A2800F0E780C0F0FE
:104D1000E3800C2800F0E680C0F0E2800E2800F06E
:104D2000E580C0F0E180102800F0E480C0F0E08071
:104D3000122800F0E380C0F0DF80142800F0E28049
:104D4000C0F0DE80162800F0E180C0F0DD80182879
:104D500000F0E080C0F0DC801A2800F0DF80C0F0B6
:104D6000DB801C2800F0DE80C0F0DA801E2800F016
:104D7000DD80C0F0D980202800F0DC80C0F0D88031
:104D8000222800F0DB80C0F0D780242800F0DA80F1
:104D9000C0F0D680262800F0D980C0F0D580282821
:104DA00000F0D880C0F0D4802A2800F0D780C0F06E
:104DB000D3802C2800F0D680C0F0D2802E2800F0BE
:104DC000D580C0F0D180302800F0D480C0F0D080F1
:104DD000322800F0D380C0F0CF80342800F0D28099
:104DE000C0F0CE80362800F0D180C0F0CD803828C9
:104DF00000F0D080C0F0CC803A2800F0CF80C0F026
:104E0000CB803C2800F0CE80C0F0CA803E2800F065
:104E1000CD80C0F0C980402800F0CC80C0F0C880B0
:104E2000422800F0CB80C0F0C780442800F0CA8040
:104E3000C0F0C680462800F0C980C0F0C580482870
:104E400000F0C880C0F0C4804A2800F0C780C0F0DD
:104E5000C3804C2800F0C680C0F0C2804E2800F00D
:104E6000C580C0F0C180502800F0C480C0F0C08070
:104E7000522800F0C380C0F0BF80542800F0C280E8
:104E8000C0F0BE80562800F0C180C0F0BD80582818
:104E900000F0C080C0F0BC805A2800F0BF80C0F095
:104EA000BB805C2800F0BE80C0F0BA805D2800F0B6
:104EB000BB80BBE00824C0E00824BEE00824BCE0BE
:104EC0000824BAE00824B8E00824B6E00824B4E0D6
:104ED0000824B2E00824B0E00824AEE00824ACE0E6
:104EE0000824AAE00824A8E00824A6E00824A4E0F6
:104EF0000824A2E00824A0E008249EE008249CE006
:104F000008249AE0082498E0082496E0082494E015
:104F1000082492E0082490E008248EE008248CE025
:104F200008248AE0082488E0082486E0082484E035
:104F3000082482E0082480E008247EE008247CE045
:104F400008247AE0082478E0082476E0082474E055
:104F5000082472E0082470E008246EE008246CE065
:104F600008246AE0082468E0082466E0082464E075
:104F7000082462E0082460E008245EE008245CE085
:104F800008245AE0162458E0082456E0082454E087
:104F9000082452E0082450E008244EE008244CE0A5
:104FA00008244AE0082448E0082446E0082444E0B5
:104FB000082442E0082440E008243EE008243CE0C5
:104FC00008243AE0082438E0082436E0082434E0D5
:104FD000082432E0082430E008242EE008242CE0E5
:104FE00008242AE0082428E0082426E0082424E0F5
:104FF000082422E0082420E008241EE008241CE005
:1050000008241AE0082418E0082416E0082414E014
:10501000082412E0082410E008240EE008240CE024
:1050200008240AE0082408E0082406E04FF4867209
:10503000DFF8D415002000F0C1FD2000C0B210BD83
:105040003CFE08100000044080B5C0B2002800F00B
:10505000EA80022800F0EB80C0F0E780042800F02E
:10506000EA80C0F0E680062800F0E980C0F0E58024
:10507000082800F0E880C0F0E4800A2800F0E7800B
:10508000C0F0E3800C2800F0E680C0F0E2800E283B
:1050900000F0E580C0F0E180102800F0E480C0F06E
:1050A000E080122800F0E380C0F0DF80142800F0D8
:1050B000E280C0F0DE80162800F0E180C0F0DD80E4
:1050C000182800F0E080C0F0DC801A2800F0DF80B3
:1050D000C0F0DB801C2800F0DE80C0F0DA801E28E3
:1050E00000F0DD80C0F0D980202800F0DC80C0F026
:1050F000D880222800F0DB80C0F0D780242800F080
:10510000DA80C0F0D680262800F0D980C0F0D580A3
:10511000282800F0D880C0F0D4802A2800F0D7805A
:10512000C0F0D3802C2800F0D680C0F0D2802E288A
:1051300000F0D580C0F0D180302800F0D480C0F0DD
:10514000D080322800F0D380C0F0CF80342800F027
:10515000D280C0F0CE80362800F0D180C0F0CD8063
:10516000382800F0D080C0F0CC803A2800F0CF8002
:10517000C0F0CB803C2800F0CE80C0F0CA803E2832
:1051800000F0CD80C0F0C980402800F0CC80C0F095
:10519000C880422800F0CB80C0F0C780442800F0CF
:1051A000CA80C0F0C680462800F0C980C0F0C58023
:1051B000482800F0C880C0F0C4804A2800F0C780AA
:1051C000C0F0C3804C2800F0C680C0F0C2804E28DA
:1051D00000F0C580C0F0C180502800F0C480C0F04D
:1051E000C080522800F0C380C0F0BF80542800F077
:1051F000C280C0F0BE80562800F0C180C0F0BD80E3
:10520000582800F0C080C0F0BC805A2800F0BF8051
:10521000C0F0BB805C2800F0BE80C0F0BA805D2882
:1052200000F0BB80BBE00020C0E00020BEE0012019
:10523000BCE00120BAE00220B8E00320B6E0032081
:10524000B4E00420B2E00420B0E00520AEE0052088
:10525000ACE00620AAE00720A8E00920A6E00A208A
:10526000A4E00B20A2E00B20A0E00C209EE00C208C
:105270009CE00D209AE00D2098E00E2096E00F2093
:1052800094E0102092E0112090E011208EE0122096
:105290008CE012208AE0132088E0142086E015209C
:1052A00084E0162082E0162080E018207EE019209D
:1052B0007CE019207AE01A2078E01B2076E01C20A0
:1052C00074E01C2072E01C2070E01D206EE01D20A8
:1052D0006CE01D206AE01E2068E01E2066E01E20B3
:1052E00064E01F2062E01F2060E020205EE02020BC
:1052F0005CE021205AE0222058E0242056E02420BF
:1053000054E0252052E0252050E026204EE02720C2
:105310004CE027204AE0282048E0282046E02920C9
:1053200044E0292042E02A2040E02C203EE02D20CD
:105330003CE02E203AE02F2038E02F2036E03020CD
:1053400034E0302032E0312030E031202EE03220D5
:105350002CE033202AE0342028E0342026E03520D9
:1053600024E0352022E0362020E037201EE03820DF
:105370001CE039201AE0392018E03A2016E03A20E3
:1053800014E03B2012E03B2010E03B200EE03C20EC
:105390000CE03C200AE03D2008E03D2006E040F221
:1053A0007B129949002000F009FC0020C0B202BD28
:1053B000002007E09549C2018A5822F00042C3014B
:1053C000CA50401C3F28F5DB704770B504000E0042
:1053D000002000202000C0B2FFF736FE8B4DC0B287
:1053E000C0012844006A80B206FB00F642F2107049
:1053F000B6FBF0F62000C0B2FFF726FEC00128443D
:10540000B6B246612000C0B2FFF71EFE0100C9B26D
:10541000C9012944096C51F00101C0B2C0012844FE
:10542000016470BD2DE9F041AAB004000D00160022
:10543000342100221DAF3800FDF7A4FC00207421A8
:1054400000226F463800FDF79DFC0E201E902000C4
:10545000C0B2FFF740FC8DF87C002000C0B2FFF71F
:1054600086FA07005FF008082000C0B2FFF77FFA55
:105470001DAA97FBF8F108FB11773900644BC0B205
:10548000C010C001184400F0B6FC2000C0B2FFF705
:10549000DBFD00220121C0B210F5937000B2FFF7CE
:1054A0000AFA2000C0B2FFF7CFFDC0B210F593702A
:1054B00000B2FFF7FCF9092300220121C0B2FFF777
:1054C000B5F92000C0B2FFF7BFFDC0B210F5937070
:1054D00000B2FFF7ECF900220121C0B2FFF720FA79
:1054E0004C48B0FBF5F1090C4A482A04B0FBF2F332
:1054F00002FB1300002800D0491C022903D200201F
:105500008DF801002FE0032903D201208DF801005E
:1055100029E0052903D202208DF8010023E00929A2
:1055200003D203208DF801001DE0112903D20420CD
:105530008DF8010017E0212903D205208DF8010024
:1055400011E0412903D206208DF801000BE08129EA
:1055500003D207208DF8010005E040F2C9122A4964
:10556000002000F02BFB04208DF8000001208DF8B6
:10557000100000208DF8110003208DF81200032088
:105580008DF8130000208DF80800224901229DF9B2
:1055900001008240B1FBF2F0B0FBF5F0401E059037
:1055A0000598401C06FB00F642F21070B6FBF0F0C6
:1055B000089002208DF8400003208DF8680001203B
:1055C0001B9001208DF828002000C0B2FFF73CFDA1
:1055D0000E4D6946C0B2C001284400F04BFC2000CB
:1055E000C0B2FFF731FDC0B2C001284400F042FD57
:1055F0002000C0B2FFF728FDC0B2C001284400F06F
:105600003EFD2AB0BDE8F08178F80810000058404F
:105610000000314000127A001AA210EE101A43F274
:10562000A40CC3F6896CF2EC060A614509DB00EEB6
:10563000803A70EE800A83EE200A40F0020010EEFD
:10564000101A4900D1F1E6410BD860EE000A20EEB5
:10565000203A03EE010A01EEA02A42EE202A80EE53
:10566000220A400810F0020F18BFB1EE400A02EB08
:105670008002D2ED000A30EE200A28BFB1EE400AC7
:1056800070470000D7B3DD3F6AD5033F2B94A93D97
:10569000B82A593F0000803F000080BF0000000092
:1056A000920A063FDB0FC93F920A863FDB0FC93FD4
:1056B000920A0640DB0F4940368D274000B500BFF7
:1056C000130096469446103928BFA0E80C50FAD82B
:1056D0005FEA417C28BF0CC048BF40F8042BC907D3
:1056E00028BF20F8022B48BF00F8012B00BD0000A6
:1056F00038B50C00602C01D2012000E00020604D84
:1057000036222900C0B200F059FA372229005D483C
:10571000007800F053FA0121E40214F1A0542000B3
:1057200000F064FD002801D1012000E00020C0B29B
:1057300032BD38B50C00602C01D2012000E0002001
:105740004F4D46222900C0B200F038FA4722290006
:105750004C48007800F032FA0121E40214F1A05420
:10576000200000F004FD31BDF8B50E0014001D004E
:105770000020602E01D2012000E00020404F59227D
:105780003900C0B200F01AFA40F20120854201D27D
:10579000012000E000205A223900C0B200F00EFAC9
:1057A0005B2239003748007800F008FA5FF0A0501B
:1057B000F602B60800EB8601AA000B00012A0EDBF8
:1057C00013F01F008218BFF34F8F2F480360203360
:1057D000203A012AF9DABFF34F8FBFF36F8F002011
:1057E00004E051F820202260241D401CA842F8D378
:1057F000F1BD2DE9F04107000C0015001E00602CE2
:1058000001D2012000E00020DFF8748074224146BC
:10581000C0B200F0D3F940F20120864201D201204B
:1058200000E0002075224146C0B200F0C7F97622A0
:1058300041461448007800F0C1F921003800FFF714
:1058400057FF002803D021003800FFF772FFE40261
:1058500014F1A054002707E001222900200000F0E5
:105860000BFD241D2D1D7F1CB742F5D3BDE8F08133
:1058700080B5002000F05DFC01200249087001BDE8
:1058800008F70810E13003285CEF00E082B0002048
:105890000190002000900020019009E00098401C39
:1058A00000900098B0F5005FF8D30198401C01907B
:1058B0000198B0F5805F02D200200090F1E702B0BD
:1058C000704780B50100002001F01CF801BD2DE9F2
:1058D000F043ADF5137D0700884616001C0000203C
:1058E000ADF802000020ADF800000020029000207A
:1058F000ADF804000020ADF80600404601F0F6FACD
:105900000290DFF8A0532888002801D0286980473A
:10591000DFF894030078002800F0338128880028FD
:1059200000F01181BDF90600411CADF806103A00E7
:10593000010089B20020EB6898474746404601F0D5
:10594000D5FA02906888A97990FBF1F0ADF80400CF
:105950003800471C00780028FAD10020ADF800007C
:105960000EE07F1E38782F2802D038785C2804D1CA
:10597000BDF80000401CADF800000298401E0290E7
:10598000BDF80000022802DA02980028E9D5029842
:10599000002806D47A1CDFF8141353A801F0C2FAC9
:1059A0000EE0BDF80000002805D13A00C04953A818
:1059B00001F0B8FA04E03A00BC4953A801F0B2FA89
:1059C0000020ADF8020042E0BDF80010BDF8002054
:1059D000BDF8023053AF9BB2BDF90400434313FA44
:1059E00082F0385C43AA89B25054BDF80000401CD4
:1059F000ADF80000BDF8000080B2BDF90410884287
:105A00000EDA53A801F072FABDF80020BDF802309A
:105A10009BB2BDF904104B4313FA82F18842D3D2F2
:105A2000002043A9BDF800208854BDF90600411CA0
:105A3000ADF8061043AAE97911FB00F189B2002004
:105A4000EB689847BDF80200401CADF80200BDF8B5
:105A5000027053A801F04AFABDF90410B0FBF1F04E
:105A6000401CBFB2874203D20020ADF80000C1E75E
:105A70003200904953A801F055FABDF90600411CC7
:105A8000ADF8061053AAE97911FB00F189B20020A4
:105A9000EB689847002C74D00020ADF8020041E07C
:105AA000BDF80010BDF80020BDF802309BB2BDF972
:105AB0000400434313FA82F0205C43AA89B2505495
:105AC000BDF80000401CADF80000BDF8000080B239
:105AD000BDF9041088420EDA200001F007FABDF883
