:020000041008E2
:100000000000082829D508109DE00810C1DD08105F
:10001000A1E00810A5E00810A9E008100000000009
:100020000000000000000000000000006DDE08106D
:10003000ADE0081000000000B1E00810B5E00810C5
:1000400053CD081079CD08109FCD0810C5CD0810EC
:10005000EBCD081011CE081037CE08105DCE081079
:10006000B9E00810BDE00810C1E00810C5E00810B4
:10007000C9E00810CDE00810D1E00810D5E0081064
:1000800040F0200070472DE9F14FB0B09246049146
:100090000DF142013A9A2B9199464A7000200AE0EC
:1000A0001AF8011B0498309A90470028049000F039
:1000B00034860D98401C0D909AF8000050B1252808
:1000C000EED1002100220791089209910A920B912A
:1000D0000C9204E00D9800F022BE41F001011AF8E4
:1000E000010F2028F9D023280CD02B2804D02D284C
:1000F00005D0302809D00BE041F00201EFE741F0D4
:100100000401ECE741F00801E9E741F01001E6E7FE
:100110002A280FD1D9F8002052F8040BC9F8002082
:1001200000280F9003D540420F9041F004010AF1DE
:10013000010A14E00F92DFF8EC3B0AE00F989842B6
:1001400005DA00EB800402EB4402303A0F920AF128
:10015000010A9AF80020A2F130000A28EED39AF89A
:1001600000002E2803D04FF0FF320E9229E01AF83B
:10017000010F2A2809D1D9F8000050F8042BC9F83A
:1001800000000E920AF1010A1BE02D280CBF0AF1B3
:10019000010A002000220E92DFF8884B0BE040B9E4
:1001A0000E9AA24205DA02EB820503EB4503303BCF
:1001B0000E930AF1010A9AF80030A3F130020A2ADC
:1001C000EDD3ADF840100FF660309AF8001000F053
:1001D000EDFE08B11AF8010B8DF842009DF84200BF
:1001E000682805D19AF8000068280CD1622106E041
:1001F0006C2804BF9AF800006C2804D171218DF896
:1002000042100AF1010A12A806901AF801BBBBF1CC
:1002100025012CD01C3900F09481091F022940F2DD
:100220009081133900F0AB84093900F08A81891E6E
:1002300000F04085491E00F0ED84491E022940F27D
:100240008081091F00F0E684491F00F0EF80491EFD
:1002500000F09584491E00F0D780C91E0CD0891E7D
:1002600000F08D84C91E00F08A8400F02EBD0123A9
:100270000793252100F026BDD9F8000050F8044B63
:10028000C9F80000002C059440F0AB802B99487809
:10029000002800F0A1804FF0FF340FF6942000F00A
:1002A00095FE241A40F0398500F01BBD01236A46F3
:1002B00002A9304600F000FE002840F02E85641EA2
:1002C000F4D13096079C12AF74B1309E17F8011B21
:1002D0000498B0470028049000F01F850D98401C3A
:1002E000641E0D90F2D130960A9C3021002C8DF8BE
:1002F00000100CDD309E01236A4602A9304600F052
:10030000DBFD002840F00985641EF4D13096059F7E
:10031000089C74B1309E17F8011B0498B047002860
:10032000049000F0FA840D98401C641E0D90F2D1E8
:1003300030960B9C3021002C8DF800100CDD309E87
:1003400001236A4602A9304600F0B6FD002840F0BD
:10035000E484641EF4D1309605980899099C4718E6
:1003600074B1309E17F8011B0498B0470028049020
:1003700000F0D3840D98401C641E0D90F2D130968D
:100380000C9C3021002C8DF800100CDD309E0123D8
:100390006A4602A9304600F08FFD002840F0BD8477
:1003A000641EF4D130969DF8400041077FF584AE7D
:1003B0002020002D8DF800007FF77EAE309C0123B9
:1003C0006A4602A9204600F077FD002840F0A58487
:1003D0006D1EF4D130946FE60FF63C30059000F0BE
:1003E00080BC0E9D002D04D5204600F00FFE044673
:1003F00007E02A46204600F025FE002814BF041B13
:100400002C46089400F06DBCD9F8001051F8040B8C
:10041000C9F8001020F00004002121F0FF35CDE9DB
:10042000024512AB0593782100F040BC2B99487827
:1004300020B14FF0FF340FF6B02030E79DF84200B6
:10044000622860D0682817D06A283FD06C2806D070
:10045000712847D074282CD07A281DD062E0D9F8B2
:10046000001051F8040BC9F80010002866D14FF0B5
:10047000FF340FF68C2012E7D9F8001051F8040B66
:10048000C9F8001020B94FF0FF340FF6742006E7CA
:100490000D99018000F025BCD9F8001051F8040B2B
:1004A000C9F80010002849D14FF0FF340FF6502052
:1004B000F5E6D9F8001051F8040BC9F8001000282F
:1004C0003CD14FF0FF340FF63820E8E6D9F80010A1
:1004D00051F8040BC9F8001080B94FF0FF340FF643
:1004E0002020DCE6D9F8001051F8040BC9F8001000
:1004F00020B94FF0FF340FF60820D0E60D9AD3173D
:10050000C0E90023EDE3D9F8001051F8040BC9F855
:10051000001020B94FF0FF340FF6E410BFE60D993C
:100520000170DEE3D9F8001051F8040BC9F800108F
:1005300020B94FF0FF340FF6C810B0E60D990160F6
:10054000CFE39DF842004C2807BFD9F80010CA1D20
:10055000D9F80000C21D22F00702C9F80020D2E934
:1005600000010832C9F80020CDE90201C80F02D00D
:1005700007982D210AE0BDF84000810702D50798B1
:100580002B2103E0C00705D50798202112AA11549A
:10059000401C079012A807994BF0200300EB010CB8
:1005A000DDE90201CDE92C01612BCDF814C021ACAD
:1005B0000BD00E98002848BF062105D404BF4BF08D
:1005C0002000672801D101210E91DDE902014F00D1
:1005D00047EAD0777E15FF174FF0FF32974208BFEA
:1005E000964210D1090341EA10510003002908BFC7
:1005F000002808D0ABF1610503211A2D089118D30A
:100600000FF61C1110E0DDE902014A00521512F14B
:10061000010F11D108030FD1ABF1610503211A2D90
:1006200008911FD30FF600110322604600F036FD3B
:1006300057E30FF6E801F7E7DDE902016A4600F04B
:1006400081FDCDE902014BF02000612811D1059810
:1006500030210170821C0592BBF1610F0CBF782123
:10066000582102E00FF6BC01DEE741700798801CBC
:100670000790DDE9020120F0000231F0004308BFDD
:10068000002A02D10026002542E14BF02008B8F1F3
:10069000610F40F092800E98002847BF2121019100
:1006A000401C0190019FDDE92C017F1C00220023EA
:1006B000DDE9024500F07EFD38BF85F00045009978
:1006C0008DF88420091F002F00910DF1850632DD81
:1006D000204629460022002300F086FD2BD21C2252
:1006E00000F09CFD04460D4600F01AFEFF1F002F8F
:1006F000804609DD00F01BFE02460B4620462946D7
:1007000000F01CFE04460D46F01D0721B8F1000F55
:100710000CDD491E5EBF08F00F0200F8012D4FEA04
:100720002818F3D502E0002200F8012D491EFAD561
:10073000C61D002FCCDC0DF18500361A01980DF195
:1007400085048642D8BF304600282FD4B04206DA4E
:100750000DF185010A5C082AA8BF0F2100DA0021EB
:10076000024621AB134400E0401E13F80159521E0B
:100770008D42F9D00F2904D10DF185018B5C5B1CF2
:100780008B54002A04D50099091D21AC401C00910E
:10079000411E0BD4621813783033DDB23A2DA4BF5A
:1007A0005B443A3B491E02F80139F4D50E99002901
:1007B00040F1AC80421E0E92A8E00099DFF8E826D6
:1007C00047F29750414391FBF2F20092DDE92C454C
:1007D000C2F10702002A25F0004504DD2046294623
:1007E00000F03EFB0BE052420020DFF8C01600F0A4
:1007F00037FB02460B462046294600F0A8FD04467A
:100800000D46B8F1660F06BF009F0A3706270E98FF
:100810003F18142FC8BF142730208DF884000DF125
:100820008506002F34DD2046294600F099FD01465B
:100830000A4606F1080304200A26B2FBF6F606EB88
:10084000860EA2EB4E02303203F8012C0A22B6FBD0
:10085000F2F202EB820EA6EB4E063036401E03F893
:10086000026DE9D1083F002F03F10806D9DD0846E3
:1008700000F07DFD02460B462046294600F05EFD55
:100880000022DFF82C3600F079FD04460D46CAE759
:100890000DF18500361A0DF1850404E00098401E24
:1008A000761E0090641C20783028F7D0B8F1660FCF
:1008B00002D10098401C04E0B8F1650F0CBF012084
:1008C00000200E9940188642B8BF701E00281DD423
:1008D000B04204DA215C3429C8BF392100DC302160
:1008E0000246631E9D1800E0401E15F80169521E65
:1008F0008E42F9D0392902D1A15C491CA154002AA9
:1009000004D50099491C1C46401C00910646009DD8
:100910000E9F30B2002802DC01260FF210644BF06B
:100920002000662808BF6D1C15D067280FFA85F8CF
:1009300041D118F1040F44DBB84542DA9DF840007C
:100940006D1C010703D430B2B842D8BF074628B2A5
:100950003F1A48BF00270FFA85F8B8F1000F00F3DF
:10096000AF800898411C0891302205990A54002F45
:1009700003DC9DF84000010705D50898411C08914B
:100980002E2205990A5417EB080FB8BF7D422DB2ED
:100990006842ED1932B20B909542B8BF2E46059BC6
:1009A000089836B2099632462146184400F076FB84
:1009B000AD1B0C95CCE0BBF1610F15D14FF0700B66
:1009C00017E030B2B84204DA9DF840100A0758BF69
:1009D00007467F1E48BF0027BBF1670F14BF4FF0CB
:1009E000450B4FF0650B04E0BBF1410F08BF4FF022
:1009F000500B0898411C0891002F059914F8012B01
:100A00000A5403DC9DF84000010719D50898411CE1
:100A100008912E2205990A54002F11DD761E30B25E
:100A20008742B8BF3E460598089B32B2214618441B
:100A300000F034FB089836B23018BF1B08900B97B3
:100A4000059808990844B8F1000F80F800B003D465
:100A50002B224270821C04E02D2145464170821CED
:100A60006D4200212CAB28460AE004460A2094FB84
:100A7000F0F000EB8005A4EB450403F8014B491CA2
:100A800000B20028F1DC012906DC4BF020006528CB
:100A900004BF302002F8010B00292CAB08D1302014
:100AA00002F8010B06E0491E585C303002F8010BD9
:100AB0000029F8DC059908980844121A099247E0C1
:100AC00030B229B288421BDA0598089B32B221461F
:100AD000184400F0E3FA089936B271180891A8EBAF
:100AE0000600002F0B9003DC9DF84000020705D59F
:100AF000059A2E2050540999491C09910C9727E01A
:100B00000598089B2AB22146184400F0C7FA0898B5
:100B1000761B4044002F089003DC9DF840100A0724
:100B200004D5411C08912E2205990A5430B28742FF
:100B3000B8BF3E460598089B32B204EB0801184442
:100B400000F0ACFA089836B23018BE1B08900B962D
:100B50009DF8400000F01400102840F0C280079A71
:100B600008980B99821809988A1882180C980F997E
:100B70008018884280F2B580081A0A90B1E09DF88A
:100B80004200622808D068280ED06A2814D06C2849
:100B90001FD0712810D01CE0D9F8001051F8040BB8
:100BA000C9F80010C0B21AE0D9F8001051F8040BCF
:100BB000C9F8001080B212E0D9F80000C21D22F07E
:100BC0000702C9F80020D2E900010832C9F8002064
:100BD00006E0D9F8001051F8040BC9F80010002104
:100BE000CDE902019DF8400001075AD5DDE9022355
:100BF000002B08BF002A54D04BF02000782850D199
:100C0000079812A930220A54401C431C079301F88C
:100C100000B046E09DF84200622808D068280ED057
:100C20006A2814D06C281FD0712810D01CE0D9F885
:100C3000001051F8040BC9F8001040B21AE0D9F8BE
:100C4000001051F8040BC9F8001000B212E0D9F8F6
:100C50000000C21D22F00702C9F80020D2E90001FD
:100C60000832C9F8002006E0D9F8001051F8040B4A
:100C7000C9F80010C117CDE90201002902D5079873
:100C80002D210AE0BDF84000810702D507982B21ED
:100C900003E0C00705D50798202112AA1154401C73
:100CA000079012A8079901440591594602A800F03F
:100CB0004DF816E001200790D9F8000050F8041B09
:100CC000C9F800008DF848100BE001212522BBF186
:100CD000000F07918DF8482003D0022207928DF86B
:100CE00049B00F9D07990A986D1A08992D1A0B980B
:100CF0006D1A09992D1A0C986D1A9DF840102D1A2D
:100D000048073FF5DFAA2021002D8DF800107FF75E
:100D1000D9AA309E2C46FFF7C9BA4FF0FF3031B048
:100D2000BDE8F08FCBCCCC0C686A6C747A4C0000B8
:100D30007072696E74665F733A2062616420257315
:100D400020617267756D656E740000002DE9FC47C7
:100D500007468A463C6950466F2808BF082505D0DB
:100D6000FFF78EF9782814BF0A251025D7E900016E
:100D70003C2680468946BAF1640F18BFBAF1690F64
:100D800005D1002903D5D8F1000869EB4909B9F16B
:100D9000000F08BFB8F1000F0CD1386B50B9082D07
:100DA0003AD197F83800010736D530223B2684F82F
:100DB0003B2031E08DF800A0404649462A46EB171B
:100DC00000F0E6FA3032D0B2761E3A2801960EDAFA
:100DD000A255404649462A46EB1700F0D9FA80460C
:100DE0005FEA010908BFB8F1000F05D108E09DF8DE
:100DF00000001218513AEBE7F868A1198842DBD3DA
:100E0000082D09D197F83800010705D5A05D3028D5
:100E100002D0761E3020A055C6F13C03BB61A1195B
:100E2000F960386B834208DAC31A3B624FF6EF7001
:100E3000398F01403987BDE8F38700280ED597F830
:100E4000380000F01400102808D17A6B7969386AEC
:100E5000521A121AD21A002AC8BF3A62BDE8F387A2
:100E60002DE9D04306460F4614464FF00008DFF840
:100E7000449012E0E00707D542464B4630463946DB
:100E800000F07CFA06460F464046494642464B462D
:100E900000F074FA641080468946002CEAD130468E
:100EA0003946BDE8D0830000A08601000000F03F75
:100EB00084D7974100002440F8B505460E461746F2
:100EC0001C4600205CB117F8011BB068A847B06051
:100ED00030B1F06A401CF0620020641EF3D1F2BD14
:100EE0004FF0FF30F2BD00007072696E74665F7380
:100EF0003A20256E20646973616C6C6F77656400BD
:100F00007072696E74663A2062616420256E206199
:100F10007267756D656E7400000000006E616E0092
:100F20004E414E00696E6600494E46003000F0B4F6
:100F30000246106895681318506803EB5004C00708
:100F400048BF4D44A3422DD013F8016B16F00300A7
:100F500004BF13F8010BC01C31090F2907D113F886
:100F6000011B0F3103E013F8017B05F8017B401EE4
:100F7000F9D10029E6D013F8010BC6F38106032E40
:100F800008BF13F8016B00EB0620404228440026FE
:100F9000B71E8F421EBF10F8017B05F8017B761C3F
:100FA000F6D1CFE7F0BC02F10C007047C9B202786D
:100FB0008A421AB11CBF10F8012FF9E718BF0020B0
:100FC00070470268531C03601170704780B500B908
:100FD00006A005490B681BB122220021984701E0B9
:100FE00000F0EEFA222002BDDC2A0328636F6E7344
:100FF000747261696E742068616E646C65723A2007
:10100000626164206D6573736167650000F10103BF
:10101000810704D010F8011B820781B1FAD1026860
:10102000A2F10131914311F0803104BF50F8042F37
:10103000F6E709BAB1FA81F100EBD100401CC01A01
:1010400070470000C9B2830706D0521E22D310F8A1
:10105000013B9942F7D11FE0083A13D302F1040291
:1010600041EA012141EA014150F8043B121F21BF2E
:101070004B40A3F1013C2CEA030C1CF0803FF3D061
:10108000C9B2001F083210F8013B521E28BF91EA76
:10109000030FF8D818BF0120401E704762B38B07BA
:1010A00008D0521E11F8013B00F8013B00F02480EB
:1010B0008B07F6D1830740F0208000BF103A07D39A
:1010C00030B4B1E83810103AA0E83810F9D230BC8A
:1010D000530724BFB1E80810A0E8081044BF51F836
:1010E000043B40F8043BD20724BF31F8022B20F820
:1010F000022B44BF0B7803707047121F17D35B009D
:1011000009D151F8043B20F8023B1B0C121F20F8B8
:10111000023BF6D20BE051F8043B00F8013B1B0AFE
:1011200020F8023B1B0C121F00F8013BF3D238BF22
:10113000121D521E24BF11F8013B00F8013BF8D8E4
:101140007047000010B5144600F002F8226010BD90
:10115000C1F30A5343B14A0012F5001F28D2A3F28B
:10116000FE32A1EB0251704750EA410C20D001F051
:10117000004C31EA0C01B1FA81F204BFB0FA80F3FD
:10118000D2180B3AB2F120032CBF00FA03F19140C0
:1011900041EA0C013EBFC2F1200C20FA0CF31943C6
:1011A0009040524240F2FD33D21A01EB0351704796
:1011B0000022704741EA030C50EA4C0C52EA0C0C36
:1011C0004FF4001C09D307D01CEB410F9CBF1CEB54
:1011D000430F8B4208BF824270471CEB430FFBD882
:1011E000994208BF9042704741EA030C50EA4C0C08
:1011F00052EA0C0C4FF4001C09D307D01CEB410F32
:101200009CBF1CEB430F994208BF904270471CEBF8
:10121000410FFBD88B4208BF8242704700B541ECBA
:10122000100B104600F004F851EC100B00BD00BF8D
:10123000020030EE101B40F2FF7C37D41CEA115341
:1012400013D063456BD09B18634504D201EB025168
:1012500020EE101B704701F0004141EA0C510020C4
:1012600041EC100BAFF30080704710EE100B50EA0A
:10127000410054D0B2F57F7F08D202EB5C01090532
:10128000002041EC110B20EE010B70474FF0FE41A6
:10129000002341EC113B20EE010BB2F57E7230EEE3
:1012A000101B4FEA410342EB5353CDE752421CEA75
:1012B000115316D0634532D09A4204D2A1EB0251A9
:1012C00020EE101B70475B1ED21AA1EB035120EEDB
:1012D000101B372A0CD3002001F0004141EC100B09
:1012E000C0E710EE100B50EA410018D0372AF2D2B6
:1012F000C2EB5C021105002041EC110BF1EE100A6B
:1013000020F01F0121F4F851E1EE101A20EE010B3C
:10131000F1EE101AE1EE100A11F0080FA2D1704799
:1013200041EC100BBDEEC00B10EE100A704700EE42
:10133000100AB8EEC00B51EC100B704741EC100BCB
:1013400043EC112B30EE410B51EC100B704741EC8C
:10135000100B43EC112B80EE010B51EC100B70477E
:1013600041EC100BBCEEC00B10EE100A704700EE03
:10137000100AB8EE400B51EC100B704741EC100B0B
:1013800043EC112B20EE010B51EC100B70470000C9
:10139000BBBBE1B1B2F5803F80F07E80022A1ED94E
:1013A0008C46B1FBF2F102FB11C31B0443EA10436C
:1013B000B3FBF2FC02FB1C3380B240EA0343B3FBF5
:1013C000F2F002FB103240EA0C4000237047022A80
:1013D00005D98446B0FBF2F002FB10C270474AB157
:1013E00005D100F0010249085FEA30007047002291
:1013F0000023704700F0E8B80B0002000021002035
:101400007047904271EB030CF6D3B3F5803F2FD2B7
:10141000F0B5B3FA83F7B1FA81F4A7F10F0E3D1BD3
:101420005340CEF1200602FA0EF2F3415340B5F1DB
:101430000F0746D80F3C2C444140C4F12006A04081
:10144000F1414140B1FBF3F603FB1611A2FB064547
:10145000001BA94102D2761E8018594180EA010280
:1014600021FA0EF362FA0EF200215A403046F0BD26
:1014700030B4B1FBF3FC03FB1C11A2FB0C45001BB9
:10148000A94103D2ACF1010C8018594130BC02468D
:101490000B46604600217047B2F1807F65D3F0B5FE
:1014A000B2FA82F7B1FA81F4C7F10F063D1B22FAB6
:1014B00006F307F1110EF24120355A40B5F10F073E
:1014C000B8D94140C4F12006A040F1414140B1FBF0
:1014D000F3FC03FB1C11A2FB0C45001BA94103D22A
:1014E000BCF1010C801859410F2F12D30F3FC903D3
:1014F00041EA5041B1FBF3F603FB1611A2FB06458E
:10150000D4EBC030A94102D2761E8018594146EA78
:10151000CC3C07B34140C7F12006B840F1414140FF
:10152000B1FBF3F603FB1611A2FB0645001BA94114
:1015300002D2761E8018594180EA010221FA0EF388
:10154000C7F1200462FA0EF20CFA07F05A402CFAA6
:1015500004F13043F0BD80EA010221FA0EF30021CC
:1015600062FA0EF260465A40F0BD8C46B1FBF2F1D1
:1015700002FB11C31B0243EA1063B3FBF2FC02FB44
:101580001C331B024CEA002043EA1063B3FBF2FC5D
:1015900002FB1C331B024CEA002043EA1063B3FB3E
:1015A000F2FC02FB1C331B024CEA002043EA1063EE
:1015B000B3FBF2FC02FB1C324CEA00200023704714
:1015C000012000F003B800007047000080B5AFF3C1
:1015D0000080024A11001820ABBEFBE72600020083
:1015E000022801D3012010E00B00DBB2042B01DB49
:1015F00001200AE0DFF8283803EB8000C9B2405C24
:10160000824201D3012000E000207047F8B50600B7
:101610000F0015001C00022E01D301201DE02A003E
:101620003900C9B23000FFF7DBFF012801D10120EA
:1016300013E03800C0B2002812D1B4F5807F0DD27B
:10164000DFF8E0077603304400EB850010F58050AA
:10165000016864F30F2101600020F2BD0120FCE766
:10166000FFB2012F11D1B4F5803F0CD2DFF8B407DF
:101670007603304400EB850010F5A050016864F358
:1016800017210160E8E70120E7E70120E5E700B264
:101690000012C0B27047F8B505000E001700280010
:1016A00000B2FFF7F4FF04002000C0B2022801D30B
:1016B000012024E03A003100C9B22000C0B2FFF797
:1016C0008FFF012801D1012019E0DFF85817200011
:1016D000C0B2400308442A00D2B200EB8200D0F826
:1016E000000CF6B266F3092067F30700E4B2640366
:1016F0002144EDB201EB8501C1F8000C0020F2BDE0
:1017000070B504000D001600022C01D301201DE06D
:1017100032002900C9B22000FFF762FF012801D181
:10172000012013E0DFF8FC166003085850F0004079
:1017300050F0407050F47F00EDB265F3092066F37D
:1017400007006203885064030859002070BD10B57B
:10175000C0B2002800F0EA80022800F0EB80C0F060
:10176000E780042800F0EA80C0F0E680062800F058
:10177000E980C0F0E580082800F0E880C0F0E4804F
:101780000A2800F0E780C0F0E3800C2800F0E68033
:10179000C0F0E2800E2800F0E580C0F0E180102863
:1017A00000F0E480C0F0E080122800F0E380C0F098
:1017B000DF80142800F0E280C0F0DE80162800F000
:1017C000E180C0F0DD80182800F0E080C0F0DC800F
:1017D0001A2800F0DF80C0F0DB801C2800F0DE80DB
:1017E000C0F0DA801E2800F0DD80C0F0D98020280B
:1017F00000F0DC80C0F0D880222800F0DB80C0F050
:10180000D780242800F0DA80C0F0D680262800F0A7
:10181000D980C0F0D580282800F0D880C0F0D480CE
:101820002A2800F0D780C0F0D3802C2800F0D68082
:10183000C0F0D2802E2800F0D580C0F0D1803028B2
:1018400000F0D480C0F0D080322800F0D380C0F007
:10185000CF80342800F0D280C0F0CE80362800F04F
:10186000D180C0F0CD80382800F0D080C0F0CC808E
:101870003A2800F0CF80C0F0CB803C2800F0CE802A
:10188000C0F0CA803E2800F0CD80C0F0C98040285A
:1018900000F0CC80C0F0C880422800F0CB80C0F0BF
:1018A000C780442800F0CA80C0F0C680462800F0F7
:1018B000C980C0F0C580482800F0C880C0F0C4804E
:1018C0004A2800F0C780C0F0C3804C2800F0C680D2
:1018D000C0F0C2804E2800F0C580C0F0C180502802
:1018E00000F0C480C0F0C080522800F0C380C0F077
:1018F000BF80542800F0C280C0F0BE80562800F09F
:10190000C180C0F0BD80582800F0C080C0F0BC800D
:101910005A2800F0BF80C0F0BB805C2800F0BE8079
:10192000C0F0BA805D2800F0BB80BBE01924BFE0A6
:101930003124BDE01824BBE03324B9E03524B7E0FE
:101940001424B5E03724B3E01324B1E02024AFE041
:101950001224ADE02124ABE01124A9E01024A7E07B
:101960002824A5E02924A3E02A24A1E009249FE05B
:101970002B249DE008249BE02C2499E0032497E08D
:10198000022495E0392493E03B2491E03D248FE04C
:1019900001248DE03F248BE0002489E0402487E08F
:1019A000412485E0422483E0432481E0BF247FE09A
:1019B00048247DE049247BE0BC2479E0992477E049
:1019C0009A2475E0502473E09B2471E0B6246FE004
:1019D00051246DE09C246BE0B52469E0522467E05B
:1019E000A02465E0B42463E0532461E0B3245FE005
:1019F00054245DE0B2245BE0B12459E0AD2457E00B
:101A0000602455E0AE2453E0612451E0AD244FE062
:101A100062244DE063244BE0AB2449E0642447E0BA
:101A2000AA2445E0652443E0A92441E0A8243FE03E
:101A300069243DE06B243BE06D2439E06F2437E0FE
:101A4000A32435E0702433E0A22431E071242FE098
:101A5000A1242DE097242BE0962429E0742427E08C
:101A6000952425E0752423E0942421E093241FE0AD
:101A700092241DE078241BE0792419E08C2417E0DF
:101A80007A2415E08B2413E07B2411E08A240FE0F4
:101A90005A240DE059240BE0892409E0582407E07A
:101AA000882405E09D22DFF84019002000F033FE75
:101AB0002000C0B210BD10B5C0B2002800F0EA800E
:101AC000022800F0EB80C0F0E780042800F0EA80F4
:101AD000C0F0E680062800F0E980C0F0E580082824
:101AE00000F0E880C0F0E4800A2800F0E780C0F051
:101AF000E3800C2800F0E680C0F0E2800E2800F0C1
:101B0000E580C0F0E180102800F0E480C0F0E080C3
:101B1000122800F0E380C0F0DF80142800F0E2809B
:101B2000C0F0DE80162800F0E180C0F0DD801828CB
:101B300000F0E080C0F0DC801A2800F0DF80C0F008
:101B4000DB801C2800F0DE80C0F0DA801E2800F068
:101B5000DD80C0F0D980202800F0DC80C0F0D88083
:101B6000222800F0DB80C0F0D780242800F0DA8043
:101B7000C0F0D680262800F0D980C0F0D580282873
:101B800000F0D880C0F0D4802A2800F0D780C0F0C0
:101B9000D3802C2800F0D680C0F0D2802E2800F010
:101BA000D580C0F0D180302800F0D480C0F0D08043
:101BB000322800F0D380C0F0CF80342800F0D280EB
:101BC000C0F0CE80362800F0D180C0F0CD8038281B
:101BD00000F0D080C0F0CC803A2800F0CF80C0F078
:101BE000CB803C2800F0CE80C0F0CA803E2800F0B8
:101BF000CD80C0F0C980402800F0CC80C0F0C88003
:101C0000422800F0CB80C0F0C780442800F0CA8092
:101C1000C0F0C680462800F0C980C0F0C5804828C2
:101C200000F0C880C0F0C4804A2800F0C780C0F02F
:101C3000C3804C2800F0C680C0F0C2804E2800F05F
:101C4000C580C0F0C180502800F0C480C0F0C080C2
:101C5000522800F0C380C0F0BF80542800F0C2803A
:101C6000C0F0BE80562800F0C180C0F0BD8058286A
:101C700000F0C080C0F0BC805A2800F0BF80C0F0E7
:101C8000BB805C2800F0BE80C0F0BA805D2800F008
:101C9000BB80BBE00824C0E00824BEE00824BCE010
:101CA0000824BAE00824B8E00824B6E00824B4E028
:101CB0000824B2E00824B0E00824AEE00824ACE038
:101CC0000824AAE00824A8E00824A6E00824A4E048
:101CD0000824A2E00824A0E008249EE008249CE058
:101CE00008249AE0082498E0082496E0082494E068
:101CF000082492E0082490E008248EE008248CE078
:101D000008248AE0082488E0082486E0082484E087
:101D1000082482E0082480E008247EE008247CE097
:101D200008247AE0082478E0082476E0082474E0A7
:101D3000082472E0082470E008246EE008246CE0B7
:101D400008246AE0082468E0082466E0082464E0C7
:101D5000082462E0082460E008245EE008245CE0D7
:101D600008245AE0162458E0082456E0082454E0D9
:101D7000082452E0082450E008244EE008244CE0F7
:101D800008244AE0082448E0082446E0082444E007
:101D9000082442E0082440E008243EE008243CE017
:101DA00008243AE0082438E0082436E0082434E027
:101DB000082432E0082430E008242EE008242CE037
:101DC00008242AE0082428E0082426E0082424E047
:101DD000082422E0082420E008241EE008241CE057
:101DE00008241AE0082418E0082416E0082414E067
:101DF000082412E0082410E008240EE008240CE077
:101E000008240AE0082408E0082406E04FF486725B
:101E1000DFF8D415002000F07EFC2000C0B210BD19
:101E2000E0DF08100000044080B5C0B2002800F0D8
:101E3000EA80022800F0EB80C0F0E780042800F080
:101E4000EA80C0F0E680062800F0E980C0F0E58076
:101E5000082800F0E880C0F0E4800A2800F0E7805D
:101E6000C0F0E3800C2800F0E680C0F0E2800E288D
:101E700000F0E580C0F0E180102800F0E480C0F0C0
:101E8000E080122800F0E380C0F0DF80142800F02A
:101E9000E280C0F0DE80162800F0E180C0F0DD8036
:101EA000182800F0E080C0F0DC801A2800F0DF8005
:101EB000C0F0DB801C2800F0DE80C0F0DA801E2835
:101EC00000F0DD80C0F0D980202800F0DC80C0F078
:101ED000D880222800F0DB80C0F0D780242800F0D2
:101EE000DA80C0F0D680262800F0D980C0F0D580F6
:101EF000282800F0D880C0F0D4802A2800F0D780AD
:101F0000C0F0D3802C2800F0D680C0F0D2802E28DC
:101F100000F0D580C0F0D180302800F0D480C0F02F
:101F2000D080322800F0D380C0F0CF80342800F079
:101F3000D280C0F0CE80362800F0D180C0F0CD80B5
:101F4000382800F0D080C0F0CC803A2800F0CF8054
:101F5000C0F0CB803C2800F0CE80C0F0CA803E2884
:101F600000F0CD80C0F0C980402800F0CC80C0F0E7
:101F7000C880422800F0CB80C0F0C780442800F021
:101F8000CA80C0F0C680462800F0C980C0F0C58075
:101F9000482800F0C880C0F0C4804A2800F0C780FC
:101FA000C0F0C3804C2800F0C680C0F0C2804E282C
:101FB00000F0C580C0F0C180502800F0C480C0F09F
:101FC000C080522800F0C380C0F0BF80542800F0C9
:101FD000C280C0F0BE80562800F0C180C0F0BD8035
:101FE000582800F0C080C0F0BC805A2800F0BF80A4
:101FF000C0F0BB805C2800F0BE80C0F0BA805D28D5
:1020000000F0BB80BBE00020C0E00020BEE001206B
:10201000BCE00120BAE00220B8E00320B6E00320D3
:10202000B4E00420B2E00420B0E00520AEE00520DA
:10203000ACE00620AAE00720A8E00920A6E00A20DC
:10204000A4E00B20A2E00B20A0E00C209EE00C20DE
:102050009CE00D209AE00D2098E00E2096E00F20E5
:1020600094E0102092E0112090E011208EE01220E8
:102070008CE012208AE0132088E0142086E01520EE
:1020800084E0162082E0162080E018207EE01920EF
:102090007CE019207AE01A2078E01B2076E01C20F2
:1020A00074E01C2072E01C2070E01D206EE01D20FA
:1020B0006CE01D206AE01E2068E01E2066E01E2005
:1020C00064E01F2062E01F2060E020205EE020200E
:1020D0005CE021205AE0222058E0242056E0242011
:1020E00054E0252052E0252050E026204EE0272015
:1020F0004CE027204AE0282048E0282046E029201C
:1021000044E0292042E02A2040E02C203EE02D201F
:102110003CE02E203AE02F2038E02F2036E030201F
:1021200034E0302032E0312030E031202EE0322027
:102130002CE033202AE0342028E0342026E035202B
:1021400024E0352022E0362020E037201EE0382031
:102150001CE039201AE0392018E03A2016E03A2035
:1021600014E03B2012E03B2010E03B200EE03C203E
:102170000CE03C200AE03D2008E03D2006E040F273
:102180007B129949002000F0C6FA0020C0B202BDBF
:10219000002007E09549C2018A5822F00042C3019D
:1021A000CA50401C3F28F5DB704770B504000E0094
:1021B000002000202000C0B2FFF736FE8B4DC0B2D9
:1021C000C0012844006A80B206FB00F642F210709B
:1021D000B6FBF0F62000C0B2FFF726FEC00128448F
:1021E000B6B246612000C0B2FFF71EFE0100C9B2C0
:1021F000C9012944096C51F00101C0B2C001284451
:10220000016470BD2DE9F041AAB004000D00160074
:10221000342100221DAF380000F010FB0020742193
:1022200000226F46380000F009FB0E201E902000AF
:10223000C0B2FFF740FC8DF87C002000C0B2FFF771
:1022400086FA07005FF008082000C0B2FFF77FFAA7
:102250001DAA97FBF8F108FB11773900644BC0B257
:10226000C010C001184400F0A8FB2000C0B2FFF766
:10227000DBFD00220121C0B210F5937000B2FFF720
:102280000AFA2000C0B2FFF7CFFDC0B210F593707C
:1022900000B2FFF7FCF9092300220121C0B2FFF7C9
:1022A000B5F92000C0B2FFF7BFFDC0B210F59370C2
:1022B00000B2FFF7ECF900220121C0B2FFF720FACB
:1022C0004C48B0FBF5F1090C4A482A04B0FBF2F384
:1022D00002FB1300002800D0491C022903D2002071
:1022E0008DF801002FE0032903D201208DF80100B1
:1022F00029E0052903D202208DF8010023E00929F5
:1023000003D203208DF801001DE0112903D204201F
:102310008DF8010017E0212903D205208DF8010076
:1023200011E0412903D206208DF801000BE081293C
:1023300003D207208DF8010005E040F2C9122A49B6
:10234000002000F0E8F904208DF8000001208DF84D
:10235000100000208DF8110003208DF812000320DA
:102360008DF8130000208DF80800224901229DF904
:1023700001008240B1FBF2F0B0FBF5F0401E059089
:102380000598401C06FB00F642F21070B6FBF0F018
:10239000089002208DF8400003208DF8680001208D
:1023A0001B9001208DF828002000C0B2FFF73CFDF3
:1023B0000E4D6946C0B2C001284400F03DFB20002C
:1023C000C0B2FFF731FDC0B2C001284400F034FCB8
:1023D0002000C0B2FFF728FDC0B2C001284400F0C1
:1023E00030FC2AB0BDE8F081ACDA0810000058409B
:1023F0000000314000127A0082B0002001900020DD
:1024000000900020019009E00098401C0090009886
:10241000B0F5005FF8D30198401C01900198B0F529
:10242000805F02D200200090F1E702B0704780B5D3
:102430000100002000F0DAFE01BD2DE9F043ADF50A
:10244000137D0700884616001C000020ADF802002E
:102450000020ADF80000002002900020ADF804003C
:102460000020ADF806004046FEF7D0FD0290DFF8F0
:1024700090532888002801D028698047DFF884031A
:102480000078002800F033812888002800F01181AE
:10249000BDF90600411CADF806103A00010089B2F2
:1024A0000020EB68984747464046FEF7AFFD029094
:1024B0006888A97990FBF1F0ADF804003800471C5A
:1024C00000780028FAD10020ADF800000EE07F1E51
:1024D00038782F2802D038785C2804D1BDF8000065
:1024E000401CADF800000298401E0290BDF80000AC
:1024F000022802DA02980028E9D50298002806D4BA
:102500007A1CDFF8041353A801F064F90EE0BDF85B
:102510000000002805D13A00BC4953A801F05AF93F
:1025200004E03A00B84953A801F054F90020ADF88E
:10253000020042E0BDF80010BDF80020BDF80230F6
:1025400053AF9BB2BDF90400434313FA82F0385CE9
:1025500043AA89B25054BDF80000401CADF80000F9
:10256000BDF8000080B2BDF9041088420EDA53A80D
:10257000FEF74CFDBDF80020BDF802309BB2BDF95E
:1025800004104B4313FA82F18842D3D2002043A9AE
:10259000BDF800208854BDF90600411CADF80610B6
:1025A00043AAE97911FB00F189B20020EB68984752
:1025B000BDF80200401CADF80200BDF8027053A83F
:1025C000FEF724FDBDF90410B0FBF1F0401CBFB2D2
:1025D000874203D20020ADF80000C1E732008C49E9
:1025E00053A801F0F7F8BDF90600411CADF806103C
:1025F00053AAE97911FB00F189B20020EB689847F2
:10260000002C74D00020ADF8020041E0BDF80010AD
:10261000BDF80020BDF802309BB2BDF90400434371
:1026200013FA82F0205C43AA89B25054BDF800002E
:10263000401CADF80000BDF8000080B2BDF90410E8
:1026400088420EDA2000FEF7E1FCBDF80020BDF85C
:1026500002309BB2BDF904104B4313FA82F1884259
:10266000D4D2002043A9BDF800208854BDF906004B
:10267000411CADF8061043AAE97911FB00F189B2BB
:102680000020EB689847BDF80200401CADF802003E
:10269000BDF802602000FEF7B9FCBDF90410B0FBE4
:1026A000F1F0401CB6B2864221D20020ADF8000005
:1026B000C1E74FF4807100220DF10C09484600F08B
:1026C000BDF83800A9688847002C07D00094330073
:1026D0004246504903A801F07DF805E03300424628
:1026E0004D4903A801F076F803A8A96888470DF5BD
:1026F000137DBDE8F08310B542480078002809D06A
:10270000474C2100002000F07FFD012221004348BA
:1027100001F08DF810BD38B50C001500C0B20028CE
:1027200003D140480078002800D131BD3E490878E7
:10273000002800D0FEE70878401C087001F0B0F9CE
:1027400000232A0021003948FFF777FEFFF754FEE7
:10275000F6E710B514001A00C0B2002808D12948C5
:102760000078002804D00B0021003148FFF765FEF7
:1027700010BD002101804FF6FF7141808180FF2153
:102780008171C171002181600021C160002101615E
:1027900070471B4902880A8042884A8082888A8062
:1027A00082798A71C279CA7182688A60C268CA6095
:1027B00000690861012013490870704700B585B0B1
:1027C0006846FFF7D6FF1B4802906846FFF7E1FF17
:1027D00005B000BD80B5FFF7F1FF002300225FF4D4
:1027E000E131002000F0F6FE4023134A00210B489F
:1027F00001F0EDF80121002000F0F9FD01BD00001D
:1028000010290328072B032894DF081074DF081011
:10281000A0DF081034DE081004DF0810D0280328D9
:10282000082B032871C00228092B032884DF081015
:10283000ACDF08102F2408101C26032862F30F2297
:1028400062F31F42401810F0030308D0C91A1FD3C7
:10285000DB0748BF00F8012D28BF20F8022D130028
:1028600030B414461546103928BF20E93C00FAD888
:10287000490728BF20E90C0048BF40F8042D890013
:1028800028BF20F8022D48BF00F8012D30BC70474A
:10289000C91818BF00F8012DCB0728BF00F8012D7B
:1028A0007047000030B4614B1818C009604C14EB3D
:1028B000001404290DD223681F25C8008540AB43AE
:1028C000D2B212F01F02C90012FA01F119432160BD
:1028D0000CE0091F63681F25C8008540AB43D2B2D6
:1028E00012F01F02C9008A401A43626030BC704770
:1028F000002A04D1012212FA01F1416003E0012211
:1029000012FA01F18160704710B48900436C0F2402
:102910008C40A34312F00F0212FA01F119434164F3
:1029200010BC704710B4836C01248C40A34312F098
:10293000010212FA01F11943816410BC704710B40E
:10294000C36C01248C40A34312F0010212FA01F17E
:102950001943C16410BC704710B449001031C36CF6
:1029600003248C40A34312F0030212FA01F119432D
:10297000C16410BC70474269012212FA01F1416141
:102980004069704710B4836901248C40A34312F05E
:10299000010212FA01F11943816110BC704710B4B1
:1029A0004900036C03248C40A34312F0030212FA83
:1029B00001F11943016410BC7047F8B505000E0021
:1029C00014000027002D2ED0002C2CD022683100BE
:1029D0002800FFF78DFF227A31002800FFF762FF01
:1029E000626931002800FFF79DFFA26931002800CD
:1029F000FFF7A5FFE26931002800FFF7ADFF62682D
:102A000031002800FFF780FFE26831002800FFF75F
:102A1000C6FF31002800FFF7AEFF22693100280011
:102A2000FFF7B0FF00E0034F3800F2BD0000CFBF5A
:102A30000000304001005A000122002800F0EC8024
:102A4000002900F0E980754A12680B7A63F392421C
:102A50000B7B13F0030363F311420B7813F00703AE
:102A600063F31A628B7863F39E7291F8283063F3F4
:102A7000000291F8343063F341020B7F63F382026A
:102A80004B7F63F3C30291F8403063F38A2291F8DD
:102A90004030DBB25B08DBB263F3492291F870305F
:102AA00063F3082291F8713013F0030363F30D32DE
:102AB00002600A7A002A02D10022826007E00A7AC4
:102AC000012A02D14A69826001E0012282600A6A19
:102AD00002614A6A4261CA6A82610A6BC2614A69DA
:102AE00002628A6942624E4A126891F8443003F0E9
:102AF000FF03120A12021A4391F84C3003F0FF034D
:102B000063F3174291F85C3003F0FF0363F31F6235
:102B100091F86C3003F0FF0363F30F224264414AE3
:102B2000126891F8643003F0FF0363F30F2291F809
:102B3000543003F0FF03120A12021A4382643A4A25
:102B4000126891F8413013F00303920892001A437F
:102B500091F8603013F0030363F38B2291F848304F
:102B600013F0030363F3051291F8503013F00303DD
:102B700063F3092291F8583013F0030363F38712CB
:102B800091F8683013F0030363F38302C264274AA9
:102B9000126891F8723013F00703D208D2001A437A
:102BA00091F8733013F0070363F30612426591F84E
:102BB000352082671E4A12680B7C13F003039208CB
:102BC00092001A43CB7C13F0030363F387124B7C10
:102BD00013F0030363F383028B7C13F0030363F3AB
:102BE00005120265134A1268CB8863F31F428B8873
:102BF0009BB21B0A9BB263F30F220B78052B06D105
:102C0000097901F0FF01120A12020A4302E0497831
:102C100061F30702026300221000704780E0081091
:102C200084E0081088E008108CE0081090E008109C
:102C300094E0081098E00810016851F0004101602C
:102C400070474030016851F010010160704700008A
:102C5000022801D3012010E00B00DBB2042B01DBC2
:102C600001200AE0DFF8643903EB8000C9B2405C60
:102C7000824201D3012000E000207047F8B5040033
:102C80000F0015001E00022C01D301202AE02A00AB
:102C90003900C9B22000FFF7DBFF012801D1012074
:102CA00020E006983900C9B202291ED1B6F5803F4E
:102CB00019D2202817D24FF4C052DFF81419630339
:102CC0000B4403EB850313441F6866F317271F604B
:102CD0006403214401EB850111440A6860F3C702D3
:102CE0000A600020F2BD0120FCE7FFB2032F1FD1D4
:102CF000B6F1807F1AD2202818D24FF4E052DFF8C4
:102D0000D01863030B4403EB850313441F6807F0DB
:102D1000FF0757EA06271F606403214401EB850182
:102D200011440A6860F3C7020A60DAE70120D9E7B4
:102D30000120D7E700B20012C0B27047F8B5050015
:102D40000E001700280000B2FFF7F4FF0400200077
:102D5000C0B2022801D3012024E03A003100C9B2F8
:102D60002000C0B2FFF774FF012801D1012019E053
:102D7000DFF85C182000C0B2400308442A00D2B239
:102D800000EB8200D0F8000CF6B266F3092067F37E
:102D90000700E4B264032144EDB201EB8501C1F800
:102DA000000C0020F2BD70B504000D001600022CCE
:102DB00001D301201DE032002900C9B22000FFF735
:102DC00047FF012801D1012013E0DFF80418600358
:102DD000085850F0004050F0407050F47F00EDB2C1
:102DE00065F3092066F307006203885064030859FD
:102DF000002070BDD0F84003704710F541700268A4
:102E000061F3070202607047D0F80803C005C00DE7
:102E1000704710F541710A6852F480320A6010F56B
:102E200041710A6832F480320A60D0F804037047B6
:102E3000C0F840127047D0F80802C005C00D7047B6
:102E4000D0F80802C0F3C030704738B5050028003C
:102E5000FFF7F1FF04002800FFF7F2FF0419002C30
:102E600001D1012000E00020C0B232BDC0F8C81F6F
:102E70007047D0F8C80F7047C0F8C01FD0F8C00F17
:102E80007047C0F8881F7047D0F8880F7047C0F8A7
:102E9000801FD0F8800F7047016851F00041016039
:102EA00070472DE9F84F0400012500200020DFF8CD
:102EB000E4082100C9B250F82160D6F804030006E6
:102EC00001D1042700E001273000FFF7D2FF3900CD
:102ED000C9B2084253D03800C0B2012835D1300001
:102EE000FFF792FF80465FF0000901E019F1010948
:102EF0004046C0B2814522DADFF89CA82000C0B26B
:102F00001AF80000411C2200D2B20AF80210DFF8C1
:102F10008C182200D2B2120101EB020BC0B2009059
:102F20003000FFF767FF00990BF801002000C0B2E6
:102F30001AF800001028D9DB3000FFF76AFF0120E3
:102F4000DFF85C18E4B2085513E03000FFF752FFD9
:102F5000DFF848182200D2B2120188540120DFF8AD
:102F600038182200D2B288540120DFF83418E4B2B5
:102F70000855FFB239003000FFF77EFF0AE030004D
:102F8000FFF782FF800505D54FF400713000FFF791
:102F90007EFF00252800C0B2BDE8F28F38B50400DE
:102FA0001500C9B200290ED0102919D0202924D02B
:102FB00030292FD031293AD0402945D0502950D03E
:102FC00060295BD067E0DFF8DC07A0600120207398
:102FD000112060734FF48C70E0811220208260E039
:102FE000DFF8C407A060012020731120607340F255
:102FF0001D10E0816B20208253E0DFF8B007A06055
:1030000001202073112060734FF48E70E0816A20DC
:10301000208246E0DFF89807A0600220207311208C
:10302000607340F21B10E0816920208239E0DFF8F4
:103030008407A060012020731120607340F21B10F0
:10304000E081692020822CE0DFF86C07A06001207D
:103050002073132060734FF48D70E081682020820C
:103060001FE0DFF85807A060012020731120607373
:1030700040F21F10E0816D20208212E0DFF840074F
:10308000A06001202073112060734FF48F70E081E5
:103090006C20208205E0DE22DFF828170020FFF7F1
:1030A0003AFBEDB2002D0ED0102D19D0202D24D0DA
:1030B000302D2FD0312D3AD0402D45D0502D50D02D
:1030C000602D5BD067E0DFF8DC0620600020207117
:1030D000112060714FF48C70E0811220208261E039
:1030E000DFF8C4062060002020711120607140F2DA
:1030F0001D10E0816B20208254E0DFF8B0062060D4
:1031000000202071112060714FF48E70E0816A20E0
:10311000208247E0DFF8980620600120207111200E
:10312000607140F21B10E081692020823AE0DFF8F4
:1031300084062060002020711120607140F21B1075
:10314000E081692020822DE0DFF86C0620600020FD
:103150002071132060714FF48D70E081682020820F
:1031600020E0DFF8580620600020207111206071F7
:1031700040F21F10E0816D20208213E0DFF840064E
:10318000206000202071112060714FF48F70E08169
:103190006C20208206E04FF49172DFF828160020A0
:1031A000FFF7B9FA31BD38B50400DFF8E855C9B208
:1031B0002000C0B255F82000FFF73AFE2000C0B250
:1031C00055F82000FFF741FE0028F7D031BD70B55B
:1031D00005000E00140006E031782800C0B2FFF7A9
:1031E000E2FF641E761C002CF6D170BD38B50400D9
:1031F0000D0005E029782000C0B2FFF7D4FF6D1C58
:1032000028780028F6D131BD30B40022DFF890359F
:103210000200D2B29A5C002A2CD0DFF8802504008C
:10322000E4B22401145D0C70DFF86C450100C9B2F2
:10323000615C491E0500EDB261550100C9B2615CD7
:10324000002912D000210300DBB2E35C99420FDABF
:103250000300DBB21B0113440500EDB22D01154440
:103260000D446D785D54491CEDE70021C0B219543E
:10327000012000E00020C0B230BC704770B40022D2
:10328000DFF81C350200D2B29A5C002A1CD0DFF8AD
:1032900008450200D2B2A25C00250600F6B2A55590
:1032A000002409E0DFF8F4540600F6B23601354494
:1032B0002D5D0D70491C641C1500EDB2AC42F1DBB4
:1032C0000021C0B2195400E000221000C0B270BC4E
:1032D000704770B505000C00DFF8B8642800C0B274
:1032E00056F82000FFF7D0FD4008400001002800FC
:1032F000C0B256F82000FFF7C4FD2800C0B256F84F
:103300002000FFF7C1FD30F0020001002800C0B22C
:1033100056F82000FFF7B5FD2800C0B256F820008F
:10332000FFF7B2FD30F0200001002800C0B256F8CF
:103330002000FFF7A6FD2800C0B256F82000FFF7D6
:10334000A3FD30F0400001002800C0B256F8200074
:10335000FFF797FD2800C0B256F82000FFF794FD54
:1033600030F0100001002800C0B256F82000FFF72E
:1033700088FD2800C0B256F82000FFF785FD30F424
:10338000807001002800C0B256F82000FFF779FDD8
:103390002800C0B256F82000FFF776FD30F48060B8
:1033A00001002800C0B256F82000FFF76AFD002C8B
:1033B0000ED02800C0B256F82000FFF75AFD50F496
:1033C00000700100EDB256F82500FFF75AFD0DE040
:1033D0002800C0B256F82000FFF74BFD30F4007013
:1033E0000100EDB256F82500FFF74BFD70BD70B53A
:1033F00005000C00DFF89C632800C0B256F82000DE
:10340000FFF737FD30F0080001002800C0B256F881
:103410002000FFF72BFD2800C0B256F82000FFF770
:1034200028FD30F0200001002800C0B256F820002E
:10343000FFF71CFD2800C0B256F82000FFF719FD69
:1034400030F4807001002800C0B256F82000FFF769
:103450000DFD2800C0B256F82000FFF70AFD30F439
:10346000007001002800C0B256F82000FFF7FEFCF3
:103470002800C0B256F82000FFF7FBFC30F40060D3
:1034800001002800C0B256F82000FFF7EFFC28002A
:10349000C0B256F82000D0F8040300061FD1002C5B
:1034A0005BD12800C0B256F82000FFF7E2FC4008CC
:1034B000400001002800C0B256F82000FFF7D6FCFB
:1034C0002800C0B256F82000FFF7D3FC30F004000B
:1034D0000100EDB256F82500FFF7C8FC70BD002CC6
:1034E0001DD02800C0B256F82000FFF7C2FC30F013
:1034F000040001002800C0B256F82000FFF7B6FC17
:103500002800C0B256F82000FFF7B3FC50F00100CD
:103510000100EDB256F82500FFF7A8FCDEE7280011
:10352000C0B256F82000FFF7A4FC30F00400010000
:103530002800C0B256F82000FFF798FC2800C0B25F
:1035400056F82000FFF795FC400840000100EDB25E
:1035500056F82500FFF78AFCC0E72800C0B256F8ED
:103560002000FFF786FC4008400001002800C0B2A0
:1035700056F82000FFF77AFC2800C0B256F8200069
:10358000FFF777FC50F004000100EDB256F825007B
:10359000FFF76CFCA2E738B504000D002800C0B2AC
:1035A000102801DA012000E0002040F23122DFF88B
:1035B0001412C0B2FFF7AFF8EDB229007548E4B2BB
:1035C00050F82400FFF719FC31BD0000E0DF0810BF
:1035D000000004402DE9F0412DED028BA8B005005C
:1035E0000E00170028003900C9B20909C0B288428C
:1035F00001D1012000E000201C00DFF8C8814FF459
:1036000021724146C0B2FFF786F828002100C9B2F6
:103610000909C0B2884201D1012000E0002040F237
:1036200085224146C0B2FFF776F802A8142100F0C7
:103630005FFA342100220DF168084046FFF7FEF8DA
:103640004C2100220DF11C084046FFF7F7F8082036
:1036500080B206FB00F65C48B0FBF6F85A4806FB61
:10366000180000EE100AB8EE400B01EE106AB8EE3A
:10367000411B80EE010BBFEEED0B10EE100B08EEC0
:10368000100A2200D2B23900C9B202A8FFF786FCA4
:1036900008201B909DF80D008DF870001AAA9DF867
:1036A0000C100298FFF789F906201B909DF8150071
:1036B0008DF870001AAA9DF814100498FFF77DF990
:1036C00000200790082008900820099002200B9005
:1036D00000200C9000201290002014902D4C280007
:1036E000C0B254F8200000F049FB38492A00D2B299
:1036F000382042430A4407A92800C0B254F82000E9
:1037000000F0FAF92800C0B254F82000FFF7C4FB1B
:103710002A00D2B20321BDF91600FFF70FFBBDF955
:103720001600FFF707FB8DED008AB8F1010843464C
:103730002A00D2B20321C0B2FFF7A0FABDF91600E9
:10374000FFF7F8FA2A00D2B20321C0B2FFF72BFB31
:10375000BDF91800ADF800000320ADF8020001200B
:103760008DF8040007221A482900C9B250F8211028
:10377000684600F0A1F900212800C0B2FFF737FE2B
:1037800000212800C0B2FFF7A4FD28B0BDEC028BD9
:10379000BDE8F08150C00228D02903286023032807
:1037A000D829032800003140000231400005314093
:1037B000800831408006314000073140000131402F
:1037C000800131408CDB081000B4C404A820032819
:1037D00034C002280CB430B583B00A4606A9029161
:1037E000044600250194009502AB01A908487844DD
:1037F0001E30FCF748FC019A157000284EBF0446A5
:103800000198041B204603B030BC5DF80CFB00BFE0
:10381000B3D7FFFF82688918816003E0826841693D
:10382000521A8260816842699142F7D270472DE94D
:10383000F84305001600002D01D0012000E0002013
:103840000C00AA22DFF8C011C0B2FEF764FF002707
:103850000020002C01D10327B5E0287810F0050FD7
:1038600001D00427AFE0287850F0040028702869C0
:10387000B042C0F0A380D5F81480A868B8EB000867
:10388000B04567D26878002803D0022841D01FD302
:1038900090E0424621006868AB6800EB03094846A7
:1038A000FDF7FCFB41462800FFF7B4FFB6EB08022A
:1038B00004EB08016868AB6800EB03042000FDF727
:1038C000EDFBB6EB080841462800FFF7A3FF71E0C7
:1038D0005FEA480221006868AB6800EB430948468C
:1038E000FDF7DCFB41462800FFF794FFB6EB08022A
:1038F000520004EB48016868AB6800EB4304200009
:10390000FDF7CCFBB6EB080841462800FFF782FF25
:1039100050E05FEA880221006868AB6800EB830929
:103920004846FDF7BBFB41462800FFF773FFB6EBA7
:103930000802920004EB88016868AB6800EB83041E
:103940002000FDF7ABFBB6EB080841462800FFF767
:1039500061FF2FE06878002803D002281DD00ED325
:1039600028E0320021006868AB6800EB0304200007
:10397000FDF794FB31002800FFF74CFF1AE07200BE
:1039800021006868AB6800EB43042000FDF786FB6C
:1039900031002800FFF73EFF0CE0B200210068680C
:1039A000AB6800EB83042000FDF778FB31002800B2
:1039B000FFF730FF2869861B2E6100E00527287875
:1039C00010F0FB0028703800C0B2BDE8F283F8B5F3
:1039D00004000E0017001D00002C01D0012000E0A3
:1039E00000204FF407720849C0B2FEF794FE002091
:1039F00067600021217066700021A1600021E160F4
:103A000025616561C0B2F2BD3CDA0810010009B25F
:103A1000002908D4012210F01F018A401B4900B27E
:103A2000400941F820207047010009B2002908D45C
:103A3000012210F01F018A40154900B2400941F8E7
:103A400020207047020012B2002A04D44901114A12
:103A500000B2115407E049010F4A00B210F00F0004
:103A6000104400F8041C7047002800D162B60B48CF
:103A70000168491C0160704772B60849086800284F
:103A800002D00868401E08600868704700E100E046
:103A900080E200E000E400E018ED00E0B42A032832
:103AA00080B5FFF7E9FFFEF773FB01BD80B5C9B232
:103AB00000B2FFF7C7FF01BD70B504000D0016008E
:103AC000200000F0A3F92900B4F9000000F0DDF9AE
:103AD0003100C9B2B4F90200FFF7E8FFB4F90200FF
:103AE000FFF7A2FFB4F90200FFF790FF70BD0000DE
:103AF000002200F0E1B900002DE9F44FDFF8D822F0
:103B0000DFF8D8321B68DFF8D8422468DFF8D452D7
:103B10002D68DFF8D4623668DFF8D0723F68DFF8CE
:103B2000D0C2DCF800C0DFF8CCE2DEF800E0DFF85D
:103B3000C882D8F80080DFF8C492D9F80090DFF886
:103B4000C0A2DAF800A0002800F01581002900F0DA
:103B500012810A68022A06D191F82620002A02D191
:103B60005FF0000B03E0D1F804B0BBF1010B91F85A
:103B70002420002A01D0012200E0002262F3104339
:103B800033F440436BF30303022262F319630360CF
:103B90000A7812F0030262F31964046491F8252094
:103BA000002A01D0012200E0002262F38615CA7EBD
:103BB000002A01D0012200E0002262F38A254A7E19
:103BC000002A01D0012200E0002262F308258A7E4B
:103BD000002A01D0012200E0002262F349258A6B0D
:103BE000521E12F00F0262F313450A69521E12F0C0
:103BF0000702ED08ED0015434A6962F304154A69AE
:103C0000520862F3451585640A7B002A01D001221F
:103C100000E0002262F308260A7E002A01D0012279
:103C200000E0002262F349268A68521E12F01F0249
:103C3000760976011643C0F800630A7F02F0FF029E
:103C40003F0A3F02174391F8202002F0FF0262F37F
:103C50001747C0F8107391F82720002A01D00122DD
:103C600000E0002262F3082C0A69521E12F00702DB
:103C70005FEADC0C5FEACC0C52EA0C0C4A6962F396
:103C8000041C4A69520862F3451CC0F844C00A7B10
:103C9000002A01D0012200E0002262F3082E8A6887
:103CA000521E12F01F025FEA5E1E5FEA4E1E52EACB
:103CB0000E0E0A68012A01D1012200E0002262F3FF
:103CC000104EC0F800E291F83C2002F0FF025FEADB
:103CD00018285FEA082852EA0808C0F8048391F817
:103CE0002820002A01D0012200E0002262F3596955
:103CF000CA6A012A01D1012200E0002262F3186998
:103D00004A6B012A01D1012300E00023009A63F3EA
:103D1000104991F8303003F0FF035FEA19295FEA98
:103D2000092953EA0909C0F8509091F8443003F08A
:103D3000FF035FEA1A2A5FEA0A2A53EA0A0AC0F86E
:103D400004A28B6CC0F8883F096CC0F8C81F002A19
:103D500010D00020506000201060002090600020F3
:103D6000D060002010620020D06200201063DFF8D5
:103D70009400506300221000BDE8F28FDFF8881035
:103D800001605FF4401101640021816440F2071179
:103D9000C0F800130022C0F804230022C0F810234A
:103DA00000224264C0F800120021C0F80412002171
:103DB00001650021C0F8C81E0021C0F8881E00213E
:103DC000C0F8C81F0021C0F8881F0021C0F8081FD4
:103DD0000021C0F8481F70470160AA0034E00810B5
:103DE00038E008103CE0081040E0081044E00810FB
:103DF00048E008104CE0081050E0081054E00810AB
:103E000058E00810EFCDAB000F00000330B40021E4
:103E1000234A1368234A1468002832D0224A1568BE
:103E2000C5F303250E2D0FD01268C2F303220D2A0D
:103E300028D1827812F00F02240924011443027958
:103E4000002A15D0012214E0827812F00F021B091B
:103E50001B0113430279002A01D0012200E0002255
:103E600062F3DF73114AB0F9000042F8203009E034
:103E7000002262F3DF740E4AB0F9000042F82040DD
:103E800000E00649080030BC70470A4B1A68002A57
:103E900003D01A6800B242F82010704701005600A3
:103EA00064E0081068E008100000204000A02040F6
:103EB00000C0204030BF022800B500BF1300964666
:103EC0009446103928BFA0E80C50FAD85FEA417C2C
:103ED00028BF0CC048BF40F8042BC90728BF20F8F2
:103EE000022B48BF00F8012B00BD0000DFF8D4070B
:103EF00090ED000A704700002DE9F8432DED048B8A
:103F0000DFF8D4479FED748ADFED752A9FED732AA1
:103F1000F0EE481A9FED721ADFED710AB3EE090A4E
:103F2000200000F0C5FEDFF8B457DFED6E8ADFED4C
:103F30006E2AB0EE682AF0EE481AB0EE081ADFEDED
:103F4000680A9FED6A0A280000F0B2FEDFF8906769
:103F50009FED679ADFED672AB0EE492AF0EE481A26
:103F60009FED5F1ADFED5E0A9FED630A300000F0FF
:103F70009FFEF7EE002AB3EE042AF0EE481A9FEDFA
:103F8000581AF6EE000AB1EE040ADFF8480700F00E
:103F90008FFEDFF83C77F0EE492AB0EE682AF0EEAB
:103FA000481A9FED4F1AF2EE040A9FED540A3800AA
:103FB00000F07EFEDFED522A9FED522AF0EE481A05
:103FC0009FED511ADFED510A9FED510ADFF81407FA
:103FD00000F06EFEDFF81087F6EE002AB7EE002A3A
:103FE000F0EE481A9FED3E1ADFED3D0ABBEE040AE3
:103FF000404600F05DFEDFF8F4969FED868A9FED67
:10400000382AF0EE681AB1EE001ADFED350AB0EE8C
:10401000480A484600F0E2FE9FED312AF0EE681AA9
:10402000B1EE001ADFED2E0AB0EE480ADFF8C00646
:1040300000F0D4FEDFF8BC069FED770A80ED000AA1
:10404000DFED760AC0ED010ADFF8B40B80ED000A5F
:10405000C0ED010A2100002000F05FFF29000120CF
:1040600000F05BFF15F10801022000F056FF31005F
:10407000032000F052FF4946042000F04EFF414665
:10408000052000F04AFF3900062000F046FF17F136
:104090000801072000F041FF01F02BF9BDEC048B73
:1040A000BDE8F18380B5DFF8300600F011FEDFF8DF
:1040B0002C0600F00DFEDFF8280600F009FE01F0E6
:1040C000A1F901BD80B5DFF81C0600F001FEDFF8A4
:1040D000180600F0FDFD01BD6F12833A0000874312
:1040E0000000000000401C4600803B45008089C461
:1040F0000000FA440000FA4300000080006006451A
:1041000000004842000096420AD77340EC51783FC5
:1041100000000A4438B52DED048B88B00C00150062
:10412000C0B2002808D1F7EE009AB0EE698AFFEE1F
:10413000008AB0EE699A07E0F7EE009AB0EE698A5D
:10414000FFEE008AB0EE699A9FED640AF0EE400A35
:1041500049EE080ACDED020A09EEA80A8DED030A20
:1041600004A902A801F0E0F9002817D1D4ED010A52
:1041700094ED000A6A4601A904A801F083FA002818
:104180000CD19DED010A09EE008A85ED008A9DEDB6
:10419000000A49EE808AC5ED018A03E085ED008AB8
:1041A000C5ED018A9FED4E0AD5ED000AF4EE400AF6
:1041B000F1EE10FA02D5F0EE400A0DE0D5ED000A5E
:1041C0009FED481AF4EE410AF1EE10FA02DBDFED42
:1041D000460A01E0D5ED000AC5ED000AD5ED010A59
:1041E000F4EE400AF1EE10FA0DD495ED010ADFED80
:1041F0003D0AB4EE600AF1EE10FA02DB9FED3A0AD6
:1042000001E095ED010A85ED010A08B0BDEC048BD3
:1042100031BD000000009644CDCCCC3ECDCCCCBE10
:10422000DFED320A90ED040A20EE200A90ED061A26
:1042300061EE200ADFF8E0391A78002A0DD000205C
:10424000086000204860002088600020C8600020CE
:1042500008610020486100207047B0EEC00A9FED61
:10426000241AB4EE410AF1EE10FA08DAB0EEE00AD0
:10427000DFED200AB4EE600AF1EE10FA02DB012055
:104280001870DCE79FED170AD0ED090AF0EEE00A9E
:10429000F4EE400AF1EE10FA1ADAD0ED0A0AF0EE66
:1042A000E00AF4EE400AF1EE10FA11DAD0ED0B0A52
:1042B000F0EEE00AF4EE400AF1EE10FA08DAD0ED82
:1042C0000C0AF0EEE00AF4EE400AF1EE10FA02DB1E
:1042D00001201870B3E70120BEE70000DB0FC93FE3
:1042E000B81E2DC0B91E2D40B81E2D40E02E6542CF
:1042F0000100344201000C4270B52DED028B98B0E4
:1043000007A8DFF800194422FCF7D8FE02A8DFF85E
:10431000F8181422FCF7D2FEDFF80049210007A8A4
:10432000FFF77EFF002800F0B38101F009F80500D7
:104330002800C0B2002840F0CA800094DFF89C3307
:10434000DFF89423DFF8981307A801F065F8DE483A
:104350000178012935D1DD4991ED000AB5EE400A19
:10436000F1EE10FA03D10C9ADFF8B4381A60DFF8D6
:10437000B02892ED000ADFEDC80A30EE200A82ED87
:10438000000A12680292089A32F0004200EE102AE7
:10439000DFEDC20A91ED001A00EE201A81ED001A3D
:1043A00091ED000ADFEDBE0AB4EE600AF1EE10FAFC
:1043B00007DB02210170C74800F08AFCC44800F006
:1043C00087FC9DED0C0ADDED020A30EEC00A03E029
:1043D000DFEDB40A30EE200ADFEDB30AB4EE600A76
:1043E000F1EE10FAF4DADFEDB10AB4EE600AF1EEA4
:1043F00010FA04D5DFEDAE0A30EE200AF3E7DDED6A
:10440000020A30EEC08ADFF81C689DED020AD6ED84
:10441000000A30EE600AB0EEC00ADFEDA60AB4EE84
:10442000600AF1EE10FA05DBAA4800F051FCA8483A
:1044300000F04EFC02983060F0EE480A9DED020A52
:10444000A44800F04DFCDDED080AF1EE600AA0483A
:1044500000F046FCB5EE400AF1EE10FA08DDF6EE8B
:10446000000A30EE200ABDEEC00A10EE100A07E086
:10447000FEEE000A30EE200ABDEEC00A10EE100A71
:104480002168091A21606168081A60609DED080AB8
:10449000DFED890A20EE200AF3EE040A80EE200AFE
:1044A000FFEE000AB4EE600AF1EE10FA02D5B0EEAB
:1044B000600A09E0DFED810AB4EE600AF1EE10FA5D
:1044C00002DBB7EE000AFFE78DED050A16E0009467
:1044D000824B814A824907A800F09EFF94ED000AB2
:1044E000B8EEC00ABDEEC00A84ED000A94ED010AE0
:1044F000B8EEC00ABDEEC00A84ED010AEDB2002D8F
:104500000CD1DFF824070190DFF820070090764BEC
:10451000744A07A902A801F0F5F80BE0DFF80C07D0
:104520000021016000214160DFF8FC0600210160EC
:104530000021416000F0F8FE002806D007AADFF84D
:10454000E816DFF8E80600F00BFF6A4D2A00DFF8F6
:10455000DC160020FFF7DEFDDFF8A4663200DFF88E
:10456000C8160120FFF7D6FD0094002307AA2900F2
:104570005E4800F067FC0094012307AA31005C4804
:1045800000F060FC9FED4E0ADFF8A406D4ED000AAF
:10459000F8EEE00A90ED001A70EEC10A90ED001AF4
:1045A00000EE801A80ED001ADFF88816D4ED010ABB
:1045B000F8EEE00A91ED001A70EEC10A91ED001AD2
:1045C00000EE801A81ED001ADFF86C26D4ED020AA5
:1045D000F8EEE00A92ED001A70EEC10A92ED001AB0
:1045E00000EE801A82ED001ADFF85036D4ED030A8F
:1045F000F8EEE00A93ED001A70EEC10A93ED001A8E
:1046000000EE801A83ED001ADFF83456D4ED040A68
:10461000F8EEE00A95ED001A70EEC10A95ED001A69
:1046200000EE801A85ED001ADFF81866D4ED050A51
:10463000F8EEE00A96ED001A70EEC10A96ED001A47
:1046400000EE801A86ED001A90ED000ABDEEC00A59
:1046500084ED000A91ED000ABDEEC00A84ED010A66
:1046600092ED000ABDEEC00A84ED020A93ED000A45
:10467000BDEEC00A84ED030A95ED000ABDEEC00A46
:1046800084ED040A96ED000ABDEEC00A84ED050A29
:1046900018B0BDEC028B70BD2FE3CD3B6F12833A97
:1046A0000A2B5D41DB0FC9C0DC0F4940DB0F49C05D
:1046B000DB0FC9400100003FCDCC4CBE0100803F64
:1046C000CDCC4C3E382A0328FD2A03283C2A032857
:1046D000A827032884270328182703283C27032812
:1046E00060270328CC270328F02703280025032868
:1046F00048250328B82903282DE9F8432DED068B1A
:1047000004000D0016002068286194ED010ADFED19
:10471000980A30EE200A85ED060AA0686861E06814
:10472000A860206968606069E860A0692860DFF8B7
:1047300018150878002805D16869DFF81025106081
:104740000120087095ED050ADFF80005D0ED000A9C
:1047500030EE600A85ED050A07E095ED050ADFED0C
:10476000D70A30EE200A85ED050A9FEDD58A95ED32
:10477000050AB4EE480AF1EE10FAEEDADFEDD18A5E
:1047800095ED050AB4EE680AF1EE10FA08D595ED3C
:10479000050ADFEDCD0A30EE200A85ED050AEDE7CA
:1047A000F2EE040ADFF8A80490ED070A20EE200AD2
:1047B00090ED081A61EE200ADFF8981408780028B6
:1047C0000AD1DFF8940480ED000ADFF89004C0ED10
:1047D000000A0120087001E1DFF87C0490ED001A66
:1047E00030EE411ADFF87414D1ED001A70EEE11AC0
:1047F0009FEDB62AB4EE421AF1EE10FA03D5DFEDC2
:10480000B42A31EE221ADFEDB32AB4EE621AF1EEC9
:1048100010FA03DB9FEDB03A31EE031AF4EE421AC0
:10482000F1EE10FA03D59FEDAA2A71EE821AF4EE8A
:10483000621AF1EE10FA03DB9FEDA72A71EE821ADD
:1048400080ED000AC1ED000A9FEDD50A61EE000A75
:104850009FEDD42AC0EE820AFFEE002A21EE802AC4
:104860009FEDD03A82EE032A22EE222A9FEDCE3A25
:10487000DFF8EC03D0ED003A70EEE30AD0ED003A39
:1048800040EE833AC0ED003ADFF8D813D1ED000ACC
:1048900072EE600A91ED002A00EE832A81ED002A73
:1048A0000068E8610868286201EEA21AF0EE000ACA
:1048B000C1EE200A20EE800ADFEDCF0A20EE200AAA
:1048C000DFEDB80A20EE209ADFF89C03DFF89C8326
:1048D000B0EEC90AD8ED000A90ED001A00EE201AD9
:1048E00080ED001AD5ED059AE14F97ED00AA39EE5B
:1048F000CA0A03E0DFED710A30EE200AB4EE480A7E
:10490000F1EE10FAF6DAB4EE680AF1EE10FA04D518
:10491000DFED6D0A30EE200AF5E7F0EEC00A9FEDFC
:10492000B71AF4EE410AF1EE10FA23D5DFF84493FA
:10493000B0EE4A0A01F092F820EE090AD8ED000A1A
:1049400099ED001A00EE201A89ED001ADFF828937D
:10495000B0EE4A0A01F084F820EE090AD8ED000A08
:1049600099ED001A00EE201A89ED001A34E000BF1C
:10497000E31F94BC89EE009AB0EE690A01F070F86A
:10498000F0EE40AADFF8EC92B0EE4A0A01F068F8C7
:104990003AEEC00A20EE090AD8ED000A99ED001A95
:1049A00000EE201A89ED001AB0EE4A0A01F056F81E
:1049B000B0EE40AADFF8C092B0EE690A01F04EF8FE
:1049C0003AEE400A20EE090AD8ED000A99ED001AE5
:1049D00000EE201A89ED001AC7ED009AA7489FED56
:1049E000700AD0ED090A60EE800AC5ED090AD0ED23
:1049F0000A0A60EE800AC5ED0A0AA148D0ED090A4C
:104A000060EE800AC5ED0B0AD0ED0A0A20EE800A9E
:104A100085ED0C0AB6EE000A9A48D5ED090A90ED2C
:104A2000001A70EEC10A90ED001A00EE801A80EDB7
:104A3000001A9549D5ED0A0A91ED001A70EEC10AE7
:104A400091ED001A00EE801A81ED001A8F4AD5ED23
:104A50000B0A92ED001A70EEC10A92ED001A00EEF8
:104A6000801A82ED001A8A4BD5ED0C0A93ED001ADC
:104A700070EEC10A93ED001A00EE801A83ED001A61
:104A8000006868620868A8621068E86218682863AD
:104A900001F031F9002802D0280001F034F97D49F5
:104AA000087800281AD0002068630020A86300203E
:104AB000E86300202864002008703DE0DB0FC9C0D7
:104AC000DC0F4940DB0F49C0DB0FC940000034C395
:104AD0000000B443010034430000B4C39FED310A29
:104AE000D5ED090A6C4890ED001A70EEC10AC0EECF
:104AF000800AC5ED0D0AD5ED0A0A684890ED001A46
:104B000070EEC10AC0EE800AC5ED0E0AD5ED0B0AA3
:104B1000634890ED001A70EEC10AC0EE800AC5ED40
:104B20000F0AD5ED0C0A5F4890ED001A70EEC10A2D
:104B300080EE800A85ED100A686A57490860A86A05
:104B400056490860E86A56490860286B554908606C
:104B500094ED080ADFED2D0A20EE200A86ED020A08
:104B60000020F06000203061002070604E4908781D
:104B7000002804D168694D4A1060012008704B4834
:104B800094ED070AF1EE080A20EE200ADFED050A8F
:104B900090ED001A00EE201A80ED001A0EE000BF22
:104BA00035FA8E3C6F12833ACDCC4C3E90ED000A24
:104BB000DFED170A30EE200A80ED000A90ED000AC2
:104BC000B4EE480AF1EE10FAF0DA90ED000AB4EE15
:104BD000680AF1EE10FA08D590ED000ADFED0D0A33
:104BE00030EE200A80ED000AEFE700683060BDEC8F
:104BF000068BBDE8F18300BF000002426F12033B49
:104C0000C0290328D8250328E8280328333353C0B4
:104C1000DB0FC9C0DB0FC940FE2A0328B8280328D0
:104C2000402A0328442A0328B0290328A829032856
:104C3000482A03284C2A0328502A0328542A0328E8
:104C4000582A03285C2A0328FF2A0328602A0328FD
:104C500094260328002B0328642A0328682A0328A3
:104C60006C2A0328702A0328382A03286CBF0228DC
:104C7000342A03282C2A0328302A0328C026032894
:104C8000EC260328742A0328782A03287C2A032880
:104C9000802A032870C00228842A0328882A03282F
:104CA0008C2A0328902A0328012B0328942A0328FE
:104CB00080B580ED000AC0ED010A80ED021AC0ED5A
:104CC000031A80ED072AC0ED082A00F001F801BDA3
:104CD00000210161002141610021816170470000D4
:104CE00070EE600A90ED000A20EE200A90ED011AA5
:104CF000D0ED041A21EE211AD0ED051A70EEE11A5A
:104D000090ED032AC1EE821A90ED062A71EEC21AC6
:104D10009FED312AD0ED062A41EE822AC0ED062A07
:104D2000C0ED050AD0ED021A90ED062A61EE821A56
:104D300030EE010A30EE210A90ED071AB4EE401A67
:104D4000F1EE10FA02D590ED070A0CE090ED071A8B
:104D5000B1EE411AB4EE410AF1EE10FA03D590ED2E
:104D6000070AB1EE400AB0EEC01AD0ED071AB4EE51
:104D7000611AF1EE10FA08D490ED041A20EE811AAF
:104D8000B5EE401AF1EE10FA07D890ED031AD0ED07
:104D9000041A40EE811AC0ED041AD0ED080A90ED15
:104DA000041AF4EE410AF1EE10FA02D5016A01612B
:104DB00010E0D0ED040A90ED081AB1EE411AF4EEBD
:104DC000410AF1EE10FA05D5D0ED080AF1EE600ABD
:104DD000C0ED040A70470000CDCC4C3E10B52DED5F
:104DE000068B0400B0EE408AF0EE608AB0EE419A85
:104DF000F0EE619AB0EE42AADFED11AAF0EE4A2A77
:104E0000B0EE692AF0EE6A1AB0EE491AF0EE680ABE
:104E1000B0EE480A2000FFF74BFFF0EE4A2AB0EE52
:104E2000692AF0EE6A1AB0EE491AF0EE680AB0EE9E
:104E3000480A14F12400FFF73BFFBDEC068B10BDC0
:104E40006F12833A38B52DED048B04001D00280045
:104E5000C0B2002808D1D2ED090A92ED0A8A91ED7C
:104E6000000AD1ED018A07E0D2ED0B0A92ED0C8A1F
:104E700091ED000AD1ED018A2000FFF731FFB0EE7D
:104E8000409AF0EE480AB0EE680A14F12400FFF7E9
:104E900027FFFDEEC90A10EE901ABDEEC00A10EE13
:104EA000102A0898EDB2002D04D149428160524287
:104EB000C26003E04942016152424261BDEC048B91
:104EC00031BD000081B0010A0902184A91420AD19D
:104ED0000100C9B2082902DA1549087002E0FF2072
:104EE000134908700EE0124A1178082908DA1149AE
:104EF000137851F82310002902D000900098086020
:104F0000FF20107001B0704780B50B49002000F001
:104F100046FF01200949087001BD0200D2B2082AEB
:104F200003DA044AC0B242F820107047000044522D
:104F30006FC0022834280328C54E0810FC2A032815
:104F4000B5EE401AF1EE10FA0DD9F7EE001AB4EEF4
:104F5000611AF1EE10FA02DBB0EE600A03E070EEC7
:104F6000C00A00EE810A7047DFF874140870002050
:104F7000DFF8701408807047DFF86C049FEDB00A0A
:104F800080ED000ADFEDAF0AC0ED010A80ED090AED
:104F9000C0ED0A0ADFF8540480ED000AC0ED010AF2
:104FA00080ED090AC0ED0A0A70470000DFF83804F6
:104FB0009FEDA50A80ED000A0021416080ED090AFD
:104FC00000218162DFF8240480ED000A00214160A5
:104FD00080ED090A00218162704780B5DFF8040482
:104FE000008840F6B831884202DB0220FFF7BCFFA0
:104FF00001BD000070B50C001500DFF8E8633088D3
:10500000012807D16068DFF8E81308606868DFF8F6
:10501000E4130860308800EE100AB8EE400ADFEDB5
:10502000BA0A80EE201A9FEDBE0AB4EE401AF1EEE5
:1050300010FA01DBB7EE001ADFEDC00A9FEDB90AE6
:10504000FFF77EFFDFF8A803D0ED000A70EE800ABC
:10505000C4ED010ADFF89C03D0ED000A30EE800AAF
:1050600085ED010A3088B0F5C87F02DB0320FFF729
:105070007BFF70BDF8B504000E001700DFF8645325
:105080002888012809D1DFF8700331680160DFF852
:105090006C0339680160FFF76FFF288800EE100A83
:1050A000B8EE400ADFED670A80EE201A9FED9C0AF9
:1050B000B4EE401AF1EE10FA01DBB7EE001ADFEDA4
:1050C000A60A9FED9E0AFFF73BFFFBEE0E0A96ED48
:1050D000001A31EE201A86ED001A97ED001A71EED3
:1050E000200AC7ED000AC248D0ED000A70EE800A1F
:1050F000C6ED010ABF48D0ED000A30EE800A87ED08
:10510000010A0020298851290DDB94ED000AB0EE38
:10511000C00ADFED920AB4EE600AF1EE10FA01D592
:10512000012000E00020C0B2002802D12888C82851
:1051300008DBFFF73BFFFEF7B5FFFEF7C3FF0420D8
:10514000FFF712FFF1BD0000F8B505000E001700D3
:10515000A44C208800EE100AB8EE400AF3EE0E0AC6
:1051600080EE201A9FED6E0AB4EE401AF1EE10FAAE
:1051700001DBB7EE001ADFED970A9FED770AFFF724
:10518000DFFE9D48006830609C480068386086ED0E
:10519000010A87ED010A95ED000ADFED700AB4EE11
:1051A000600AF1EE10FA02D42088972802DB05206D
:1051B000FFF7DAFEF1BD0000F8B505000E0017009C
:1051C000884C20881E280FDA208800EE100AB8EEDE
:1051D000400AF3EE0E0A80EE201ADFED7F0A9FED03
:1051E0007D0AFFF7ADFE01E09FED7B0A8248006873
:1051F000306082480068386086ED010A87ED010A58
:10520000D5ED000A9FED751AF4EE410AF1EE10FAA1
:1052100004DB20882E2801DB012000E00020C0B242
:10522000002804D1208840F2F511884207DB744839
:1052300080ED000AFEF746FF0620FFF795FEF1BD60
:1052400000401C46000048420000964470B50C0027
:105250001500644E30881F2814DA308800EE100ADA
:10526000B8EE400AF3EE0E0A80EE201A644890ED84
:10527000000ADFED320A70EE200A90ED000AFFF717
:105280005FFE29E03088E72807DA5D4890ED000AE4
:10529000DFED2A0A30EE200A1EE03088E63880B2C0
:1052A00000EE100AB8EE400ADFED170A80EE201A71
:1052B0009FED1B0AB4EE401AF1EE10FA01DBB7EED7
:1052C000001ADFED180A4E4890ED000ADFED1B1AB8
:1052D00030EE210AFFF734FE84ED010A85ED010A64
:1052E000308840F27621884202DB0020FFF73CFE46
:1052F00070BD00203A49087000203A4908804048B3
:1053000000210160704700000000C84380B53448A8
:105310000078002802D10120FFF726FE01BD000021
:105320000100803F000000002D480078002801D0D7
:10533000012000E00020C0B2704700000000C84219
:1053400027480178042902D00078052801D10120DE
:1053500000E00020C0B270470000C8C39A99993E8F
:1053600010B513001F4A1488641C14801C4A12785C
:10537000012A09D02CD3032A12D00BD3052A1BD023
:1053800014D3062A1ED023E00A0001001800FFF7FC
:1053900024FE1DE00A0001001800FFF72BFE17E0B5
:1053A0000A0001001800FFF765FE11E00A00010085
:1053B0001800FFF7C9FE0BE00A0001001800FFF714
:1053C000FBFE05E00A0001001800FFF73FFFFFE7C2
:1053D00010BD00000000A042000070C29B99993FE0
:1053E000F72A0328E02A0328002503284825032854
:1053F000F8290328FC290328F0290328F429032885
:10540000EC29032800204549087045480021016027
:105410004448002101607047F8B52DED028B04006F
:1054200017001D003D4E307800281FD194ED070A6B
:10543000D4ED080A30EE200AF0EE000AC0EE200A91
:105440009FED330A0800FFF74BFC364880ED000A59
:1054500094ED040ADFED2F0A70EE200A9FED2C0A6E
:105460003800FFF73DFC2E4880ED000A3078401CE4
:105470000A2190FBF1F201FB12003070D4ED020A18
:10548000274890ED000A2800FFF72AFC2548D0EDB8
:10549000000A30EE208A94ED040ADFED1E0A30EE99
:1054A000200A00F0DDFADFED1C0A20EE200A38EEBB
:1054B000000AB5EE400AF1EE10FA06DDF6EE000A3B
:1054C00070EE200AFDEEE00A05E0FEEE000A70EE46
:1054D000200AFDEEE00A0898C0ED000AF1EE400A4D
:1054E000F5EE400AF1EE10FA06DDF6EE000A30EEB7
:1054F000C00ABDEEC00A05E0FEEE000A30EEC00AAA
:10550000BDEEC00A80ED010ABDEC028BF1BD0000CA
:1055100000000000A692ABBD00004842FA2A032812
:10552000242A0328282A032838B52DED108B0400DF
:105530000D00F3EE08BA9FED6E8A9FED6EFA94EDC2
:10554000000A00F08DFAF0EE408A94ED000A00F0B7
:1055500085FAB0EE409A94ED010A00F081FAF0EE7F
:10556000409A94ED010A00F079FAB0EE40AA28EED4
:10557000090A70EE6BAA28EE28BA48EE0ABA28EE9D
:1055800029CA7BEEEACA3CEE4BDA2CEEAC0A0DEEF1
:105590000D0A00F03BFCF0EE40DAB0EE000A2FEE10
:1055A000000AB4EE6D0AF1EE10FA06D49FED52EA4D
:1055B000F4EE4EDAF1EE10FA02D55FF0FF305EE065
:1055C000F6EE00EA2DEEAE0A6FEE0F0A40EE400A4C
:1055D0009FED4A0A00F02AFC00F018FC7AEEAB0AB4
:1055E00020EEAE1A7BEE0C0A60EEAE1ACDEE2D0A5E
:1055F000F1EE600A8CEEAD2A00EE201A40EE021A9F
:1056000031EE6A0A71EECB0A31EE6B1A71EECC1AEA
:1056100029EE202A08EEC02A22EE082A6AEE212A64
:1056200049EEC12A62EE882A20EE213A00EEC13A04
:10563000F0EEC33AF4EE4E3AF1EE10FA02D55FF016
:10564000FF301CE0F7EE003A83EE833A63EE211A56
:1056500061EE821AC5ED001A63EE200A60EEE20ADE
:10566000C5ED010A63EE010A60EEC20AC5ED020A49
:1056700023EE000A20EE220A85ED030A0020BDEC8D
:10568000108B32BD90ED001AD0ED031A21EE211AD5
:10569000D0ED011A90ED022A01EEC21AF0EEC11A05
:1056A0009FED172AF4EE421AF1EE10FA02D55FF0E0
:1056B000FF301CE0F7EE001A81EE811AD0ED031ADC
:1056C00061EE801A90ED012A42EE601A61EE811AB5
:1056D000C1ED001AD0ED001A61EEA00AD0ED021A59
:1056E00041EEC00A20EE810A82ED000A00207047D8
:1056F0000000AA4200000743CDCCCC3D00000000D2
:1057000077CC2B322DE9F04104000D0010001E0073
:1057100095ED070AD5ED080A30EE200AF0EE000AF2
:1057200080EE200ADFED4E0AC0EE200A94ED020A58
:10573000FFF7D6FADFED4B0AB4EE600AF1EE10FA8D
:1057400002D5B0EE600A09E0DFED470AB4EE600A68
:10575000F1EE10FA02DB9FED450AFFE7DDF81C8051
:10576000069F87ED000AB1EE400A88ED000A95ED2C
:10577000060ADFED3F0AC0EE200A94ED030A30006E
:10578000FFF7AEFAFFEE000AB4EE600AF1EE10FA8F
:1057900002D5B0EE600A09E0DFED360AB4EE600A29
:1057A000F1EE10FA02DBB7EE000AFFE7DFED320A96
:1057B00060EE200AC7ED010ADFED300A20EE200A74
:1057C00088ED010A94ED040AF3EE0E0A20EE200A99
:1057D000D7ED010A70EE800AC7ED010AD8ED010A83
:1057E00030EE800A88ED010A284895ED040AB0EEF3
:1057F000C00AD0ED000A30EE600ADFED210A90ED1C
:10580000001A00EE201A80ED001ADFED180A90ED64
:10581000000A20EE200A9FED1B1A20EE010AB5EEC9
:10582000400AF1EE10FA02D59FED170A09E09FED4C
:105830000E1AB4EE410AF1EE10FA02DBB0EE600A85
:10584000FFE7D7ED010A70EE800AC7ED010AD8ED37
:10585000010A30EE800A88ED010ABDE8F08100BF40
:10586000000070420000A0C20100A0420000A0425F
:10587000CDCC4C3F0100803F00003443000034C3D6
:105880000AD7A33B9A99993F00000000082A0328F1
:10589000DFED620A60EE200A10EE902A22F000414D
:1058A00001EE101ADFED5E1AB4EE611AF1EE10FA95
:1058B00025D54FF07C5102F000420A4301EE102A38
:1058C00071EE200AFDEEE00A10EE901A00296AD06F
:1058D000FAEEC90A9FED531A00EE810ADFED521A63
:1058E00000EEA10A9FED512A00EE820ADFED502A58
:1058F00000EEA20A9FED4F1A00EE810A53E010EE6F
:10590000101A4B001B1613F1010F0AD1490008169B
:1059100010F1010F02D1090240F07F809FED460A8D
:105920007047490004D1002877D0B7EE000A7047CD
:105930004FF07C5102F000420A4301EE102A71EE52
:10594000200A10EE902A51000DD0090EC1F19601E7
:105950001829A8BF02F0004203DA0029C4BFCA40D8
:105960008A4000EE902A10EE901A490017D09FED61
:10597000331A20EE811ADFED2B1A01EE210A9FED7A
:105980002A2A01EE020ADFED292A01EE220A9FED02
:10599000283A01EE030ADFED271A01EE210AFDEE97
:1059A000E00A10EE901A01F00301081810EE101A28
:1059B00021F0004100EE901A9FED211AF4EE410A09
:1059C000F1EE10FA04D5C10723D5B7EE000A20E0A6
:1059D000C10760EE000A0ED59FED1A0A9FED1A1A54
:1059E00000EE801ADFED191A41EE201AB7EE000A18
:1059F00001EEA00A0DE09FED162ADFED161A40EE2B
:105A0000821ADFED152A20EE201A41EEA02A01EEBF
:105A1000220A800748BFB1EE400A704783F9223F4F
:105A20000000004F0000C9C600A0FDC00020A2BABF
:105A3000000034B30030C2AEFFFFFF7F00008038AB
:105A4000000080399349B2BA36A02A3DDFFFFFBE7D
:105A50006E8C4CB94283083CA1AA2ABE012017E7EC
:105A6000002015E7C9B2002905D0022909D005D3C5
:105A7000032909D00BE090ED090A0AE090ED0A0A2B
:105A800007E090ED0B0A04E090ED0C0A01E09FEDB9
:105A9000500A7047C9B2002905D0022907D004D3A3
:105AA000032906D007E0826005E0C26003E00261DE
:105AB00001E04261FFE77047002181600021C16081
:105AC0000021016100214161704780B59F4B0A00B0
:105AD000D2B21A4492F91020002A00D10122B3F95F
